:10000000587F0320F1770000AF9D0300DD770000EB
:10001000DD770000DD770000DD770000DD77000090
:10002000000000000000000000000000FD7900005A
:10003000DD7700000000000081790000DD7700001E
:10004000157C0000157C0000157C0000157C00006C
:10005000157C0000157C0000157C0000157C00005C
:10006000157C0000157C0000157C0000157C00004C
:10007000157C0000157C0000157C0000157C00003C
:10008000157C0000157C0000157C0000157C00002C
:10009000157C0000157C0000157C0000157C00001C
:1000A000157C0000157C0000157C0000157C00000C
:1000B000157C0000157C0000157C0000157C0000FC
:1000C000157C0000157C0000157C0000157C0000EC
:1000D000157C0000157C0000157C0000157C0000DC
:1000E000157C0000157C0000157C0000157C0000CC
:1000F000157C0000157C0000157C0000157C0000BC
:10010000157C0000157C0000157C0000157C0000AB
:10011000157C0000157C0000157C0000157C00009B
:10012000157C0000157C0000157C0000157C00008B
:10013000157C0000157C0000157C0000157C00007B
:10014000157C0000157C0000157C0000157C00006B
:04015000157C00001A
:1001580081F0004102E000BF83F0004330B54FEA70
:1001680041044FEA430594EA050F08BF90EA020FDD
:100178001FBF54EA000C55EA020C7FEA645C7FEA70
:10018800655C00F0E2804FEA5454D4EB5555B8BF93
:100198006D420CDD2C4480EA020281EA030382EA04
:1001A800000083EA010180EA020281EA0303362D96
:1001B80088BF30BD11F0004F4FEA01314FF4801C69
:1001C8004CEA113102D0404261EB410113F0004F7B
:1001D8004FEA03334CEA133302D0524263EB430332
:1001E80094EA050F00F0A780A4F10104D5F1200ED0
:1001F8000DDB02FA0EFC22FA05F2801841F100012B
:1002080003FA0EF2801843FA05F359410EE0A5F1FE
:1002180020050EF1200E012A03FA0EFC28BF4CF02F
:10022800020C43FA05F3C01851EBE37101F00045E5
:1002380007D54FF0000EDCF1000C7EEB00006EEBF2
:100248000101B1F5801F1BD3B1F5001F0CD349087C
:100258005FEA30004FEA3C0C04F101044FEA4452D3
:1002680012F5800F80F09A80BCF1004F08BF5FEA5A
:10027800500C50F1000041EB045141EA050130BD3A
:100288005FEA4C0C404141EB0101013C28BFB1F54C
:10029800801FE9D291F0000F04BF01460020B1FA97
:1002A80081F308BF2033A3F10B03B3F120020CDA6A
:1002B8000C3208DD02F1140CC2F10C0201FA0CF048
:1002C80021FA02F10CE002F11402D8BFC2F1200CAD
:1002D80001FA02F120FA0CFCDCBF41EA0C01904063
:1002E800E41AA2BF01EB0451294330BD6FEA0404AC
:1002F8001F3C1CDA0C340EDC04F11404C4F1200297
:1003080020FA04F001FA02F340EA030021FA04F3A8
:1003180045EA030130BDC4F10C04C4F1200220FAFF
:1003280002F001FA04F340EA0300294630BD21FA3D
:1003380004F0294630BD94F0000F83F4801306BF03
:1003480081F480110134013D4EE77FEA645C18BFF7
:100358007FEA655C29D094EA050F08BF90EA020F8E
:1003680005D054EA000C04BF1946104630BD91EA86
:10037800030F1EBF0021002030BD5FEA545C05D189
:100388004000494128BF41F0004130BD14F58004C8
:100398003CBF01F5801130BD01F0004545F0FE413C
:1003A80041F470014FF0000030BD7FEA645C1ABF71
:1003B800194610467FEA655C1CBF0B46024650EAA8
:1003C800013406BF52EA033591EA030F41F40021D4
:1003D80030BD00BF90F0000F04BF0021704730B55A
:1003E8004FF4806404F132044FF000054FF000012F
:1003F80050E700BF90F0000F04BF0021704730B5F0
:100408004FF4806404F1320410F0004548BF4042C4
:100418004FF000013EE700BF42004FEAE2014FEA19
:1004280031014FEA02701FBF12F07F4393F07F4FF4
:1004380081F06051704732F07F4208BF704793F0F7
:100448007F4F04BF41F40021704730B54FF460740A
:1004580001F0004521F000411CE700BF50EA01020D
:1004680008BF704730B54FF000050AE050EA0102B6
:1004780008BF704730B511F0004502D5404261EB26
:1004880041014FF4806404F132045FEA915C3FF467
:10049800D8AE4FF003025FEADC0C18BF03325FEA04
:1004A800DC0C18BF033202EBDC02C2F1200300FAB5
:1004B80003FC20FA02F001FA03FE40EA0E0021FADA
:1004C80002F11444BDE600BF7BB972B90029BEBF72
:1004D80000204FF0004106E008BF00281CBF6FF065
:1004E80000414FF0FF3000F057B8ADF1080C6DE94E
:1004F80004CE002909DB002B1ADB00F069F8DDF8CF
:1005080004E0DDE9022304B07047404261EB410199
:10051800002B1BDB00F05CF8DDF804E0DDE90223CA
:1005280004B0404261EB4101524263EB4303704720
:10053800524263EB430300F04BF8DDF804E0DDE9D9
:10054800022304B0404261EB41017047524263EB21
:10055800430300F03DF8DDF804E0DDE9022304B0D0
:10056800524263EB4303704753B94AB9002908BFA5
:1005780000281CBF4FF0FF314FF0FF3000F00CB8DF
:10058800ADF1080C6DE904CE00F022F8DDF804E0C6
:10059800DDE9022304B07047704700BF10F8012B53
:1005A80011F8013B012A28BF9A42F7D0D01A7047A8
:1005B800034611F8012B03F8012B002AF9D17047E3
:1005C800034613F8012B002AFBD1181A013870478B
:1005D8002DE9F04786468C460846089E154674461F
:1005E8001946002B40F0C1808542B2FA82F245D903
:1005F8004AB1C2F1200300FA02FC954094402EFA59
:1006080003F343EA0C0C4FEA154EA8B2230CBCFBCB
:10061800FEF80EFB18CC08FB00F943EA0C43994599
:1006280028D9EB1808F1FF3704D2994502D9A8F167
:1006380002072B44A3EB0903A4B2B3FBFEFC0EFB99
:100648001C330CFB00F044EA0344A04214D92C19D3
:100658000CF1FF3304D2A04202D9ACF102032C44BE
:10066800241A43EA07401EB1D44000233460736063
:10067800BDE8F0874746DDE76346F1E792BB431BD9
:1006880001214FEA154EAFB2200CB3FBFEFC0EFB66
:100698001C330CFB07F840EA0343984561D9EB1873
:1006A8000CF1FF3004D2984502D9ACF102002B447A
:1006B800A3EB0803A4B2B3FBFEFC0EFB1C330CFB3C
:1006C80007F744EA0344A7424DD92C190CF1FF332C
:1006D80004D2A74202D9ACF102032C44E41B43EA3A
:1006E8000040C0E7C2F120039540944020FA03F18E
:1006F8002EFA03F34FEA154E9040AFB20343B1FB15
:10070800FEFC0EFB1C10190C0CFB07F841EA00411B
:10071800884522D969180CF1FF3004D2884502D9DE
:10072800ACF102002944A1EB08019BB2B1FBFEFC2D
:100738000EFB1C110CFB07F743EA01439F420ED93D
:10074800EB180CF1FF3104D29F4202D9ACF102013F
:100758002B44DB1B41EA004193E76046E3E761462F
:10076800F7E76046A4E76346B8E7834206D916B9B7
:10077800002108467CE7C6E900E0F9E7B3FA83F709
:100788008FB9834201D3724508D8BEEB020460EBEF
:10079800030301209C461EB9002169E73846FAE7A1
:1007A800C6E9004CF8E7C7F1200CBB400EFA07F584
:1007B80022FA0CF42EFA0CF1BA401C4320FA0CF37E
:1007C800B8404FEA144901431FFA84FEB3FBF9F815
:1007D80009FB18300B0C08FB0EFA43EA00439A4554
:1007E80040D9E31808F1FF3004D29A4502D9A8F19C
:1007F80002002344A3EB0A0389B2B3FBF9F809FB0F
:10080800183308FB0EFE41EA03418E452CD96118C6
:1008180008F1FF3304D28E4502D9A8F1020321441E
:1008280043EA0040A1EB0E01A0FB02984145CE46E9
:10083800434602D306D14D4504D20138B9EB020E26
:1008480068EB0403002EA7D0B5EB0E0261EB0301A1
:1008580001FA0CFC22FA07F3F9404CEA0303C6E953
:10086800003199E74046C5E74346D9E70000000054
:100878002DE9F04706460F46904688B046F07BF8CB
:100888004FF47A73A0FB034503FB0155E40B012FDA
:1008980044EA45444FEAD53507D122462B4630462F
:1008A800274937F062FC002012E0D8F80470254888
:1008B8003946FFF773FE70B139462348FFF76EFEDD
:1008C80048B130463A46214937F06BFC6FF00400D6
:1008D80008B0BDE8F087204617A3D3E900232946CE
:1008E800FFF7F2FD05460C4610461946184A002344
:1008F800FFF7EAFD80460F46104619464EF660227D
:100908000023FFF7E1FD82468946104619464FF459
:100918007A720023FFF7D8FDCDE902A9CDE90623B5
:10092800CDE904012A4623463046CDE90087094926
:1009380037F01BFCB7E700BF005C2605000000008D
:1009480068C1040079C104007CC1040085C10400A9
:1009580080EE36009DC10400F0B58BB0002140F652
:10096800034009AA0DF00AF80446002840F0B780B1
:100978000998C3681B7853B95F4BD3E8AF2F02F0CF
:100988000902D3E8EF1FC3E8E42F002CF9D108F0DF
:10099800A3F8002141F2030009AA0CF0EFFF044676
:1009A800002840F09C80099A544DD16805F17803DD
:1009B800D1F80100D1F8051003C3104608F08CF8EF
:1009C800214641F2010009AA0CF0D8FF044600288C
:1009D80040F085800998C3685A7885F870205A884D
:1009E800A5F872201A7985F87120B3F80720A5F8C0
:1009F8007420B3F80530A5F8763008F06DF8214674
:100A080041F2020009AA0CF0B9FF0446002866D199
:100A1800099F05F18006FA68531C4132344618686C
:100A28005968083303C493422646F7D1384608F07C
:100A380053F80EF07DFA0446002850D195F88A3014
:100A480013F0200317D12E490A6812F0060F06D0BA
:100A58002C4A0093CDE9013202223BF036F895F892
:100A68007C3013F0400351D125490A68520739D127
:100A78006FF0120433E0072140F633400CF078FAA7
:100A88000646002800F0518107210C3039F03BFC64
:100A9800042343700623C0F8024084710470047173
:100AA8002246C370314640F633400CF067FF0446D7
:100AB800A8B9012140F631400CF05AFA0646002840
:100AC80000F0338101210C3039F02CFC22463146EC
:100AD80040F631400CF052FF04460028BFD02046B3
:100AE8000BB0F0BD084A1846CDE901320093012247
:100AF8003AF0EBFFBCE700BFF421002020210020E2
:100B0800143000200F6D05003D6D0500002142F2F4
:100B1800030009AA0CF032FF04460028DFD1099B24
:100B2800AF4EDA68D2F80100D2F8051003C61846AD
:100B380007F0D2FF214642F2020009AA0CF01EFF7C
:100B480004460028CBD1099CE368B3F8012091B290
:100B580049B1D97839B1A5F80421DA78114606F1F6
:100B6800280045F044FC204607F0B6FF1F2395F8FF
:100B78007C60A5F8203116F0200618D1022140F635
:100B88006D400CF0F5F90446002800F0CE800221F3
:100B98000C3039F0B8FB0123214603704670324609
:100BA80040F66D400CF0EAFE0446002897D195F80F
:100BB8009C301F0712D5002142F21C0009AA0CF034
:100BC800DDFE044600288AD10998C368D3F80120BD
:100BD800D3F80530C5E9382307F07EFF95F8D830FB
:100BE8009E0625D50DF1220108A80CF0C3FF044686
:100BF80000287FF474AF042142F224000CF0B8F905
:100C08000646002800F0918004210C3039F07BFB67
:100C1800BDF8203022460380BDF82230314643809B
:100C280042F224000CF0AAFE044600287FF457AFD5
:100C380095F8D8305C0610D5002142F22A0009AA9E
:100C48000CF09CFE044600287FF449AF0998C3685D
:100C58005B7885F8223107F03FFF082142F2010056
:100C68000CF086F9044600285FD008210C3039F0D2
:100C78004AFB95F8D81040F2022311F0400F08BF44
:100C88000323024688074CBF43F02C0043F00C00B6
:100C98008B0695F8D93048BF40F0400013F0090F93
:100CA80095F8A23018BF40F4006003F00603CF07A0
:100CB80048BF40F01000062B08BF40F4C070002168
:100CC8003AF01AFF2146002242F201000CF056FECB
:100CD800044600287FF403AF95F87C20B5F804316A
:100CE800960625D4D3B9194641F2050009AA0CF095
:100CF80045FE044600287FF4F2AEB5F80431099C9D
:100D08004BB9E368B3F80120A5F804219A8835485F
:100D1800114645F06CFB204607F0DEFE082140F640
:100D280001400CF025F9044698B96FF06804D6E63E
:100D3800002BF3D12C490A68540702D16FF0040440
:100D4800CDE62A4A0093CDE9013201223AF0BDFEF0
:100D5800F4E708210C3039F0D6FA95F8D830024675
:100D6800D90747BF1CA1D1E900014FF00051204825
:100D78003AF0C2FE2146002240F601400CF0FEFD8A
:100D8800044600287FF4ABAE014609AA4FF601409D
:100D98000CF0F4FD144E78B3336813F0060F09D045
:100DA800144B0222CDE901433146234600941846EC
:100DB8003AF08BFE0DF014FD044600287FF48FAE48
:100DC8000FF0D2FA044600287FF489AE0CF0D4FA6A
:100DD80085E600BFAFF30080908800020080002005
:100DE800F82100202822002014300020616D050021
:100DF80010880002846D05003368099F03F007031B
:100E0800022BFC6851D9B4F801304849032B96BF2E
:100E1800474A484A52F82320CDE90323464B032288
:100E2800029300231846CDE900333AF04EFE3368AA
:100E380003F00703022B38D9B4F80130B4F80320C3
:100E4800022B4AD1052A48D83C4B53F82230CDE929
:100E580003323B4B03220293002334491846CDE961
:100E680000333AF032FE336803F00703022B1CD933
:100E7800D4F8091063790791B4F80710032B069189
:100E8800A17998BF2F4ACDE9043198BF52F82320A1
:100E98002D4B88BF274A029300230392184603224A
:100EA800CDE9003321493AF010FE384607F014FE28
:100EB80000214FF6024009AA0CF060FD044670B10B
:100EC800336813F0060F3FF475AF204B02930023ED
:100ED800CDE900330222154969E7164BB7E70998AF
:100EE800C368B3F80130A5F8C13007F0F5FD95F8EF
:100EF800C1305B077FF55EAF21464FF6034009AA74
:100F08000CF03CFD50B1336813F0060F3FF452AFBC
:100F18000F4B0094CDE901432346DBE70998C368EA
:100F28005B7885F8C03007F0D7FD43E71430002020
:100F3800D48F0400976A0500A86D0500BC8F0400D3
:100F4800C16D0500AC8F0400D96D0500066E050063
:100F58002F6E05000000000070B514460646CD1738
:100F6800A1FB0201002304FB05110A22FFF7ACFADA
:100F78000FA3D3E900230C4D80FB054520462946E5
:100F8800FFF7A2FA06A3D3E90023306029462046DA
:100F9800FFF79AFA0023054AFFF796FA726070BDC8
:100FA80080A8120100000000D8EF2F0040420F0077
:100FB80000209BF35E10000003292DE9FF41054640
:100FC8000C4613D0072900F083806D490B6813F095
:100FD800060F08D06B4B0222029300231846CDE976
:100FE800003341F06FF86FF085004CE0002A53D0D1
:100FF800072AF8D158681A68634BC117C2FB030166
:10100800012871F100035CDBD5F804805F4B98F888
:101018001A60C0184FEAD61655A3D3E9002341F148
:10102800000176B2FFF750FA002E14BF0423022302
:10103800984298F91A7029D0002E14BF2023102343
:10104800834225D0002E14BF08230423984221D0C0
:10105800002E14BF10230823984232D1E6B231463D
:1010680040462D6937F0ADFF002824DB3D22484B70
:10107800002F33F81430AE77AABFA3FB02325343D4
:101088005B08EB60002004B0BDE8F0810024E5E7D0
:101098000124E3E70224E1E719883E4B14461F4682
:1010A80033F8022B914209D86868E1B22E6938F00A
:1010B800F5F8002808DA6FF00400E4E701340B2C97
:1010C800EED16FF01500DEE737F81430B383D9E7B7
:1010D800002A3AD0072A86D1B4245A6819682A4BBC
:1010E800D017C1FB0320A2FB0431012A04FB001125
:1010F80070F100001DDB2848181841F100011EA3FB
:10110800D3E900230024FFF7DFF9244B33F8022B3F
:10111800904216D16868E1B22E6937F069FF00285D
:10112800C9DB41F217121E4B33F814305343B36135
:10113800A8E71C48181861F100010FA3D3E90023A0
:10114800E0E70134072CE1D1BBE71988114B33F8EC
:10115800020B814206D86868D1B238F00DF9002830
:1011680090DAA8E701320B2AF1D1AAE7AFF30080A1
:101178003AA3950000000000D8EF2F0000000000FF
:10118800E02F0020AEF4050040420F009DD14A0038
:1011980090AC040098AC0400ECF7170082AC040093
:1011A80074AC04001408E8FF2DE9F74F032914462E
:1011B800066905D90B1F032B53D96FF0850023E06F
:1011C8000229F7683A4D22D0032923D0012914BFF8
:1011D800B6F90460B6F90660A6FB076732A3D3E93F
:1011E800002386FB056530462946FFF76DF9002385
:1011F800304A206029463046FFF766F900232D4A19
:10120800FFF762F96260002003B0BDE8F08FB6F91D
:101218000860E1E74FF0000B02F11803DFF894A033
:101228000236019336F9028FA8FB07831EA3D3E980
:10123800002388FB059848464146FFF745F9524682
:1012480044F8080B5B4648464146FFF73DF95246CD
:101258005B46FFF739F9019B44F8042C9C42E1D125
:10126800D1E70629B5690CD007290ED02A460529E9
:1012780014BFB6F91010B6F912102046FFF76CFE2D
:10128800C1E72A46B6F91410F7E70E3602F1180737
:1012980020462A4636F9021F0834FFF75DFEA742AA
:1012A800F6D1B0E7AFF300800010A5D4E800000045
:1012B8003AA3950040420F002DE9F04F3A4B85B014
:1012C800D3F8042392070BD5D3F8042142B10022A6
:1012D800C3F80421354AD3F8043113680133136085
:1012E800334D0024A8464FF480362F4FD7F80433E7
:1012F80006FA04F919EA030F2CD00123A340DB43B3
:101308002C49D1E8EF2F02EA0300C1E8EC0FBCF149
:10131800000FF6D122FA04F3DB0703D4264B53F867
:101328002430BBB1204641F0B0F824F0CFFBEFF3F6
:101338001183202282F31288BFF36F8F08EB041CFD
:10134800DCE902AB504571EB0B010AD283F311883B
:10135800BFF36F8F103514B105B0BDE8F08F0124CD
:10136800C4E70020D5E900129FED0D7B28600E48E8
:1013780003938CED027B0292C0F84893204641F01B
:1013880084F8039B83F31188BFF36F8F0029E1D0A2
:10139800029A5B46009252468847DBE7AFF300802B
:1013A800FFFFFFFFFFFFFFFF00500150481F012014
:1013B800185500203C1F0120405101504FF40031C6
:1013C80008B5074835F091FA014630B9044835F0B8
:1013D800A1FA003818BF012008BD0120FCE700BFB2
:1013E8007885040030B58BB00546FFF7E7FF044663
:1013F80088B127490B6813F0060F09D0254B0390D5
:101408000293002302221846CDE9003335F096FAFC
:1014180020460BB030BD01231F4AD3601F4ACDE9D7
:10142800052304AB042207930A23CDE908234FF0D0
:10143800FF324FF0FF331A482FF074FD194805A901
:1014480083685B689847044615482FF0E3FD3CB174
:101458000F490B6813F0060FDAD0134B0394CFE74C
:10146800BDF812309FED117A07EE903AF8EEE77A60
:1014780067EE877A9FED0E7A67EE877A9FED0D7A91
:1014880067EE877AFCEEE77A17EE903A2B80BFE793
:10149800EC2F00208EB0040000E0005068850400A6
:1014A8007C32002034750400B1B004006666E63F63
:1014B8000000803A00803B452DE9FF410D46184960
:1014C8001F460B68044603F00703022B164608D98B
:1014D800144B0322029300231846CDE9003335F05C
:1014E80054FADFF84880D8F8003003930E4B029383
:1014F80000231A4619461846CDE9003335F045FA57
:101508000823CDE90183BDF82830324600932946E7
:101518003B4620463BF09AFE04B0BDE8F08100BF90
:101528003C300020D4B00400F4B00400A05E0020D9
:101538001FB50B461349012B0A6802F007020DD1AB
:10154800022A08D9104B0293002303221846CDE93A
:10155800003335F01AFA05B05DF804FB23B9022A06
:10156800F9D90A4A0292F0E7002AF4D00393084B0B
:101578000122029300231846CDE9003335F005FA1D
:10158800E9E700BF3C30002005B1040029B10400A0
:1015980050B104001FB54368104A23F0FF0393427B
:1015A800044619D183685A1E534253410C4A13709A
:1015B80003930C4B029300231A4619461846CDE9AB
:1015C800003335F0E2F9002200232146064804B032
:1015D800BDE810402FF0F4BB04B010BD00011C00A2
:1015E800DF3A012066B10400A833002030B587B087
:1015F80004460D4618220021684645F0E2FB064BDA
:1016080069460293082320460195ADF80C3011F085
:1016180079F907B030BD00BFA05E00202DE9FF4179
:10162800984F99483B689949047801330A78984D4E
:101638003B6074B1002A40F0F58001222B600A70EB
:1016480040F21F520023934804B0BDE8F04130F047
:101658000FB8914E002A77D04FF0280C2A680C70EA
:101668009A1A0CFB02F2B2F5967F33606CD28B4863
:101678000268002A67D09A1A0CFB02F2B2F5167FAC
:1016880061D2046002244FF0280C2A68981A0CFBD7
:1016980000FE3068821A0CFB02F2B2F5967F80F0E9
:1016A80086807E4A1068002800F08180BEF5967F0B
:1016B8004CD900247A4B146021462246CDE90143D7
:1016C80020462346009435F060F90123754A76498F
:1016D8001370764A13600B6803F00703022B08D9CE
:1016E800734B0322CDE9014320462346009435F08D
:1016F8004CF901F051FE20B16E4B19681431FFF717
:1017080075FF012000F0C8FB322035F04DF90020AC
:1017180000F0C2FB322035F047F9012000F0BCFB95
:10172800322035F041F9002000F0B6FB322035F0C8
:101738003BF9012000F0B0FB322035F035F90020EC
:1017480000F0AAFB7CE7036000249CE70A78002AE3
:1017580040F09080002C3FF473AF0024564B224693
:101768002146029320462346CDE9004435F00DF981
:1017780002234C4A4C4913704C4A13600B6803F01F
:101788000703022B08D94D4B0322CDE90143234619
:101798000094184635F0F9F801F0FEFD00283FF4F2
:1017A8004FAF444B19681431FFF720FF48E7BEF5E7
:1017B800967FCBD9DFF8EC8098F80030042B2DD039
:1017C80000243F4B22462146029320462346CDE97A
:1017D800004435F0DAF804230522334988F800304C
:1017E800324B1A600B6803F00703022B08D9354BFC
:1017F8000322CDE9014320462346009435F0C5F87D
:1018080001F0CAFD20B12B4B19681431FFF7EEFE29
:101818000023224A3B602B603360136001222A4B6D
:101828001A700DE72A689B1A28225343B3F57A7F6A
:10183800FFF406AF1B4D2B78032B3FF401AF0024B8
:10184800224B22462146029320462346CDE90044F6
:1018580035F09BF80322154B13491A600B682A7060
:1018680003F00703022B97D9194B0094CDE90143E4
:1018780023468EE72A689B1A28225343B3F57A7FBA
:10188800D8D267E79C5E0020DF3A0120DD3A0120CC
:10189800985E0020C0200020945E0020905E00200A
:1018A8007AB10400DC3A01203C300020A05E002020
:1018B8008FB1040048230020A1B10400B6B1040090
:1018C800EDB10400FFB10400DE3A0120C8B1040004
:1018D800DDB104001FB5144844F097FB13490346D3
:1018E80070B90A68520706D0114A0090CDE9010282
:1018F800012235F04AF86FF0120005B05DF804FBDC
:101908000B6803F00703022B08D90A4B0322029342
:1019180000231846CDE9003335F037F8064844F07F
:1019280090FC0020E9E700BF247604003C3000204A
:101938000FB2040027B20400A83300201FB50C49D9
:101948000B6803F00703022B08D90A4B0322029302
:1019580000231846CDE9003335F017F840F21F523E
:101968000023054805B05DF804EB2FF04DBE00BF1D
:101978003C3000204EB20400C02000201FB50D48A6
:1019880044F043FB034638B100221921094805B049
:101998005DF804EB35F027B807490A68520706D006
:1019A800064A0090CDE90102012235F00DF805B094
:1019B8005DF804FBA47404006C30002072B20400CB
:1019C8007FB52A492A4844F002FE2A4E2A4D30465D
:1019D80044F01BFB034668B92A68520707D0274A18
:1019E8002946CDE901020090012234F0EDFF6FF0A5
:1019F80012041BE03269B1681368304623F00073A3
:101A080013600B684FF4C022192198472B680446CD
:101A180078B15B070AD01A4B039002930023012286
:101A280029461846CDE9003334F0CEFF204604B0ED
:101A380070BD03F00703022BF8D9124B0322CDE93E
:101A4800010329460346009034F0BEFF2B6803F0DB
:101A58000703022BEAD93368032203930A4B29466A
:101A6800CDE90143204623460094DDE785190000AF
:101A7800C0370020A47404006C30002099B2040020
:101A8800B5B20400D7B20400EDB2040070B5344E0C
:101A98000446336886B003F00703022B1AD90025E1
:101AA800304B0390029303222B4631462846CDE95A
:101AB800005534F089FF336803F00703022B09D976
:101AC800294B0322CDE9015331462B462846009580
:101AD80034F07AFF254844F098FA034660B9326832
:101AE800520707D0224A1E49CDE90102009001227F
:101AF80034F06AFF06B070BD41F288339C4205D9C4
:101B0800326812F0060F1DD141F28834194844F0AA
:101B18006CFD01221921154834F065FF4FF400458A
:101B280040F2E73000214FF47A720023E4FB05010C
:101B3800FEF71AFD02460B460E4806B0BDE8704097
:101B48002FF062BDCDE903430B4B02220293002321
:101B580003491846CDE9003334F036FFD4E700BF17
:101B68006C300020FCB2040015B30400A474040017
:101B780040B30400C03700205DB30400F0B585B061
:101B88001D4D0C212F69AE683B68284623F480530D
:101B98003B603368194A9847041E11DA18490B68E4
:101BA80058070AD00C230393164B029300230122F3
:101BB8001846CDE9003334F026FF204605B0F0BDC5
:101BC8003B68DA044FF4805154BFF3683369284600
:101BD80098470028044607DA09490B685B07ECD0E8
:101BE8000C230393084BE0E740F26760002130F0D4
:101BF800C9F80024E1E700BF8C7404000002020069
:101C0800DC2F0020AEB30400CAB304002DE9F04174
:101C18000C234FF0000892B00546CDE90438344E45
:101C2800304644F0F2F948B92846324936F0B9FA54
:101C38006FF01204204612B0BDE8F081B7683C6826
:101C48005CB142460321304604ABA047044638B194
:101C58002949284636F0A5FAECE76FF05704F7E76C
:101C6800D7F80080B8F1000F08D0024607213046A7
:101C780004ABC047044620B12049EAE76FF0570497
:101C8800FAE73C213046FB689847044608B11C49EE
:101C9800DFE7032130463B6906AA9847044608B1A6
:101CA8001849D6E7072130463B690CAA98470446ED
:101CB80008B11549CDE70B9B284603930A9B1349A6
:101CC8000293099B0193089B0093DDE9062336F0F4
:101CD8004CFA119B28460393109B0D4902930F9BC6
:101CE80001930E9B0093DDE90C2336F03EFAA1E741
:101CF8003C760400E0B30400F3B304001CB4040011
:101D080044B404005DB4040078B4040092B4040040
:101D1800B9B4040030B5524887B034F0C1FE514C14
:101D28000546B8B923685B0711D04D4834F0B8FEB2
:101D38001B23059004934C4B012203934B4B2146E4
:101D4800CDE9015328462B46009534F086FE4FF026
:101D5800FF3078E0464834F066FE00281ADA236837
:101D68005D0711D0424834F05EFE1C2304933E4BBD
:101D7800059003933D4B0122029300232146184608
:101D8800CDE9003334F069FE394807B0BDE830408A
:101D980034F049BE324834F083FE054640B9236822
:101DA8005807D4D02E4834F07BFE1D230590C1E798
:101DB800304834F038FE002816DA2368590711D065
:101DC8002C4834F030FE1E230493274B05900393D0
:101DD800264B01220293002321461846CDE9003301
:101DE80034F03BFE2348D0E71D4834F059FE054641
:101DF80040B923685A07AAD0194834F051FE1F2366
:101E0800059097E71C4834F00EFE0028236815DA81
:101E18005B0711D0184834F006FE20230493124BB8
:101E280005900393114B0122029300232146184683
:101E3800CDE9003334F011FE0F48A6E703F007039D
:101E4800022B02D8002007B030BD0C4B03220293AE
:101E5800002321461846CDE9003334F0FEFDF1E7B2
:101E6800A474040084300020F8B4040013B50400FE
:101E7800D0850400C8850400C085040025B5040089
:101E88000146014834F0F8BDD085040001460148F8
:101E980034F0F2BDC88504000146014834F0ECBDB9
:101EA800C085040038B5124B1B789BB1114A1378D2
:101EB80083F0010313706BB10120FFF7E7FF0E4BAE
:101EC8001D784DB10020FFF7DBFFBDE8384000204A
:101ED800FFF7E2BF0020F0E7084B01201C78002C38
:101EE800F1D0FFF7D9FF2846BDE83840FFF7C8BF53
:101EF800AC670120E13A0120E03A0120E23A0120F2
:101F08007FB500250B4C0C4E236803F00703022B0A
:101F180008D90023032221461846CDE90156009529
:101F280034F0C0FDFFF7BEFF4FF4FA7034F0C9FD7E
:101F3800EAE700BF9030002032B50400F0B5854DC7
:101F480085B02B6803F00703022B3DD90024824B90
:101F580003220293294623462046CDE9004434F063
:101F6800A1FD2B6803F00703022B2DD97B4B03221D
:101F780003937B4B2946CDE9014320462346009431
:101F880034F090FD2B6803F00703022B1CD9754B26
:101F980003220393744B2946CDE901432046234687
:101FA800009434F07FFD2B6803F00703022B0BD954
:101FB8006E4B032203936E4B2946CDE9014320461D
:101FC8002346009434F06EFD00246A4F23462246CF
:101FD80021462046CDE90044029734F063FD2B6882
:101FE80003F00703022B17D9634E2346032220462A
:101FF800CDE901465749009434F054FD2B6803F0AD
:102008000703022B08D9234603222046CDE90146BF
:102018005049009434F046FDFFF77CFE044648B171
:102028002B68590760D0554B039002930023CDE9E4
:10203800003354E00120FFF723FF4FF4167034F00B
:1020480040FD2046FFF71CFFC82034F03AFD012070
:10205800FFF71CFF4FF4167034F033FD2046FFF7EE
:1020680015FFC82034F02DFD0120FFF715FF4FF4B0
:10207800167034F026FD2046FFF70EFFC82034F016
:1020880020FD0120FFF7FCFE0120FFF7FFFE0120E5
:10209800FFF702FF4FF4167034F013FD2046FFF7E8
:1020A800EFFE2046FFF7F2FE2046FFF7F5FE344B21
:1020B800224621462046CDE900440293234634F0C7
:1020C800F1FCFFF707FC26462B68044678B15A074F
:1020D8000AD02C4B0390CDE90163334600960122C8
:1020E80018461C4934F0DEFC204605B0F0BD03F06C
:1020F8000703022B08D9244B0322CDE90103154914
:102108000346009034F0CEFC0024FFF717FC23466A
:10211800224621462046CDE90044029734F0C2FC0D
:102128002B6803F00703022B09D9184B0322CDE9CA
:102138000143204623460749009434F0B3FCFFF7D7
:102148003FFC2B68044628B35B07CDD0104B0390A7
:102158006BE700BF9030002046B5040052B504007C
:102168005FB5040069B504006FB5040085B50400C7
:102178009AB50400D3C30400B0B50400C6B5040082
:10218800E9B5040017B604003CB604004FB60400D5
:1021980067B6040003F00703022B17D9564B032236
:1021A800CDE9010355490346009034F07BFC2B68C8
:1021B80003F00703022B09D9514B0322CDE9014350
:1021C800204623464D49009434F06CFC4FF4FA70D5
:1021D800FFF75CFC2B6803F00703022B09D9494B76
:1021E80003220293002345491846CDE9003334F011
:1021F80059FC002602973346324631463046CDE92F
:10220800006634F04FFC2B6803F00703022B09D952
:102218003D4B0322CDE901633046334637490096EA
:1022280034F040FC0120FFF731FE0020FFF72EFEBE
:1022380001F008F80020FFF723FE0020FFF726FE34
:102248002B6803F00703022B19D900262F4B032212
:10225800029330463346CDE90066284934F022FC23
:102268002B6803F00703022B09D9294B0322CDE978
:102278000163304633462149009634F013FC32207E
:1022880034F01FFC0120FFF707FE2B6803F007035B
:10229800022B09D91F4B0322029300231749184622
:1022A800CDE9003334F0FEFB4FF47A7034F009FCCA
:1022B8002B6803F00703022B09D9174B032202935B
:1022C80000230E491846CDE9003334F0EBFB00201B
:1022D800FFF7E2FD2B6803F00703022B7FF604AF3C
:1022E8000E4B03220293002304491846CDE900331C
:1022F80034F0D8FBF8E600BF90B604009030002018
:10230800A7B60400E5B60400FEB6040019B7040039
:1023180039B704004DB704005FB7040074B7040070
:102328007FB5002405460E462222094901A8CDE9B9
:1023380001448DF80C4006F007FE3246294601A8F4
:1023480006F002FF01A806F0B5FE204604B070BDF5
:10235800E43A012010B5C6B034F0D2FB044620217F
:102368000F4B104A0090104833F084F8204644F090
:10237800D7FC0D4804A906F02FFF78B10B490B686C
:102388005B0708D00A4B0122029300231846CDE9C7
:10239800003334F0A6FB002046B010BD4598FBE79B
:1023A8009CB70400A2B70400043B0120BC30002005
:1023B800BFB7040030B5002489B00322264905A818
:1023C800CDE905448DF81C4006F0BEFD0028234DDC
:1023D80011DA2B6859070AD0214B0390CDE9014344
:1023E8000122234629462046009434F07AFB4FF018
:1023F800FF3009B030BD2246214605A806F0C8FEC8
:10240800002805DA2B685A07F1D0164B0390E5E748
:10241800042204A905A806F073FE002805DA2B6833
:102428005B07E4D0104B0390D8E705A806F042FEFE
:102438002B6803F00703022B0BD9049B0322039399
:102448000A4B2946CDE9014320462346009434F03F
:1024580048FB0498CDE700BFDDB70400BC3000207E
:10246800EBB7040017B804002DB8040043B8040003
:10247800014B1878704700BFE33A0120054803690B
:102488001B689B0583684FF4007154BFDB681B69A8
:10249800184700BF8C7404000548026981681368F6
:1024A80023F4007313600B684FF4003209211847B6
:1024B8008C7404002DE9F74F3E4B06461B78914675
:1024C80043B93D4935F06DFE4FF0FF34204603B067
:1024D800BDE8F08F022905D8384935F062FE6FF063
:1024E8001504F3E70022D9F80400114633F064F824
:1024F8008046D9F80800FEF763F84708384644F0E4
:1025080016FC0546E8B1002400F1FF3A4FEA470BF4
:10251800A3454FF000031BD1DFF8B090FFF7BCFFD5
:10252800FFF7ACFF0121484602F0FEFA041E23DA49
:1025380030462246224935F034FE284644F0F0FB66
:10254800C4E730461F4935F02CFE6FF00B04BDE799
:10255800D9F8082001A8115D22448DF8041052789A
:1025680000218DF8052010228DF8063033F024F86C
:1025780002340AF8010FCBE7D9F808302A465C681C
:1025880041463B464846A047041E0CDA22463046E0
:102598000D4935F006FE284644F0C2FB00210B48E1
:1025A80002F0C2FA92E743463A463046084935F007
:1025B800DCFDF0E7253B01205BB8040079B8040096
:1025C800ADB8040092B80400CAB80400C475040089
:1025D800E9B8040030B51E4B05461B7885B03BB9F9
:1025E8001C4935F0DEFD4FF0FF34204605B030BD04
:1025F800FFF752FFFFF742FF0121174802F094FA54
:10260800021E03DA2846154935F0CBFD12488368C7
:102618009B696BB103A99847041E0CDA2246284629
:102628000F4935F0BEFD00210B4802F07DFADCE7CA
:102638006FF08504F2E79DF80E30284600939DF868
:102648000C209DF80D30074935F08FFDEBE700BFF2
:10265800253B01205BB80400C4750400ADB8040034
:1026680003B9040021B904002DE9F0432C4B0746B7
:102678001B78144685B043B92A4935F092FD4FF0CE
:10268800FF34204605B0BDE8F083022905D8264965
:1026980035F087FD6FF01504F3E7002260681146F6
:1026A80032F08AFF002206461146A06832F084FF05
:1026B8000546FFF7F1FEFFF7E1FE01211B4802F096
:1026C80033FA041E1BDBDFF864909DB1102DA84679
:1026D80028BF4FF01008D9F808306A461C68314600
:1026E80043461248A047041E0FDA224638461049CE
:1026F80035F057FD00210D4802F016FAC1E72246D1
:1027080038460C4935F04DFDBBE7314643466A462D
:10271800384603F025FC4644A5EB0805D5E700BF7D
:10272800253B01205BB804003BB90400C4750400D4
:1027380056B90400ADB80400F0B51346294A054659
:10274800127885B03AB9284935F02BFD4FF0FF349F
:10275800204605B0F0BD012905D8244935F021FDF2
:102768006FF01504F4E700225868114632F024FF90
:102778001F4F0646FFF790FEFFF780FE01213846FF
:1027880002F0D2F9041E05DA22462846194935F026
:1027980008FDDDE73146384601AA3FF0EFF8041E90
:1027A80009DA22461449284635F0FBFC0021104876
:1027B80002F0BAF9CCE7029ABB689B683BB1314694
:1027C80038469847041E05DA22460C49EBE76FF0B5
:1027D8005704F9E733462846029A094935F0C5FCFB
:1027E800E4E700BF253B01205BB8040076B904008C
:1027F800C4750400ADB804008FB90400B3B904006F
:10280800CFB904001FB501220B46144993420A7040
:102818001349086800F007000DD1022808D9114BA8
:102828000293002303221846CDE9003334F0A7F9B8
:1028380005B05DF804FB23B90228F9D90A4A0292C7
:10284800F0E70028F4D00393084B029300231846BE
:10285800CDE9003334F093F9EAE700BF2C3B0120BF
:10286800E430002005B1040029B1040050B104008F
:102878002DE9F047944F98463B68814603F00703DB
:10288800022B154688B01BD90024904B03220293D3
:10289800394623462046CDE9004434F070F93B68B8
:1028A80003F00703022B0BD92B7803220393884BE1
:1028B8003946CDE9014320462346009434F05FF9B8
:1028C8000023B8F1060F8DF81C3012D0B8F1020FB2
:1028D8006AD03A6802F00702022A08D97D4A0093B2
:1028E800CDE9013203221846774934F048F9062524
:1028F80026E0D5F8024095F800A06E7824BA0025A5
:10290800754B2A46029329462B462846CDE904648E
:10291800CDE90055CDF80CA034F031F9002E48D19E
:102928003B6803F00703022B09D96C4B0096CDE9ED
:102938000163334603221846634934F020F903251E
:102948003B688DF81C5003F00703022B1CD90024A8
:10295800634B0322029320462346CDE900445A499B
:10296800CDF80C8034F00BF93B6803F00703022B19
:102978000AD95C4B0322CDE901432046234652493C
:102988000395009434F0FBF8574B07AA196848469A
:102998000123143134F0DEF84FF4FA7034F0FEF805
:1029A800404608B0BDE8F0871C4695F800A06E7850
:1029B800A5E74E4B3A68197802F00702B14207D2F0
:1029C800022ABCD94A4B0095CDE901532B46B1E701
:1029D800BAF1030F08D80AF1FF3ABAF1020F0FD87B
:1029E800DFE80AF064686A00BAF1320F69D0022A97
:1029F8007FF67DAF3F4B0095CDE901532B4671E73C
:102A08003D4B701EB14253F820301BD1022A09D920
:102A18003A4B0322029300232B491846CDE9003391
:102A280034F0ADF84FF4DC72B4FBF2F302FB13435D
:102A3800334AE31A1360334B1E70334B01221A706A
:102A480000257DE763B9022A08D9304A1846CDE93E
:102A580001321D490322009334F091F804256FE7F1
:102A68009C420DD9022A09D9294B0322029300233B
:102A780015491846CDE9003334F081F805255FE79C
:102A8800022A09D9234B0322029300230E49184630
:102A9800CDE9003334F073F84FF4DC72B4FBF2F391
:102AA80002FB1343E41A164B1C60C4E71A4B1E7052
:102AB8001A4BC3E71A4BC1E700221A4B1A601A4B8C
:102AC800BCE71A4B1D70BBE7E43000205DBA040078
:102AD8007BBA040089BA040099BA0400CDBA04008C
:102AE80066BB040082BB0400D0230020243B0120E5
:102AF800E2BA040054BB0400A85E0020F5BA040042
:102B0800B45E00201E2F00202B3B01200EBB0400CA
:102B18001DBB040039BB0400283B0120293B0120D0
:102B2800273B0120B05E00202A3B0120263B0120E4
:102B3800F0B5044687B00A2016461F460D4634F005
:102B48002DF80A4B29461A685B68049205930823F6
:102B5800029304AB0193BDF830303246009320460F
:102B68003B463AF073FB07B0F0BD00BFA85E0020FB
:102B7800F8B50446204E304643F047FA30B932687B
:102B88001E49204635F00DFB0020F8BD2CF04EFD07
:102B980020461B4A1B4935F0E8FA1B4D1A212A69C1
:102BA800AF681368284643F0806313603B68174A90
:102BB8009847021E01DA1649E3E7BF6957B14FF497
:102BC80080024FF000731A212846B847021E04DA23
:102BD8001049D6E76FF05702FAE720460E4935F05C
:102BE800C4FA0021304601F09FFF021E01DA0B49AA
:102BF800C7E734F066FB00BFEC7404008EBB04002A
:102C0800A6BB0400B2BB0400A474040011000100B8
:102C1800C8BB0400F0BB040022BC040052BC040082
:102C2800BFF34F8F0549064BCA6802F4E0621343AD
:102C3800CB60BFF34F8F00BFFDE700BF00ED00E0A2
:102C48000400FA050A88014B1A807047B838012039
:102C580070B5054601268EB02822002104A844F04C
:102C6800B0F8244B284604A91E700DF04DFA224CEA
:102C780010F0FF0322680ED052070AD003931F4BAF
:102C880032460293002321461846CDE9003333F03B
:102C9800C6FF0EB070BD02F00702022A08D9184A12
:102CA8002146CDE9013218460322009333F0B7FFDD
:102CB800284639F0AFFA134B18600C9B1A88124B50
:102CC8001A80236803F00703022B09D90F4B03224C
:102CD8000293002308491846CDE9003333F09FFFDB
:102CE80040F6CD4200230A482EF08EFC0122094B03
:102CF8001A70CEE72C3B0120EC30002082BC040087
:102D0800A9BC0400F05E0020B8380120BDBC040056
:102D1800F0200020E23A01201FB500230E4A0F4997
:102D280013700F4A044613700A6802F00702022A59
:102D380007D90C4A1846CDE901320093032233F033
:102D48006EFF20460CF048FD0023074A1360074A2F
:102D5800138004B010BD00BFE23A0120EC3000201F
:102D68002C3B0120D1BC0400F05E0020B8380120C3
:102D78001FB5104C4FF4A17221460F4834F088FC5F
:102D88000E4BB0F5A17F186010D00D490B685B079A
:102D980009D00C4B03900293002301221846CDE979
:102DA800003333F03CFF002004B010BD228801201E
:102DB8001A60F9E72A3E0120B85E0020D85E00209C
:102DC800EC300020E8BC040010B588B00DF11E00FE
:102DD800FEF708FB88BBBDF81E100DF11D0033F08F
:102DE800BCFD044648BB9DF81D3002460493BDF85F
:102DF8001E3001460393184B0090CDE901030346AA
:102E080033F00DFF9DF81D0001F01CFF68B1134958
:102E18000B685A0709D0124B0390CDE901430122F0
:102E280023462046009433F0FAFE4FF4F0220023A4
:102E38000C482EF01DFC08B010BD08490B685B0754
:102E4800F3D0094B0122029300231846CDE9003341
:102E580033F0E5FEE9E700BF1CBD0400EC300020BC
:102E68003EBD0400F02000205FBD04001FB50949E5
:102E78000B6803F00703022B08D9074B03220293C0
:102E880000231846CDE9003333F0C9FE012005B010
:102E98005DF804FBEC3000207CBD04001FB5094937
:102EA8000B6803F00703022B08D9074B0322029390
:102EB80000231846CDE9003333F0B1FE05B05DF8C4
:102EC80004FB00BFEC300020B5BD0400F0B50F4690
:102ED80017491C460B68064603F00703022B1546E4
:102EE80087B008D9134B0322029300231846CDE973
:102EF800003333F094FE012C07D12B78062B13D125
:102F0800A8220D4B1A77FFF78BFE022C0CD12B78D9
:102F1800012B09D1102239468DF8172030460DF1C2
:102F2800170233F067FEEBE7204607B0F0BD00BF9D
:102F3800EC300020D4BD0400005500501FB50B46EE
:102F48001349012B0A6802F007020DD1022A08D999
:102F5800104B0293002303221846CDE9003333F0C7
:102F68005EFE05B05DF804FB23B9022AF9D90A4AC6
:102F78000292F0E7022AF4D90393084B0322029342
:102F880000231846CDE9003333F049FEE9E700BFD6
:102F9800EC30002005B1040029B1040050B1040050
:102FA8002DE9F843FFF7E4FE0646F8B1DFF87C8028
:102FB8001B4FD8F800203B88D1B24D1C5FFA85F929
:102FC80053FA85F5B5F5DC7F164C12DBE154204643
:102FD8004FF4DC71FFF7A4F92046D8F80020124915
:102FE80000F8012BA7F8009043F0C4FE3046BDE876
:102FF800F88340F2B71C581C6545E15420440A493F
:1030080009D143F0B7FE00234FF4DC7120463B8022
:10301800FFF786F9EAE743F0ADFE3D80E6E700BF3B
:10302800B43801202F3B01202C3E0120D85E00201F
:1030380010B50120FFF78EF9024C2060FFF7BAF9AE
:10304800606010BDA85E00202DE9F04F87B04FF4F6
:10305800804000212EF096FEDFF8DCA1694B6A4E15
:103068001C686A4DDFF8D491D4B13778002F3BD172
:1030780040F6CD4000212EF085FE01232F703370DD
:10308800634B029300231A4619461846CDE90033CC
:1030980033F0C5FDFFF7CCFF01232B7024B126E0E8
:1030A8002B783470002BEBD0B9F80020594B632AE9
:1030B8001B7801D9574B1B78002B40F08280564B68
:1030C8005B6813F1011F7CD800254FF0FF324FF0E9
:1030D800FF3352482DF026FFFFF7CAF9002873D1B5
:1030E8004E482DF097FF6AE02B78002BC8D0204679
:1030F80039F090F8B9F800300546632B57D9002805
:10310800D8D0DAF80010012214313AF072F9002808
:1031180043D0FFF72DFE002838D128460CF05CFB81
:103128004FE03F48921B0388B9705C1C0480B9F8D3
:1031380000403C49033C944228BF14463B70224659
:103148001B0A31443848264403347B7043F012FE8E
:10315800A3B20593DAF800103A462846059B1431C5
:1031680033F048FD044640B908F10108DBF80020B7
:103178005FFA88F1B242D4D8CFE7212000212EF09F
:1031880001FE04F10C03012BEED8E3E74FF0000831
:10319800DFF8ACB04646254FE8E71E4B1B78002BFE
:1031A800BBD11D4B5B6813F1011FB6D88DE7194BD6
:1031B8001B7823B9184B5B6813F1011F85D9002DC3
:1031C800ABD12EF05DFD49E7FFF7EAFE0446134850
:1031D8002DF020FF002CF2D0154C23780133DBB200
:1031E800FF2B2370EBD1FFF723FF0023114A237035
:1031F8001946CDE9013218461A46009333F00FFDFF
:10320800DDE700BFF05E00202D3B0120522F00209B
:10321800F4BD04002C3B0120A85E0020DC5E0020E9
:10322800B63801202C3E0120EA3C0120E73C012071
:103238002E3B012008BE040048250020B838012094
:10324800D85E002070B58EB0404843F023F840485F
:103258000CF0ACFE00200AF0F3FC3E4E0446336846
:1032680078B15A070AD03C4B012202930023314619
:10327800CDE900330390184633F0D1FC20460EB058
:1032880070BD03F00703022B08D9344B0322CDE9A4
:10329800010331460346009033F0C1FC4FF4A0729D
:1032A80000212F4843F08DFD2E480FF003F82E4DD6
:1032B8002E480EF0FFFF09AC2D480EF0FBFF0FCD96
:1032C8000FC42B680322236002232A49009309A80C
:1032D800294B0BF0F7FC3368044650B15B07CDD09F
:1032E800264B0122029300231A49CDE900330390AB
:1032F800C1E703F00703022B08D9214B0322CDE9CC
:10330800010314490346009033F089FC4FF421531C
:103318001C4AD3611C4B13600023C2E90233C2E983
:10332800053353601361002000210722CDE906010F
:10333800CDE90232CDE9003304934FF48052134BA8
:10334800134914482EF05CFA98E700BFDC5E0020B1
:1033580000260020EC30002011BE04003ABE040014
:103368002F3B0120D0230020908104004825002015
:10337800C0240020A4860400948604005ABE0400D9
:1033880089BE0400B85E00206C3F01205130000067
:10339800A8A90220E8380020014B1868704700BF30
:1033A800F05E00202DE9F04F91B0009302F0040385
:1033B8000293C2F3C2030133840705460E46DDF8C3
:1033C80068900392059340F0BB81041D30B1072932
:1033D80009D86FF01B0011B0BDE8F08F01F00706A7
:1033E800341DC6F10806009B4FF000084FF0040A90
:1033F800591E4FF0FF3347460193C3465346CDF855
:1034080010800DB1009820600598002800F3E8802E
:103418009848009A824203D397488242C0F0E080DD
:10342800039AA4EB050E92074FEA9E0000F1038170
:103438000F2F00F2B180002D00F0058107F1400246
:103448000DEB020C019A0CF8200C0CF8102C0498C7
:1034580001300490E7E07A285DD84B280ED8472839
:1034680059D829282DD8252852D054D820287AD0A0
:103478002338D0F1000B4BEB000B74E04C382E28AE
:1034880049D8DFE800F07048484848484848484864
:1034980048484B484848484848484859484B4B5979
:1034A8005959704B6D487048184B184848827F4BE3
:1034B80048484B487F0000204FF0000B4FF0040AAB
:1034C80038E001222A38C0B202FA00F010EA0E0FE2
:1034D80049D110F0625C2FD110EA020B43D060464C
:1034E800013C5444B4FBFAF40AFB04F4002D61D007
:1034F800A3EB050CA444B4453FF66BAF002868D194
:10350800042B47D159F8043B2360042304342AE0F0
:10351800019A013A01924FF0000B24E011F8010CD6
:103528006C2834D1002011F8023C83466C2BC5D19D
:103538004FF0080A5346D3E709F1070929F00709AC
:10354800073424F00704F9E802AB35B106982044A3
:10355800B0423FF63EAFC4E900AB4FF0000B083471
:103568004FF0080A534611F8010F002878D0BBF134
:10357800000F7FF470AF2528F5D14FF0010B019BA8
:10358800013301934FF0040AECE7584694E7002012
:103598008346A5E7082B02D06FF015001BE709F159
:1035A800070929F00709B9EC027B84ED007B0823A1
:1035B8000834D8E768B9042B02D109F10409A4E753
:1035C800082BE9D109F1070929F0070909F10809C8
:1035D800EDE705980138059059F8040B009010E7BD
:1035E800039A900720D54FF0010CA4EB050E4FEA83
:1035F8009E00BEF5007FCFD20F2FCDD8F5B107F1D1
:1036080040020DEB020E019AC0B20EF8200C0EF823
:10361800102CBCF1000F3FF41AAF60F07F000EF8D9
:10362800200C08F101080137C5F108024FF6DA7ECF
:103638000434069297E74FF0000CDAE7BCF1000F6C
:1036480001D00136EFE7029A0236002AEBD1009842
:10365800CDE90631FCF7B4FFDDE906310644E2E7BF
:10366800631BB3F5806F97D245B9A6F10804E0183B
:10367800B1E600BFFC72040054380600029A9B08A9
:1036880028602B709DF81030C2B1EB7085F802806D
:10369800B8F1000F05D0002208A8C5F1010C974227
:1036A8000ED14FF0000AC5F101030DF12009019375
:1036B8000DF1300B574512D1601B8CE66B70E5E7B6
:1036C80010F8013B190608D504EB0C0EB64503F0BB
:1036D8007F033FF67EAE04F8013B0132DFE7B8F125
:1036E800000F03D099F90020002A17DB029BD3B101
:1036F8001AF80B2004F8012B0022019B981820448B
:10370800B0423FF666AE99F80000009904F8010B44
:103718002046039243F02EFB039A14440AF1010A4F
:1037280009F10109C6E799F8002055F822300093FD
:10373800029B009845F82230FCF742FF421CDCE768
:103748006FF00D0047E600BF014B1860704700BFDF
:103758002826002080B505460E46174698462EF0C6
:103768004DFB034643F0BCFD0446DFF81890424683
:1037780049F8003039463046A84754F8090004F0A3
:10378800A1F800BF080000002DE9F047058B0446AA
:103798002807904611D4022905F0070540F0CC808F
:1037A800204633F0E8FD78B10138218B042811D880
:1037B800DFE800F0C2106D85950001290CBF45F0C7
:1037C800100545F02005258388F31188BFF36F8F16
:1037D800BDE8F08701F0070AAA4500F0A580002798
:1037E800B9463E46A368002B00F0BC8041F00801B2
:1037F800218388F31188BFF36F8FA168002900F037
:10380800BA800D68002900F0B6803346524620463B
:10381800D1F80480C047002D76D02B6829461D4674
:10382800F0E701F007035A1F012A1BD8002221F0F4
:103838000701062B276889B2C4E9002209D13B4653
:1038480003E0628B013262831B68002BF9D141F0DF
:1038580002012046218333F08EFD00287AD041F002
:10386800200176E0042B0AD121F0070189B2204615
:10387800218333F080FD10B141F020012183218B99
:1038880001F0070AAA454FD00027B946AAE72369DD
:1038980021F0070141F00601062DD3F8009021839D
:1038A8002DD1B9F1000F3FD041F00801218388F3F1
:1038B8001188BFF36F8F20463949C84729E021F0A6
:1038C8000701236941F0040189B2042DD3F804905B
:1038D8002183E6D000274FF0040A3E4682E721F014
:1038E8000701236941F0050189B2052DD3F8089035
:1038F8002183D6D000274FF0050A3E4672E70027FD
:103908004FF0060A3E466DE72B4687E7B9F1000FF0
:10391800D1D1EFF31188202383F31288BFF36F8F7F
:10392800238B23F008032383258BEA062ED525F065
:103938001003238305F007056669218B002EBFF667
:1039480070AF00232768C4E9003321F0070141F074
:1039580001012183218B4FF0000901F0070AAA45D4
:103968007FF440AF002F9CD041F00801218388F3F9
:103978001188BFF36F8F002FC8D03D683946334692
:103988005246204633F023FD2F46F4E7AB067FF579
:103998001BAF25F02003238305F0070500E700BFD0
:1039A800037403001FB5034678B914490A6852071F
:1039B80006D0134A0090CDE90102012233F089FEB6
:1039C8006FF0150005B05DF804FB836873B90B4907
:1039D8000A68520707D00B4A1846CDE9013200930E
:1039E800012233F076FE6FF00400EBE71B681BB191
:1039F80005B05DF804EB18471846E3E7803000206F
:103A0800CDBE0400DEBE04001FB5034678B91449D4
:103A18000A68520706D0134A0090CDE90102012234
:103A280033F057FE6FF0150005B05DF804FB8368AE
:103A380073B90B490A68520707D00B4A1846CDE9F3
:103A480001320093012233F044FE6FF00400EBE7EB
:103A58005B681BB105B05DF804EB18471846E3E74F
:103A680080300020CDBE0400DEBE040030B585B035
:103A780008B101B182B916490B685A0708D0154B2D
:103A88000122029300231846CDE9003333F021FECA
:103A98006FF0150005B030BD84680CB1E5687DB9DC
:103AA8000B490B685B0708D00B4B012202930023DC
:103AB8001846CDE9003333F00CFE6FF00400E9E757
:103AC80041F8040BE36805B0BDE83040184700BF73
:103AD80080300020FCBE0400DEBE04001FB5044692
:103AE80078B91E490B685B0707D01D4B0122CDE949
:103AF80001030090034633F0ECFD6FF0150004B0AD
:103B080010BD036873B915490A68520707D0154AEA
:103B18001846CDE901320093012233F0DAFD6FF047
:103B28000100ECE79A680AB112697AB90B490B6887
:103B38005B0708D00C4B0122029300231846CDE9FD
:103B4800003333F0C6FD6FF00400D8E7416818462B
:103B580090470028D3D12060D1E700BF80300020F3
:103B680028BF040039BF0400DEBE040030B5134688
:103B7800044685B078B91E490B685D0707D01D4B10
:103B88000122CDE901030090034633F0A2FD6FF056
:103B9800150005B030BD006870B915490B685A07A3
:103BA80007D0154B0122CDE901030090034633F0FD
:103BB80090FD6FF00100ECE782680AB195687DB965
:103BC8000B490B685B0708D00C4B012202930023BA
:103BD8001846CDE9003333F07CFD6FF00400D8E7D8
:103BE8000A46AC46616805B0BDE83040604700BF92
:103BF8008030002028BF040039BF0400DEBE040066
:103C0800034A13680BB9526813600020704700BF5D
:103C18002C26002030B50C460E4985B00291D0F80C
:103C2800D4110546CDE9003100F1F0014FF0FF3322
:103C380020462CF083FA50B9012384F86C30D5F86B
:103C4800D03123B1204605B0BDE83040184705B053
:103C580030BD00BFEB77030038B50C46114605466A
:103C680033F0C1FD034638B92846044933F0BBFD9B
:103C780003460020236038BD0120FBE7D4C30400BD
:103C88002DE9F04F01238146056946688FB005F29A
:103C98000447D7E8EF2F002A03D1C7E8E13F0029FE
:103CA800F7D10CBF1A46002240F0BF80B368B16A52
:103CB80005F5F8781C1F104633F019FE84427DD8AC
:103CC800013A00F0AC80B2FA82F24FF00044D440DE
:103CD80072682046073222F00302C5F88822B16ACA
:103CE80033F005FEC5F88C02B36A404663430333DC
:103CF80023F0030302EB4302230103EB44030933DC
:103D080023F0030303EBC403C5F880221A440832E6
:103D1800C5F87C227368C5F88442C5F87832444BEC
:103D2800C5E9B363D9F80030C5F82432316800F02A
:103D3800EBF9044600283FD1D9F810B0D9F804A00F
:103D4800D9F800300BF53A79059004934846DAE93A
:103D58000734012B08BF103C42F032FCDAF824008B
:103D6800344904AB009301EB8021234648464FF4C5
:103D780080622DF0A5FB2021DAF824302E4A06A80F
:103D880031F078FB06A948462DF078FC2B490BF555
:103D9800367042F0B0FBDAE9050183685C684CB123
:103DA8005B46274AA047044630B9DAE9050183682B
:103DB8001B692BB96FF05704002129E001327AE71B
:103DC8000122984704460028F6D11E4B2846C5F81C
:103DD800D0311D4BC5F8D4311C4B0393D5F838327C
:103DE8000293D5F83032CDE90083D5F89032B26A23
:103DF800D5F8001400F050F904460028DCD105F18C
:103E0800F0002CF041FA0028C5F808040ADB02216A
:103E1800384633F01CFD20460FB0BDE8F08F6FF038
:103E28000B04C9E76FF01504C6E76FF07704F2E7F3
:103E380041780300A8B902205EBF04002778030078
:103E48001B780300593E0000CD79030087780300F2
:103E580013B5044640B100230122CDE90032074BD7
:103E6800D0E909122CF01AF9236F1B6823B1606F8F
:103E780002B0BDE81040184702B010BDD4C304001A
:103E880013B504460846216901F20441D1E8AF1F81
:103E9800022910D193B1A0B10121CDE90031134617
:103EA800D0E909122CF0FAF8074B984208BF6FF0D6
:103EB8000B0002B010BD6FF00F00FAE76FF04C0076
:103EC800F7E76FF00100F4E72EF8FFFF2DE9F7435D
:103ED80088461546066906F20443D3E8AF3F022B2D
:103EE8005FD1136823B96FF0150003B0BDE8F08304
:103EF8001B78002BF7D0D6F80094B9F1000F33D116
:103F080006F5EC774FF0FF324FF0FF3338462DF0CF
:103F180009F830462A6801A9FFF79EFE019C1CB9E2
:103F2800384633F092FCDEE705F1080323676B6936
:103F380084F86C906367646460B1384633F085FC3C
:103F480021463046A36E2A68FFF764FE0020C8F8B1
:103F58000040CAE72022296804F1480042F08DFF9A
:103F6800384633F072FCF1E730460F4933F03BFC3A
:103F780004460028B7D005F1080303676B6940645D
:103F88004367002380F86C3020222968483042F0CB
:103F980074FF22460121304600F060F80028D5D091
:103FA800A1E76FF00F00A0E7D4C3040010B50C46DA
:103FB800006900F20443D3E8AF3F022B0FD189B167
:103FC8000A4900F5367042F0D1FA204641F0F1FC7A
:103FD80078220021204642F0F4FE002010BD6FF048
:103FE8000F00FBE76FF00100F8E700BFF45E002068
:103FF8002DE9F04F05460E4690460027D0F8C4A09C
:1040080085B0AAF5BE7421463046FCF7C7FAE0B978
:10401800114BA4F1480B0293DAF810303246CDE97F
:10402800008329464FF0FF335846AAF5E2792CF071
:1040380085F860B97823012203FB079383F86C2085
:10404800DAF80C300BB158469847783417B105B0F8
:10405800BDE8F08F0127D6E7FB7903001FB51446AA
:1040680090B18AB1012912D10A4B00F1F0010293F3
:10407800D0F8D431483201934FF0FF3320460093F3
:104088002CF05CF804B010BD6FF01500FAE70020C2
:10409800F8E700BFFB7903002DE9F04387B00E462F
:1040A800DDE90E811446DDE910251F4630B329B33A
:1040B800DFF850C000F1F009002D08BF65469EB931
:1040C800CDE9034400F5E2742046059641F00BFF64
:1040D80003ABCDE900432A463B46414648462CF00F
:1040E8004BF907B0BDE8F083002241460E924846DE
:1040F8002A4607B0BDE8F0432CF094BA6FF01500DB
:10410800EFE700BFF93F0000F0B50E46044689B05E
:10411800002872D0436B0BB9394B43630123224605
:10412800E3630023D4F8981004F1400042F8301FEC
:10413800CDE901334FF0FF330093D4F89C3040F0C1
:10414800D1FB304A06AB92E8030083E80300184627
:1041580027F012FB0546D8B904F1340027F0EEFA2F
:104168000546A8B9616B284805AA40F097FB0546A3
:1041780070B9059B9A6872B10C33D4F89400C4F8EE
:10418800A03033F067FCC4F8D40030B96FF00B05E9
:10419800284609B0F0BD0346EFE7D4F8940033F0A1
:1041A80059FCC4F8D8000028F0D0D4F88C30D4F8E2
:1041B800A010C4F8A8300423C4F8AC30C4F8C43044
:1041C8000223A362114BB4F89420D4F8D470C4F835
:1041D800B810C4F8D010D4F89010236204F1A403E6
:1041E800A4F8B020C4F8A470C4F8C010A4F8C8207B
:1041F800C4F8BC00A661E362CAE76FF01505C7E71B
:104208006ABF0400A481040074BF0400E8860400A7
:104218002DE9F84F81462F480F4633F05DFC0646DE
:1042280070B92D4C0546A0464FF0010BDFF8ACA045
:10423800544507D3B9F1000F02D04FF0010AE5B990
:10424800BDE8F88F237B6BB12368DB680BB1204690
:10425800984723681B6943B9636804222046196894
:1042680000F094F901361034E2E720469847002818
:10427800F2D00BFA06F31D43F4E7A94695FAA5F424
:10428800B4FA84F40AFA04F3260108EB04146FEA7A
:10429800030B25EA0305237B63B158F806301B6935
:1042A80093B94644736804222046196809EA0B0941
:1042B80000F06CF9002DE1D127B14FF4A470002172
:1042C8002DF060FD4D46BAE7204698470028F1D109
:1042D800E7E700BF245F0020747B0400B47B040080
:1042E800014B53F8200070471487040008B50346B3
:1042F80008462BB1044A136000F07EFB002008BD7D
:104308006FF01500FBE700BF5826002008B5002312
:10431800074A4FF400411370064A07481360074ADA
:104328001360FFF7E3FFBDE8084000F07FB800BF67
:10433800AD6701201C5F0020DD7A0300205F0020AC
:1043480070B50B4D297841B90120FFF761FF094C81
:10435800094EB44202D301232B7070BD63685B79A8
:104368001BB1236820469B6898471034F1E700BFCB
:10437800AD670120747B0400B47B040010B50446CB
:10438800064833F0A9FB3CB1054BD3E8EF1F0139D0
:10439800C3E8E21F002AF8D110BD00BF1C5F00204F
:1043A800205F00202DE9F041164B05461B68984711
:1043B800154CDFF85880A860444501D3BDE8F0816A
:1043C80063685B793BB129784B0706D52368294692
:1043D80020461B6898471034EEE728462E88C1F31C
:1043E800C20700F06DF9C6F382160246002EEDD022
:1043F8000028EBDB01233946204600F0E1F8B04203
:10440800E9D3E3E758260020747B0400B47B04005A
:10441800044A054B9B1AB1EBD30F34BF52F8310055
:10442800002070472C790400747B040000210B489D
:104438000B4B30B51B1A0B4CDB080430994200D1EA
:1044480030BD10F83120256802F0070225F0070575
:104458002A4344F8042B0131F0E700BF2C7904000B
:10446800747B0400DC2F0020F8B5064600240A4FB0
:104478000A4DED1BED08AC4203D14FF0FF34204646
:10448800F8BD57F8340020B13146FCF787F800280A
:10449800F5D00134EFE700BF2C790400747B0400E9
:1044A80000282DE9F047884615461F461DDA4FF0CB
:1044B800000A5446DFF8A090234EA6EB09063609F9
:1044C800B24509F1100902D12046BDE8F08759F834
:1044D8000C0C3B462A4641460079FFF7E1FF84422F
:1044E80038BF04460AF1010AEAE7184B184AD21AFB
:1044F800B5EBD20F26D203EBC5031C79BC4228BF0B
:104508003C460722134EC0B200EB400056F8253057
:10451800824023EA020304F0070282401343002189
:10452800032223FA02F000F00700814202F103029D
:1045380038BF01461E2AF4D123F007030B4346F87F
:104548002530C1E70024DCE7B47B04002C790400A3
:10455800747B0400DC2F0020747B0400F8B5064649
:104568000F460024074D084BED1AED08AC4200D366
:10457800F8BD002122B23B463046013433F0CDFA73
:10458800A4B2F3E7747B04002C79040038B50D4617
:1045980011460A4B4268C31A1B11044601331371B2
:1045A80043689971FFF7DAFF012263681D60636849
:1045B8005A71BDE8384033F0ADBA00BF747B0400CF
:1045C80070B14168097973B1002A17DBCBB20C4985
:1045D80003EB430351F82200D84000F0070070476E
:1045E8004FF0FF31EFE707490748401AB2EBD00F09
:1045F8003ABF01EBC201087918467047042070479A
:10460800DC2F00202C790400747B04002DE9F04F86
:1046180087B004AF0446D7E90EA90E4693469846DC
:104628003D6BBAF1000F22D0C7F80490CDF8009086
:104638001021534600207A6BFEF7B4FEB0F5006FE8
:10464800014615D31C490B6813F0060F0BD040F236
:10465800FF730393194B0222029300231846CDE9F6
:10466800003333F087FA0C37BD46BDE8F08F51466A
:1046780004F007040BF0070BE40044EA8B1444EA47
:10468800412444EA055417350D4425F00705ADEBE0
:10469800050D04ADBAF1000F07D0CDF800905346D0
:1046A8007A6B05F11000FEF77DFE4346224631463F
:1046B800284633F046FAD6E78830002089BF040040
:1046C800406820B1034BC01A40F38F0070474FF089
:1046D800FF307047DC2F00200EB403B503AB53F84E
:1046E800042B01460448019303F0D8FC02B05DF89E
:1046F80004EB03B0704700BFB97B0300CA0605D4BA
:104708008B064CBF02490349FFF7E6BF704700BF5D
:10471800D3C30400CC2E06002DE9F04F87B09DF8D6
:10472800446004460D4690469946002E00F0A2804B
:10473800159B03F0020A03F001030493159B03F091
:10474800080B03F48073059333F0E5F9024600285B
:104758003DD020469449FFF7BFFF0746BAF1000F46
:1047680009D0159B13F0440F33D12A4620468F49B0
:10477800FFF7B2FF0744049B53B18D4B204653F813
:1047880026208C4B8C49002A08BF1A46FFF7A4FF45
:10479800059B002B49D0BBF1000F64D1B8F1000F85
:1047A80066D0424620468549FFF796FF0546129B8C
:1047B8003D44002B6DD1149B002B73D1159BDB0757
:1047C80000F1EB8020461599FFF798FFD8E00746DF
:1047D800C4E77B4B18680028CCD07A4B4FF47A7A20
:1047E8001B684FF46161B5FBF3F5B5FBF0F300FB13
:1047F80013550AFB05F5B3FBF1F2B5FBF0FE4FF0DC
:104808003C0C01FB123100FB1E55B1FBFCF30AFB0B
:1048180005F5B5FBF0F50CFB131120460091CDE929
:1048280001E56949FFF758FFA4E7BBF1000F1DD068
:10483800664B204653F826206549FFF74DFF05468D
:10484800B8F1000F05D0424620465C49FFF744FF07
:104858000544B9F1000FAAD04A4620465D49FFF742
:104868003BFF0544A3E74FF00009E1E75D46E7E7B2
:1048780045469CE7B9F1010F129B06D1002B66D182
:10488800149B002B7CD000250CE0002BF8D052485C
:104898005EE05248129B2246514932F0A2FC149B1A
:1048A800002B6AD0DFF84481DFF84491149F20463A
:1048B800102F159928BF10274FF0000BFFF71EFF88
:1048C8005D4547DC139B494620461A78FFF704FFED
:1048D8004FF0010B1BF0070F03D141462046FFF7AD
:1048E800FBFE5F453DD9139B4946204613F80B2034
:1048F800FFF7F2FE0BF1010BBBF1100FEAD14FF0FD
:10490800000A20463749FFF7E7FE5246DFF8E4B0D1
:10491800139B20469A5CA2F120015F2928BF2E2212
:104928005946FFF7D9FE0AF1010ABAF1100F1DD056
:104938001AF0070F03D141462046FFF7CDFE574531
:104948005246E5D841462046FFF7C6FEEBE7234826
:1049580035469FE741462046FFF7BEFE0BF1010BA7
:10496800AEE720462049FFF7B7FEC3E7139B3B4459
:104978001393149BDB1B149398D1002E7FF41EAF66
:104988006268A168D2E90023206833F003F90022A5
:1049980063681A6007B0BDE8F08F2046054A0649EB
:1049A800FFF79AFE0EE700BF2E8F0500C6BF040072
:1049B80024870400C1BF0400AEC40400EBBF040098
:1049C8002C5F0020285F0020CFBF04003887040038
:1049D800EFBF0400F5BF0400D57B0300B97B0300DB
:1049E800A580000000C00400B0010600B201060066
:1049F800FABF0400DA56050000210123064A904256
:104A080006D8064A01B901231360054B18607047A0
:104A1800012140085B00F2E740420F00285F0020B8
:104A28002C5F00200122014B1A707047AE670120ED
:104A3800014B002019607047445F002010B5064BF9
:104A48000C461868FFF74CFC2146BDE810400346A9
:104A58000F220248184700BF445F002068870400FF
:104A68000122F8B5084B094D094E1A70D5E90047DF
:104A78000CB92C60F8BD214630463A4600F00AF8D9
:104A8800241A0644F4E700BFAF670120385F00200E
:104A9800B0670120F8B507460E460424174D324684
:104AA800394600202BF048FEC8B101232B70144B67
:104AB8001B782BB93046F8BD5CB92C704FF0FF3429
:104AC80000202BF0CBFE0028F4D02B78002BF3D15C
:104AD800F0E7013C41F2883041F092FAF0E72B7898
:104AE80013B1013C04D12C702B78002BD7D1E1E70E
:104AF80041F2883041F084FAF6E700BFAE67012042
:104B0800AF670120014B03600020704778870400DD
:104B180003289ABF024B53F820000248704700BF91
:104B280078870400D4C3040070B544690D469CB36B
:104B38001E4A2379565CB34231D01D4A525C9A42D0
:104B480030D1A3689847002810DA022D0CD0032D25
:104B58000BD110F1860F07D0D4E8EF3F43F00203E2
:104B6800C4E8E23F002AF6E7267170BD022D2671DF
:104B780001D00020F9E7D4E8EF3F23F00403C4E8AC
:104B8800E23F002AF7D1D4E8EF3F23F00203C4E85C
:104B9800E23F002AEDD0F6E76FF05700E5E76FF047
:104BA8007700E2E76FF08500DFE700BF4AC0040046
:104BB80046C0040010B5084C86B024788DF817401C
:104BC800012402940DF117040194BDF820400094CB
:104BD80038F03CFB06B010BDAB2F00207FB50BAB07
:104BE80005930393054B0322029300231846CDE94E
:104BF8000033FFF70BFD07B05DF804FB64C0040049
:104C08001FB50A460B490B6803F00703022B0ED9A0
:104C180009480A4B012A08BF03460393084B03229D
:104C2800029300231846CDE90033FFF7D7FF05B0FC
:104C38005DF804FBE82F0020A84F050073AE0500BF
:104C480064C0040000B5642889B08DF8070019D83D
:104C58000E4B18221870002102A842F0B2F80C4B33
:104C6800002003930DF107030493012302A9ADF873
:104C780014300DF047FE10F1800F08BF002009B076
:104C88005DF804FB6FF01500F9E700BFAB2F0020BB
:104C9800508804002DE9F8430646FBF791FC0546C9
:104CA800EFF31188202383F31288BFF36F8F114B22
:104CB8001C68D3F804909C4208BF002434B988F3D8
:104CC8001188BFF36F8F2046BDE8F883A768384680
:104CD800FBF776FCA84206D12A463946304642F010
:104CE800BAF80028EBD04C4501D02468E6E7002448
:104CF800E5E700BFA8260020F0B585B00E461546AA
:104D0800FFF7C8FF044648B3C3683BB31F692FB316
:104D1800062E08D0072E25D02A4631463B4605B038
:104D2800BDE8F0401847838A3BB92A463146B84760
:104D3800B0B9A38A0133A3821DE04FF6FF729342F4
:104D4800F8D11A490B685B0708D0194B0122029366
:104D58000023CDE90033184632F0C4FF6FF0150088
:104D680005B0F0BD4DB12A783AB1002282823146B1
:104D78002A461B6998470020F2E7A38A012B08D12D
:104D88002A4607212046B8470028E9D1A38A013BD3
:104D9800D1E7002BFBD105490A6812F0060FDDD0D8
:104DA800044A0093CDE901320222D4E74C300020B6
:104DB8007DC004009FC004001FB5044608B1806888
:104DC80080B916490B685A0708D0154B029300237F
:104DD80001221846CDE9003332F084FF6FF0150048
:104DE80004B010BDFFF756FF28B10C490B685B07EC
:104DF800F4D00C4BEAE7A082EFF31181202383F370
:104E08001288BFF36F8F084B5A68C4E900321460E8
:104E18005C6081F31188BFF36F8FE1E74C300020AD
:104E2800BDC00400D6C00400A826002010B5044662
:104E38003DF04DFB03490246204633F096F9002029
:104E480010BD00BF16C104001346002273B5044606
:104E580001920A21586801AA01F0D2F9019D95B979
:104E680020EAE0744FF40046294640F2E7304FF458
:104E78007A720023C4FB0601FBF776FB2CF082FF55
:104E8800284602B070BD2A462046024933F089F907
:104E9800019DF5E742C1040008B5034A034933F010
:104EA80064F9002008BD00BF2FC2040036C2040008
:104EB8002DE9F3411746002304460A21B86801AAE0
:104EC800019301F09DF9019DC6B24DB12A462046D5
:104ED800134933F066F9019D284602B0BDE8F08118
:104EE800042E09D9324620460E4933F05AF9204695
:104EF80033F0B2F90125EFE77868FFF7B5FAB0F1BA
:104F0800000804DA20467A68074933F04AF9002194
:104F1800334608460FFA88F232F0FFFDDCE700BF9F
:104F280059C2040080C2040097C2040010B50446A8
:104F380020F02CFF07490246204633F016F9204698
:104F4800054933F012F9214604482DF013F80020E2
:104F580010BD00BFF6C2040015C30400694F00006D
:104F680070B58EB004460D46D0F89C6041F086FBC3
:104F7800034642F0B5F9214A21491058214A002B2D
:104F880018BF1A460092204A2346844218BF0A4690
:104F980028461E4933F0E9F8D4E90A23CDE900236D
:104FA800284694F90E30227B194933F0DEF806A919
:104FB800202220462CF072FB636E024615492846D3
:104FC80033F0D3F8204605A941F068FB024628B122
:104FD8002846114933F0C9F80EB070BD6422059B0C
:104FE8002846F11A4A43B2FBF6F20091CDE9016274
:104FF8000A49324633F0B9F8EEE700BF080000006E
:10500800B20106001FC30400B555050022C3040001
:105018002EC304005AC3040071C304009EC30400D5
:10502800F0B50025044691B0294608AF1C2209A80E
:1050380041F0C7FE134E1A222021384641F0C1FE26
:10504800214611482CF096FF07AA4FF4006130461C
:1050580041F018FB6423079A2046C2F500614B43D0
:10506800DB0A05934FF400630097CDE90313CDE9FC
:10507800013206492B46324633F077F8284611B0FC
:10508800F0BD00BF1856032099500000EAC3040081
:1050980070B504460D46D0F89C6088B007A941F069
:1050A800FDFA024628B128460E4933F05EF808B0EA
:1050B80070BD204641F0E2FA6422079B0096F11A7F
:1050C8004A43B2FBF6F2CDE90131074BCDE9036261
:1050D800002818BF034622462846044933F045F8FD
:1050E800E5E700BF71C304001FC3040033C4040014
:1050F8002DE9F04389B0054602A82BF01FFC1823C0
:10510800029E082103FB00661E4A284633F012F867
:105118001D4F029CDFF87C80DFF87C90B44203D3FB
:10512800002009B0BDE8F08323680BB11A7832B9C2
:1051380023463A46142103A830F09CF903AB4246B3
:105148000821284632F0F6FF204640F05EFFB0B155
:10515800002320460DF107018DF8073032F079FD64
:1051680058B99DF80700FFF7D3FC034608212846E5
:10517800064A32F0DFFF1834D0E7054BF6E74B4616
:10518800F4E700BF9DC40400A7C404007497050099
:1051980097C40400ACC404003CB205002DE9F041FA
:1051A80014468846074610220021606830F004FA49
:1051B800B8F1020F064607D8202308213846244AAA
:1051C80032F0B8FF336816E00A220021A06830F0F8
:1051D800F3F9C5B22B46082138461D4A32F0AAFF1A
:1051E800B8F1030F1AD1102D0CD0202DEAD0082DBC
:1051F8000BD13378DBB208213846164A32F09AFFD1
:10520800002009E033889BB2F5E738460821124AA6
:1052180032F090FF6FF01500BDE8F08110220021F8
:10522800E06830F0C9F90821034604460B4A3846BD
:1052380032F080FF102D06D0202D07D0082DE4D1A4
:10524800E4B23470DCE7A4B23480D9E73460D7E73D
:10525800D9C4040004C50400EEC4040015C5040044
:105268002DE9F04F91464FF0FF350122584B85B09C
:10527800074688461A60202602F098FF2C46DFF879
:1052880070A149465246404602F0B8FF411C06D17B
:105298006A1C50D14F49384632F083FF1CE073280E
:1052A8001FD0772832D0612816D1DFF848B11022F4
:1052B8000021DBF8000030F07FF905460028E0D136
:1052C80042F00EF8444B1B58162BDAD1DBF80020BD
:1052D8004249384632F065FF6FF0150005B0BDE869
:1052E800F08F0022DFF80CB11146DBF8000030F037
:1052F80063F904460028C4D141F0F2FF364B1B582D
:10530800162BBED1DBF800203549E2E70022DFF892
:10531800E4B01146DBF8000030F04EF906460028EC
:10532800AFD141F0DDFF2C4B1B58162BA9D1DBF870
:1053380000202C49CDE7631C01D12B49ABE75FFA6C
:1053480086F8C6F3C406002C3FD06B4629461A4699
:10535800A6EB050C0CE0B8F1100F1DD0B8F1200F2A
:1053680020D0B8F1080F2AD1087818703144334496
:10537800A64203D80CEB01001028ECD9102CA1464A
:1053880028BF4FF0100929464B46384600F0E8FD83
:105398001035A4EB0904D6E7088880B21870000A13
:1053A8005870E3E708684FEA102E187083F801E098
:1053B8004FEA104E000E83F802E0D870D6E70821B5
:1053C80038460A4A32F0B6FE86E7204686E700BF2E
:1053D800482800206AC504000C00000029C5040004
:1053E8003CC504004FC5040087C50400EEC4040092
:1053F80063C504004871002070B50F4E04460D4681
:10540800337871B123B10D49BDE8704032F0C9BE9F
:105418000123337020460A4932F0A7FE0123337076
:1054280004E083F001033370002BF3D129462046B2
:10543800BDE8704032F02DBFB1670120A1C504005E
:10544800DCC5040070B504463B480378182B02D12C
:105458000B78112B31D00B46013A8D18AB4225D170
:105468008B5C0A780370A2F13003092B334C04D902
:1054780022F02003413B052B04D823683049CA5445
:10548800013323602368022B33D1102200212C48DA
:1054980030F092F82B4A136803F8010B13602A4A7C
:1054A8001368013313600023236022E013F8016BB3
:1054B800182ED3D11E78112ED0D1234D20462A681C
:1054C800224932F052FE20460021FFF795FF204B7B
:1054D800187870B91F4A2B681168042B0ADC08B1C8
:1054E80011602B6013F003010BD1126813681BBA0B
:1054F800136070BD0868043B00BA41F8040B012032
:10550800EBE75B4203F0030358BF5942022904D179
:10551800126813885BBA9BB2EAE70329E9D11068DD
:1055280002681104C2F3074301F47F010B4302F43C
:105538007F4213430360DCE7B2670120485F002025
:10554800B4670120545F00204C5F002006C60400A9
:10555800B3670120505F00202DE9F84F002306466D
:1055680015460C462949DFF8BC800B602849DFF84E
:10557800B890DFF8B8B088F800300B60012C2F46DF
:1055880055F804AF1ED902224946504641F063FC43
:1055980080B99AF80220003A18BF01229244504676
:1055A80002221C4941F057FC30B9012388F8003029
:1055B800013CE3E70022F1E749465046FAF7EEFFDF
:1055C800A8B904370022786811462FF07FFF00221F
:1055D800114B1146186078682FF078FF0F4B10496F
:1055E80018603046FFF708FF0020BDE8F88F9AF8EA
:1055F80000202D2AE6D19AF80120002AE2D052464E
:105608005946304632F0B1FDD2E700BF485F00206E
:105618004C5F002023C60400545F0020505F002028
:105628004D540000B367012020C6040026C60400BC
:10563800032307B5054A0093002101231268044893
:1056480000F0F4FC002003B05DF804FB4889040076
:10565800F07B0400042307B5054A009300210123C9
:105668001268044800F0E2FC002003B05DF804FB77
:10567800B4890400207C040037B54468124904F159
:105688000805226028460022236441F0BBF94FF444
:10569800A4720023E463002428460C4DCDE90023BE
:1056A8002CF070FE29464FF40053094A009401205B
:1056B8002BF0DEF810232946064A009401202BF02F
:1056C80003F9204603B030BD9B7E0300AEC704003B
:1056D80003680120F36701202DE9F8438846144642
:1056E8001F460426D0F80490104D2246414601205A
:1056F8002BF022F858B101232B700120D9F8003083
:10570800D9F8401098473C600020BDE8F8832B7812
:1057180013B1013E04D12E702B78002BE5D1ECE7B4
:1057280041F2883040F06CFCF6E700BFD4670120F6
:1057380010B504468168183100F006FFA1682046BC
:10574800BDE81040014A183100F0A4BEDEC70400CD
:105758000EB403B5044904AA019200F0DFFC02B0BC
:105768005DF804EB03B07047D3C3040038B5836811
:105778000446D3F89832DB071DD4C06933F006FA23
:10578800606803685B689847054620B9E06833F0AD
:1057980004FBA3681D75A3685B6C13B129462046FA
:1057A8009847002241F09CFDA368C3F84023034BAF
:1057B800185802F087F86FF00F05ECE708000000B2
:1057C8000149FFF7C5BF00BFD3C304002DE9F04F5F
:1057D800A7B004465422002111A841F0F2FA002390
:1057E800CDE90533A36820467633029333F03FF8BA
:1057F800204632F09EFF10B96069FFF7E1FF0026EE
:105808004FF0FF37B246B3463546B146A06814227A
:105818000021183041F0D5FA204632F02CFFA1685B
:10582800E068B1F87020763133F0C3FA204633F0DF
:1058380042FB0DF144080396DDE90532012A6AD0DE
:10584800132B6BD867BBBBF1000F0AD0204633F08F
:1058580053FB1423A26811A976320DEB030032F032
:10586800B8FDB9F1000F0CD099F81130FE2B08D112
:10587800059B26AA02EB830252F8542C0AB1013385
:105888000593A568059B6A6A002A40F0B380D6B1E3
:10589800EB699E4227D12046FFF74AFF012514E015
:1058A80002234146029A06A832F093FDD8F8042054
:1058B80006990346029231B101290AD148B16D4ACD
:1058C800204633F04DF86FF00705284627B0BDE8AD
:1058D800F08F059B002B30D0D8F8000033F0DDF9AD
:1058E80078B146B1A5680D9618350CAE0FCE0FC528
:1058F80033682B60CFE7604A0121204633F030F847
:10590800E1E7059BCBB129462046D8F8002000F0F6
:10591800C9FE022809D1059B132B94D9069B022B9B
:1059280091D10121554B564ACAE7032805D0059B5A
:105938004FF0010B013305937EE7039B33B94846CB
:10594800D8F8001007AA32F03BFE054608F1040813
:10595800013F9DB3EB68BBF1000F08D0F3B12046BF
:1059680032F085FF204632F0FBFE464AC4E7ABB171
:10597800AE46A368DDF814A003F1180CBEE80F00CA
:10598800ACE80F00DEF80030CCF80030AB682BB97B
:105998006B7CFE2B04BF2F7C07F1FF37D5F804C0C2
:1059A800BCF1000F08D0AE460CAEBEE80F000FC623
:1059B800DEF8003033606646A94603E0059B53B124
:1059C80001230393069B17B9022B7FF435AF059B80
:1059D8000133059330E7A368DB6A13B1DB68002B5A
:1059E800EED1294B012100932046119B274A32F022
:1059F800B7FFE5E7A3EB0A0695F82830BBB14FF6E9
:105A0800FF7295F82910FF2918BF0A469E4202D353
:105A180013449E420BD9AB69012120461C4A32F03F
:105A28009FFF2046FFF784FE6FF015054DE702F053
:105A3800BDFB0121A06832F086FAA06800F54B7022
:105A480032F0A5FAA36811AA314602EB8A02204671
:105A58005B6A98470546A0684FF0FF324FF0FF3366
:105A680000F54B7032F04AFA0021A06832F06BFA68
:105A78002BE700BFECC7040000C8040061C804009D
:105A880042BC05001EC804004DC804009D8F0500D7
:105A980085C80400022210B5836804461A75836815
:105AA8009B6CBBB932F009FA8368D3F89832DB04EF
:105AB8000BD50321084B094A32F052FFA0686FF456
:105AC800805100F5267032F00EFA2046BDE81040ED
:105AD80000F0C2BC10BD00BFA0C80400AEC40400E2
