:020000040000FA
:10000000A837032089680000B16603007568000006
:10001000756800007568000075680000756800006C
:10002000000000000000000000000000956A0000D1
:100030007568000000000000196A00007568000083
:10004000AD6C0000AD6C0000AD6C0000AD6C00004C
:10005000AD6C0000AD6C0000AD6C0000AD6C00003C
:10006000AD6C0000AD6C0000AD6C0000AD6C00002C
:10007000AD6C0000AD6C0000AD6C0000AD6C00001C
:10008000AD6C0000AD6C0000AD6C0000AD6C00000C
:10009000AD6C0000AD6C0000AD6C0000AD6C0000FC
:1000A000AD6C0000AD6C0000AD6C0000AD6C0000EC
:1000B000AD6C0000AD6C0000AD6C0000AD6C0000DC
:1000C000AD6C0000AD6C0000AD6C0000AD6C0000CC
:1000D000AD6C0000AD6C0000AD6C0000AD6C0000BC
:1000E000AD6C0000AD6C0000AD6C0000AD6C0000AC
:1000F000AD6C0000AD6C0000AD6C0000AD6C00009C
:10010000AD6C0000AD6C0000AD6C0000AD6C00008B
:10011000AD6C0000AD6C0000AD6C0000AD6C00007B
:10012000AD6C0000AD6C0000AD6C0000AD6C00006B
:10013000AD6C0000AD6C0000AD6C0000AD6C00005B
:10014000AD6C0000AD6C0000AD6C0000AD6C00004B
:04015000AD6C000092
:1001580081F0004102E000BF83F0004330B54FEA70
:1001680041044FEA430594EA050F08BF90EA020FDD
:100178001FBF54EA000C55EA020C7FEA645C7FEA70
:10018800655C00F0E2804FEA5454D4EB5555B8BF93
:100198006D420CDD2C4480EA020281EA030382EA04
:1001A800000083EA010180EA020281EA0303362D96
:1001B80088BF30BD11F0004F4FEA01314FF4801C69
:1001C8004CEA113102D0404261EB410113F0004F7B
:1001D8004FEA03334CEA133302D0524263EB430332
:1001E80094EA050F00F0A780A4F10104D5F1200ED0
:1001F8000DDB02FA0EFC22FA05F2801841F100012B
:1002080003FA0EF2801843FA05F359410EE0A5F1FE
:1002180020050EF1200E012A03FA0EFC28BF4CF02F
:10022800020C43FA05F3C01851EBE37101F00045E5
:1002380007D54FF0000EDCF1000C7EEB00006EEBF2
:100248000101B1F5801F1BD3B1F5001F0CD349087C
:100258005FEA30004FEA3C0C04F101044FEA4452D3
:1002680012F5800F80F09A80BCF1004F08BF5FEA5A
:10027800500C50F1000041EB045141EA050130BD3A
:100288005FEA4C0C404141EB0101013C28BFB1F54C
:10029800801FE9D291F0000F04BF01460020B1FA97
:1002A80081F308BF2033A3F10B03B3F120020CDA6A
:1002B8000C3208DD02F1140CC2F10C0201FA0CF048
:1002C80021FA02F10CE002F11402D8BFC2F1200CAD
:1002D80001FA02F120FA0CFCDCBF41EA0C01904063
:1002E800E41AA2BF01EB0451294330BD6FEA0404AC
:1002F8001F3C1CDA0C340EDC04F11404C4F1200297
:1003080020FA04F001FA02F340EA030021FA04F3A8
:1003180045EA030130BDC4F10C04C4F1200220FAFF
:1003280002F001FA04F340EA0300294630BD21FA3D
:1003380004F0294630BD94F0000F83F4801306BF03
:1003480081F480110134013D4EE77FEA645C18BFF7
:100358007FEA655C29D094EA050F08BF90EA020F8E
:1003680005D054EA000C04BF1946104630BD91EA86
:10037800030F1EBF0021002030BD5FEA545C05D189
:100388004000494128BF41F0004130BD14F58004C8
:100398003CBF01F5801130BD01F0004545F0FE413C
:1003A80041F470014FF0000030BD7FEA645C1ABF71
:1003B800194610467FEA655C1CBF0B46024650EAA8
:1003C800013406BF52EA033591EA030F41F40021D4
:1003D80030BD00BF90F0000F04BF0021704730B55A
:1003E8004FF4806404F132044FF000054FF000012F
:1003F80050E700BF90F0000F04BF0021704730B5F0
:100408004FF4806404F1320410F0004548BF4042C4
:100418004FF000013EE700BF42004FEAE2014FEA19
:1004280031014FEA02701FBF12F07F4393F07F4FF4
:1004380081F06051704732F07F4208BF704793F0F7
:100448007F4F04BF41F40021704730B54FF460740A
:1004580001F0004521F000411CE700BF50EA01020D
:1004680008BF704730B54FF000050AE050EA0102B6
:1004780008BF704730B511F0004502D5404261EB26
:1004880041014FF4806404F132045FEA915C3FF467
:10049800D8AE4FF003025FEADC0C18BF03325FEA04
:1004A800DC0C18BF033202EBDC02C2F1200300FAB5
:1004B80003FC20FA02F001FA03FE40EA0E0021FADA
:1004C80002F11444BDE600BF7BB972B90029BEBF72
:1004D80000204FF0004106E008BF00281CBF6FF065
:1004E80000414FF0FF3000F057B8ADF1080C6DE94E
:1004F80004CE002909DB002B1ADB00F069F8DDF8CF
:1005080004E0DDE9022304B07047404261EB410199
:10051800002B1BDB00F05CF8DDF804E0DDE90223CA
:1005280004B0404261EB4101524263EB4303704720
:10053800524263EB430300F04BF8DDF804E0DDE9D9
:10054800022304B0404261EB41017047524263EB21
:10055800430300F03DF8DDF804E0DDE9022304B0D0
:10056800524263EB4303704753B94AB9002908BFA5
:1005780000281CBF4FF0FF314FF0FF3000F00CB8DF
:10058800ADF1080C6DE904CE00F022F8DDF804E0C6
:10059800DDE9022304B07047704700BF10F8012B53
:1005A80011F8013B012A28BF9A42F7D0D01A7047A8
:1005B800034611F8012B03F8012B002AF9D17047E3
:1005C800034613F8012B002AFBD1181A013870478B
:1005D8002DE9F04786468C460846089E154674461F
:1005E8001946002B40F0C1808542B2FA82F245D903
:1005F8004AB1C2F1200300FA02FC954094402EFA59
:1006080003F343EA0C0C4FEA154EA8B2230CBCFBCB
:10061800FEF80EFB18CC08FB00F943EA0C43994599
:1006280028D9EB1808F1FF3704D2994502D9A8F167
:1006380002072B44A3EB0903A4B2B3FBFEFC0EFB99
:100648001C330CFB00F044EA0344A04214D92C19D3
:100658000CF1FF3304D2A04202D9ACF102032C44BE
:10066800241A43EA07401EB1D44000233460736063
:10067800BDE8F0874746DDE76346F1E792BB431BD9
:1006880001214FEA154EAFB2200CB3FBFEFC0EFB66
:100698001C330CFB07F840EA0343984561D9EB1873
:1006A8000CF1FF3004D2984502D9ACF102002B447A
:1006B800A3EB0803A4B2B3FBFEFC0EFB1C330CFB3C
:1006C80007F744EA0344A7424DD92C190CF1FF332C
:1006D80004D2A74202D9ACF102032C44E41B43EA3A
:1006E8000040C0E7C2F120039540944020FA03F18E
:1006F8002EFA03F34FEA154E9040AFB20343B1FB15
:10070800FEFC0EFB1C10190C0CFB07F841EA00411B
:10071800884522D969180CF1FF3004D2884502D9DE
:10072800ACF102002944A1EB08019BB2B1FBFEFC2D
:100738000EFB1C110CFB07F743EA01439F420ED93D
:10074800EB180CF1FF3104D29F4202D9ACF102013F
:100758002B44DB1B41EA004193E76046E3E761462F
:10076800F7E76046A4E76346B8E7834206D916B9B7
:10077800002108467CE7C6E900E0F9E7B3FA83F709
:100788008FB9834201D3724508D8BEEB020460EBEF
:10079800030301209C461EB9002169E73846FAE7A1
:1007A800C6E9004CF8E7C7F1200CBB400EFA07F584
:1007B80022FA0CF42EFA0CF1BA401C4320FA0CF37E
:1007C800B8404FEA144901431FFA84FEB3FBF9F815
:1007D80009FB18300B0C08FB0EFA43EA00439A4554
:1007E80040D9E31808F1FF3004D29A4502D9A8F19C
:1007F80002002344A3EB0A0389B2B3FBF9F809FB0F
:10080800183308FB0EFE41EA03418E452CD96118C6
:1008180008F1FF3304D28E4502D9A8F1020321441E
:1008280043EA0040A1EB0E01A0FB02984145CE46E9
:10083800434602D306D14D4504D20138B9EB020E26
:1008480068EB0403002EA7D0B5EB0E0261EB0301A1
:1008580001FA0CFC22FA07F3F9404CEA0303C6E953
:10086800003199E74046C5E74346D9E70000000054
:100878002DE9F04706460F46904688B042F06BFADD
:100888004FF47A73A0FB034503FB0155E40B012FDA
:1008980044EA45444FEAD53507D122462B4630462F
:1008A800274934F0E3F8002012E0D8F8047025480E
:1008B8003946FFF773FE70B139462348FFF76EFEDD
:1008C80048B130463A46214934F0ECF86FF004005C
:1008D80008B0BDE8F087204617A3D3E900232946CE
:1008E800FFF7F2FD05460C4610461946184A002344
:1008F800FFF7EAFD80460F46104619464EF660227D
:100908000023FFF7E1FD82468946104619464FF459
:100918007A720023FFF7D8FDCDE902A9CDE90623B5
:10092800CDE904012A4623463046CDE90087094926
:1009380034F09CF8B7E700BF005C26050000000013
:10094800727E0400837E0400867E04008F7E04008D
:1009580080EE3600A77E0400F0B58BB0002140F68B
:10096800034009AA0AF08CFF0446002840F0B7802B
:100978000998C3681B7853B95F4BD3E8AF2F02F0CF
:100988000902D3E8EF1FC3E8E42F002CF9D107F0E0
:10099800EFF8002141F2030009AA0AF071FF0446AA
:1009A800002840F09C80099A544DD16805F17803DD
:1009B800D1F80100D1F8051003C3104607F0D8F8A4
:1009C800214641F2010009AA0AF05AFF044600280C
:1009D80040F085800998C3685A7885F870205A884D
:1009E800A5F872201A7985F87120B3F80720A5F8C0
:1009F8007420B3F80530A5F8763007F0B9F8214629
:100A080041F2020009AA0AF03BFF0446002866D119
:100A1800099F05F18006FA68531C4132344618686C
:100A28005968083303C493422646F7D1384607F07D
:100A38009FF80BF07DFD0446002850D195F88A30C8
:100A480013F0200317D12E490A6812F0060F06D0BA
:100A58002C4A0093CDE90132022237F01BFC95F8AD
:100A68007C3013F0400351D125490A68520739D127
:100A78006FF0120433E0072140F633400AF092FC8D
:100A88000646002800F0518107210C3036F091F815
:100A9800042343700623C0F8024084710470047173
:100AA8002246C370314640F633400AF0E9FE044658
:100AB800A8B9012140F631400AF074FC0646002826
:100AC80000F0338101210C3036F082F8224631469D
:100AD80040F631400AF0D4FE04460028BFD0204634
:100AE8000BB0F0BD084A1846CDE901320093012247
:100AF80037F0D0FBBCE700BFC4210020F020002065
:100B0800D42C0020412605006F260500002142F262
:100B1800030009AA0AF0B4FE04460028DFD1099BA5
:100B2800AF4EDA68D2F80100D2F8051003C61846AD
:100B380007F01EF8214642F2020009AA0AF0A0FEB8
:100B480004460028CBD1099CE368B3F8012091B290
:100B580049B1D97839B1A5F80421DA78114606F1F6
:100B6800280041F034FE204607F002F81F2395F8CC
:100B78007C60A5F8203116F0200618D1022140F635
:100B88006D400AF00FFC0446002800F0CE800221D8
:100B98000C3036F00EF801232146037046703246B9
:100BA80040F66D400AF06CFE0446002897D195F88F
:100BB8009C301F0712D5002142F21C0009AA0AF036
:100BC8005FFE044600288AD10998C368D3F801203B
:100BD800D3F80530C5E9382306F0CAFF95F8D830B0
:100BE8009E0625D50DF1220108A80AF045FF044606
:100BF80000287FF474AF042142F224000AF0D2FBEB
:100C08000646002800F0918004210C3035F0D1FF11
:100C1800BDF8203022460380BDF82230314643809B
:100C280042F224000AF02CFE044600287FF457AF55
:100C380095F8D8305C0610D5002142F22A0009AA9E
:100C48000AF01EFE044600287FF449AF0998C368DD
:100C58005B7885F8223106F08BFF082142F201000B
:100C68000AF0A0FB044600285FD008210C3035F0BC
:100C7800A0FF95F8D81040F2022311F0400F08BFEA
:100C88000323024688074CBF43F02C0043F00C00B6
:100C98008B0695F8D93048BF40F0400013F0090F93
:100CA80095F8A23018BF40F4006003F00603CF07A0
:100CB80048BF40F01000062B08BF40F4C070002168
:100CC80037F0FFFA2146002242F201000AF0D8FD6F
:100CD800044600287FF403AF95F87C20B5F804316A
:100CE800960625D4D3B9194641F2050009AA0AF097
:100CF800C7FD044600287FF4F2AEB5F80431099C1C
:100D08004BB9E368B3F80120A5F804219A8835485F
:100D1800114641F05CFD204606F02AFF082140F606
:100D280001400AF03FFB044698B96FF06804D6E624
:100D3800002BF3D12C490A68540702D16FF0040440
:100D4800CDE62A4A0093CDE90132012237F0A2FA12
:100D5800F4E708210C3035F02CFF95F8D83002461E
:100D6800D90747BF1CA1D1E900014FF00051204825
:100D780037F0A7FA2146002240F601400AF080FD2C
:100D8800044600287FF4ABAE014609AA4FF601409D
:100D98000AF076FD144E78B3336813F0060F09D0C5
:100DA800144B0222CDE901433146234600941846EC
:100DB80037F070FA0BF096FA044600287FF48FAEED
:100DC8000CF0C2FA044600287FF489AE0AF056FBFC
:100DD80085E600BFAFF30080908800020080002005
:100DE800C8210020F8210020D42C002093260500DB
:100DF80010880002B62605003368099F03F0070330
:100E0800022BFC6851D9B4F801304849032B96BF2E
:100E1800474A484A52F82320CDE90323464B032288
:100E2800029300231846CDE9003337F033FA3368CC
:100E380003F00703022B38D9B4F80130B4F80320C3
:100E4800022B4AD1052A48D83C4B53F82230CDE929
:100E580003323B4B03220293002334491846CDE961
:100E6800003337F017FA336803F00703022B1CD955
:100E7800D4F8091063790791B4F80710032B069189
:100E8800A17998BF2F4ACDE9043198BF52F82320A1
:100E98002D4B88BF274A029300230392184603224A
:100EA800CDE90033214937F0F5F9384606F060FE00
:100EB80000214FF6024009AA0AF0E2FC044670B18C
:100EC800336813F0060F3FF475AF204B02930023ED
:100ED800CDE900330222154969E7164BB7E70998AF
:100EE800C368B3F80130A5F8C13006F041FE95F8A3
:100EF800C1305B077FF55EAF21464FF6034009AA74
:100F08000AF0BEFC50B1336813F0060F3FF452AF3D
:100F18000F4B0094CDE901432346DBE70998C368EA
:100F28005B7885F8C03006F023FE43E7D42C002018
:100F380064530400DF230500DA2605004C5304003F
:100F4800F32605003C5304000B270500382705004D
:100F5800612705000000000070B514460646CD174D
:100F6800A1FB0201002304FB05110A22FFF7ACFADA
:100F78000FA3D3E900230C4D80FB054520462946E5
:100F8800FFF7A2FA06A3D3E90023306029462046DA
:100F9800FFF79AFA0023054AFFF796FA726070BDC8
:100FA80080A8120100000000D8EF2F0040420F0077
:100FB80000209BF35E10000003292DE9FF41054640
:100FC8000C4613D0072900F083806D490B6813F095
:100FD800060F08D06B4B0222029300231846CDE976
:100FE80000333DF05FFA6FF085004CE0002A53D0E3
:100FF800072AF8D158681A68634BC117C2FB030166
:10100800012871F100035CDBD5F804805F4B98F888
:101018001A60C0184FEAD61655A3D3E9002341F148
:10102800000176B2FFF750FA002E14BF0423022302
:10103800984298F91A7029D0002E14BF2023102343
:10104800834225D0002E14BF08230423984221D0C0
:10105800002E14BF10230823984232D1E6B231463D
:1010680040462D6934F02EFC002824DB3D22484BF5
:10107800002F33F81430AE77AABFA3FB02325343D4
:101088005B08EB60002004B0BDE8F0810024E5E7D0
:101098000124E3E70224E1E719883E4B14461F4682
:1010A80033F8022B914209D86868E1B22E6934F00E
:1010B80076FD002808DA6FF00400E4E701340B2C11
:1010C800EED16FF01500DEE737F81430B383D9E7B7
:1010D800002A3AD0072A86D1B4245A6819682A4BBC
:1010E800D017C1FB0320A2FB0431012A04FB001125
:1010F80070F100001DDB2848181841F100011EA3FB
:10110800D3E900230024FFF7DFF9244B33F8022B3F
:10111800904216D16868E1B22E6934F0EAFB0028E3
:10112800C9DB41F217121E4B33F814305343B36135
:10113800A8E71C48181861F100010FA3D3E90023A0
:10114800E0E70134072CE1D1BBE71988114B33F8EC
:10115800020B814206D86868D1B234F08EFD0028AF
:1011680090DAA8E701320B2AF1D1AAE7AFF30080A1
:101178003AA3950000000000D8EF2F0000000000FF
:10118800A02C00208FAB050040420F009DD14A00E3
:10119800486F0400506F0400ECF717003A6F040022
:1011A8002C6F04001408E8FF2DE9F74F03291446B3
:1011B800066905D90B1F032B53D96FF0850023E06F
:1011C8000229F7683A4D22D0032923D0012914BFF8
:1011D800B6F90460B6F90660A6FB076732A3D3E93F
:1011E800002386FB056530462946FFF76DF9002385
:1011F800304A206029463046FFF766F900232D4A19
:10120800FFF762F96260002003B0BDE8F08FB6F91D
:101218000860E1E74FF0000B02F11803DFF894A033
:101228000236019336F9028FA8FB07831EA3D3E980
:10123800002388FB059848464146FFF745F9524682
:1012480044F8080B5B4648464146FFF73DF95246CD
:101258005B46FFF739F9019B44F8042C9C42E1D125
:10126800D1E70629B5690CD007290ED02A460529E9
:1012780014BFB6F91010B6F912102046FFF76CFE2D
:10128800C1E72A46B6F91410F7E70E3602F1180737
:1012980020462A4636F9021F0834FFF75DFEA742AA
:1012A800F6D1B0E7AFF300800010A5D4E800000045
:1012B8003AA3950040420F002DE9F04F3A4B85B014
:1012C800D3F8042392070BD5D3F8042142B10022A6
:1012D800C3F80421354AD3F8043113680133136085
:1012E800334D0024A8464FF480362F4FD7F80433E7
:1012F80006FA04F919EA030F2CD00123A340DB43B3
:101308002C49D1E8EF2F02EA0300C1E8EC0FBCF149
:10131800000FF6D122FA04F3DB0703D4264B53F867
:101328002430BBB120463DF0A0FA21F04FF9EFF38D
:101338001183202282F31288BFF36F8F08EB041CFD
:10134800DCE902AB504571EB0B010AD283F311883B
:10135800BFF36F8F103514B105B0BDE8F08F0124CD
:10136800C4E70020D5E900129FED0D7B28600E48E8
:1013780003938CED027B0292C0F8489320463DF01F
:1013880074FA039B83F31188BFF36F8F0029E1D0B0
:10139800029A5B46009252468847DBE7AFF300802B
:1013A800FFFFFFFFFFFFFFFF00500150A0190120C2
:1013B800B84F002094190120405101502DE9FF41F8
:1013C8000D4618491F460B68044603F00703022B15
:1013D800164608D9144B0322029300231846CDE978
:1013E800003332F002F8DFF84880D8F80030039371
:1013F8000E4B029300231A4619461846CDE90033CE
:1014080031F0F3FF0823CDE90183BDF828303246D7
:10141800009329463B46204638F09BF904B0BDE8C6
:10142800F08100BFFC2C00204E7304006E73040092
:10143800405900201FB50B461349012B0A6802F0DA
:1014480007020DD1022A08D9104B02930023032268
:101458001846CDE9003331F0C8FF05B05DF804FB4C
:1014680023B9022AF9D90A4A0292F0E7002AF4D0ED
:101478000393084B0122029300231846CDE9003359
:1014880031F0B3FFE9E700BFFC2C00207F730400B4
:10149800A3730400CA7304001FB54368104A23F0FD
:1014A800FF039342044619D183685A1E534253419D
:1014B8000C4A137003930C4B029300231A461946E7
:1014C8001846CDE9003331F090FF00220023214671
:1014D800064804B0BDE810402CF0F2B904B010BDC5
:1014E80000011C002F350120E07304005430002057
:1014F80030B587B004460D4618220021684641F0F1
:1015080050FE064B69460293082320460195ADF824
:101518000C300EF053F807B030BD00BF4059002022
:101528002DE9FF41984F99483B6899490478013360
:101538000A78984D3B6074B1002A40F0F58001228A
:101548002B600A7040F21F520023934804B0BDE894
:10155800F0412CF00DBE914E002A77D04FF0280CA8
:101568002A680C709A1A0CFB02F2B2F5967F336067
:101578006CD28B480268002A67D09A1A0CFB02F2D8
:10158800B2F5167F61D2046002244FF0280C2A6855
:10159800981A0CFB00FE3068821A0CFB02F2B2F5B6
:1015A800967F80F086807E4A1068002800F081804F
:1015B800BEF5967F4CD900247A4B1460214622460A
:1015C800CDE9014320462346009431F00EFF012364
:1015D800754A76491370764A13600B6803F007035F
:1015E800022B08D9734B0322CDE901432046234639
:1015F800009431F0FAFE00F043FF20B16E4B1968F9
:101608001431FFF775FF012000F026FB322031F07E
:10161800FBFE002000F020FB322031F0F5FE012017
:1016280000F01AFB322031F0EFFE002000F014FB2E
:10163800322031F0E9FE012000F00EFB322031F0BB
:10164800E3FE002000F008FB7CE7036000249CE731
:101658000A78002A40F09080002C3FF473AF0024F1
:10166800564B22462146029320462346CDE90044A4
:1016780031F0BBFE02234C4A4C4913704C4A1360AC
:101688000B6803F00703022B08D94D4B0322CDE961
:10169800014323460094184631F0A7FE00F0F0FEFF
:1016A80000283FF44FAF444B19681431FFF720FF6F
:1016B80048E7BEF5967FCBD9DFF8EC8098F8003084
:1016C800042B2DD000243F4B22462146029320466E
:1016D8002346CDE9004431F088FE0423052233492E
:1016E80088F80030324B1A600B6803F00703022BAE
:1016F80008D9354B0322CDE90143204623460094FF
:1017080031F073FE00F0BCFE20B12B4B1968143188
:10171800FFF7EEFE0023224A3B602B603360136024
:1017280001222A4B1A700DE72A689B1A2822534374
:10173800B3F57A7FFFF406AF1B4D2B78032B3FF4EC
:1017480001AF0024224B224621460293204623461D
:10175800CDE9004431F049FE0322154B13491A60C4
:101768000B682A7003F00703022B97D9194B0094D2
:10177800CDE9014323468EE72A689B1A2822534362
:10178800B3F57A7FD8D267E73C5900202F3501207E
:101798002D35012038590020C02000203459002060
:1017A80030590020F47304002C350120FC2C002053
:1017B8004059002009740400182300201B740400F9
:1017C8003074040067740400797404002E35012015
:1017D80042740400577404001FB5144840F005FE15
:1017E8001349034670B90A68520706D0114A009097
:1017F800CDE90102012231F0F8FD6FF0120005B0C9
:101808005DF804FB0B6803F00703022B08D90A4BA9
:101818000322029300231846CDE9003331F0E5FD99
:10182800064840F0FEFE0020E9E700BF043A040045
:10183800FC2C002089740400A1740400543000209A
:101848001FB50C490B6803F00703022B08D90A4B94
:101858000322029300231846CDE9003331F0C5FD79
:1018680040F21F520023054805B05DF804EB2CF048
:101878004BBC00BFFC2C0020C8740400C020002012
:1018880000221921014831F0DEBD00BF8438040070
:1018980030B52349234885B041F089F8224C234DBF
:1018A800204640F0A2FD034668B92A68520707D0CF
:1018B8001F4A2946CDE901020090012231F0B4FD0A
:1018C8006FF012041BE02269A1681368204623F018
:1018D800007313600B684FF4C022192198472B68D6
:1018E800044678B15B070AD0124B03900293002399
:1018F800012229461846CDE9003331F095FD2046EE
:1019080005B030BD03F00703022BF8D90A4B0322B8
:10191800CDE9010329460346009031F085FDEEE745
:101928008918000070340020843804002C2D002011
:10193800EC740400097504002C750400F0B585B03A
:101948001D4D0C212F69AE683B68284623F480534F
:101958003B603368194A9847041E11DA18490B6826
:1019680058070AD00C230393164B02930023012235
:101978001846CDE9003331F076FD204605B0F0BDBC
:101988003B68DA044FF4805154BFF3683369284642
:1019980098470028044607DA09490B685B07ECD02A
:1019A8000C230393084BE0E740F2676000212CF01A
:1019B80069FF0024E1E700BF6C3804000002020060
:1019C8009C2C00204A750400667504002DE9F0413E
:1019D8000C234FF0000892B00546CDE90438344E88
:1019E800304640F002FD48B92846324933F05AF8EB
:1019F8006FF01204204612B0BDE8F081B7683C6869
:101A08005CB142460321304604ABA047044638B1D6
:101A18002949284633F046F8ECE76FF05704F7E712
:101A2800D7F80080B8F1000F08D0024607213046E9
:101A380004ABC047044620B12049EAE76FF05704D9
:101A4800FAE73C213046FB689847044608B11C4930
:101A5800DFE7032130463B6906AA9847044608B1E8
:101A68001849D6E7072130463B690CAA984704462F
:101A780008B11549CDE70B9B284603930A9B1349E8
:101A88000293099B0193089B0093DDE9062332F03A
:101A9800EDFF119B28460393109B0D4902930F9B62
:101AA80001930E9B0093DDE90C2332F0DFFFA1E7E1
:101AB8001C3A04007C7504008F750400B875040096
:101AC800E0750400F9750400147604002E7604000D
:101AD8005576040030B5524887B031F011FD514CAD
:101AE8000546B8B923685B0711D04D4831F008FDA9
:101AF8001B23059004934C4B012203934B4B214627
:101B0800CDE9015328462B46009531F0D6FC4FF01D
:101B1800FF3078E0464831F0B6FC00281ADA23682E
:101B28005D0711D0424831F0AEFC1C2304933E4BB4
:101B3800059003933D4B012202930023214618464A
:101B4800CDE9003331F0B9FC394807B0BDE8304081
:101B580031F099BC324831F0D3FC054640B92368CE
:101B68005807D4D02E4831F0CBFC1D230590C1E78F
:101B7800304831F088FC002816DA2368590711D05C
:101B88002C4831F080FC1E230493274B05900393C7
:101B9800264B01220293002321461846CDE9003343
:101BA80031F08BFC2348D0E71D4831F0A9FC0546ED
:101BB80040B923685A07AAD0194831F0A1FC1F235D
:101BC800059097E71C4831F05EFC0028236815DA79
:101BD8005B0711D0184831F056FC20230493124BB0
:101BE80005900393114B01220293002321461846C6
:101BF800CDE9003331F061FC0F48A6E703F0070395
:101C0800022B02D8002007B030BD0C4B03220293F0
:101C1800002321461846CDE9003331F04EFCF1E7A8
:101C280084380400442D002094760400AF76040024
:101C3800884904008049040078490400C1760400FA
:101C48000146014831F048BC884904000146014872
:101C580031F042BC804904000146014831F03CBCE7
:101C68007849040038B5124B1B789BB1114A137898
:101C780083F0010313706BB10120FFF7E7FF0E4BF0
:101C88001D784DB10020FFF7DBFFBDE8384000208C
:101C9800FFF7E2BF0020F0E7084B01201C78002C7A
:101CA800F1D0FFF7D9FF2846BDE83840FFF7C8BF95
:101CB80034350120313501203035012032350120FD
:101CC8007FB500250B4C0C4E236803F00703022B4D
:101CD80008D90023032221461846CDE9015600956C
:101CE80031F010FCFFF7BEFF4FF4FA7031F019FC29
:101CF800EAE700BF502D0020CE760400F0B5BC4DB9
:101D080085B02B6803F00703022B3DD90024B94B9B
:101D180003220293294623462046CDE9004431F0A8
:101D2800F1FB2B6803F00703022B2DD9B24B0322DA
:101D38000393B24B2946CDE901432046234600943C
:101D480031F0E0FB2B6803F00703022B1CD9AC4BE6
:101D580003220393AB4B2946CDE901432046234692
:101D6800009431F0CFFB2B6803F00703022B0BD94B
:101D7800A54B03220393A54B2946CDE901432046F1
:101D88002346009431F0BEFB0024A14F234622468F
:101D980021462046CDE90044029731F0B3FB2B6879
:101DA80003F00703022B17D99A4E23460322204635
:101DB800CDE901468E49009431F0A4FB2B6803F06D
:101DC8000703022B08D9234603222046CDE9014602
:101DD8008749009431F096FBFFF77CFE044648B132
:101DE8002B68590760D08C4B039002930023CDE9F0
:101DF800003354E00120FFF723FF4FF4167031F051
:101E080090FB2046FFF71CFFC82031F08AFB012019
:101E1800FFF71CFF4FF4167031F083FB2046FFF7E5
:101E280015FFC82031F07DFB0120FFF715FF4FF4A7
:101E3800167031F076FB2046FFF70EFFC82031F010
:101E480070FB0120FFF7FCFE0120FFF7FFFE0120D9
:101E5800FFF702FF4FF4167031F063FB2046FFF7DF
:101E6800EFFE2046FFF7F2FE2046FFF7F5FE6B4B2C
:101E7800224621462046CDE900440293234631F00C
:101E880041FBFFF7A9FC26462B68044678B15A07A0
:101E98000AD0634B0390CDE90163334600960122D3
:101EA8001846534931F02EFB204605B0F0BD03F02B
:101EB8000703022B08D95B4B0322CDE901034C49E8
:101EC8000346009031F01EFB0024FFF7B9FC2346BF
:101ED800224621462046CDE90044029731F012FB04
:101EE8002B6803F00703022B09D94F4B0322CDE9D6
:101EF8000143204623463E49009431F003FBFFF797
:101F0800C7FC2B68044620B15B07CDD0474B039034
:101F18006BE703F00703022B08D9454B0322CDE9F1
:101F2800010333490346009031F0ECFA0020FFF733
:101F380087FE0020FFF78AFE2B6803F00703022BB9
:101F480019D900263B4B0322029330463346CDE98C
:101F58000066274931F0D6FA2B6803F00703022BF5
:101F680009D9354B0322CDE9016330463346204970
:101F7800009631F0C7FA322031F0D3FA0120FFF78A
:101F88006BFE2B6803F00703022B09D92B4B0322A6
:101F98000293002316491846CDE9003331F0B2FA0E
:101FA8004FF47A7031F0BDFA2B6803F00703022B67
:101FB80009D9234B0322029300230D491846CDE982
:101FC800003331F09FFA0020FFF746FE2B6803F03C
:101FD8000703022B7FF668AF1A4B032202930023F4
:101FE80003491846CDE9003331F08CFA5CE700BFAD
:101FF800502D0020E2760400EE760400FB76040003
:10200800057704000B770400217704003677040075
:10201800DD8004004C7704006277040085770400B3
:10202800B3770400D8770400EB7704000378040042
:102038002C7504002C7804004C78040060780400A7
:102048007278040087780400054803691B689B05BB
:1020580083684FF4007154BFDB681B69184700BFE1
:102068006C380400054802698168136823F400731A
:1020780013600B684FF40032092118476C380400CC
:102088002DE9F74F3E4B06461B78914643B93D492B
:1020980032F008FD4FF0FF34204603B0BDE8F08F62
:1020A800022905D8384932F0FDFC6FF01504F3E732
:1020B8000022D9F8040011462FF0FEFF8046D9F817
:1020C8000800FEF77DFA4708384641F020F8054633
:1020D800E8B1002400F1FF3A4FEA470BA3454FF05F
:1020E80000031BD1DFF8B090FFF7BCFFFFF7ACFF90
:1020F8000121484601F08CFD041E23DA30462246B1
:10210800224932F0CFFC284640F0FAFFC4E73046B7
:102118001F4932F0C7FC6FF00B04BDE7D9F808205F
:1021280001A8115D22448DF80410527800218DF821
:10213800052010228DF806302FF0BEFF02340AF871
:10214800010FCBE7D9F808302A465C6841463B4680
:102158004846A047041E0CDA224630460D4932F0A4
:10216800A1FC284640F0CCFF00210B4801F050FDAF
:1021780092E743463A463046084932F077FCF0E7A2
:1021880033350120B6780400D478040008790400B7
:10219800ED78040025790400A4390400447904008A
:1021A80030B51E4B05461B7885B03BB91C4932F04B
:1021B80079FC4FF0FF34204605B030BDFFF752FFE1
:1021C800FFF742FF0121174801F022FD021E03DA42
:1021D8002846154932F066FC124883689B696BB142
:1021E80003A99847041E0CDA224628460F4932F004
:1021F80059FC00210B4801F00BFDDCE76FF085046A
:10220800F2E79DF80E30284600939DF80C209DF8C3
:102218000D30074932F02AFCEBE700BF33350120C7
:10222800B6780400A4390400087904005E79040033
:102238007C7904002DE9F0432C4B07461B781446A3
:1022480085B043B92A4932F02DFC4FF0FF342046BF
:1022580005B0BDE8F083022905D8264932F022FCF2
:102268006FF01504F3E70022606811462FF024FF91
:10227800002206461146A0682FF01EFF0546FFF70C
:10228800F1FEFFF7E1FE01211B4801F0C1FC041E2D
:102298001BDBDFF864909DB1102DA84628BF4FF0D6
:1022A8001008D9F808306A461C6831464346124877
:1022B800A047041E0FDA22463846104932F0F2FBD6
:1022C80000210D4801F0A4FCC1E7224638460C491C
:1022D80032F0E8FBBBE7314643466A46384602F02F
:1022E8008BFE4644A5EB0805D5E700BF3335012032
:1022F800B678040096790400A4390400B179040082
:1023080008790400F0B51346294A0546127885B0C5
:102318003AB9284932F0C6FB4FF0FF34204605B0E1
:10232800F0BD012905D8244932F0BCFB6FF0150433
:10233800F4E70022586811462FF0BEFE1F4F0646EC
:10234800FFF790FEFFF780FE0121384601F060FCA0
:10235800041E05DA22462846194932F0A3FBDDE7B8
:102368003146384601AA3BF0F9FC041E09DA224638
:102378001449284632F096FB0021104801F048FC29
:10238800CCE7029ABB689B683BB131463846984710
:10239800041E05DA22460C49EBE76FF05704F9E70B
:1023A80033462846029A094932F060FBE4E700BF49
:1023B80033350120B6780400D1790400A43904002B
:1023C80008790400EA7904000E7A04002A7A0400E5
:1023D800F8B50446204E304640F007F830B9326868
:1023E8001E49204632F05EFB0020F8BD29F09EFE13
:1023F80020461B4A1B4932F039FB1B4D1A212A691A
:10240800AF681368284643F0806313603B68174A37
:102418009847021E01DA1649E3E7BF6957B14FF43E
:1024280080024FF000731A212846B847021E04DACA
:102438001049D6E76FF05702FAE720460E4932F006
:1024480015FB0021304601F0E3FB021E01DA0B49BF
:10245800C7E731F0B7FB00BFCC380400C07A0400EE
:10246800D87A0400E47A04008438040011000100DA
:10247800FA7A0400227B0400547B0400847B040065
:10248800014B1868704700BF485900202DE9F04FEC
:1024980091B0009302F004030293C2F3C203013324
:1024A800840705460E46DDF868900392059340F0D0
:1024B800BB81041D30B1072909D86FF01B0011B08A
:1024C800BDE8F08F01F00706341DC6F10806009B31
:1024D8004FF000084FF0040A591E4FF0FF334746EB
:1024E8000193C3465346CDF810800DB10098206083
:1024F8000598002800F3E8809848009A824203D3A0
:1025080097488242C0F0E080039AA4EB050E920738
:102518004FEA9E0000F103810F2F00F2B180002DD9
:1025280000F0058107F140020DEB020C019A0CF84E
:10253800200C0CF8102C049801300490E7E07A285D
:102548005DD84B280ED8472859D829282DD82528B2
:1025580052D054D820287AD02338D0F1000B4BEB36
:10256800000B74E04C382E2849D8DFE800F070489A
:10257800484848484848484848484B4848484848D0
:1025880048484859484B4B595959704B6D48704801
:10259800184B184848827F4B48484B487F0000201A
:1025A8004FF0000B4FF0040A38E001222A38C0B27D
:1025B80002FA00F010EA0E0F49D110F0625C2FD138
:1025C80010EA020B43D06046013C5444B4FBFAF4D1
:1025D8000AFB04F4002D61D0A3EB050CA444B44518
:1025E8003FF66BAF002868D1042B47D159F8043B5C
:1025F8002360042304342AE0019A013A01924FF03F
:10260800000B24E011F8010C6C2834D1002011F8DB
:10261800023C83466C2BC5D14FF0080A5346D3E7DA
:1026280009F1070929F00709073424F00704F9E834
:1026380002AB35B106982044B0423FF63EAFC4E93C
:1026480000AB4FF0000B08344FF0080A534611F85E
:10265800010F002878D0BBF1000F7FF470AF252858
:10266800F5D14FF0010B019B013301934FF0040AA0
:10267800ECE7584694E700208346A5E7082B02D0EC
:102688006FF015001BE709F1070929F00709B9ECF4
:10269800027B84ED007B08230834D8E768B9042B53
:1026A80002D109F10409A4E7082BE9D109F10709C6
:1026B80029F0070909F10809EDE70598013805909F
:1026C80059F8040B009010E7039A900720D54FF0B3
:1026D800010CA4EB050E4FEA9E00BEF5007FCFD299
:1026E8000F2FCDD8F5B107F140020DEB020E019A7C
:1026F800C0B20EF8200C0EF8102CBCF1000F3FF4FD
:102708001AAF60F07F000EF8200C08F101080137BD
:10271800C5F108024FF6DA7E0434069297E74FF0C7
:10272800000CDAE7BCF1000F01D00136EFE7029A9E
:102738000236002AEBD10098CDE90631FDF740FFBB
:10274800DDE906310644E2E7631BB3F5806F97D2F3
:1027580045B9A6F10804E018B1E600BFDC3604006C
:1027680034EF0500029A9B0828602B709DF8103002
:10277800C2B1EB7085F80280B8F1000F05D00022D5
:1027880008A8C5F1010C97420ED14FF0000AC5F117
:1027980001030DF1200901930DF1300B574512D1BA
:1027A800601B8CE66B70E5E710F8013B190608D54D
:1027B80004EB0C0EB64503F07F033FF67EAE04F83B
:1027C800013B0132DFE7B8F1000F03D099F900208F
:1027D800002A17DB029BD3B11AF80B2004F8012B4F
:1027E8000022019B98182044B0423FF666AE99F843
:1027F8000000009904F8010B2046039240F0AAFC5F
:10280800039A14440AF1010A09F10109C6E799F883
:10281800002055F822300093029B009845F822309A
:10282800FDF7CEFE421CDCE76FF00D0047E600BF67
:10283800014B1860704700BFA023002080B50546F3
:102848000E46174698462CF059F8034640F038FFD4
:102858000446DFF81890424649F8003039463046B9
:10286800A84754F8090004F079F800BF08000000F0
:102878002DE9F047058B04462807904611D4022914
:1028880005F0070540F0CC80204631F0F5F978B125
:102898000138218B042811D8DFE800F0C2106D85BB
:1028A800950001290CBF45F0100545F0200525834A
:1028B80088F31188BFF36F8FBDE8F08701F0070A2E
:1028C800AA4500F0A5800027B9463E46A368002B1C
:1028D80000F0BC8041F00801218388F31188BFF320
:1028E8006F8FA168002900F0BA800D68002900F0F8
:1028F800B680334652462046D1F80480C047002DA2
:1029080076D02B6829461D46F0E701F007035A1FC9
:10291800012A1BD8002221F00701062B276889B25B
:10292800C4E9002209D13B4603E0628B013262838D
:102938001B68002BF9D141F002012046218331F0B8
:102948009BF900287AD041F0200176E0042B0AD1C7
:1029580021F0070189B22046218331F08DF910B1A9
:1029680041F020012183218B01F0070AAA454FD0AD
:102978000027B946AAE7236921F0070141F00601BB
:10298800062DD3F8009021832DD1B9F1000F3FD047
:1029980041F00801218388F31188BFF36F8F204627
:1029A8003949C84729E021F00701236941F00401AA
:1029B80089B2042DD3F804902183E6D000274FF084
:1029C800040A3E4682E721F00701236941F0050128
:1029D80089B2052DD3F808902183D6D000274FF06F
:1029E800050A3E4672E700274FF0060A3E466DE7A5
:1029F8002B4687E7B9F1000FD1D1EFF311882023D7
:102A080083F31288BFF36F8F238B23F0080323838C
:102A1800258BEA062ED525F01003238305F007053C
:102A28006669218B002EBFF670AF00232768C4E9C2
:102A3800003321F0070141F001012183218B4FF080
:102A4800000901F0070AAA457FF440AF002F9CD087
:102A580041F00801218388F31188BFF36F8F002F9D
:102A6800C8D03D68394633465246204631F030F9E1
:102A78002F46F4E7AB067FF51BAF25F02003238331
:102A880005F0070500E700BF053D03001FB5034635
:102A980078B914490A68520706D0134A0090CDE95C
:102AA8000102012231F096FA6FF0150005B05DF8C9
:102AB80004FB836873B90B490A68520707D00B4AAD
:102AC8001846CDE901320093012231F083FA6FF004
:102AD8000400EBE71B681BB105B05DF804EB184771
:102AE8001846E3E7402D0020D77B0400E87B04006C
:102AF8001FB5034678B914490A68520706D0134A25
:102B08000090CDE90102012231F064FA6FF015005E
:102B180005B05DF804FB836873B90B490A6852076E
:102B280007D00B4A1846CDE901320093012231F053
:102B380051FA6FF00400EBE75B681BB105B05DF874
:102B480004EB18471846E3E7402D0020D77B040024
:102B5800E87B040030B585B008B101B182B91649E7
:102B68000B685A0708D0154B012202930023184618
:102B7800CDE9003331F02EFA6FF0150005B030BD05
:102B880084680CB1E5687DB90B490B685B0708D010
:102B98000B4B0122029300231846CDE9003331F094
:102BA80019FA6FF00400E9E741F8040BE36805B08F
:102BB800BDE83040184700BF402D0020067C0400C7
:102BC800E87B04001FB5044678B91E490B685B070B
:102BD80007D01D4B0122CDE901030090034631F0D7
:102BE800F9F96FF0150004B010BD036873B9154901
:102BF8000A68520707D0154A1846CDE901320093F2
:102C0800012231F0E7F96FF00100ECE79A680AB1A8
:102C180012697AB90B490B685B0708D00C4B012283
:102C2800029300231846CDE9003331F0D3F96FF051
:102C38000400D8E74168184690470028D3D120609F
:102C4800D1E700BF402D0020327C0400437C040003
:102C5800E87B040030B51346044685B078B91E49B0
:102C68000B685D0707D01D4B0122CDE901030090D9
:102C7800034631F0AFF96FF0150005B030BD0068BC
:102C880070B915490B685A0707D0154B0122CDE9D1
:102C980001030090034631F09DF96FF00100ECE765
:102CA80082680AB195687DB90B490B685B0708D043
:102CB8000C4B0122029300231846CDE9003331F072
:102CC80089F96FF00400D8E70A46AC46616805B098
:102CD800BDE83040604700BF402D0020327C040032
:102CE800437C0400E87B0400034A13680BB952686C
:102CF80013600020704700BFA423002030B50C46A5
:102D08000E4985B00291D0F8D4110546CDE90031BD
:102D180000F1F0014FF0FF33204629F08FFF50B942
:102D2800012384F86C30D5F8D03123B1204605B0A2
:102D3800BDE83040184705B030BD00BFED40030086
:102D480038B50C461146054631F0CEF9034638B978
:102D58002846044931F0C8F903460020236038BDED
:102D68000120FBE7DE8004002DE9F04F01238146B6
:102D7800056946688FB005F20447D7E8EF2F002AA7
:102D880003D1C7E8E13F0029F7D10CBF1A4600225A
:102D980040F0BF80B368B16A05F5F8781C1F10468B
:102DA80031F026FA84427DD8013A00F0AC80B2FABC
:102DB80082F24FF00044D44072682046073222F075
:102DC8000302C5F88822B16A31F012FAC5F88C02FC
:102DD800B36A40466343033323F0030302EB430221
:102DE800230103EB4403093323F0030303EBC40378
:102DF800C5F880221A440832C5F87C227368C5F8E1
:102E08008442C5F87832444BC5E9B363D9F8003039
:102E1800C5F82432316800F0EBF9044600283FD1A8
:102E2800D9F810B0D9F804A0D9F800300BF53A79E0
:102E3800059004934846DAE90734012B08BF103C93
:102E48003FF0AEFDDAF82400344904AB009301EBFF
:102E58008021234648464FF480622BF0B1F82021A8
:102E6800DAF824302E4A06A82FF084F806A9484636
:102E78002BF084F92B490BF536703FF02CFDDAE97D
:102E8800050183685C684CB15B46274AA047044645
:102E980030B9DAE9050183681B692BB96FF057046B
:102EA800002129E001327AE70122984704460028E8
:102EB800F6D11E4B2846C5F8D0311D4BC5F8D43184
:102EC8001C4B0393D5F838320293D5F83032CDE94C
:102ED8000083D5F89032B26AD5F8001400F050F9A2
:102EE80004460028DCD105F1F00029F04DFF002848
:102EF800C5F808040ADB0221384631F029F92046D2
:102F08000FB0BDE8F08F6FF00B04C9E76FF0150440
:102F1800C6E76FF07704F2E743410300A876022082
:102F2800687C0400294103001D410300412F000073
:102F3800CF4203008941030013B5044640B1002382
:102F48000122CDE90032074BD0E9091229F026FE0B
:102F5800236F1B6823B1606F02B0BDE810401847AB
:102F680002B010BDDE80040013B50446084621698E
:102F780001F20441D1E8AF1F022910D193B1A0B1E9
:102F88000121CDE900311346D0E9091229F006FEE6
:102F9800074B984208BF6FF00B0002B010BD6FF0EE
:102FA8000F00FAE76FF04C00F7E76FF00100F4E765
:102FB8002EF8FFFF2DE9F74388461546066906F205
:102FC8000443D3E8AF3F022B5FD1136823B96FF0F6
:102FD800150003B0BDE8F0831B78002BF7D0D6F8B6
:102FE8000094B9F1000F33D106F5EC774FF0FF32BA
:102FF8004FF0FF3338462AF015FD30462A6801A9FC
:10300800FFF79EFE019C1CB9384631F09FF8DEE7B9
:1030180005F1080323676B6984F86C90636764643F
:1030280060B1384631F092F821463046A36E2A68DE
:10303800FFF764FE0020C8F80040CAE7202229688C
:1030480004F1480040F009F9384631F07FF8F1E71B
:1030580030460F4931F048F804460028B7D005F14A
:10306800080303676B6940644367002380F86C308A
:1030780020222968483040F0F0F8224601213046E5
:1030880000F060F80028D5D0A1E76FF00F00A0E7A6
:10309800DE80040010B50C46006900F20443D3E852
:1030A800AF3F022B0FD189B10A4900F536703FF0C6
:1030B8004DFC20463EF06DFE78220021204640F06F
:1030C80070F8002010BD6FF00F00FBE76FF00100F3
:1030D800F8E700BF4C5900202DE9F04F05460E4691
:1030E80090460027D0F8C4A085B0AAF5BE74214642
:1030F8003046FDF753FAE0B9114BA4F1480B02939F
:10310800DAF810303246CDE9008329464FF0FF3314
:103118005846AAF5E27929F091FD60B97823012291
:1031280003FB079383F86C20DAF80C300BB1584690
:103138009847783417B105B0BDE8F08F0127D6E776
:10314800FD4203001FB5144690B18AB1012912D17E
:103158000A4B00F1F0010293D0F8D43148320193C0
:103168004FF0FF332046009329F068FD04B010BDEE
:103178006FF01500FAE70020F8E700BFFD420300F2
:103188002DE9F04387B00E46DDE90E811446DDE9EE
:1031980010251F4630B329B3DFF850C000F1F009FD
:1031A800002D08BF65469EB9CDE9034400F5E274D9
:1031B800204605963FF087F803ABCDE900432A4641
:1031C8003B464146484629F057FE07B0BDE8F08324
:1031D800002241460E9248462A4607B0BDE8F04311
:1031E80029F0A0BF6FF01500EFE700BFE130000045
:1031F800F0B50E46044689B0002872D0436B0BB96F
:10320800394B436301232246E3630023D4F8981023
:1032180004F1400042F8301FCDE901334FF0FF338D
:103228000093D4F89C303DF04DFD304A06AB92E84F
:10323800030083E80300184625F01EF80546D8B9B0
:1032480004F1340024F0FAFF0546A8B9616B284858
:1032580005AA3DF013FD054670B9059B9A6872B141
:103268000C33D4F89400C4F8A03031F074F8C4F8E2
:10327800D40030B96FF00B05284609B0F0BD0346FD
:10328800EFE7D4F8940031F066F8C4F8D8000028C5
:10329800F0D0D4F88C30D4F8A010C4F8A8300423A7
:1032A800C4F8AC30C4F8C4300223A362114BB4F89C
:1032B8009420D4F8D470C4F8B810C4F8D010D4F856
:1032C8009010236204F1A403A4F8B020C4F8A470F9
:1032D800C4F8C010A4F8C820C4F8BC00A661E36212
:1032E800CAE76FF01505C7E7747C04007045040051
:1032F8007E7C0400784A04002DE9F84F81462F4867
:103308000F4631F06AF8064670B92D4C0546A046BE
:103318004FF0010BDFF8ACA0544507D3B9F1000F0B
:1033280002D04FF0010AE5B9BDE8F88F237B6BB1F5
:103338002368DB680BB12046984723681B6943B9AB
:10334800636804222046196800F094F901361034A5
:10335800E2E7204698470028F2D00BFA06F31D430F
:10336800F4E7A94695FAA5F4B4FA84F40AFA04F342
:10337800260108EB04146FEA030B25EA0305237BF7
:1033880063B158F806301B6993B946447368042240
:103398002046196809EA0B0900F06CF9002DE1D103
:1033A80027B14FF4A47000212BF06CFA4D46BAE710
:1033B800204698470028F1D1E7E700BF7C59002054
:1033C800543F0400943F0400014B53F82000704719
:1033D800A44A040008B5034608462BB1044A136002
:1033E80000F07EFB002008BD6FF01500FBE700BF72
:1033F800D023002008B50023074A4FF4004113707A
:10340800064A07481360074A1360FFF7E3FFBDE861
:10341800084000F07FB800BF3535012074590020FE
:10342800DF4303007859002070B50B4D297841B966
:103438000120FFF761FF094C094EB44202D3012372
:103448002B7070BD63685B791BB1236820469B684D
:1034580098471034F1E700BF35350120543F040088
:10346800943F040010B50446064830F0B6FF3CB15E
:10347800054BD3E8EF1F0139C3E8E21F002AF8D152
:1034880010BD00BF74590020785900202DE9F04183
:10349800164B05461B689847154CDFF85880A860FE
:1034A800444501D3BDE8F08163685B793BB1297875
:1034B8004B0706D52368294620461B6898471034D1
:1034C800EEE728462E88C1F3C20700F06DF9C6F36F
:1034D80082160246002EEDD00028EBDB0123394688
:1034E800204600F0E1F8B042E9D3E3E7D02300201A
:1034F800543F0400943F0400044A054B9B1AB1EB67
:10350800D30F34BF52F83100002070470C3D04003F
:10351800543F040000210B480B4B30B51B1A0B4CD1
:10352800DB080430994200D130BD10F831202568FD
:1035380002F0070225F007052A4344F8042B01315D
:10354800F0E700BF0C3D0400543F04009C2C002011
:10355800F8B5064600240A4F0A4DED1BED08AC42AB
:1035680003D14FF0FF342046F8BD57F8340020B19E
:103578003146FDF713F80028F5D00134EFE700BF16
:103588000C3D0400543F040000282DE9F04788460C
:1035980015461F461DDA4FF0000A5446DFF8A09082
:1035A800234EA6EB09063609B24509F1100902D1E6
:1035B8002046BDE8F08759F80C0C3B462A464146A0
:1035C8000079FFF7E1FF844238BF04460AF1010A97
:1035D800EAE7184B184AD21AB5EBD20F26D203EBFA
:1035E800C5031C79BC4228BF3C460722134EC0B213
:1035F80000EB400056F82530824023EA020304F02D
:103608000702824013430021032223FA02F000F04C
:103618000700814202F1030238BF01461E2AF4D195
:1036280023F007030B4346F82530C1E70024DCE705
:10363800943F04000C3D0400543F04009C2C0020DF
:10364800543F0400F8B506460F460024074D084BC2
:10365800ED1AED08AC4200D3F8BD002122B23B467A
:103668003046013430F0DAFEA4B2F3E7543F0400E8
:103678000C3D040038B50D4611460A4B4268C31A82
:103688001B1104460133137143689971FFF7DAFF80
:10369800012263681D6063685A71BDE8384030F0E4
:1036A800BABE00BF543F040070B14168097973B1D4
:1036B800002A17DBCBB20C4903EB430351F8220075
:1036C800D84000F0070070474FF0FF31EFE7074997
:1036D8000748401AB2EBD00F3ABF01EBC201087994
:1036E80018467047042070479C2C00200C3D0400AD
:1036F800543F04002DE9F04F87B004AF0446D7E9E2
:103708000EA90E46934698463D6BBAF1000F22D09B
:10371800C7F80490CDF800901021534600207A6B2A
:10372800FEF7B4FEB0F5006F014615D31C490B68CF
:1037380013F0060F0BD040F2FF730393194B0222CC
:10374800029300231846CDE9003330F094FE0C377D
:10375800BD46BDE8F08F514604F007040BF0070B97
:10376800E40044EA8B1444EA412444EA055417353A
:103778000D4425F00705ADEB050D04ADBAF1000FBA
:1037880007D0CDF8009053467A6B05F11000FEF78C
:103798007DFE434622463146284630F053FED6E7A2
:1037A800482D0020937C0400406820B1034BC01AC8
:1037B80040F38F0070474FF0FF3070479C2C00207B
:1037C8000EB403B503AB53F8042B01460448019328
:1037D80003F0B0FC02B05DF804EB03B0704700BF23
:1037E800BB440300CA0605D48B064CBF02490349F3
:1037F800FFF7E6BF704700BFDD800400ADE50500B8
:103808002DE9F04F87B09DF8446004460D46904678
:103818009946002E00F0A280159B03F0020A03F0DF
:1038280001030493159B03F0080B03F480730593BD
:1038380030F0F2FD024600283DD020469449FFF7BB
:10384800BFFF0746BAF1000F09D0159B13F0440FCC
:1038580033D12A4620468F49FFF7B2FF0744049B1D
:1038680053B18D4B204653F826208C4B8C49002AA7
:1038780008BF1A46FFF7A4FF059B002B49D0BBF1F0
:10388800000F64D1B8F1000F66D042462046854942
:10389800FFF796FF0546129B3D44002B6DD1149B04
:1038A800002B73D1159BDB0700F1EB80204615999F
:1038B800FFF798FFD8E00746C4E77B4B1868002855
:1038C800CCD07A4B4FF47A7A1B684FF46161B5FB20
:1038D800F3F5B5FBF0F300FB13550AFB05F5B3FB55
:1038E800F1F2B5FBF0FE4FF03C0C01FB123100FB8E
:1038F8001E55B1FBFCF30AFB05F5B5FBF0F50CFB17
:10390800131120460091CDE901E56949FFF758FFF9
:10391800A4E7BBF1000F1DD0664B204653F82620C4
:103928006549FFF74DFF0546B8F1000F05D042463F
:1039380020465C49FFF744FF0544B9F1000FAAD0BF
:103948004A4620465D49FFF73BFF0544A3E74FF091
:103958000009E1E75D46E7E745469CE7B9F1010F55
:10396800129B06D1002B66D1149B002B7CD000251E
:103978000CE0002BF8D052485EE05248129B2246D9
:10398800514930F0AFF8149B002B6AD0DFF844811E
:10399800DFF84491149F2046102F159928BF10274F
:1039A8004FF0000BFFF71EFF5D4547DC139B4946B0
:1039B80020461A78FFF704FF4FF0010B1BF0070FA2
:1039C80003D141462046FFF7FBFE5F453DD9139BD7
:1039D8004946204613F80B20FFF7F2FE0BF1010BC6
:1039E800BBF1100FEAD14FF0000A20463749FFF724
:1039F800E7FE5246DFF8E4B0139B20469A5CA2F13A
:103A080020015F2928BF2E225946FFF7D9FE0AF167
:103A1800010ABAF1100F1DD01AF0070F03D1414661
:103A28002046FFF7CDFE57455246E5D84146204689
:103A3800FFF7C6FEEBE7234835469FE74146204699
:103A4800FFF7BEFE0BF1010BAEE720462049FFF75A
:103A5800B7FEC3E7139B3B441393149BDB1B1493E0
:103A680098D1002E7FF41EAF6268A168D2E90023C6
:103A7800206830F010FD002263681A6007B0BDE8C6
:103A8800F08F2046054A0649FFF79AFE0EE700BF69
:103A98000F460500D07C0400B44A0400CB7C040027
:103AA800B8810400F57C0400845900208059002066
:103AB800D97C0400C84A0400F97C0400FF7C040097
:103AC800D7440300BB4403003D7100000A7D040095
:103AD80091B8050093B80500047D0400E9130500BA
:103AE80000210123064A904206D8064A01B901235B
:103AF8001360054B18607047012140085B00F2E72E
:103B080040420F0080590020845900200122014BB7
:103B18001A70704736350120014B00201960704734
:103B28009C59002010B5064B0C461868FFF74CFC52
:103B38002146BDE8104003460F220248184700BF3F
:103B48009C590020F84A04000122F8B5084B094D99
:103B5800094E1A70D5E900470CB92C60F8BD21460A
:103B680030463A4600F00AF8241A0644F4E700BF43
:103B7800373501209059002038350120F8B507461F
:103B88000E460424174D32463946002029F054FBCE
:103B9800C8B101232B70144B1B782BB93046F8BDE4
:103BA8005CB92C704FF0FF34002029F0D7FB0028B7
:103BB800F4D02B78002BF3D1F0E7013C41F28830A8
:103BC8003EF00EFCF0E72B7813B1013C04D12C70C9
:103BD8002B78002BD7D1E1E741F288303EF000FC8A
:103BE800F6E700BF3635012037350120014B036069
:103BF80000207047084B040003289ABF024B53F873
:103C080020000248704700BF084B0400DE80040013
:103C180070B544690D469CB31E4A2379565CB3427D
:103C280031D01D4A525C9A4230D1A3689847002887
:103C380010DA022D0CD0032D0BD110F1860F07D00E
:103C4800D4E8EF3F43F00203C4E8E23F002AF6E776
:103C5800267170BD022D267101D00020F9E7D4E845
:103C6800EF3F23F00403C4E8E23F002AF7D1D4E889
:103C7800EF3F23F00203C4E8E23F002AEDD0F6E765
:103C88006FF05700E5E76FF07700E2E76FF0850027
:103C9800DFE700BF547D0400507D040010B5084CD8
:103CA80086B024788DF81740012402940DF117048A
:103CB8000194BDF82040009435F04BFD06B010BDCE
:103CC8006E2C00207FB50BAB05930393054B0322A5
:103CD800029300231846CDE90033FFF70BFD07B028
:103CE8005DF804FB6E7D04001FB50A460B490B689E
:103CF80003F00703022B0ED909480A4B012A08BF13
:103D080003460393084B0322029300231846CDE988
:103D18000033FFF7D7FF05B05DF804FBA82C00209F
:103D2800B70C0500546505006E7D04002DE9F843C5
:103D38000646FCF745FC0546EFF31188202383F37C
:103D48001288BFF36F8F114B1C68D3F804909C4204
:103D580008BF002434B988F31188BFF36F8F204659
:103D6800BDE8F883A7683846FCF72AFCA84206D1C4
:103D78002A46394630463FF05EFA0028EBD04C45DB
:103D880001D02468E6E70024E5E700BF20240020EE
:103D9800F0B585B00E461546FFF7C8FF044648B390
:103DA800C3683BB31F692FB3062E08D0072E25D052
:103DB8002A4631463B4605B0BDE8F0401847838A9D
:103DC8003BB92A463146B847B0B9A38A0133A38222
:103DD8001DE04FF6FF729342F8D11A490B685B0752
:103DE80008D0194B012202930023CDE9003318466D
:103DF80030F0F9FB6FF0150005B0F0BD4DB12A7831
:103E08003AB10022828231462A461B69984700202F
:103E1800F2E7A38A012B08D12A4607212046B84792
:103E28000028E9D1A38A013BD1E7002BFBD1054942
:103E38000A6812F0060FDDD0044A0093CDE901327A
:103E48000222D4E70C2D0020877D0400A97D040000
:103E58001FB5044608B1806880B916490B685A072F
:103E680008D0154B0293002301221846CDE90033F0
:103E780030F0B9FB6FF0150004B010BDFFF756FF26
:103E880028B10C490B685B07F4D00C4BEAE7A08219
:103E9800EFF31181202383F31288BFF36F8F084B50
:103EA8005A68C4E9003214605C6081F31188BFF37A
:103EB8006F8FE1E70C2D0020C77D0400E07D040032
:103EC8002024002010B504463AF0F1FC03490246CC
:103ED800204630F0CBFD002010BD00BF207E04003E
:103EE8001346002273B5044601920A21586801AAB4
:103EF80001F0D2F9019D95B920EAE0744FF400462B
:103F0800294640F2E7304FF47A720023C4FB0601D9
:103F1800FCF72AFB2AF0B6FC284602B070BD2A46F8
:103F28002046024930F0BEFD019DF5E74C7E0400B5
:103F380008B5034A034930F099FD002008BD00BFC9
:103F4800397F0400407F04002DE9F3411746002320
:103F580004460A21B86801AA019301F09DF9019D60
:103F6800C6B24DB12A462046134930F09BFD019D4B
:103F7800284602B0BDE8F081042E09D93246204611
:103F88000E4930F08FFD204630F0E7FD0125EFE7C0
:103F98007868FFF7DDFAB0F1000804DA20467A689D
:103FA800074930F07FFD0021334608460FFA88F2B2
:103FB80030F034FADCE700BF637F04008A7F040036
:103FC800A17F040010B504461EF060FC07490246B4
:103FD800204630F04BFD2046054930F047FD21468C
:103FE80004482AF047FD002010BD00BF00800400EF
:103FF8001F8004000140000070B58EB004460D46D5
:10400800D0F89C603EF02AFD03463FF059FB214A58
:1040180021491058214A002B18BF1A460092204AFD
:104028002346844218BF0A4628461E4930F01EFD22
:10403800D4E90A23CDE90023284694F90E30227BDF
:10404800194930F013FD06A9202220462AF0A6F8C7
:10405800636E02461549284630F008FD204605A93A
:104068003EF00CFD024628B12846114930F0FEFC0E
:104078000EB070BD6422059B2846F11A4A43B2FB74
:10408800F6F20091CDE901620A49324630F0EEFCC1
:10409800EEE700BF0800000093B80500298004007F
:1040A800C41205002C8004003880040064800400D9
:1040B8007B800400A8800400F0B50025044691B078
:1040C800294608AF1C2209A83FF06BF8134E1A22A4
:1040D800202138463FF065F8214611482AF0CAFCED
:1040E80007AA4FF4006130463EF0BCFC6423079AEF
:1040F8002046C2F500614B43DB0A05934FF4006389
:104108000097CDE90313CDE9013206492B46324623
:1041180030F0ACFC284611B0F0BD00BF680E03209B
:1041280031410000F480040070B504460D46D0F813
:104138009C6088B007A93EF0A1FC024628B1284639
:104148000E4930F093FC08B070BD20463EF086FC66
:104158006422079B0096F11A4A43B2FBF6F2CDE9B6
:104168000131074BCDE90362002818BF03462246F8
:104178002846044930F07AFCE5E700BF7B8004005C
:10418800298004003D8104002DE9F04389B00546EB
:1041980002A829F053F91823029E082103FB0066A0
:1041A8001E4A284630F047FC1D4F029CDFF87C80F1
:1041B800DFF87C90B44203D3002009B0BDE8F08357
:1041C80023680BB11A7832B923463A46142103A85A
:1041D8002DF0D0FE03AB42460821284630F02BFCD8
:1041E80020463EF002F9B0B1002320460DF1070148
:1041F8008DF8073030F0AEF958B99DF80700FFF791
:10420800FBFC034608212846064A30F014FC183403
:10421800D0E7054BF6E74B46F4E700BFA78104005B
:10422800B1810400554E0500A1810400B681040047
:104238001D6905002DE9F0411446884607461022FD
:10424800002160682DF038FFB8F1020F064607D844
:10425800202308213846244A30F0EDFB336816E065
:104268000A220021A0682DF027FFC5B22B4608219D
:1042780038461D4A30F0DFFBB8F1030F1AD1102D74
:104288000CD0202DEAD0082D0BD13378DBB20821D1
:104298003846164A30F0CFFB002009E033889BB23D
:1042A800F5E738460821124A30F0C5FB6FF01500D3
:1042B800BDE8F08110220021E0682DF0FDFE082104
:1042C800034604460B4A384630F0B5FB102D06D09D
:1042D800202D07D0082DE4D1E4B23470DCE7A4B275
:1042E8003480D9E73460D7E7E38104000E82040004
:1042F800F88104001F8204002DE9F04F91464FF029
:10430800FF350122584B85B0074688461A6020269B
:1043180002F098FF2C46DFF870A149465246404605
:1043280002F0B8FF411C06D16A1C50D14F493846EB
:1043380030F0B8FB1CE073281FD0772832D06128F2
:1043480016D1DFF848B110220021DBF800002DF06B
:10435800B3FE05460028E0D13FF0B2F9444B1B58A4
:10436800162BDAD1DBF800204249384630F09AFBA8
:104378006FF0150005B0BDE8F08F0022DFF80CB132
:104388001146DBF800002DF097FE04460028C4D142
:104398003FF096F9364B1B58162BBED1DBF80020A0
:1043A8003549E2E70022DFF8E4B01146DBF8000007
:1043B8002DF082FE06460028AFD13FF081F92C4B44
:1043C8001B58162BA9D1DBF800202C49CDE7631C1C
:1043D80001D12B49ABE75FFA86F8C6F3C406002C77
:1043E8003FD06B4629461A46A6EB050C0CE0B8F1FF
:1043F800100F1DD0B8F1200F20D0B8F1080F2AD126
:104408000878187031443344A64203D80CEB0100F5
:104418001028ECD9102CA14628BF4FF010092946C6
:104428004B46384600F0E8FD1035A4EB0904D6E702
:10443800088880B21870000A5870E3E708684FEAE5
:10444800102E187083F801E04FEA104E000E83F822
:1044580002E0D870D6E7082138460A4A30F0EBFA6D
:1044680086E7204686E700BFC02500207482040046
:104478000C000000338204004682040059820400C4
:1044880091820400F88104006D820400A06B002072
:1044980070B50F4E04460D46337871B123B10D49FE
:1044A800BDE8704030F0FEBA0123337020460A4957
:1044B80030F0DCFA0123337004E083F00103337039
:1044C800002BF3D129462046BDE8704030F062BB8E
:1044D80039350120AB820400E682040070B5044639
:1044E8003B480378182B02D10B78112B31D00B469F
:1044F800013A8D18AB4225D18B5C0A780370A2F182
:104508003003092B334C04D922F02003413B052BFF
:1045180004D823683049CA54013323602368022B26
:1045280033D1102200212C482DF0C6FD2B4A1368E8
:1045380003F8010B13602A4A136801331360002340
:10454800236022E013F8016B182ED3D11E78112EA8
:10455800D0D1234D20462A68224930F087FA2046D8
:104568000021FFF795FF204B187870B91F4A2B6878
:104578001168042B0ADC08B111602B6013F00301E9
:104588000BD1126813681BBA136070BD0868043B2E
:1045980000BA41F8040B0120EBE75B4203F0030388
:1045A80058BF5942022904D1126813885BBA9BB2DA
:1045B800EAE70329E9D1106802681104C2F3074346
:1045C80001F47F010B4302F47F4213430360DCE7ED
:1045D8003A350120A05900203C350120AC59002073
:1045E800A4590020108304003B350120A85900205D
:1045F8002DE9F84F0023064615460C462949DFF8F1
:10460800BC800B602849DFF8B890DFF8B8B088F8AC
:1046180000300B60012C2F4655F804AF1ED902223A
:10462800494650463EF007FE80B99AF80220003A03
:1046380018BF01229244504602221C493EF0FBFD5D
:1046480030B9012388F80030013CE3E70022F1E7A4
:1046580049465046FBF7A2FFA8B9043700227868FC
:1046680011462DF0B3FC0022114B114618607868F2
:104678002DF0ACFC0F4B104918603046FFF708FFCF
:104688000020BDE8F88F9AF800202D2AE6D19AF884
:104698000120002AE2D052465946304630F0E6F969
:1046A800D2E700BFA0590020A45900202D830400A0
:1046B800AC590020A8590020E54400003B350120F2
:1046C8002A83040030830400032307B5054A0093B6
:1046D800002101231268044800F0F4FC002003B014
:1046E8005DF804FBD84C0400D03F0400042307B550
:1046F800054A0093002101231268044800F0E2FCF7
:10470800002003B05DF804FB444D040000400400A1
:1047180037B54468124904F108052260284600228A
:1047280023643EF05FFB4FF4A4720023E46300248B
:1047380028460C4DCDE900232AF0A4FB29464FF466
:104748000053094A0094012028F012FE102329463C
:10475800064A0094012028F037FE204603B030BDF9
:104768009D470300B88404008B3501207B35012068
:104778002DE9F843884614461F460426D0F80490CD
:10478800104D22464146012028F056FD58B101231C
:104798002B700120D9F80030D9F8401098473C60B8
:1047A8000020BDE8F8832B7813B1013E04D12E70A8
:1047B8002B78002BE5D1ECE741F288303DF010FE74
:1047C800F6E700BF5C35012010B504468168183152
:1047D80000F006FFA1682046BDE81040014A1831E4
:1047E80000F0A4BEE88404000EB403B5044904AA8A
:1047F800019200F0DFFC02B05DF804EB03B07047F3
:10480800DD80040038B583680446D3F89832DB07A6
:104818001DD4C06930F03BFE606803685B68984748
:10482800054620B9E06830F039FFA3681D75A36814
:104838005B6C13B129462046984700223EF040FFA2
:10484800A368C3F84023034B185802F087F86FF0A9
:104858000F05ECE7080000000149FFF7C5BF00BFDE
:10486800DD8004002DE9F04FA7B004465422002152
:1048780011A83EF096FC0023CDE90533A368204635
:104888007633029330F074FC204630F0D3FB10B935
:104898006069FFF7E1FF00264FF0FF37B246B346E5
:1048A8003546B146A0681422002118303EF079FC44
:1048B800204630F061FBA168E068B1F870207631DD
:1048C80030F0F8FE204630F077FF0DF144080396EB
:1048D800DDE90532012A6AD0132B6BD867BBBBF11F
:1048E800000F0AD0204630F088FF1423A26811A9CF
:1048F80076320DEB030030F0EDF9B9F1000F0CD072
:1049080099F81130FE2B08D1059B26AA02EB8302E9
:1049180052F8542C0AB101330593A568059B6A6ABD
:10492800002A40F0B380D6B1EB699E4227D12046D9
:10493800FFF74AFF012514E002234146029A06A820
:1049480030F0C8F9D8F8042006990346029231B12C
:1049580001290AD148B16D4A204630F082FC6FF037
:104968000705284627B0BDE8F08F059B002B30D0FF
:10497800D8F8000030F012FE78B146B1A5680D965F
:1049880018350CAE0FCE0FC533682B60CFE7604AE1
:104998000121204630F065FCE1E7059BCBB12946B3
:1049A8002046D8F8002000F0C9FE022809D1059B4E
:1049B800132B94D9069B022B91D10121554B564AB2
:1049C800CAE7032805D0059B4FF0010B0133059377
:1049D8007EE7039B33B94846D8F8001007AA30F0A1
:1049E80070FA054608F10408013F9DB3EB68BBF176
:1049F800000F08D0F3B1204630F0BAFB204630F063
:104A080030FB464AC4E7ABB1AE46A368DDF814A054
:104A180003F1180CBEE80F00ACE80F00DEF8003018
:104A2800CCF80030AB682BB96B7CFE2B04BF2F7C15
:104A380007F1FF37D5F804C0BCF1000F08D0AE4627
:104A48000CAEBEE80F000FC6DEF8003033606646D5
:104A5800A94603E0059B53B101230393069B17B9AD
:104A6800022B7FF435AF059B0133059330E7A3682C
:104A7800DB6A13B1DB68002BEED1294B01210093CF
:104A88002046119B274A30F0ECFBE5E7A3EB0A062A
:104A980095F82830BBB14FF6FF7295F82910FF2919
:104AA80018BF0A469E4202D313449E420BD9AB69F3
:104AB800012120461C4A30F0D4FB2046FFF784FE33
:104AC8006FF015054DE702F0BDFB0121A0682FF03E
:104AD800BBFEA06800F54B702FF0DAFEA36811AAA0
:104AE800314602EB8A0220465B6A98470546A06871
:104AF8004FF0FF324FF0FF3300F54B702FF07FFE81
:104B08000021A0682FF0A0FE2BE700BFF684040068
:104B18000A8504006B8504002373050028850400BA
:104B2800578504007E4605008F850400022210B5D3
:104B3800836804461A7583689B6CBBB92FF03EFEE8
:104B48008368D3F89832DB040BD50321084B094A54
:104B580030F087FBA0686FF4805100F526702FF0C5
:104B680043FE2046BDE8104000F0C2BC10BD00BFA7
:104B7800AA850400B881040070B504468068012144
:104B880086B000F526702FF024FEA3681B7D022B4B
:104B980020D100230193A36860689E6C03681D6997
:104BA80001AB0EB3102202A9A847019B93B10121C2
:104BB800A0682FF049FE2046019A02A9B0470021BB
:104BC800A0682FF041FEA3689B6C002BE3D1204620
:104BD800FFF7ACFF6FF00101A06800F5267006B082
:104BE800BDE870402FF000BE01220DF10301A84777
:104BF800019B002BEED09DF903209DF80310002A9D
:104C0800A368C8DB5A7D032A00F20381DFE812F0AB
:104C18000400F000070101010D297FD00A295BD0AB
:104C2800B3F8982209296FF3CA02A3F89822A0685A
:104C380000F089803ED80029ADD0082900F0868090
:104C48000346D3F894329E07A5D54B1E162BA2D83F
:104C580001A252F823F000BFC94E00008F4D00009A
:104C6800974D0000874D0000BD4E0000B54D000077
:104C78009F4B00009F4B00009F4B00009F4B000084
:104C8800BD4D0000C54D00009F4B0000CD4D0000FC
:104C98009F4B0000D74D00009F4B00009F4B00002A
:104CA8009F4B00009F4B0000DB4D00009F4B000016
:104CB800F14D00001B2943D07F2953D0A1F12002D8
:104CC8005E2A0346BDD801212FF0C9FD20469DF874
:104CD800031000F0D5FB5EE7D3F89822C2F3C702B1
:104CE8002AB1D3F89822C2F3C7020A2AA9D1B3F885
:104CF800982261F3CA02A3F89822A568B5F8701043
:104D0800C1B928462FF0ABFDE06830F099FC606926
:104D1800FFF7A2FD2046FFF709FF3CE7D3F89822EA
:104D2800C2F3C702002AE2D0D3F89822C2F3C7021E
:104D38000D2ADBE72046FFF795FDC5F84403E9E7B0
:104D48000123437527E7D0F8943224E7D0F894324A
:104D580099077FF520AF01212FF081FD204630F023
:104D6800E7FA18E7D0F894329A077FF514AF0121D3
:104D78002FF075FDA368D3F894321B07EED42046B4
:104D880030F0B7FA07E7204630F0FBF903E7204692
:104D980030F0EEF9204630F04DF910B96069FFF7B0
:104DA8005BFD0121A0682FF05AFDB3E7204630F0E3
:104DB800F1F9F0E6204630F0F8F9ECE6204600F08C
:104DC80097FBE8E6002120462FF07AFDE3E6012173
:104DD800F9E7204630F0C5F920462FF0EFFC012115
:104DE800A0682FF03CFDD6E6204600F0C1FAF6E7B1
:104DF8005B2902D102225A75CDE6D3F894329D0779
:104E080006D5622907D14FF0FF31204630F06BF903
:104E1800A3680022EFE76629FAD10121F5E700220D
:104E28005A75A268D2F8943298077FF5B4AEA1F10A
:104E380031031B2B3FF6AFAE01A151F823F000BFA1
:104E4800C54E0000D14E0000E94E0000B94E0000EA
:104E58009F4B00009F4B00009F4B00009F4B0000A2
:104E68009F4B00009F4B00009F4B00009F4B000092
:104E78009F4B00009F4B00009F4B00009F4B000082
:104E8800D74D0000CD4D0000B54D00008F4D0000FE
:104E98009F4B0000BD4E00009F4B0000C94E000014
:104EA8009F4B00009F4B00009F4B0000D54E000019
:104EB80003235375204630F05BF96CE603235375E2
:104EC800204630F04EF966E603235375A068D0F803
:104ED800941201F0010181F001012FF0CAFC5AE699
:104EE80003235375A368D3F894329B077FF553AE19
:104EF80045E700BF2DE9F04104468068154600F5F6
:104F08002670002937D04FF480412FF062FCA36847
:104F18000021DD64606803689B68984700284BD1CE
:104F280020462FF017FD002846D1244E244FDFF8E5
:104F38009880A06800F537704FF0FF324FF0FF33CC
:104F4800032129F0D9FF0546A0684FF0FF324FF042
:104F5800FF3300F54B709DB12FF051FC20462B46D6
:104F68000121184A30F07DF9A068BDE8F04100F54C
:104F78004B702FF08DBC6FF480412FF035FCC6E7E5
:104F88002FF03DFC3246022120462FF083FC3A46A2
:104F9800294620462FF07EFC2046424601212FF06C
:104FA80079FC606803685B6903B19847A06800F5FD
:104FB8004B702FF06DFCBCE7BDE8F0810D48000098
:104FC800814B0000EE8504000B48030010B5044631
:104FD80006492FF04BFD204605492FF047FD204696
:104FE8000021044A00F0A2FA002010BD0586040042
:104FF80059860400F3860400F8B51E4617460A468B
:10500800294904462FF032FD3EB320463A78274915
:105018002FF02CFD01256A0703D1204624492FF0E3
:1050280025FDAE421ED920467A5D20492FF01EFD8F
:105038000135102DEFD120461E492FF017FDB6B9C6
:1050480020461B492FF012FD0125AE422B4610D8F1
:10505800204617492FF00AFD15E0204616492FF083
:1050680005FD0125204614492FF000FDE0E7002545
:105078002B46FA5C2046A2F120035F2B28BF2E2284
:105088000E492FF0F3FC0135102D06D06B07DCD14B
:10509800204607492FF0EAFCD7E72046BDE8F8404C
:1050A80007492FF0E3BC00BF09870400047D040012
:1050B80093B805000A7D040091B80500E9130500BE
:1050C800108704002DE9F047044680688846D0F828
:1050D800401315461F4688B0002963D192464FF405
:1050E80052723EF05EF8E06830F04CFBA06800F5C4
:1050F8004B703DF0BFFA4FF437794FF42776A0682C
:1051080030443DF0DDFFA0680022831901214844A6
:1051180010363DF0ACFFB6F5377F09F11409EED132
:105128000022A36902211A60A06825F0340500F561
:1051380026702FF04EFB5022A36820465A8718226B
:10514800A36865F3070A1A8721682FF0D1FCA368C2
:105158004146C3F894A26068144A03681D68234650
:10516800A8470546D0B90122A3681A75D4E90A01EF
:1051780000220023CDE906230E230393109B41F25E
:105188005042CDE901730495094B009429F0B8F811
:10519800A368C3F84003616A28F0F0FF284608B006
:1051A800BDE8F0876FF07705F8E700BF3D480300DA
:1051B800FD4E000010B5044613460A46014606484F
:1051C80001F0B8FF23691B7923B12046BDE81040E0
:1051D8002FF0E6BC10BD00BFC14B030038B50B462D
:1051E800154648B91449154A521AB3EB920F05D21D
:1051F80051F82350284638BD84680CB90025F9E7D2
:105208000F4A94420AD30F4A944207D218462946B5
:10521800226890472B68002BECD1EFE70A4A9442AA
:1052280002D30A4A944205D3246814225343E5184A
:10523800E358F0E70133F8E7304004006840040021
:1052480054450400644504006840040054450400C3
:10525800F7B504463EF034FA002305460D4F1646CE
:10526800C3510A46204601A901932CF0AFFEEB5921
:10527800222B08D023B9019BA34201D01B7833B15C
:105288006FF0150301E06FF021030020336003B0D5
:10529800F0BD00BF0C0000000023F7B516460278E9
:1052A80004462D2A019305D16FF0150300203360C1
:1052B80003B0F0BD3EF004FA05460B4F0A46C35151
:1052C80001A920462CF0F8FEEB59222B02D16FF0F1
:1052D8002103EBE7002BE7D1019BA342E4D01B7825
:1052E800002BE5D0E0E700BF0C00000001492FF0DB
:1052F80081BE00BFDD8004002DE9F04785680446C3
:1053080005F17600FBF75CF90023984695F83C70A8
:10531800DFF8589086B2A268558FED1BB54209DBBD
:10532800002E1FDD763360690F491A44BDE8F04747
:105338002FF060BE1D442A4492F876A082F8768049
:10534800A26876331A44494660692FF053FEA36871
:105358002B4483F876A0A3685B8FDB1BF61A002723
:105368002B46D8E7BDE8F087B88104002373050011
:105378002DE9F04183680646B3F87000002841D053
:10538800B3F8721000293DD0753103F176020B4451
:105398001D46954206D3294611F80149202C28D0EC
:1053A800954228D29CB2AFB2E21B92B205F1010835
:1053B800511C2944821A40463DF0D9FEB268391B77
:1053C800B2F87030304613FA81F3A2F87030B26840
:1053D80009B2B2F870301A44002382F876302FF000
:1053E80063FE43463046BDE8F0410821064A2FF0E7
:1053F80038BF0D46CDE7294611F80149202CD1D0F8
:105408000D46CDE7BDE8F081B88104002DE9F041F3
:1054180083681746B3F872200D46D3F89412763293
:1054280013444A07044621D51846FBF7C9F806462F
:10543800DFF84880A6B9A368B3F87020A3F87220F3
:10544800A0682FF0E4FD20B107B115B16069FFF73E
:105458004DFF69422046BDE8F04109B22FF024BE55
:10546800414660692FF0C6FD013EE3E70821024A84
:105478002FF0F7FEDFE700BFB8810400C412050073
:1054880013B583688DF80710D3F894220446D00723
:1054980025D5B3F87210B3F870208A421FD0481C83
:1054A8009DF80720A3F872000B4483F87620A368C0
:1054B800D3F89412890710D5D3F89432606913F0A1
:1054C800040F18BF2A2209492FF094FD20462FF017
:1054D800B1FD10B16069FFF709FF02B010BD0122EC
:1054E80020460DF107012FF0CAFEF6E7E913050083
:1054F80010B5044683680221084A2FF0B2FEA3685B
:10550800D3F894329B0707D52046FFF7F5FE2046CF
:10551800BDE810402FF0B4BD10BD00BFB881040035
:1055280001492FF0BDBF00BFDD8004002DE9F04F19
:105538000E460021044617460D4689B0304603AA98
:1055480001F10108FFF74AFEB0B995B127B13A4613
:10555800082120462FF085FE00211E4FDFF87890A5
:10556800DFF878A0304603AA01F10108FFF736FEFC
:1055780060B909B0BDE8F08F006810B1FBF720F8FA
:1055880080B2854238BF05464146D7E703688BB1EC
:105598001A787AB1D0F804B04A46CDE90053082108
:1055A8003B4620462FF05DFEBBF1000F04D1606939
:1055B800FFF7B6FF4146D5E7524620463B4608214D
:1055C8002FF04FFEAA1D5946204692B22FF075FFC4
:1055D800F0E700BF3C8704002C870400FF7C040030
:1055E800F7B50F6805460E46A7B13846FAF7E8FF43
:1055F80084B2094B2846009308213B46074A2FF0FE
:1056080030FE2846E21C716892B203B0BDE8F04053
:105618002FF053BF3C46ECE738870400338704007B
:1056280008B5836902491A682FF020FA002008BDDE
:105638003F8704002DE9F3410D4905462FF016FA7E
:1056480000220C4C0C4EDFF83480B44202F1010702
:1056580003D3002002B0BDE8F081636A92B20093E0
:10566800A368414628462FF001FA30343A46ECE761
:105678004F870400A03F04003040040067870400FF
:1056880008B502492FF034FA002008BDDE80040076
:1056980073B5044600250D4EA2680DF106030121DD
:1056A800E06802F5BB722FF0CEFFBDF80600A368D4
:1056B80040B12A463146204603F5BB732FF0D6F990
:1056C8000135E9E783F8760102B070BD78870400F8
:1056D80010B504462FF056FA0349024620462FF02B
:1056E800C5F9002010BD00BF745B0500022907B58D
:1056F8000BD153680C49009312680C4B2FF0D2F968
:105708006FF0150003B05DF804FB8368084AD3F80E
:105718009432084913F0020F074B18BF1A462FF0AE
:10572800A5F90020EEE700BF9787040082870400F0
:1057380050200500A08704004B7C05002DE9F04FA0
:1057480007461546894689B021B1104630F020F841
:1057580000285BD1032455E05C463CE029460AF565
:10576800BB703DF0ACFD0646002854D0FAF728FF80
:1057780082B2601C3146013230443DF0F8FC2246CA
:10578800594630463DF0E6FC4FF020033355BAF851
:10579800743008F1010801331C44AAF8744000244D
:1057A80001994B1C484603AA0193FFF717FD0646CB
:1057B800E8B100222846316831F02CF90028EFD1F1
:1057C800D6F800B0D7F808A0BBF1000FC4D05846EF
:1057D800FAF7F6FE84B2BAF874302344FF2BBDDD25
:1057E8002B46032138460D4A2FF03BFD0124B8F122
:1057F800000F07D0B8682A4600F1740100F5BB70A5
:105808002FF038FB204609B0BDE8F08F4FF00008B4
:1058180002244146C5E70224E9E700BF9C8A040048
:1058280008B504482EF093F9BDE8084002482EF068
:105838008EB900BFEE8A0400238B0400034B9B68DB
:105848001BB1481E18BF01201847704798620020F6
:1058580010B51C46034B11461B680BB122469847EE
:10586800204610BD98620020024B5B6803B11847C0
:10587800704700BF9862002070B50E461546044672
:1058880086B00021182268463DF08BFC0B490C4B72
:10589800CDE90116ADF80C5004932CB969462046A1
:1058A80009F08CFE06B070BD0122204634F024F8C1
:1058B8000028F3D16FF01500F4E700BFE84F0400AB
:1058C8007158000070B505468CB02022002104A84C
:1058D8003DF067FC47F6F0722846164904AB24F001
:1058E80049FF0446064688B113490B685A070AD08F
:1058F800124B0393124B02930023CDE9003301228C
:1059080018462FF08AFF20460CB070BD284604A91F
:1059180024F0E8FF04460028F5D007490B685B0728
:10592800F1D0064B00960393064BCDE9016333464D
:10593800E5E700BFFA8B0400B82D0020E98B0400CE
:10594800A68B0400C88B04007FB50D491C460B6864
:105958004668580715460BD50A4B082203930A4B8D
:1059680002930023CDE90032184604222FF080FF6D
:10597800002033689D603368DC6004B070BD00BFF0
:10598800842D0020BF0C0500EA0B050070B50368E4
:1059980088B00546186833F073FFC41E4FF0FF3215
:1059A8004FF0FF332F4828F03DF868B12E490B68B7
:1059B8005E0709D02D4B039002930023012218465D
:1059C800CDE900332FF054FF2246686807A92EF06E
:1059D800AFFA2B680446002842D082B207991868AB
:1059E800FFF74AFF0646214668682EF0BDFA1E49B1
:1059F8000B6816BB5A070CD51D4B042203931D4B8D
:105A08003046029308230494CDE9006333462FF00F
:105A18002FFF144828F07EF868B113490B685B071C
:105A280009D0154B03900293002301221846CDE9B3
:105A380000332FF01DFF08B070BD03F00703022BE1
:105A48000AD90E4B032202930023CDE903461846D8
:105A5800CDE900332FF00CFF00222B685A60D8E7FD
:105A68005860D6E73C2F0020842D0020FA0B050053
:105A7800CB0C05001A0C05004F0C05002C0C05007A
:105A880070B544681E46236815461B6886B01BB966
:105A98003260002006B070BD60682EF02AFA114905
:105AA80030600B685E070DD50F4B082203930F4B30
:105AB800CDE9045002930023CDE9003218460422B0
:105AC8002FF0D6FE012123680433D3E8EF2FC3E873
