:020000040000FA
:10000000A8800320157B0000E3A00300017B000013
:10001000017B0000017B0000017B0000017B0000F0
:10002000000000000000000000000000217D000032
:10003000017B000000000000A57C0000017B0000A7
:10004000397F0000397F0000397F0000397F0000D0
:10005000397F0000397F0000397F0000397F0000C0
:10006000397F0000397F0000397F0000397F0000B0
:10007000397F0000397F0000397F0000397F0000A0
:10008000397F0000397F0000397F0000397F000090
:10009000397F0000397F0000397F0000397F000080
:1000A000397F0000397F0000397F0000397F000070
:1000B000397F0000397F0000397F0000397F000060
:1000C000397F0000397F0000397F0000397F000050
:1000D000397F0000397F0000397F0000397F000040
:1000E000397F0000397F0000397F0000397F000030
:1000F000397F0000397F0000397F0000397F000020
:10010000397F0000397F0000397F0000397F00000F
:10011000397F0000397F0000397F0000397F0000FF
:10012000397F0000397F0000397F0000397F0000EF
:10013000397F0000397F0000397F0000397F0000DF
:10014000397F0000397F0000397F0000397F0000CF
:04015000397F0000F3
:1001580081F0004102E000BF83F0004330B54FEA70
:1001680041044FEA430594EA050F08BF90EA020FDD
:100178001FBF54EA000C55EA020C7FEA645C7FEA70
:10018800655C00F0E2804FEA5454D4EB5555B8BF93
:100198006D420CDD2C4480EA020281EA030382EA04
:1001A800000083EA010180EA020281EA0303362D96
:1001B80088BF30BD11F0004F4FEA01314FF4801C69
:1001C8004CEA113102D0404261EB410113F0004F7B
:1001D8004FEA03334CEA133302D0524263EB430332
:1001E80094EA050F00F0A780A4F10104D5F1200ED0
:1001F8000DDB02FA0EFC22FA05F2801841F100012B
:1002080003FA0EF2801843FA05F359410EE0A5F1FE
:1002180020050EF1200E012A03FA0EFC28BF4CF02F
:10022800020C43FA05F3C01851EBE37101F00045E5
:1002380007D54FF0000EDCF1000C7EEB00006EEBF2
:100248000101B1F5801F1BD3B1F5001F0CD349087C
:100258005FEA30004FEA3C0C04F101044FEA4452D3
:1002680012F5800F80F09A80BCF1004F08BF5FEA5A
:10027800500C50F1000041EB045141EA050130BD3A
:100288005FEA4C0C404141EB0101013C28BFB1F54C
:10029800801FE9D291F0000F04BF01460020B1FA97
:1002A80081F308BF2033A3F10B03B3F120020CDA6A
:1002B8000C3208DD02F1140CC2F10C0201FA0CF048
:1002C80021FA02F10CE002F11402D8BFC2F1200CAD
:1002D80001FA02F120FA0CFCDCBF41EA0C01904063
:1002E800E41AA2BF01EB0451294330BD6FEA0404AC
:1002F8001F3C1CDA0C340EDC04F11404C4F1200297
:1003080020FA04F001FA02F340EA030021FA04F3A8
:1003180045EA030130BDC4F10C04C4F1200220FAFF
:1003280002F001FA04F340EA0300294630BD21FA3D
:1003380004F0294630BD94F0000F83F4801306BF03
:1003480081F480110134013D4EE77FEA645C18BFF7
:100358007FEA655C29D094EA050F08BF90EA020F8E
:1003680005D054EA000C04BF1946104630BD91EA86
:10037800030F1EBF0021002030BD5FEA545C05D189
:100388004000494128BF41F0004130BD14F58004C8
:100398003CBF01F5801130BD01F0004545F0FE413C
:1003A80041F470014FF0000030BD7FEA645C1ABF71
:1003B800194610467FEA655C1CBF0B46024650EAA8
:1003C800013406BF52EA033591EA030F41F40021D4
:1003D80030BD00BF90F0000F04BF0021704730B55A
:1003E8004FF4806404F132044FF000054FF000012F
:1003F80050E700BF90F0000F04BF0021704730B5F0
:100408004FF4806404F1320410F0004548BF4042C4
:100418004FF000013EE700BF42004FEAE2014FEA19
:1004280031014FEA02701FBF12F07F4393F07F4FF4
:1004380081F06051704732F07F4208BF704793F0F7
:100448007F4F04BF41F40021704730B54FF460740A
:1004580001F0004521F000411CE700BF50EA01020D
:1004680008BF704730B54FF000050AE050EA0102B6
:1004780008BF704730B511F0004502D5404261EB26
:1004880041014FF4806404F132045FEA915C3FF467
:10049800D8AE4FF003025FEADC0C18BF03325FEA04
:1004A800DC0C18BF033202EBDC02C2F1200300FAB5
:1004B80003FC20FA02F001FA03FE40EA0E0021FADA
:1004C80002F11444BDE600BF7BB972B90029BEBF72
:1004D80000204FF0004106E008BF00281CBF6FF065
:1004E80000414FF0FF3000F057B8ADF1080C6DE94E
:1004F80004CE002909DB002B1ADB00F069F8DDF8CF
:1005080004E0DDE9022304B07047404261EB410199
:10051800002B1BDB00F05CF8DDF804E0DDE90223CA
:1005280004B0404261EB4101524263EB4303704720
:10053800524263EB430300F04BF8DDF804E0DDE9D9
:10054800022304B0404261EB41017047524263EB21
:10055800430300F03DF8DDF804E0DDE9022304B0D0
:10056800524263EB4303704753B94AB9002908BFA5
:1005780000281CBF4FF0FF314FF0FF3000F00CB8DF
:10058800ADF1080C6DE904CE00F022F8DDF804E0C6
:10059800DDE9022304B07047704700BF10F8012B53
:1005A80011F8013B012A28BF9A42F7D0D01A7047A8
:1005B800034611F8012B03F8012B002AF9D17047E3
:1005C800034613F8012B002AFBD1181A013870478B
:1005D8002DE9F04786468C460846089E154674461F
:1005E8001946002B40F0C1808542B2FA82F245D903
:1005F8004AB1C2F1200300FA02FC954094402EFA59
:1006080003F343EA0C0C4FEA154EA8B2230CBCFBCB
:10061800FEF80EFB18CC08FB00F943EA0C43994599
:1006280028D9EB1808F1FF3704D2994502D9A8F167
:1006380002072B44A3EB0903A4B2B3FBFEFC0EFB99
:100648001C330CFB00F044EA0344A04214D92C19D3
:100658000CF1FF3304D2A04202D9ACF102032C44BE
:10066800241A43EA07401EB1D44000233460736063
:10067800BDE8F0874746DDE76346F1E792BB431BD9
:1006880001214FEA154EAFB2200CB3FBFEFC0EFB66
:100698001C330CFB07F840EA0343984561D9EB1873
:1006A8000CF1FF3004D2984502D9ACF102002B447A
:1006B800A3EB0803A4B2B3FBFEFC0EFB1C330CFB3C
:1006C80007F744EA0344A7424DD92C190CF1FF332C
:1006D80004D2A74202D9ACF102032C44E41B43EA3A
:1006E8000040C0E7C2F120039540944020FA03F18E
:1006F8002EFA03F34FEA154E9040AFB20343B1FB15
:10070800FEFC0EFB1C10190C0CFB07F841EA00411B
:10071800884522D969180CF1FF3004D2884502D9DE
:10072800ACF102002944A1EB08019BB2B1FBFEFC2D
:100738000EFB1C110CFB07F743EA01439F420ED93D
:10074800EB180CF1FF3104D29F4202D9ACF102013F
:100758002B44DB1B41EA004193E76046E3E761462F
:10076800F7E76046A4E76346B8E7834206D916B9B7
:10077800002108467CE7C6E900E0F9E7B3FA83F709
:100788008FB9834201D3724508D8BEEB020460EBEF
:10079800030301209C461EB9002169E73846FAE7A1
:1007A800C6E9004CF8E7C7F1200CBB400EFA07F584
:1007B80022FA0CF42EFA0CF1BA401C4320FA0CF37E
:1007C800B8404FEA144901431FFA84FEB3FBF9F815
:1007D80009FB18300B0C08FB0EFA43EA00439A4554
:1007E80040D9E31808F1FF3004D29A4502D9A8F19C
:1007F80002002344A3EB0A0389B2B3FBF9F809FB0F
:10080800183308FB0EFE41EA03418E452CD96118C6
:1008180008F1FF3304D28E4502D9A8F1020321441E
:1008280043EA0040A1EB0E01A0FB02984145CE46E9
:10083800434602D306D14D4504D20138B9EB020E26
:1008480068EB0403002EA7D0B5EB0E0261EB0301A1
:1008580001FA0CFC22FA07F3F9404CEA0303C6E953
:10086800003199E74046C5E74346D9E70000000054
:100878002DE9F04706460F46904688B046F015FA2F
:100888004FF47A73A0FB034503FB0155E40B012FDA
:1008980044EA45444FEAD53507D122462B4630462F
:1008A800274937F0FCFD002012E0D8F804702548ED
:1008B8003946FFF773FE70B139462348FFF76EFEDD
:1008C80048B130463A46214937F005FE6FF004003A
:1008D80008B0BDE8F087204617A3D3E900232946CE
:1008E800FFF7F2FD05460C4610461946184A002344
:1008F800FFF7EAFD80460F46104619464EF660227D
:100908000023FFF7E1FD82468946104619464FF459
:100918007A720023FFF7D8FDCDE902A9CDE90623B5
:10092800CDE904012A4623463046CDE90087094926
:1009380037F0B5FDB7E700BF005C260500000000F2
:100948005CC604006DC6040070C6040079C60400C5
:1009580080EE360091C60400F0B58BB0002140F659
:10096800034009AA0DF09CF90446002840F0B7801E
:100978000998C3681B7853B95F4BD3E8AF2F02F0CF
:100988000902D3E8EF1FC3E8E42F002CF9D108F0DF
:1009980035FA002141F2030009AA0DF081F9044655
:1009A800002840F09C80099A544DD16805F17803DD
:1009B800D1F80100D1F8051003C3104608F01EFA5B
:1009C800214641F2010009AA0DF06AF904460028FF
:1009D80040F085800998C3685A7885F870205A884D
:1009E800A5F872201A7985F87120B3F80720A5F8C0
:1009F8007420B3F80530A5F8763008F0FFF92146E1
:100A080041F2020009AA0DF04BF90446002866D10C
:100A1800099F05F18006FA68531C4132344618686C
:100A28005968083303C493422646F7D1384608F07C
:100A3800E5F90EF00FFC0446002850D195F88A30ED
:100A480013F0200317D12E490A6812F0060F06D0BA
:100A58002C4A0093CDE9013202223BF0D0F995F8F7
:100A68007C3013F0400351D125490A68520739D127
:100A78006FF0120433E0072140F633400CF00AFC13
:100A88000646002800F0518107210C3039F0D5FDC9
:100A9800042343700623C0F8024084710470047173
:100AA8002246C370314640F633400DF0F9F804464B
:100AB800A8B9012140F631400CF0ECFB06460028AD
:100AC80000F0338101210C3039F0C6FD2246314651
:100AD80040F631400DF0E4F804460028BFD0204627
:100AE8000BB0F0BD084A1846CDE901320093012247
:100AF8003BF085F9BCE700BFF4210020202100204D
:100B0800143000200372050031720500002142F202
:100B1800030009AA0DF0C4F804460028DFD1099B98
:100B2800AF4EDA68D2F80100D2F8051003C61846AD
:100B380008F064F9214642F2020009AA0DF0B0F863
:100B480004460028CBD1099CE368B3F8012091B290
:100B580049B1D97839B1A5F80421DA78114606F1F6
:100B6800280045F0DEFD204608F048F91F2395F8D7
:100B78007C60A5F8203116F0200618D1022140F635
:100B88006D400CF087FB0446002800F0CE8002215F
:100B98000C3039F052FD012321460370467032466D
:100BA80040F66D400DF07CF80446002897D195F882
:100BB8009C301F0712D5002142F21C0009AA0DF033
:100BC8006FF8044600288AD10998C368D3F8012031
:100BD800D3F80530C5E9382308F010F995F8D8306E
:100BE8009E0625D50DF1220108A80DF055F90446F9
:100BF80000287FF474AF042142F224000CF04AFB71
:100C08000646002800F0918004210C3039F015FDCB
:100C1800BDF8203022460380BDF82230314643809B
:100C280042F224000DF03CF8044600287FF457AF48
:100C380095F8D8305C0610D5002142F22A0009AA9E
:100C48000DF02EF8044600287FF449AF0998C368D0
:100C58005B7885F8223108F0D1F8082142F20100CA
:100C68000CF018FB044600285FD008210C3039F03E
:100C7800E4FC95F8D81040F2022311F0400F08BFA9
:100C88000323024688074CBF43F02C0043F00C00B6
:100C98008B0695F8D93048BF40F0400013F0090F93
:100CA80095F8A23018BF40F4006003F00603CF07A0
:100CB80048BF40F01000062B08BF40F4C070002168
:100CC8003BF0B4F82146002242F201000CF0E8FFA4
:100CD800044600287FF403AF95F87C20B5F804316A
:100CE800960625D4D3B9194641F2050009AA0CF095
:100CF800D7FF044600287FF4F2AEB5F80431099C0A
:100D08004BB9E368B3F80120A5F804219A8835485F
:100D1800114645F006FD204608F070F8082140F617
:100D280001400CF0B7FA044698B96FF06804D6E6AB
:100D3800002BF3D12C490A68540702D16FF0040440
:100D4800CDE62A4A0093CDE9013201223BF057F85B
:100D5800F4E708210C3039F070FC95F8D8300246D9
:100D6800D90747BF1CA1D1E900014FF00051204825
:100D78003BF05CF82146002240F601400CF090FF61
:100D8800044600287FF4ABAE014609AA4FF601409D
:100D98000CF086FF144E78B3336813F0060F09D0B1
:100DA800144B0222CDE901433146234600941846EC
:100DB8003BF025F80DF0A6FE044600287FF48FAE20
:100DC8000FF064FC044600287FF489AE0CF066FC42
:100DD80085E600BFAFF30080908800020080002005
:100DE800F821002028220020143000205572050028
:100DF80010880002787205003368099F03F0070322
:100E0800022BFC6851D9B4F801304849032B96BF2E
:100E1800474A484A52F82320CDE90323464B032288
:100E2800029300231846CDE900333AF0E8FF33680F
:100E380003F00703022B38D9B4F80130B4F80320C3
:100E4800022B4AD1052A48D83C4B53F82230CDE929
:100E580003323B4B03220293002334491846CDE961
:100E680000333AF0CCFF336803F00703022B1CD998
:100E7800D4F8091063790791B4F80710032B069189
:100E8800A17998BF2F4ACDE9043198BF52F82320A1
:100E98002D4B88BF274A029300230392184603224A
:100EA800CDE9003321493AF0AAFF384607F0A6FFFA
:100EB80000214FF6024009AA0CF0F2FE044670B178
:100EC800336813F0060F3FF475AF204B02930023ED
:100ED800CDE900330222154969E7164BB7E70998AF
:100EE800C368B3F80130A5F8C13007F087FF95F85B
:100EF800C1305B077FF55EAF21464FF6034009AA74
:100F08000CF0CEFE50B1336813F0060F3FF452AF29
:100F18000F4B0094CDE901432346DBE70998C368EA
:100F28005B7885F8C03007F069FF43E7143000208C
:100F3800149304008B6F05009C720500FC9204005A
:100F4800B5720500EC920400CD720500FA72050036
:100F5800237305000000000070B514460646CD173F
:100F6800A1FB0201002304FB05110A22FFF7ACFADA
:100F78000FA3D3E900230C4D80FB054520462946E5
:100F8800FFF7A2FA06A3D3E90023306029462046DA
:100F9800FFF79AFA0023054AFFF796FA726070BDC8
:100FA80080A8120100000000D8EF2F0040420F0077
:100FB80000209BF35E10000003292DE9FF41054640
:100FC8000C4613D0072900F083806D490B6813F095
:100FD800060F08D06B4B0222029300231846CDE976
:100FE800003341F009FA6FF085004CE0002A53D035
:100FF800072AF8D158681A68634BC117C2FB030166
:10100800012871F100035CDBD5F804805F4B98F888
:101018001A60C0184FEAD61655A3D3E9002341F148
:10102800000176B2FFF750FA002E14BF0423022302
:10103800984298F91A7029D0002E14BF2023102343
:10104800834225D0002E14BF08230423984221D0C0
:10105800002E14BF10230823984232D1E6B231463D
:1010680040462D6938F047F9002824DB3D22484BDB
:10107800002F33F81430AE77AABFA3FB02325343D4
:101088005B08EB60002004B0BDE8F0810024E5E7D0
:101098000124E3E70224E1E719883E4B14461F4682
:1010A80033F8022B914209D86868E1B22E6938F00A
:1010B8008FFA002808DA6FF00400E4E701340B2CFB
:1010C800EED16FF01500DEE737F81430B383D9E7B7
:1010D800002A3AD0072A86D1B4245A6819682A4BBC
:1010E800D017C1FB0320A2FB0431012A04FB001125
:1010F80070F100001DDB2848181841F100011EA3FB
:10110800D3E900230024FFF7DFF9244B33F8022B3F
:10111800904216D16868E1B22E6938F003F90028C8
:10112800C9DB41F217121E4B33F814305343B36135
:10113800A8E71C48181861F100010FA3D3E90023A0
:10114800E0E70134072CE1D1BBE71988114B33F8EC
:10115800020B814206D86868D1B238F0A7FA002895
:1011680090DAA8E701320B2AF1D1AAE7AFF30080A1
:101178003AA3950000000000D8EF2F0000000000FF
:10118800E02F0020A2F9050040420F009DD14A003F
:10119800D8AF0400E0AF0400ECF71700CAAF0400B2
:1011A800BCAF04001408E8FF2DE9F74F03291446E3
:1011B800066905D90B1F032B53D96FF0850023E06F
:1011C8000229F7683A4D22D0032923D0012914BFF8
:1011D800B6F90460B6F90660A6FB076732A3D3E93F
:1011E800002386FB056530462946FFF76DF9002385
:1011F800304A206029463046FFF766F900232D4A19
:10120800FFF762F96260002003B0BDE8F08FB6F91D
:101218000860E1E74FF0000B02F11803DFF894A033
:101228000236019336F9028FA8FB07831EA3D3E980
:10123800002388FB059848464146FFF745F9524682
:1012480044F8080B5B4648464146FFF73DF95246CD
:101258005B46FFF739F9019B44F8042C9C42E1D125
:10126800D1E70629B5690CD007290ED02A460529E9
:1012780014BFB6F91010B6F912102046FFF76CFE2D
:10128800C1E72A46B6F91410F7E70E3602F1180737
:1012980020462A4636F9021F0834FFF75DFEA742AA
:1012A800F6D1B0E7AFF300800010A5D4E800000045
:1012B8003AA3950040420F002DE9F04F3A4B85B014
:1012C800D3F8042392070BD5D3F8042142B10022A6
:1012D800C3F80421354AD3F8043113680133136085
:1012E800334D0024A8464FF480362F4FD7F80433E7
:1012F80006FA04F919EA030F2CD00123A340DB43B3
:101308002C49D1E8EF2F02EA0300C1E8EC0FBCF149
:10131800000FF6D122FA04F3DB0703D4264B53F867
:101328002430BBB1204641F04AFA24F061FDEFF3C6
:101338001183202282F31288BFF36F8F08EB041CFD
:10134800DCE902AB504571EB0B010AD283F311883B
:10135800BFF36F8F103514B105B0BDE8F08F0124CD
:10136800C4E70020D5E900129FED0D7B28600E48E8
:1013780003938CED027B0292C0F84893204641F01B
:101388001EFA039B83F31188BFF36F8F0029E1D006
:10139800029A5B46009252468847DBE7AFF300802B
:1013A800FFFFFFFFFFFFFFFF00500150581F012004
:1013B800185500204C1F01204051015038B5064DEA
:1013C8000649284635F023FC00210446284635F016
:1013D80033FC204338BD00BFB88804000100020078
:1013E80013B509480469836801A95B68984720B95F
:1013F800236801985840C0F3C010431E5842584112
:10140800024B187002B010BDD8770400EC3A0120E6
:1014180030B5224B05461B7887B0002B3AD0FFF732
:10142800CDFF044698BB01231D4AD3601D4ACDF861
:101438000CD0CDE9012304220A23CDE904234FF07F
:10144800FF324FF0FF3318482FF0FEFE174801A96E
:1014580083685B689847044613482FF06DFFB4B95A
:10146800BDF802309FED127A07EE903AF8EE677AEF
:1014780067EE877A9FED0F7A67EE877A9FED0E7A8F
:1014880067EE877AFCEEE77A17EE903A2B802046D3
:1014980007B030BD6FF08B04F9E700BFED3A0120CB
:1014A80000E00050988804007C320020687804002E
:1014B8006666E63F0000803A00803B45034B1B7898
:1014C8000BB1FFF77BBF6FF08B007047ED3A01203F
:1014D8007FB5714D2B6803F00703022B09D96F4BB9
:1014E80003220293002329461846CDE9003335F03C
:1014F800B7FB6B4844F023FF034678B92A685207C4
:1015080007D0684ACDE9013263490122009335F0DA
:10151800A7FB6FF01204204604B070BD624844F087
:101528000EFF614E034620B92A685607F1D05F4A7C
:10153800E8E7304644F003FF034620B92A68550718
:10154800E7D05B4ADEE7304644F0F9FE034620B9AF
:101558002A685407DDD0574AD4E72B6803F00703FD
:10156800022B09D9544B0322029300234A491846F7
:10157800CDE9003335F074FB4FF400314F4835F0B6
:1015880046FB2B68044668B15807C4D04C4B0394FB
:101598000293002301221846CDE900333E4935F075
:1015A8005FFBB8E703F00703022B08D9454B03227A
:1015B800CDE9010338490346009035F051FB4FF45B
:1015C8008031414835F023FB2B68044620B1590788
:1015D800A1D03E4B0390DBE703F00703022B08D9A9
:1015E8003B4B0322CDE901032B490346009035F01C
:1015F80037FB3849384835F00AFB2B68044620B1D8
:101608005A0788D0354B0390C2E703F00703022B33
:1016180008D9334B0322CDE901031F490346009043
:1016280035F01EFB2F49304B4B6080238B60B3682D
:10163800DB6913B101221C4898472B6803F00703A4
:10164800022B09D9294B0322029300231249184679
:10165800CDE9003335F004FB1148254983681B6840
:1016680098472B68044628B15B073FF454AF214BD9
:1016780003908DE703F00703022B08D91E4B0322C2
:10168800CDE9010304490346009035F0E9FA012247
:101698001A4B1A703FE700BFEC2F0020D6B30400A6
:1016A80068780400EEB30400D877040003B404009B
:1016B8001AB4040030B4040044B40400A888040038
:1016C8005DB4040079B40400B888040095B404003B
:1016D800B4B4040010000100B0880400CFB40400C2
:1016E800EDB40400905E0020E913000005B5040085
:1016F800B0AE04001FB5040034B50400ED3A012073
:101708002DE9FF410D4618491F460B68044603F0B2
:101718000703022B164608D9144B03220293002311
:101728001846CDE9003335F0C2FADFF84880D8F81A
:10173800003003930E4B029300231A4619461846AD
:10174800CDE9003335F0B3FA0823CDE90183BDF8BC
:1017580028303246009329463B4620463BF010FF8E
:1017680004B0BDE8F08100BF3C30002057B504004C
:1017780077B50400AC5E00201FB50B461349012B5A
:101788000A6802F007020DD1022A08D9104B029309
:10179800002303221846CDE9003335F088FA05B056
:1017A8005DF804FB23B9022AF9D90A4A0292F0E744
:1017B800002AF4D00393084B012202930023184611
:1017C800CDE9003335F073FAE9E700BF3C3000207B
:1017D80088B50400ACB50400D3B504001FB5436850
:1017E800104A23F0FF039342044619D183685A1E16
:1017F800534253410C4A137003930C4B029300233A
:101808001A4619461846CDE9003335F050FA002239
:1018180000232146064804B0BDE810402FF062BC02
:1018280004B010BD00011C00F13A0120E9B5040024
:10183800A833002030B587B004460D461822002191
:10184800684645F058FC064B694602930823204633
:101858000195ADF80C3011F0E7F907B030BD00BFC5
:10186800AC5E00202DE9FF41984F99483B689949A3
:10187800047801330A78984D3B6074B1002A40F02F
:10188800F58001222B600A7040F21F520023934812
:1018980004B0BDE8F04130F07DB8914E002A77D011
:1018A8004FF0280C2A680C709A1A0CFB02F2B2F559
:1018B800967F33606CD28B480268002A67D09A1AE8
:1018C8000CFB02F2B2F5167F61D2046002244FF0DD
:1018D800280C2A68981A0CFB00FE3068821A0CFB48
:1018E80002F2B2F5967F80F086807E4A1068002862
:1018F80000F08180BEF5967F4CD900247A4B1460A5
:1019080021462246CDE9014320462346009435F07E
:10191800CEF90123754A76491370764A13600B682D
:1019280003F00703022B08D9734B0322CDE90143C7
:1019380020462346009435F0BAF901F095FE20B10F
:101948006E4B19681431FFF775FF012000F0CEFBCC
:10195800322035F0BBF9002000F0C8FB322035F00A
:10196800B5F9012000F0C2FB322035F0AFF90020B4
:1019780000F0BCFB322035F0A9F9012000F0B6FBDD
:10198800322035F0A3F9002000F0B0FB7CE70360BB
:1019980000249CE70A78002A40F09080002C3FF44D
:1019A80073AF0024564B2246214602932046234615
:1019B800CDE9004435F07BF902234C4A4C491370B9
:1019C8004C4A13600B6803F00703022B08D94D4BF0
:1019D8000322CDE9014323460094184635F067F900
:1019E80001F042FE00283FF44FAF444B1968143110
:1019F800FFF720FF48E7BEF5967FCBD9DFF8EC80EC
:101A080098F80030042B2DD000243F4B2246214665
:101A1800029320462346CDE9004435F048F90423D3
:101A28000522334988F80030324B1A600B6803F0FE
:101A38000703022B08D9354B0322CDE90143204681
:101A48002346009435F033F901F00EFE20B12B4BFC
:101A580019681431FFF7EEFE0023224A3B602B6021
:101A68003360136001222A4B1A700DE72A689B1A0B
:101A780028225343B3F57A7FFFF406AF1B4D2B782A
:101A8800032B3FF401AF0024224B22462146029348
:101A980020462346CDE9004435F009F90322154BC9
:101AA80013491A600B682A7003F00703022B97D9B1
:101AB800194B0094CDE9014323468EE72A689B1A07
:101AC80028225343B3F57A7FD8D267E7A85E00206F
:101AD800F13A0120EF3A0120A45E0020C020002046
:101AE800A05E00209C5E0020FDB50400EE3A0120B7
:101AF8003C300020AC5E002012B6040048230020D1
:101B080024B6040039B6040070B6040082B6040096
:101B1800F03A01204BB6040060B604001FB5144823
:101B280044F00DFC1349034670B90A68520706D001
:101B3800114A0090CDE90102012235F0B8F86FF0A2
:101B4800120005B05DF804FB0B6803F00703022BD5
:101B580008D90A4B0322029300231846CDE9003323
:101B680035F0A5F8064844F006FD0020E9E700BF77
:101B7800587904003C30002092B60400AAB604004C
:101B8800A83300201FB50C490B6803F00703022B8C
:101B980008D90A4B0322029300231846CDE90033E3
:101BA80035F085F840F21F520023054805B05DF86E
:101BB80004EB2FF0BBBE00BF3C300020D1B60400C0
:101BC800C0200020014B1860704700BFB45E0020A1
:101BD8001FB50D4844F0B3FB034638B10022192164
:101BE800094805B05DF804EB35F08FB807490A6875
:101BF800520706D0064A0090CDE90102012235F0CD
:101C080075F805B05DF804FBD87704006C30002047
:101C1800F5B604007FB52A492A4844F072FE2A4ED8
:101C28002A4D304644F08BFB034668B92A685207B0
:101C380007D0274A2946CDE901020090012235F054
:101C480055F86FF012041BE03269B168136830462A
:101C580023F0007313600B684FF4C02219219847D2
:101C68002B68044678B15B070AD01A4B039002939D
:101C78000023012229461846CDE9003335F036F80D
:101C8800204604B070BD03F00703022BF8D9124BAD
:101C98000322CDE9010329460346009035F026F8D2
:101CA8002B6803F00703022BEAD933680322039356
:101CB8000A4B2946CDE90143204623460094DDE737
:101CC800D91B0000C0370020D87704006C300020F2
:101CD8001CB7040038B704005AB7040070B70400F2
:101CE80070B5344E0446336886B003F00703022B00
:101CF8001AD90025304B0390029303222B46314614
:101D08002846CDE9005534F0F1FF336803F00703A6
:101D1800022B09D9294B0322CDE9015331462B4621
:101D28002846009534F0E2FF254844F008FB0346B6
:101D380060B93268520707D0224A1E49CDE901022C
:101D48000090012234F0D2FF06B070BD41F2883312
:101D58009C4205D9326812F0060F1DD141F2883431
:101D6800194844F0DCFD01221921154834F0CDFF53
:101D78004FF4004540F2E73000214FF47A72002317
:101D8800E4FB0501FEF7F0FB02460B460E4806B0E1
:101D9800BDE870402FF0CABDCDE903430B4B0222CA
:101DA8000293002303491846CDE9003334F09EFF1F
:101DB800D4E700BF6C3000207FB7040098B7040058
:101DC800D8770400C3B70400C0370020E0B7040088
:101DD800F0B585B01D4D0C212F69AE683B682846CB
:101DE80023F480533B603368194A9847041E11DA7C
:101DF80018490B6858070AD00C230393164B029313
:101E0800002301221846CDE9003334F08EFF204626
:101E180005B0F0BD3B68DA044FF4805154BFF36855
:101E28003369284698470028044607DA09490B68A9
:101E38005B07ECD00C230393084BE0E740F26760A4
:101E4800002130F031F90024E1E700BFC077040039
:101E580000020200DC2F002031B804004DB8040055
:101E68002DE9F0410C234FF0000892B00546CDE96A
:101E78000438344E304644F062FA48B928463249AC
:101E880036F029FB6FF01204204612B0BDE8F0814D
:101E9800B7683C685CB142460321304604ABA047B2
:101EA800044638B12949284636F015FBECE76FF0AF
:101EB8005704F7E7D7F80080B8F1000F08D00246BA
:101EC8000721304604ABC047044620B12049EAE761
:101ED8006FF05704FAE73C213046FB689847044600
:101EE80008B11C49DFE7032130463B6906AA984739
:101EF800044608B11849D6E7072130463B690CAAC1
:101F08009847044608B11549CDE70B9B284603932B
:101F18000A9B13490293099B0193089B0093DDE9EF
:101F2800062336F0BCFA119B28460393109B0D49F3
:101F380002930F9B01930E9B0093DDE90C2336F06F
:101F4800AEFAA1E77079040063B8040076B804001B
:101F58009FB80400C7B80400E0B80400FBB8040048
:101F680015B904003CB9040030B5524887B034F0C4
:101F780029FF514C0546B8B923685B0711D04D4875
:101F880034F020FF1B23059004934C4B012203934C
:101F98004B4B2146CDE9015328462B46009534F09A
:101FA800EEFE4FF0FF3078E0464834F0CEFE0028D1
:101FB8001ADA23685D0711D0424834F0C6FE1C23A4
:101FC80004933E4B059003933D4B0122029300235B
:101FD80021461846CDE9003334F0D1FE394807B020
:101FE800BDE8304034F0B1BE324834F0EBFE05466F
:101FF80040B923685807D4D02E4834F0E3FE1D2397
:102008000590C1E7304834F0A0FE002816DA2368AE
:10201800590711D02C4834F098FE1E230493274BFF
:1020280005900393264B012202930023214618466C
:10203800CDE9003334F0A3FE2348D0E71D4834F03F
:10204800C1FE054640B923685A07AAD0194834F09A
:10205800B9FE1F23059097E71C4834F076FE002848
:10206800236815DA5B0711D0184834F06EFE202378
:102078000493124B05900393114B01220293002302
:1020880021461846CDE9003334F079FE0F48A6E71B
:1020980003F00703022B02D8002007B030BD0C4B19
:1020A80003220293002321461846CDE9003334F079
:1020B80066FEF1E7D8770400843000207BB904007D
:1020C80096B90400108904000889040000890400F6
:1020D800A8B904000146014834F060BE1089040024
:1020E8000146014834F05ABE0889040001460148F7
:1020F80034F054BE008904001FB501F0BBFA68B182
:1021080008490B685B0709D0074B0390029300232B
:1021180001221846CDE9003334F056FE05B05DF8CB
:1021280004FB00BF90300020B5B9040038B5124B4D
:102138001B789BB1114A137883F0010313706BB1BC
:102148000120FFF7CDFF0E4B1D784DB10020FFF7A2
:10215800C1FFBDE838400020FFF7C8BF0020F0E706
:10216800084B01201C78002CF1D0FFF7BFFF284650
:10217800BDE83840FFF7AEBFFF680120EC3A012008
:10218800F23A0120F33A0120F0B5964D85B02B685C
:1021980003F00703022B3DD90024934B032202933B
:1021A800294623462046CDE9004434F00DFE2B682D
:1021B80003F00703022B2DD98C4B032203938C4B7E
:1021C8002946CDE9014320462346009434F0FCFD1E
:1021D8002B6803F00703022B1CD9864B03220393B9
:1021E800854B2946CDE9014320462346009434F027
:1021F800EBFD2B6803F00703022B0BD97F4B03225F
:1022080003937F4B2946CDE901432046234600949A
:1022180034F0DAFD00247B4F23462246214620462F
:10222800CDE90044029734F0CFFD2B6803F0070393
:10223800022B17D9744E234603222046CDE90146C6
:102248006849009434F0C0FD2B6803F00703022BA3
:1022580008D9234603222046CDE901466149009466
:1022680034F0B2FDFFF780FE044680B12B685E07AC
:102278000AD0664B039002930023CDE90033012274
:102288001846584934F0A0FD204605B0F0BD01209D
:10229800FFF720FF4FF4167034F0A5FD2046FFF736
:1022A80019FFC82034F09FFD0120FFF719FF4FF4F4
:1022B800167034F098FD2046FFF712FFC82034F05E
:1022C80092FD0120FFF712FF4FF4167034F08BFDDA
:1022D8002046FFF70BFFC82034F085FD0120FFF7EB
:1022E800F9FE0120FFF7FCFE0120FFF7FFFE4FF487
:1022F800167034F078FD2046FFF7ECFE2046FFF715
:10230800EFFE2046FFF7F2FE2B6803F00703022BCF
:1023180009D93F4B0322CDE90143204623463149E1
:10232800009434F051FDFFF7D3F8044628B12B6828
:102338005D07A9D0374B03909DE7FFF7BFF8044628
:1023480028B12B6858079FD0334B039493E7334B3E
:1023580002460146CDE9000002930346064634F0E2
:1023680033FDFFF7DBFB2B68044640B159078BD0E0
:102378002B4B0390CDE90163009633467FE703F0CA
:102388000703022B08D9274B0322CDE9010315497E
:102398000346009034F018FD0024FFF7F3FB2346B2
:1023A800224621462046CDE90044029734F00CFD30
:1023B8002B6803F00703022B09D91B4B0322CDE935
:1023C8000143204623460749009434F0FDFCFFF7FB
:1023D80021FC2B68044658B35A073FF455AF134BFA
:1023E800039048E790300020DBB90400E7B9040007
:1023F800F4B90400FEB9040004BA04001ABA0400CF
:102408002FBA0400C7C8040045BA04005BBA040028
:10241800D6B304007EBA04009BBA0400BCBA040018
:10242800EABA04000FBB040022BB04003ABB040054
:1024380003F00703022B17D9614B0322CDE90103EF
:1024480060490346009034F0BFFC2B6803F0070393
:10245800022B09D95C4B0322CDE9014320462346D0
:102468005849009434F0B0FC00244FF4FA70FFF798
:1024780037FC2346224621462046CDE900440297F0
:1024880034F0A2FC2B6803F00703022B09D94F4B49
:102498000322CDE90143204623464A49009434F0FB
:1024A80093FC0120FFF71CFE0020FFF719FE01F046
:1024B80031F8044630B12B685B073FF4E5AE444B76
:1024C8000390D8E6034602460146CDE9010700908D
:1024D80034F07AFC2B6803F00703022B09D93D4B33
:1024E8000322CDE90143204623463649009434F0BF
:1024F8006BFC0120FFF7FAFD3748FFF763FB00206C
:10250800FFF7E8FD0020FFF7EBFD2B6803F007035A
:10251800022B19D90026314B032202933046334649
:10252800CDE90066274934F04FFC2B6803F0070318
:10253800022B09D92A4B0322CDE9016330463346E1
:102548002049009634F040FC322034F04CFC012045
:10255800FFF7CCFD2B6803F00703022B09D9214BA9
:1025680003220293002317491846CDE9003334F0BB
:102578002BFC4FF47A7034F036FC2B6803F0070319
:10258800022B09D9184B0322029300230D49184640
:10259800CDE9003334F018FC0020FFF7A7FD2B68C5
:1025A80003F00703022B7FF66FAE104B0322029352
:1025B800002304491846CDE9003334F005FC63E6EE
:1025C80063BB0400903000207ABB0400B8BB040051
:1025D800D3BB0400F6BB0400012100000DBC0400BD
:1025E8002DBC040041BC040053BC040068BC0400BA
:1025F8007FB5002405460E462222094901A8CDE9E7
:1026080001448DF80C4006F031FE3246294601A8F7
:1026180006F02CFF01A806F0DFFE204604B070BDCE
:10262800F53A012010B5C6B034F004FC0446202168
:102638000F4B104A0090104833F0AEF8204644F093
:1026480009FD0D4804A906F059FF78B10B490B683C
:102658005B0708D00A4B0122029300231846CDE9F4
:10266800003334F0D8FB002046B010BD4598FBE796
:1026780090BC040096BC0400153B0120BC3000202F
:10268800B3BC040030B5002489B00322264905A84C
:10269800CDE905448DF81C4006F0E8FD0028234DDF
:1026A80011DA2B6859070AD0214B0390CDE9014371
:1026B8000122234629462046009434F0ACFB4FF013
:1026C800FF3009B030BD2246214605A806F0F2FECB
:1026D800002805DA2B685A07F1D0164B0390E5E776
:1026E800042204A905A806F09DFE002805DA2B6837
:1026F8005B07E4D0104B0390D8E705A806F06CFE02
:102708002B6803F00703022B0BD9049B03220393C6
:102718000A4B2946CDE9014320462346009434F06C
:102728007AFB0498CDE700BFD1BC0400BC30002080
:10273800DFBC04000BBD040021BD040037BD04004C
:10274800014B1878704700BFF43A01200548036927
:102758001B689B0583684FF4007154BFDB681B69D5
:10276800184700BFC07704000548026981681368EC
:1027780023F4007313600B684FF4003209211847E3
:10278800C07704002DE9F74F3E4B06461B7891466B
:1027980043B93D4935F09FFE4FF0FF34204603B062
:1027A800BDE8F08F022905D8384935F094FE6FF05E
:1027B8001504F3E70022D9F80400114633F08EF827
:1027C8008046D9F80800FDF7FBFE4708384644F074
:1027D80048FC0546E8B1002400F1FF3A4FEA470BF0
:1027E800A3454FF000031BD1DFF8B090FFF7BCFF03
:1027F800FFF7ACFF0121484602F028FB041E23DA4C
:1028080030462246224935F066FE284644F022FC2E
:10281800C4E730461F4935F05EFE6FF00B04BDE794
:10282800D9F8082001A8115D22448DF804105278C7
:1028380000218DF8052010228DF8063033F04EF86F
:1028480002340AF8010FCBE7D9F808302A465C6849
:1028580041463B464846A047041E0CDA224630460D
:102868000D4935F038FE284644F0F4FB00210B48AA
:1028780002F0ECFA92E743463A463046084935F00A
:102888000EFEF0E7363B01204FBD04006DBD04008D
:10289800A1BD040086BD0400BEBD0400F878040094
:1028A800DDBD040030B51E4B05461B7885B03BB92D
:1028B8001C4935F010FE4FF0FF34204605B030BDFE
:1028C800FFF752FFFFF742FF0121174802F0BEFA57
:1028D800021E03DA2846154935F0FDFD12488368C3
:1028E8009B696BB103A99847041E0CDA2246284657
:1028F8000F4935F0F0FD00210B4802F0A7FADCE79C
:102908006FF08504F2E79DF80E30284600939DF895
:102918000C209DF80D30074935F0C1FDEBE700BFED
:10292800363B01204FBD0400F8780400A1BD040027
:10293800F7BD040015BE04002DE9F0432C4B0746F3
:102948001B78144685B043B92A4935F0C4FD4FF0C9
:10295800FF34204605B0BDE8F083022905D8264992
:1029680035F0B9FD6FF01504F3E7002260681146F1
:1029780032F0B4FF002206461146A06832F0AEFFDE
:102988000546FFF7F1FEFFF7E1FE01211B4802F0C3
:102998005DFA041E1BDBDFF864909DB1102DA8467C
:1029A80028BF4FF01008D9F808306A461C6831462D
:1029B80043461248A047041E0FDA224638461049FB
:1029C80035F089FD00210D4802F040FAC1E72246A2
:1029D80038460C4935F07FFDBBE7314643466A4629
:1029E800384603F04FFC4644A5EB0805D5E700BF81
:1029F800363B01204FBD04002FBE0400F8780400C8
:102A08004ABE0400A1BD0400F0B51346294A054694
:102A1800127885B03AB9284935F05DFD4FF0FF349A
:102A2800204605B0F0BD012905D8244935F053FDED
:102A38006FF01504F4E700225868114632F04EFF93
:102A48001F4F0646FFF790FEFFF780FE012138462C
:102A580002F0FCF9041E05DA22462846194935F029
:102A68003AFDDDE73146384601AA3FF021F9041E58
:102A780009DA22461449284635F02DFD0021104870
:102A880002F0E4F9CCE7029ABB689B683BB1314697
:102A980038469847041E05DA22460C49EBE76FF0E2
:102AA8005704F9E733462846029A094935F0F7FCF6
:102AB800E4E700BF363B01204FBD04006ABE0400B6
:102AC800F8780400A1BD040083BE0400A7BE04007A
:102AD800C3BE04001FB501220B46144993420A7075
:102AE8001349086800F007000DD1022808D9114BD6
:102AF8000293002303221846CDE9003334F0D9F9B4
:102B080005B05DF804FB23B90228F9D90A4A0292F4
:102B1800F0E70028F4D00393084B029300231846EB
:102B2800CDE9003334F0C5F9EAE700BF3D3B0120A9
:102B3800E430002088B50400ACB50400D3B5040027
:102B48002DE9F047944F98463B68814603F0070308
:102B5800022B154688B01BD90024904B0322029300
:102B6800394623462046CDE9004434F0A2F93B68B3
:102B780003F00703022B0BD92B7803220393884B0E
:102B88003946CDE9014320462346009434F091F9B3
:102B98000023B8F1060F8DF81C3012D0B8F1020FDF
:102BA8006AD03A6802F00702022A08D97D4A0093DF
:102BB800CDE9013203221846774934F07AF906251F
:102BC80026E0D5F8024095F800A06E7824BA0025D2
:102BD800754B2A46029329462B462846CDE90464BC
:102BE800CDE90055CDF80CA034F063F9002E48D19A
:102BF8003B6803F00703022B09D96C4B0096CDE91B
:102C08000163334603221846634934F052F9032519
:102C18003B688DF81C5003F00703022B1CD90024D5
:102C2800634B0322029320462346CDE900445A49C8
:102C3800CDF80C8034F03DF93B6803F00703022B14
:102C48000AD95C4B0322CDE9014320462346524969
:102C58000395009434F02DF9574B07AA1968484694
:102C68000123143134F010F94FF4FA7034F030F9CC
:102C7800404608B0BDE8F0871C4695F800A06E787D
:102C8800A5E74E4B3A68197802F00702B14207D21D
:102C9800022ABCD94A4B0095CDE901532B46B1E72E
:102CA800BAF1030F08D80AF1FF3ABAF1020F0FD8A8
:102CB800DFE80AF064686A00BAF1320F69D0022AC4
:102CC8007FF67DAF3F4B0095CDE901532B4671E769
:102CD8003D4B701EB14253F820301BD1022A09D94E
:102CE8003A4B0322029300232B491846CDE90033BF
:102CF80034F0DFF84FF4DC72B4FBF2F302FB134359
:102D0800334AE31A1360334B1E70334B01221A7097
:102D180000257DE763B9022A08D9304A1846CDE96B
:102D280001321D490322009334F0C3F804256FE7EC
:102D38009C420DD9022A09D9294B03220293002368
:102D480015491846CDE9003334F0B3F805255FE797
:102D5800022A09D9234B0322029300230E4918465D
:102D6800CDE9003334F0A5F84FF4DC72B4FBF2F38C
:102D780002FB1343E41A164B1C60C4E71A4B1E707F
:102D88001A4BC3E71A4BC1E700221A4B1A601A4BB9
:102D9800BCE71A4B1D70BBE7E430002051BF0400AC
:102DA8006FBF04007DBF04008DBF0400C1BF0400D5
:102DB8005AC0040076C00400D0230020353B01200F
:102DC800D6BF040048C00400B85E0020E9BF040074
:102DD800C45E00201E2F00203C3B012002C00400DE
:102DE80011C004002DC00400393B01203A3B0120EA
:102DF800383B0120C05E00203B3B0120373B0120CF
:102E0800F0B5044687B00A2016461F460D4634F032
:102E18005FF80A4B29461A685B68049205930823F1
:102E2800029304AB0193BDF830303246009320463C
:102E38003B463AF0A5FB07B0F0BD00BFB85E0020E6
:102E4800F8B50446204E304643F079FA30B9326876
:102E58001E49204635F03FFB0020F8BD2CF078FDD8
:102E680020461B4A1B4935F01AFB1B4D1A212A69BB
:102E7800AF681368284643F0806313603B68174ABD
:102E88009847021E01DA1649E3E7BF6957B14FF4C4
:102E980080024FF000731A212846B847021E04DA50
:102EA8001049D6E76FF05702FAE720460E4935F089
:102EB800F6FA0021304601F0C9FF021E01DA0B497B
:102EC800C7E734F098FB00BF2078040082C00400F4
:102ED8009AC00400A6C00400D877040011000100BD
:102EE800BCC00400E4C0040016C1040046C10400CC
:102EF800BFF34F8F0549064BCA6802F4E0621343DB
:102F0800CB60BFF34F8F00BFFDE700BF00ED00E0CF
:102F18000400FA050A88014B1A807047C838012056
:102F280070B5054601268EB02822002104A844F079
:102F3800E2F8244B284604A91E700DF077FA224CBB
:102F480010F0FF0322680ED052070AD003931F4BDC
:102F580032460293002321461846CDE9003333F068
:102F6800F8FF0EB070BD02F00702022A08D9184A0D
:102F78002146CDE9013218460322009333F0E9FFD8
:102F8800284639F0E1FA134B18600C9B1A88124B4B
:102F98001A80236803F00703022B09D90F4B032279
:102FA8000293002308491846CDE9003333F0D1FFD6
:102FB80040F6CD4200230A482EF0B8FC0122094B06
:102FC8001A70CEE73D3B0120EC30002076C10400AA
:102FD8009DC10400005F0020C8380120B1C1040071
:102FE800F0200020F33A01201FB500230E4A0F49B4
:102FF80013700F4A044613700A6802F00702022A87
:1030080007D90C4A1846CDE901320093032233F060
:10301800A0FF20460CF072FD0023074A1360074A00
:10302800138004B010BD00BFF33A0120EC3000203B
:103038003D3B0120C5C10400005F0020C8380120C5
:103048001FB5104C4FF4A17221460F4834F0BAFC5A
:103058000E4BB0F5A17F186010D00D490B685B07C7
:1030680009D00C4B03900293002301221846CDE9A6
:10307800003333F06EFF002004B010BD2288012019
:103088001A60F9E77D3F0120C85E0020E85E002055
:10309800EC300020DCC1040010B588B00DF11E0032
:1030A800FEF7B6F988BBBDF81E100DF11D0033F010
:1030B800E6FD044648BB9DF81D3002460493BDF862
:1030C8001E3001460393184B0090CDE901030346D7
:1030D80033F03FFF9DF81D0001F046FF68B113492A
:1030E8000B685A0709D0124B0390CDE9014301221E
:1030F80023462046009433F02CFF4FF4F02200239F
:103108000C482EF047FC08B010BD08490B685B0757
:10311800F3D0094B0122029300231846CDE900336E
:1031280033F017FFE9E700BF10C20400EC300020BD
:1031380032C20400F020002053C204001FB5094920
:103148000B6803F00703022B08D9074B03220293ED
:1031580000231846CDE9003333F0FBFE012005B00B
:103168005DF804FBEC30002070C204001FB509496B
:103178000B6803F00703022B08D9074B03220293BD
:1031880000231846CDE9003333F0E3FE05B05DF8BF
:1031980004FB00BFEC300020A9C20400F0B50F46C4
:1031A80017491C460B68064603F00703022B154611
:1031B80087B008D9134B0322029300231846CDE9A0
:1031C800003333F0C6FE012C07D12B78062B13D120
:1031D800A8220D4B1A77FFF78BFE022C0CD12B7807
:1031E800012B09D1102239468DF8172030460DF1F0
:1031F800170233F099FEEBE7204607B0F0BD00BF99
:10320800EC300020C8C20400005500501FB50B4622
:103218001349012B0A6802F007020DD1022A08D9C6
:10322800104B0293002303221846CDE9003333F0F4
:1032380090FE05B05DF804FB23B9022AF9D90A4AC1
:103248000292F0E7022AF4D90393084B032202936F
:1032580000231846CDE9003333F07BFEE9E700BFD1
:10326800EC30002088B50400ACB50400D3B50400E8
:103278002DE9F843FFF7E4FE0646F8B1DFF87C8055
:103288001B4FD8F800203B88D1B24D1C5FFA85F956
:1032980053FA85F5B5F5DC7F164C12DBE154204670
:1032A8004FF4DC71FFF7A4F92046D8F80020124942
:1032B80000F8012BA7F8009043F0F6FE3046BDE871
:1032C800F88340F2B71C581C6545E15420440A496C
:1032D80009D143F0E9FE00234FF4DC7120463B801E
:1032E800FFF786F9EAE743F0DFFE3D80E6E700BF37
:1032F800C4380120403B01207F3F0120E85E0020C8
:1033080010B50120FFF78EF9024C2060FFF7BAF9DB
:10331800606010BDB85E00202DE9F04F87B04FF413
:10332800804000212EF0C0FEDFF8DCA1694B6A4E18
:103338001C686A4DDFF8D491D4B13778002F3BD19F
:1033480040F6CD4000212EF0AFFE01232F703370E0
:10335800634B029300231A4619461846CDE90033F9
:1033680033F0F7FDFFF7CCFF01232B7024B126E0E3
:103378002B783470002BEBD0B9F80020594B632A16
:103388001B7801D9574B1B78002B40F08280564B95
:103398005B6813F1011F7CD800254FF0FF324FF016
:1033A800FF3352482DF050FFFFF7CAF9002873D1B8
:1033B8004E482DF0C1FF6AE02B78002BC8D020467C
:1033C80039F0C2F8B9F800300546632B57D9002800
:1033D800D8D0DAF80010012214313AF0A4F9002804
:1033E80043D0FFF72DFE002838D128460CF086FB85
:1033F8004FE03F48921B0388B9705C1C0480B9F801
:1034080000403C49033C944228BF14463B70224686
:103418001B0A31443848264403347B7043F044FE89
:10342800A3B20593DAF800103A462846059B1431F2
:1034380033F07AFD044640B908F10108DBF80020B2
:103448005FFA88F1B242D4D8CFE7212000212EF0CC
:103458002BFE04F10C03012BEED8E3E74FF0000834
:10346800DFF8ACB04646254FE8E71E4B1B78002B2B
:10347800BBD11D4B5B6813F1011FB6D88DE7194B03
:103488001B7823B9184B5B6813F1011F85D9002DF0
:10349800ABD12EF087FD49E7FFF7EAFE0446134853
:1034A8002DF04AFF002CF2D0154C23780133DBB203
:1034B800FF2B2370EBD1FFF723FF0023114A237062
:1034C8001946CDE9013218461A46009333F041FDFA
:1034D800DDE700BF005F00203E3B0120522F0020A7
:1034E800E8C204003D3B0120B85E0020EC5E0020ED
:1034F800C63801207F3F0120FB3C0120F83C012019
:103508003F3B0120FCC2040048250020C8380120A8
:10351800E85E002070B58EB0404843F055F840484A
:103528000CF0D6FE00200AF01DFD3E4E044633681E
:1035380078B15A070AD03C4B012202930023314646
:10354800CDE900330390184633F003FD20460EB052
:1035580070BD03F00703022B08D9344B0322CDE9D1
:10356800010331460346009033F0F3FC4FF4A07298
:1035780000212F4843F0BFFD2E480FF02DF82E4DA7
:103588002E480FF029F809AC2D480FF025F80FCD7B
:103598000FC42B680322236002232A49009309A839
:1035A800294B0BF021FD3368044650B15B07CDD0A1
:1035B800264B0122029300231A49CDE900330390D8
:1035C800C1E703F00703022B08D9214B0322CDE9F9
:1035D800010314490346009033F0BBFC4FF4215318
:1035E8001C4AD3611C4B13600023C2E90233C2E9B1
:1035F800053353601361002000210722CDE906013D
:10360800CDE90232CDE9003304934FF48052134BD5
:10361800134914482EF086FA98E700BFEC5E0020A4
:1036280000260020EC30002005C304002EC304004F
:10363800403B0120D0230020C084040048250020FE
:10364800C0240020E4890400D48904004EC3040087
:103658007DC30400C85E0020BF4001202133000064
:10366800F8AA0220E8380020014B1868704700BF0C
:10367800005F00202DE9F84305460C46104E114F17
:10368800C1F3072906F10208B4F5A07F13D8224632
:1036980029464046347086F8019043F005FD4FF402
:1036A800A1723846064934F03DF9B0F5A17F02D140
:1036B8000020BDE8F883002121202EF0F5FCE3E787
:1036C8003B3E0120C85E00202DE9F04F91B00093E9
:1036D80002F004030293C2F3C203013384070546D0
:1036E8000E46DDF868900392059340F0BB81041DF7
:1036F80030B1072909D86FF01B0011B0BDE8F08F71
:1037080001F00706341DC6F10806009B4FF00008BB
:103718004FF0040A591E4FF0FF3347460193C34642
:103728005346CDF810800DB1009820600598002808
:1037380000F3E8809848009A824203D3974882426F
:10374800C0F0E080039AA4EB050E92074FEA9E00B2
:1037580000F103810F2F00F2B180002D00F00581E8
:1037680007F140020DEB020C019A0CF8200C0CF842
:10377800102C049801300490E7E07A285DD84B2893
:103788000ED8472859D829282DD8252852D054D8BA
:1037980020287AD02338D0F1000B4BEB000B74E0D3
:1037A8004C382E2849D8DFE800F070484848484887
:1037B8004848484848484B4848484848484848596D
:1037C800484B4B595959704B6D487048184B18481D
:1037D80048827F4B48484B487F0000204FF0000B41
:1037E8004FF0040A38E001222A38C0B202FA00F089
:1037F80010EA0E0F49D110F0625C2FD110EA020BCB
:1038080043D06046013C5444B4FBFAF40AFB04F488
:10381800002D61D0A3EB050CA444B4453FF66BAF73
:10382800002868D1042B47D159F8043B23600423AE
:1038380004342AE0019A013A01924FF0000B24E087
:1038480011F8010C6C2834D1002011F8023C834691
:103858006C2BC5D14FF0080A5346D3E709F1070985
:1038680029F00709073424F00704F9E802AB35B159
:1038780006982044B0423FF63EAFC4E900AB4FF093
:10388800000B08344FF0080A534611F8010F0028BE
:1038980078D0BBF1000F7FF470AF2528F5D14FF039
:1038A800010B019B013301934FF0040AECE75846E2
:1038B80094E700208346A5E7082B02D06FF0150097
:1038C8001BE709F1070929F00709B9EC027B84ED28
:1038D800007B08230834D8E768B9042B02D109F122
:1038E8000409A4E7082BE9D109F1070929F0070918
:1038F80009F10809EDE705980138059059F8040B16
:10390800009010E7039A900720D54FF0010CA4EB24
:10391800050E4FEA9E00BEF5007FCFD20F2FCDD8FF
:10392800F5B107F140020DEB020E019AC0B20EF894
:10393800200C0EF8102CBCF1000F3FF41AAF60F009
:103948007F000EF8200C08F101080137C5F10802C4
:103958004FF6DA7E0434069297E74FF0000CDAE768
:10396800BCF1000F01D00136EFE7029A0236002AB7
:10397800EBD10098CDE90631FCF722FEDDE90631EE
:103988000644E2E7631BB3F5806F97D245B9A6F109
:103998000804E018B1E600BF30760400483D060090
:1039A800029A9B0828602B709DF81030C2B1EB700A
:1039B80085F80280B8F1000F05D0002208A8C5F1EB
:1039C800010C97420ED14FF0000AC5F101030DF129
:1039D800200901930DF1300B574512D1601B8CE67D
:1039E8006B70E5E710F8013B190608D504EB0C0EDF
:1039F800B64503F07F033FF67EAE04F8013B013283
:103A0800DFE7B8F1000F03D099F90020002A17DB8F
:103A1800029BD3B11AF80B2004F8012B0022019B5A
:103A280098182044B0423FF666AE99F80000009915
:103A380004F8010B2046039243F036FB039A144422
:103A48000AF1010A09F10109C6E799F8002055F8B9
:103A580022300093029B009845F82230FCF7B0FD15
:103A6800421CDCE76FF00D0047E600BF014B186011
:103A7800704700BF2826002080B505460E46174629
:103A880098462EF04DFB034643F0C4FD0446DFF88C
:103A98001890424649F8003039463046A84754F84D
:103AA800090004F0A1F800BF080000002DE9F04764
:103AB800058B04462807904611D4022905F007050E
:103AC80040F0CC80204633F0F0FD78B10138218BEE
:103AD800042811D8DFE800F0C2106D85950001298F
:103AE8000CBF45F0100545F02005258388F31188A3
:103AF800BFF36F8FBDE8F08701F0070AAA4500F011
:103B0800A5800027B9463E46A368002B00F0BC807C
:103B180041F00801218388F31188BFF36F8FA168F2
:103B2800002900F0BA800D68002900F0B6803346FD
:103B380052462046D1F80480C047002D76D02B6825
:103B480029461D46F0E701F007035A1F012A1BD832
:103B5800002221F00701062B276889B2C4E9002258
:103B680009D13B4603E0628B013262831B68002B5C
:103B7800F9D141F002012046218333F096FD002857
:103B88007AD041F0200176E0042B0AD121F0070118
:103B980089B22046218333F088FD10B141F020011D
:103BA8002183218B01F0070AAA454FD00027B94687
:103BB800AAE7236921F0070141F00601062DD3F891
:103BC800009021832DD1B9F1000F3FD041F00801B9
:103BD800218388F31188BFF36F8F20463949C8477E
:103BE80029E021F00701236941F0040189B2042D7D
:103BF800D3F804902183E6D000274FF0040A3E460C
:103C080082E721F00701236941F0050189B2052DFA
:103C1800D3F808902183D6D000274FF0050A3E46F6
:103C280072E700274FF0060A3E466DE72B4687E706
:103C3800B9F1000FD1D1EFF31188202383F3128853
:103C4800BFF36F8F238B23F008032383258BEA06AA
:103C58002ED525F01003238305F007056669218B0F
:103C6800002EBFF670AF00232768C4E9003321F0A7
:103C7800070141F001012183218B4FF0000901F078
:103C8800070AAA457FF440AF002F9CD041F00801F5
:103C9800218388F31188BFF36F8F002FC8D03D6848
:103CA800394633465246204633F02BFD2F46F4E77B
:103CB800AB067FF51BAF25F02003238305F007052E
:103CC80000E700BF377703001FB5034678B91449EA
:103CD8000A68520706D0134A0090CDE90102012272
:103CE80033F091FE6FF0150005B05DF804FB8368B2
:103CF80073B90B490A68520707D00B4A1846CDE931
:103D080001320093012233F07EFE6FF00400EBE7EE
:103D18001B681BB105B05DF804EB18471846E3E7CC
:103D280080300020C1C30400D2C304001FB503467D
:103D380078B914490A68520706D0134A0090CDE9A9
:103D48000102012233F05FFE6FF0150005B05DF847
:103D580004FB836873B90B490A68520707D00B4AFA
:103D68001846CDE901320093012233F04CFE6FF082
:103D78000400EBE75B681BB105B05DF804EB18477E
:103D88001846E3E780300020C1C30400D2C3040012
:103D980030B585B008B101B182B916490B685A0728
:103DA80008D0154B0122029300231846CDE90033B1
:103DB80033F029FE6FF0150005B030BD84680CB1F2
:103DC800E5687DB90B490B685B0708D00B4B0122EE
:103DD800029300231846CDE9003333F014FE6FF048
:103DE8000400E9E741F8040BE36805B0BDE830409A
:103DF800184700BF80300020F0C30400D2C304007D
:103E08001FB5044678B91E490B685B0707D01D4BE0
:103E18000122CDE901030090034633F0F4FD6FF071
:103E2800150004B010BD036873B915490A68520734
:103E380007D0154A1846CDE901320093012233F024
:103E4800E2FD6FF00100ECE79A680AB112697AB9ED
:103E58000B490B685B0708D00C4B01220293002327
:103E68001846CDE9003333F0CEFD6FF00400D8E7F3
:103E78004168184690470028D3D12060D1E700BF99
:103E8800803000201CC404002DC40400D2C30400E8
:103E980030B51346044685B078B91E490B685D07EE
:103EA80007D01D4B0122CDE901030090034633F0F2
:103EB800AAFD6FF0150005B030BD006870B915494E
:103EC8000B685A0707D0154B0122CDE90103009072
:103ED800034633F098FD6FF00100ECE782680AB101
:103EE80095687DB90B490B685B0708D00C4B01221C
:103EF800029300231846CDE9003333F084FD6FF0B8
:103F08000400D8E70A46AC46616805B0BDE8304011
:103F1800604700BF803000201CC404002DC404008A
:103F2800D2C30400034A13680BB952681360002017
:103F3800704700BF2C26002030B50C460E4985B0CE
:103F48000291D0F8D4110546CDE9003100F1F00115
:103F58004FF0FF3320462CF083FA50B9012384F840
:103F68006C30D5F8D03123B1204605B0BDE83040DB
:103F7800184705B030BD00BF1F7B030038B50C469D
:103F88001146054633F0C9FD034638B928460449A9
:103F980033F0C3FD03460020236038BD0120FBE752
:103FA800C8C804002DE9F04F012381460569466819
:103FB8008FB005F20447D7E8EF2F002A03D1C7E8EE
:103FC800E13F0029F7D10CBF1A46002240F0BF801C
:103FD800B368B16A05F5F8781C1F104633F021FE66
:103FE80084427DD8013A00F0AC80B2FA82F24FF0F8
:103FF8000044D44072682046073222F00302C5F814
:104008008822B16A33F00DFEC5F88C02B36A4046C7
:104018006343033323F0030302EB4302230103EB5F
:104028004403093323F0030303EBC403C5F88022D8
:104038001A440832C5F87C227368C5F88442C5F86A
:104048007832444BC5E9B363D9F80030C5F8243257
:10405800316800F0EBF9044600283FD1D9F810B0D8
:10406800D9F804A0D9F800300BF53A7905900493F3
:104078004846DAE90734012B08BF103C42F03AFC05
:10408800DAF82400344904AB009301EB802123467D
:1040980048464FF480622DF0A5FB2021DAF8243041
:1040A8002E4A06A831F078FB06A948462DF078FC80
:1040B8002B490BF5367042F0B8FBDAE90501836845
:1040C8005C684CB15B46274AA047044630B9DAE938
:1040D800050183681B692BB96FF05704002129E09B
:1040E80001327AE70122984704460028F6D11E4B90
:1040F8002846C5F8D0311D4BC5F8D4311C4B039365
:10410800D5F838320293D5F83032CDE90083D5F8A6
:104118009032B26AD5F8001400F050F9044600282D
:10412800DCD105F1F0002CF041FA0028C5F80804AC
:104138000ADB0221384633F024FD20460FB0BDE8E3
:10414800F08F6FF00B04C9E76FF01504C6E76FF046
:104158007704F2E7757B0300F8BA022052C4040022
:104168005B7B03004F7B03007D410000017D030062
:10417800BB7B030013B5044640B100230122CDE9FF
:104188000032074BD0E909122CF01AF9236F1B688B
:1041980023B1606F02B0BDE81040184702B010BDEF
:1041A800C8C8040013B504460846216901F2044151
:1041B800D1E8AF1F022910D193B1A0B10121CDE9F7
:1041C80000311346D0E909122CF0FAF8074B98424F
:1041D80008BF6FF00B0002B010BD6FF00F00FAE7D8
:1041E8006FF04C00F7E76FF00100F4E72EF8FFFFDF
:1041F8002DE9F74388461546066906F20443D3E8D5
:10420800AF3F022B5FD1136823B96FF0150003B0DD
:10421800BDE8F0831B78002BF7D0D6F80094B9F1ED
:10422800000F33D106F5EC774FF0FF324FF0FF3334
:1042380038462DF009F830462A6801A9FFF79EFE96
:10424800019C1CB9384633F09AFCDEE705F10803F7
:1042580023676B6984F86C906367646460B138465F
:1042680033F08DFC21463046A36E2A68FFF764FEC2
:104278000020C8F80040CAE72022296804F1480055
:1042880042F095FF384633F07AFCF1E730460F49A3
:1042980033F043FC04460028B7D005F10803036750
:1042A8006B6940644367002380F86C3020222968DA
:1042B800483042F07CFF22460121304600F060F889
:1042C8000028D5D0A1E76FF00F00A0E7C8C8040008
:1042D80010B50C46006900F20443D3E8AF3F022B47
:1042E8000FD189B10A4900F5367042F0D9FA204653
:1042F80041F0F9FC78220021204642F0FCFE002023
:1043080010BD6FF00F00FBE76FF00100F8E700BF8A
:10431800045F00202DE9F04F05460E469046002721
:10432800D0F8C4A085B0AAF5BE7421463046FCF783
:1043380035F9E0B9114BA4F1480B0293DAF81030C3
:104348003246CDE9008329464FF0FF335846AAF597
:10435800E2792CF085F860B97823012203FB0793F2
:1043680083F86C20DAF80C300BB15846984778344B
:1043780017B105B0BDE8F08F0127D6E72F7D030000
:104388001FB5144690B18AB1012912D10A4B00F128
:10439800F0010293D0F8D431483201934FF0FF3343
:1043A800204600932CF05CF804B010BD6FF01500A7
:1043B800FAE70020F8E700BF2F7D03002DE9F0435E
:1043C80087B00E46DDE90E811446DDE910251F464B
:1043D80030B329B3DFF850C000F1F009002D08BF51
:1043E80065469EB9CDE9034400F5E274204605967A
:1043F80041F013FF03ABCDE900432A463B46414653
:1044080048462CF04BF907B0BDE8F083002241463E
:104418000E9248462A4607B0BDE8F0432CF094BAFD
:104428006FF01500EFE700BF1D430000F0B50E4622
:10443800044689B0002872D0436B0BB9394B4363EB
:1044480001232246E3630023D4F8981004F14000C6
:1044580042F8301FCDE901334FF0FF330093D4F811
:104468009C3040F0D9FB304A06AB92E8030083E861
:104478000300184627F012FB0546D8B904F13400AA
:1044880027F0EEFA0546A8B9616B284805AA40F05E
:104498009FFB054670B9059B9A6872B10C33D4F836
:1044A8009400C4F8A03033F06FFCC4F8D40030B9DD
:1044B8006FF00B05284609B0F0BD0346EFE7D4F8C6
:1044C800940033F061FCC4F8D8000028F0D0D4F888
:1044D8008C30D4F8A010C4F8A8300423C4F8AC3049
:1044E800C4F8C4300223A362114BB4F89420D4F862
:1044F800D470C4F8B810C4F8D010D4F8901023625F
:1045080004F1A403A4F8B020C4F8A470C4F8C0103F
:10451800A4F8C820C4F8BC00A661E362CAE76FF03B
:104528001505C7E75EC40400D484040068C4040009
:10453800288A04002DE9F84F81462F480F4633F0AA
:1045480065FC064670B92D4C0546A0464FF0010B98
:10455800DFF8ACA0544507D3B9F1000F02D04FF0F3
:10456800010AE5B9BDE8F88F237B6BB12368DB68E6
:104578000BB12046984723681B6943B96368042236
:104588002046196800F094F901361034E2E7204615
:1045980098470028F2D00BFA06F31D43F4E7A94622
:1045A80095FAA5F4B4FA84F40AFA04F3260108EBA0
:1045B80004146FEA030B25EA0305237B63B158F85B
:1045C80006301B6993B9464473680422204619686B
:1045D80009EA0B0900F06CF9002DE1D127B14FF47D
:1045E800A47000212DF060FD4D46BAE7204698479B
:1045F8000028F1D1E7E700BF345F0020A47E040063
:10460800E47E0400014B53F820007047548A0400EC
:1046180008B5034608462BB1044A136000F07EFB38
:10462800002008BD6FF01500FBE700BF58260020EA
:1046380008B50023074A4FF400411370064A07489B
:104648001360074A1360FFF7E3FFBDE8084000F076
:104658007FB800BF006901202C5F0020117E030095
:10466800305F002070B50B4D297841B90120FFF764
:1046780061FF094C094EB44202D301232B7070BD6F
:1046880063685B791BB1236820469B6898471034A0
:10469800F1E700BF00690120A47E0400E47E040065
:1046A80010B50446064833F0B1FB3CB1054BD3E8DE
:1046B800EF1F0139C3E8E21F002AF8D110BD00BF7F
:1046C8002C5F0020305F00202DE9F041164B054695
:1046D8001B689847154CDFF85880A860444501D3FB
:1046E800BDE8F08163685B793BB129784B0706D553
:1046F8002368294620461B6898471034EEE7284669
:104708002E88C1F3C20700F06DF9C6F3821602467F
:10471800002EEDD00028EBDB01233946204600F0BF
:10472800E1F8B042E9D3E3E758260020A47E04006C
:10473800E47E0400044A054B9B1AB1EBD30F34BF47
:1047480052F83100002070475C7C0400A47E04000D
:1047580000210B480B4B30B51B1A0B4CDB080430FF
:10476800994200D130BD10F83120256802F00702C7
:1047780025F007052A4344F8042B0131F0E700BF70
:104788005C7C0400A47E0400DC2F0020F8B50646FB
:1047980000240A4F0A4DED1BED08AC4203D14FF03F
:1047A800FF342046F8BD57F8340020B13146FBF7F6
:1047B800F5FE0028F5D00134EFE700BF5C7C04006B
:1047C800A47E040000282DE9F047884615461F46B8
:1047D8001DDA4FF0000A5446DFF8A090234EA6EBEE
:1047E80009063609B24509F1100902D12046BDE88B
:1047F800F08759F80C0C3B462A4641460079FFF7EA
:10480800E1FF844238BF04460AF1010AEAE7184B7F
:10481800184AD21AB5EBD20F26D203EBC5031C797E
:10482800BC4228BF3C460722134EC0B200EB4000F2
:1048380056F82530824023EA020304F0070282403A
:1048480013430021032223FA02F000F007008142FB
:1048580002F1030238BF01461E2AF4D123F00703F0
:104868000B4346F82530C1E70024DCE7E47E04006A
:104878005C7C0400A47E0400DC2F0020A47E0400DD
:10488800F8B506460F460024074D084BED1AED080B
:10489800AC4200D3F8BD002122B23B463046013479
:1048A80033F0D5FAA4B2F3E7A47E04005C7C0400DC
:1048B80038B50D4611460A4B4268C31A1B11044607
:1048C8000133137143689971FFF7DAFF01226368B6
:1048D8001D6063685A71BDE8384033F0B5BA00BF4F
:1048E800A47E040070B14168097973B1002A17DB0E
:1048F800CBB20C4903EB430351F82200D84000F037
:10490800070070474FF0FF31EFE707490748401AA3
:10491800B2EBD00F3ABF01EBC201087918467047D5
:1049280004207047DC2F00205C7C0400A47E040077
:104938002DE9F04F87B004AF0446D7E90EA90E461B
:10494800934698463D6BBAF1000F22D0C7F8049001
:10495800CDF800901021534600207A6BFEF7B4FE84
:10496800B0F5006F014615D31C490B6813F0060F0C
:104978000BD040F2FF730393194B022202930023DA
:104988001846CDE9003333F08FFA0C37BD46BDE841
:10499800F08F514604F007040BF0070BE40044EADB
:1049A8008B1444EA412444EA055417350D4425F094
:1049B8000705ADEB050D04ADBAF1000F07D0CDF832
:1049C800009053467A6B05F11000FEF77DFE4346D2
:1049D80022463146284633F04EFAD6E78830002082
:1049E8007DC40400406820B1034BC01A40F38F0017
:1049F80070474FF0FF307047DC2F00200EB403B52E
:104A080003AB53F8042B01460448019303F0D8FC88
:104A180002B05DF804EB03B0704700BFED7E030001
:104A2800CA0605D48B064CBF02490349FFF7E6BF07
:104A3800704700BFC7C80400C03306002DE9F04F17
:104A480087B09DF8446004460D4690469946002E6E
:104A580000F0A280159B03F0020A03F001030493FF
:104A6800159B03F0080B03F48073059333F0EDF9FD
:104A7800024600283DD020469449FFF7BFFF07466D
:104A8800BAF1000F09D0159B13F0440F33D12A4611
:104A980020468F49FFF7B2FF0744049B53B18D4B63
:104AA800204653F826208C4B8C49002A08BF1A460A
:104AB800FFF7A4FF059B002B49D0BBF1000F64D181
:104AC800B8F1000F66D0424620468549FFF796FFA9
:104AD8000546129B3D44002B6DD1149B002B73D1CE
:104AE800159BDB0700F1EB8020461599FFF798FF2F
:104AF800D8E00746C4E77B4B18680028CCD07A4B2F
:104B08004FF47A7A1B684FF46161B5FBF3F5B5FB96
:104B1800F0F300FB13550AFB05F5B3FBF1F2B5FB07
:104B2800F0FE4FF03C0C01FB123100FB1E55B1FBAF
:104B3800FCF30AFB05F5B5FBF0F50CFB1311204659
:104B48000091CDE901E56949FFF758FFA4E7BBF1FA
:104B5800000F1DD0664B204653F826206549FFF705
:104B68004DFF0546B8F1000F05D0424620465C4986
:104B7800FFF744FF0544B9F1000FAAD04A46204682
:104B88005D49FFF73BFF0544A3E74FF00009E1E764
:104B98005D46E7E745469CE7B9F1010F129B06D150
:104BA800002B66D1149B002B7CD000250CE0002B39
:104BB800F8D052485EE05248129B2246514932F0E2
:104BC800AAFC149B002B6AD0DFF84481DFF84491DB
:104BD800149F2046102F159928BF10274FF0000B5F
:104BE800FFF71EFF5D4547DC139B494620461A78B0
:104BF800FFF704FF4FF0010B1BF0070F03D14146ED
:104C08002046FFF7FBFE5F453DD9139B49462046EA
:104C180013F80B20FFF7F2FE0BF1010BBBF1100F9D
:104C2800EAD14FF0000A20463749FFF7E7FE52461F
:104C3800DFF8E4B0139B20469A5CA2F120015F29BB
:104C480028BF2E225946FFF7D9FE0AF1010ABAF108
:104C5800100F1DD01AF0070F03D141462046FFF769
:104C6800CDFE57455246E5D841462046FFF7C6FED9
:104C7800EBE7234835469FE741462046FFF7BEFE4F
:104C88000BF1010BAEE720462049FFF7B7FEC3E75B
:104C9800139B3B441393149BDB1B149398D1002E56
:104CA8007FF41EAF6268A168D2E90023206833F060
:104CB8000BF9002263681A6007B0BDE8F08F204640
:104CC800054A0649FFF79AFE0EE700BF2294050041
:104CD800BAC40400648A0400B5C40400A2C904006C
:104CE800DFC404003C5F0020385F0020C3C4040018
:104CF800788A0400E3C40400E9C40400097F0300BF
:104D0800ED7E0300C9830000F4C40400A406060075
:104D1800A6060600EEC40400CE5B050000210123B0
:104D2800064A904206D8064A01B901231360054B8A
:104D380018607047012140085B00F2E740420F000D
:104D4800385F00203C5F00200122014B1A70704739
:104D580001690120014B002019607047545F002051
:104D680010B5064B0C461868FFF74CFC2146BDE809
:104D7800104003460F220248184700BF545F002026
:104D8800A88A04000122F8B5084B094D094E1A708B
:104D9800D5E900470CB92C60F8BD214630463A46A3
:104DA80000F00AF8241A0644F4E700BF026901205B
:104DB800485F002003690120F8B507460E46042421
:104DC800174D3246394600202BF048FEC8B1012362
:104DD8002B70144B1B782BB93046F8BD5CB92C707E
:104DE8004FF0FF3400202BF0CBFE0028F4D02B78B6
:104DF800002BF3D1F0E7013C41F2883041F09AFAF8
:104E0800F0E72B7813B1013C04D12C702B78002BE0
:104E1800D7D1E1E741F2883041F08CFAF6E700BFDC
:104E28000169012002690120014B036000207047DD
:104E3800B88A040003289ABF024B53F8200002489E
:104E4800704700BFB88A0400C8C8040070B5446938
:104E58000D469CB31E4A2379565CB34231D01D4A95
:104E6800525C9A4230D1A3689847002810DA022D84
:104E78000CD0032D0BD110F1860F07D0D4E8EF3FEB
:104E880043F00203C4E8E23F002AF6E7267170BD4A
:104E9800022D267101D00020F9E7D4E8EF3F23F076
:104EA8000403C4E8E23F002AF7D1D4E8EF3F23F037
:104EB8000203C4E8E23F002AEDD0F6E76FF057009E
:104EC800E5E76FF07700E2E76FF08500DFE700BF06
:104ED8003EC504003AC5040010B5084C86B02478D5
:104EE8008DF81740012402940DF117040194BDF8C0
:104EF8002040009438F044FB06B010BDAB2F0020D2
:104F08007FB50BAB05930393054B03220293002354
:104F18001846CDE90033FFF70BFD07B05DF804FB39
:104F280058C504001FB50A460B490B6803F0070370
:104F3800022B0ED909480A4B012A08BF03460393DE
:104F4800084B0322029300231846CDE90033FFF7EC
:104F5800D7FF05B05DF804FBE82F00209C5405003E
:104F680067B3050058C5040000B5642889B08DF8FA
:104F7800070019D80E4B18221870002102A842F019
:104F8800BAF80C4B002003930DF107030493012397
:104F980002A9ADF814300DF047FE10F1800F08BFDC
:104FA800002009B05DF804FB6FF01500F9E700BFB9
:104FB800AB2F0020908B04002DE9F8430646FBF741
:104FC800FFFA0546EFF31188202383F31288BFF315
:104FD8006F8F114B1C68D3F804909C4208BF0024C3
:104FE80034B988F31188BFF36F8F2046BDE8F88382
:104FF800A7683846FBF7E4FAA84206D12A4639469C
:10500800304642F0C2F80028EBD04C4501D0246865
:10501800E6E70024E5E700BFA8260020F0B585B044
:105028000E461546FFF7C8FF044648B3C3683BB3AE
:105038001F692FB3062E08D0072E25D02A463146E1
:105048003B4605B0BDE8F0401847838A3BB92A467D
:105058003146B847B0B9A38A0133A3821DE04FF6A1
:10506800FF729342F8D11A490B685B0708D0194BB5
:10507800012202930023CDE90033184632F0CCFF19
:105088006FF0150005B0F0BD4DB12A783AB1002295
:10509800828231462A461B6998470020F2E7A38A94
:1050A800012B08D12A4607212046B8470028E9D114
:1050B800A38A013BD1E7002BFBD105490A6812F00E
:1050C800060FDDD0044A0093CDE901320222D4E76D
:1050D8004C30002071C5040093C504001FB5044678
:1050E80008B1806880B916490B685A0708D0154B73
:1050F8000293002301221846CDE9003332F08CFFD9
:105108006FF0150004B010BDFFF756FF28B10C4929
:105118000B685B07F4D00C4BEAE7A082EFF3118130
:10512800202383F31288BFF36F8F084B5A68C4E9B2
:10513800003214605C6081F31188BFF36F8FE1E780
:105148004C300020B1C50400CAC50400A8260020C0
:1051580010B504463DF055FB03490246204633F09E
:105168009EF9002010BD00BF0AC6040013460022A5
:1051780073B5044601920A21586801AA01F0D2F9D0
:10518800019D95B920EAE0744FF40046294640F2A3
:10519800E7304FF47A720023C4FB0601FBF7E4F909
:1051A8002CF082FF284602B070BD2A4620460249EC
:1051B80033F091F9019DF5E736C6040008B5034AB6
:1051C800034933F06CF9002008BD00BF23C7040071
:1051D8002AC704002DE9F3411746002304460A2193
:1051E800B86801AA019301F09DF9019DC6B24DB1BD
:1051F8002A462046134933F06EF9019D284602B02D
:10520800BDE8F081042E09D9324620460E4933F014
:1052180062F9204633F0BAF90125EFE77868FFF71D
:10522800B5FAB0F1000804DA20467A68074933F085
:1052380052F90021334608460FFA88F232F007FE89
:10524800DCE700BF4DC7040074C704008BC7040027
:1052580010B5044620F02CFF07490246204633F0DB
:105268001EF92046054933F01AF9214604482DF065
:1052780013F8002010BD00BFEAC7040009C80400E5
:105288008D52000070B58EB004460D46D0F89C6073
:1052980041F08EFB034642F0BDF9214A21491058DE
:1052A800214A002B18BF1A460092204A23468442FE
:1052B80018BF0A4628461E4933F0F1F8D4E90A23F4
:1052C800CDE90023284694F90E30227B194933F0A2
:1052D800E6F806A9202220462CF072FB636E0246EF
:1052E8001549284633F0DBF8204605A941F070FB44
:1052F800024628B12846114933F0D1F80EB070BDE6
:105308006422059B2846F11A4A43B2FBF6F2009143
:10531800CDE901620A49324633F0C1F8EEE700BF31
:1053280008000000A606060013C80400A95A0500D4
:1053380016C8040022C804004EC8040065C804004A
:1053480092C80400F0B50025044691B0294608AF7C
:105358001C2209A841F0CFFE134E1A2220213846FC
:1053680041F0C9FE214611482CF096FF07AA4FF4D8
:105378000061304641F020FB6423079A2046C2F5BD
:1053880000614B43DB0A05934FF400630097CDE9B6
:105398000313CDE9013206492B46324633F07FF834
:1053A800284611B0F0BD00BF68570320BD53000068
:1053B800DEC8040070B504460D46D0F89C6088B07D
:1053C80007A941F005FB024628B128460E4933F0EB
:1053D80066F808B070BD204641F0EAFA6422079BDF
:1053E8000096F11A4A43B2FBF6F2CDE90131074BB8
:1053F800CDE90362002818BF03462246284604491F
:1054080033F04DF8E5E700BF65C8040013C8040091
:1054180027C904002DE9F04389B0054602A82BF0FE
:105428001FFC1823029E082103FB00661E4A28461B
:1054380033F01AF81D4F029CDFF87C80DFF87C906F
:10544800B44203D3002009B0BDE8F08323680BB150
:105458001A7832B923463A46142103A830F09CF949
:1054680003AB42460821284632F0FEFF204640F0B2
:1054780066FFB0B1002320460DF107018DF8073013
:1054880032F081FD58B99DF80700FFF7D3FC0346B9
:1054980008212846064A32F0E7FF1834D0E7054BC2
:1054A800F6E74B46F4E700BF91C904009BC9040026
:1054B800689C05008BC90400A0C9040030B705002A
:1054C8002DE9F041144688460746102200216068FD
:1054D80030F004FAB8F1020F064607D82023082155
:1054E8003846244A32F0C0FF336816E00A22002109
:1054F800A06830F0F3F9C5B22B46082138461D4A9A
:1055080032F0B2FFB8F1030F1AD1102D0CD0202DB4
:10551800EAD0082D0BD13378DBB208213846164A79
:1055280032F0A2FF002009E033889BB2F5E7384645
:105538000821124A32F098FF6FF01500BDE8F0819B
:1055480010220021E06830F0C9F90821034604461A
:105558000B4A384632F088FF102D06D0202D07D090
:10556800082DE4D1E4B23470DCE7A4B23480D9E782
:105578003460D7E7CDC90400F8C90400E2C90400C3
:1055880009CA04002DE9F04F91464FF0FF3501227A
:10559800584B85B0074688461A60202602F098FFC7
:1055A8002C46DFF870A149465246404602F0B8FF43
:1055B800411C06D16A1C50D14F49384632F08BFF46
:1055C8001CE073281FD0772832D0612816D1DFF865
:1055D80048B110220021DBF8000030F07FF90546C1
:1055E8000028E0D142F016F8444B1B58162BDAD1AC
:1055F800DBF800204249384632F06DFF6FF01500A5
:1056080005B0BDE8F08F0022DFF80CB11146DBF8D9
:10561800000030F063F904460028C4D141F0FAFFD5
:10562800364B1B58162BBED1DBF800203549E2E774
:105638000022DFF8E4B01146DBF8000030F04EF944
:1056480006460028AFD141F0E5FF2C4B1B58162B1E
:10565800A9D1DBF800202C49CDE7631C01D12B49E7
:10566800ABE75FFA86F8C6F3C406002C3FD06B465A
:1056780029461A46A6EB050C0CE0B8F1100F1DD010
:10568800B8F1200F20D0B8F1080F2AD10878187087
:1056980031443344A64203D80CEB01001028ECD95E
:1056A800102CA14628BF4FF0100929464B46384612
:1056B80000F0E8FD1035A4EB0904D6E7088880B2AD
:1056C8001870000A5870E3E708684FEA102E18703F
:1056D80083F801E04FEA104E000E83F802E0D8701C
:1056E800D6E7082138460A4A32F0BEFE86E7204649
:1056F80086E700BF482800205ECA04000C000000AE
:105708001DCA040030CA040043CA04007BCA04004E
:10571800E2C9040057CA04005871002070B50F4E42
:1057280004460D46337871B123B10D49BDE8704088
:1057380032F0D1BE0123337020460A4932F0AFFE61
:105748000123337004E083F001033370002BF3D19D
:1057580029462046BDE8704032F035BF0469012073
:1057680095CA0400D0CA040070B504463B480378C3
:10577800182B02D10B78112B31D00B46013A8D181A
:10578800AB4225D18B5C0A780370A2F13003092B58
:10579800334C04D922F02003413B052B04D823685D
:1057A8003049CA54013323602368022B33D11022B5
:1057B80000212C4830F092F82B4A136803F8010BAB
:1057C80013602A4A1368013313600023236022E020
:1057D80013F8016B182ED3D11E78112ED0D1234D7A
:1057E80020462A68224932F05AFE20460021FFF757
:1057F80095FF204B187870B91F4A2B681168042B45
:105808000ADC08B111602B6013F003010BD1126898
:1058180013681BBA136070BD0868043B00BA41F8EE
:10582800040B0120EBE75B4203F0030358BF594226
:10583800022904D1126813885BBA9BB2EAE70329EC
:10584800E9D1106802681104C2F3074301F47F012B
:105858000B4302F47F4213430360DCE70569012030
:10586800585F002007690120645F00205C5F00200A
:10587800FACA040006690120605F00202DE9F84F8C
:105888000023064615460C462949DFF8BC800B6004
:105898002849DFF8B890DFF8B8B088F800300B6016
:1058A800012C2F4655F804AF1ED90222494650460E
:1058B80041F06BFC80B99AF80220003A18BF012227
:1058C8009244504602221C4941F05FFC30B9012342
:1058D80088F80030013CE3E70022F1E749465046EA
:1058E800FAF75CFEA8B904370022786811462FF051
:1058F8007FFF0022114B1146186078682FF078FF5F
:105908000F4B104918603046FFF708FF0020BDE82C
:10591800F88F9AF800202D2AE6D19AF80120002A5B
:10592800E2D052465946304632F0B9FDD2E700BFC0
:10593800585F00205C5F002017CB0400645F0020E4
:10594800605F0020715700000669012014CB040035
:105958001ACB0400032307B5054A0093002101234D
:105968001268044800F0F4FC002003B05DF804FB62
:10597800888C0400207F0400042307B5054A00939F
:10598800002101231268044800F0E2FC002003B063
:105998005DF804FBF48C0400507F040037B54468BC
:1059A800124904F10805226028460022236441F0C8
:1059B800C3F94FF4A4720023E463002428460C4D75
:1059C800CDE900232CF070FE29464FF40053094A14
:1059D800009401202BF0DEF810232946064A009493
:1059E80001202BF003F9204603B030BDCF8103001E
:1059F800A2CC040056690120466901202DE9F8432C
:105A0800884614461F460426D0F80490104D2246B6
:105A1800414601202BF022F858B101232B700120B8
:105A2800D9F80030D9F8401098473C600020BDE80C
:105A3800F8832B7813B1013E04D12E702B78002BFC
:105A4800E5D1ECE741F2883040F074FCF6E700BF9E
:105A58002769012010B504468168183100F006FF57
:105A6800A1682046BDE81040014A183100F0A4BEE4
:105A7800D2CC04000EB403B5044904AA019200F084
:105A8800DFFC02B05DF804EB03B07047C7C8040040
:105A980038B583680446D3F89832DB071DD4C0694B
:105AA80033F00EFA606803685B689847054620B9CA
:105AB800E06833F00CFBA3681D75A3685B6C13B139
:105AC800294620469847002241F0A4FDA368C3F860
