:100000003881032001830000BBAE0300ED820000B5
:10001000ED820000ED820000ED820000ED82000024
:100020000000000000000000000000000D8500003E
:10003000ED8200000000000091840000ED820000CD
:100040002587000025870000258700002587000000
:1000500025870000258700002587000025870000F0
:1000600025870000258700002587000025870000E0
:1000700025870000258700002587000025870000D0
:1000800025870000258700002587000025870000C0
:1000900025870000258700002587000025870000B0
:1000A00025870000258700002587000025870000A0
:1000B0002587000025870000258700002587000090
:1000C0002587000025870000258700002587000080
:1000D0002587000025870000258700002587000070
:1000E0002587000025870000258700002587000060
:1000F0002587000025870000258700002587000050
:10010000258700002587000025870000258700003F
:10011000258700002587000025870000258700002F
:10012000258700002587000025870000258700001F
:10013000258700002587000025870000258700000F
:1001400025870000258700002587000025870000FF
:0401500025870000FF
:1001580081F0004102E000BF83F0004330B54FEA70
:1001680041044FEA430594EA050F08BF90EA020FDD
:100178001FBF54EA000C55EA020C7FEA645C7FEA70
:10018800655C00F0E2804FEA5454D4EB5555B8BF93
:100198006D420CDD2C4480EA020281EA030382EA04
:1001A800000083EA010180EA020281EA0303362D96
:1001B80088BF30BD11F0004F4FEA01314FF4801C69
:1001C8004CEA113102D0404261EB410113F0004F7B
:1001D8004FEA03334CEA133302D0524263EB430332
:1001E80094EA050F00F0A780A4F10104D5F1200ED0
:1001F8000DDB02FA0EFC22FA05F2801841F100012B
:1002080003FA0EF2801843FA05F359410EE0A5F1FE
:1002180020050EF1200E012A03FA0EFC28BF4CF02F
:10022800020C43FA05F3C01851EBE37101F00045E5
:1002380007D54FF0000EDCF1000C7EEB00006EEBF2
:100248000101B1F5801F1BD3B1F5001F0CD349087C
:100258005FEA30004FEA3C0C04F101044FEA4452D3
:1002680012F5800F80F09A80BCF1004F08BF5FEA5A
:10027800500C50F1000041EB045141EA050130BD3A
:100288005FEA4C0C404141EB0101013C28BFB1F54C
:10029800801FE9D291F0000F04BF01460020B1FA97
:1002A80081F308BF2033A3F10B03B3F120020CDA6A
:1002B8000C3208DD02F1140CC2F10C0201FA0CF048
:1002C80021FA02F10CE002F11402D8BFC2F1200CAD
:1002D80001FA02F120FA0CFCDCBF41EA0C01904063
:1002E800E41AA2BF01EB0451294330BD6FEA0404AC
:1002F8001F3C1CDA0C340EDC04F11404C4F1200297
:1003080020FA04F001FA02F340EA030021FA04F3A8
:1003180045EA030130BDC4F10C04C4F1200220FAFF
:1003280002F001FA04F340EA0300294630BD21FA3D
:1003380004F0294630BD94F0000F83F4801306BF03
:1003480081F480110134013D4EE77FEA645C18BFF7
:100358007FEA655C29D094EA050F08BF90EA020F8E
:1003680005D054EA000C04BF1946104630BD91EA86
:10037800030F1EBF0021002030BD5FEA545C05D189
:100388004000494128BF41F0004130BD14F58004C8
:100398003CBF01F5801130BD01F0004545F0FE413C
:1003A80041F470014FF0000030BD7FEA645C1ABF71
:1003B800194610467FEA655C1CBF0B46024650EAA8
:1003C800013406BF52EA033591EA030F41F40021D4
:1003D80030BD00BF90F0000F04BF0021704730B55A
:1003E8004FF4806404F132044FF000054FF000012F
:1003F80050E700BF90F0000F04BF0021704730B5F0
:100408004FF4806404F1320410F0004548BF4042C4
:100418004FF000013EE700BF42004FEAE2014FEA19
:1004280031014FEA02701FBF12F07F4393F07F4FF4
:1004380081F06051704732F07F4208BF704793F0F7
:100448007F4F04BF41F40021704730B54FF460740A
:1004580001F0004521F000411CE700BF50EA01020D
:1004680008BF704730B54FF000050AE050EA0102B6
:1004780008BF704730B511F0004502D5404261EB26
:1004880041014FF4806404F132045FEA915C3FF467
:10049800D8AE4FF003025FEADC0C18BF03325FEA04
:1004A800DC0C18BF033202EBDC02C2F1200300FAB5
:1004B80003FC20FA02F001FA03FE40EA0E0021FADA
:1004C80002F11444BDE600BF7BB972B90029BEBF72
:1004D80000204FF0004106E008BF00281CBF6FF065
:1004E80000414FF0FF3000F057B8ADF1080C6DE94E
:1004F80004CE002909DB002B1ADB00F069F8DDF8CF
:1005080004E0DDE9022304B07047404261EB410199
:10051800002B1BDB00F05CF8DDF804E0DDE90223CA
:1005280004B0404261EB4101524263EB4303704720
:10053800524263EB430300F04BF8DDF804E0DDE9D9
:10054800022304B0404261EB41017047524263EB21
:10055800430300F03DF8DDF804E0DDE9022304B0D0
:10056800524263EB4303704753B94AB9002908BFA5
:1005780000281CBF4FF0FF314FF0FF3000F00CB8DF
:10058800ADF1080C6DE904CE00F022F8DDF804E0C6
:10059800DDE9022304B07047704700BF10F8012B53
:1005A80011F8013B012A28BF9A42F7D0D01A7047A8
:1005B800034611F8012B03F8012B002AF9D17047E3
:1005C800034613F8012B002AFBD1181A013870478B
:1005D8002DE9F04786468C460846089E154674461F
:1005E8001946002B40F0C1808542B2FA82F245D903
:1005F8004AB1C2F1200300FA02FC954094402EFA59
:1006080003F343EA0C0C4FEA154EA8B2230CBCFBCB
:10061800FEF80EFB18CC08FB00F943EA0C43994599
:1006280028D9EB1808F1FF3704D2994502D9A8F167
:1006380002072B44A3EB0903A4B2B3FBFEFC0EFB99
:100648001C330CFB00F044EA0344A04214D92C19D3
:100658000CF1FF3304D2A04202D9ACF102032C44BE
:10066800241A43EA07401EB1D44000233460736063
:10067800BDE8F0874746DDE76346F1E792BB431BD9
:1006880001214FEA154EAFB2200CB3FBFEFC0EFB66
:100698001C330CFB07F840EA0343984561D9EB1873
:1006A8000CF1FF3004D2984502D9ACF102002B447A
:1006B800A3EB0803A4B2B3FBFEFC0EFB1C330CFB3C
:1006C80007F744EA0344A7424DD92C190CF1FF332C
:1006D80004D2A74202D9ACF102032C44E41B43EA3A
:1006E8000040C0E7C2F120039540944020FA03F18E
:1006F8002EFA03F34FEA154E9040AFB20343B1FB15
:10070800FEFC0EFB1C10190C0CFB07F841EA00411B
:10071800884522D969180CF1FF3004D2884502D9DE
:10072800ACF102002944A1EB08019BB2B1FBFEFC2D
:100738000EFB1C110CFB07F743EA01439F420ED93D
:10074800EB180CF1FF3104D29F4202D9ACF102013F
:100758002B44DB1B41EA004193E76046E3E761462F
:10076800F7E76046A4E76346B8E7834206D916B9B7
:10077800002108467CE7C6E900E0F9E7B3FA83F709
:100788008FB9834201D3724508D8BEEB020460EBEF
:10079800030301209C461EB9002169E73846FAE7A1
:1007A800C6E9004CF8E7C7F1200CBB400EFA07F584
:1007B80022FA0CF42EFA0CF1BA401C4320FA0CF37E
:1007C800B8404FEA144901431FFA84FEB3FBF9F815
:1007D80009FB18300B0C08FB0EFA43EA00439A4554
:1007E80040D9E31808F1FF3004D29A4502D9A8F19C
:1007F80002002344A3EB0A0389B2B3FBF9F809FB0F
:10080800183308FB0EFE41EA03418E452CD96118C6
:1008180008F1FF3304D28E4502D9A8F1020321441E
:1008280043EA0040A1EB0E01A0FB02984145CE46E9
:10083800434602D306D14D4504D20138B9EB020E26
:1008480068EB0403002EA7D0B5EB0E0261EB0301A1
:1008580001FA0CFC22FA07F3F9404CEA0303C6E953
:10086800003199E74046C5E74346D9E70000000054
:100878002DE9F04706460F46904688B047F027FB1B
:100888004FF47A73A0FB034503FB0155E40B012FDA
:1008980044EA45444FEAD53507D122462B4630462F
:1008A800274938F0E8FC002012E0D8F80470254801
:1008B8003946FFF773FE70B139462348FFF76EFEDD
:1008C80048B130463A46214938F0F1FC6FF004004F
:1008D80008B0BDE8F087204617A3D3E900232946CE
:1008E800FFF7F2FD05460C4610461946184A002344
:1008F800FFF7EAFD80460F46104619464EF660227D
:100908000023FFF7E1FD82468946104619464FF459
:100918007A720023FFF7D8FDCDE902A9CDE90623B5
:10092800CDE904012A4623463046CDE90087094926
:1009380038F0A1FCB7E700BF005C26050000000006
:1009480054DF040065DF040068DF040071DF040081
:1009580080EE360089DF0400F0B58BB0002140F648
:10096800034009AA0DF092FD0446002840F0B78024
:100978000998C3681B7853B95F4BD3E8AF2F02F0CF
:100988000902D3E8EF1FC3E8E42F002CF9D108F0DF
:100998002BFE002141F2030009AA0DF077FD044661
:1009A800002840F09C80099A544DD16805F17803DD
:1009B800D1F80100D1F8051003C3104608F014FE61
:1009C800214641F2010009AA0DF060FD0446002805
:1009D80040F085800998C3685A7885F870205A884D
:1009E800A5F872201A7985F87120B3F80720A5F8C0
:1009F8007420B3F80530A5F8763008F0F5FD2146E7
:100A080041F2020009AA0DF041FD0446002866D112
:100A1800099F05F18006FA68531C4132344618686C
:100A28005968083303C493422646F7D1384608F07C
:100A3800DBFD0FF005F80446002850D195F88A3000
:100A480013F0200317D12E490A6812F0060F06D0BA
:100A58002C4A0093CDE9013202223CF0CCF895F8FB
:100A68007C3013F0400351D125490A68520739D127
:100A78006FF0120433E0072140F633400DF000F820
:100A88000646002800F0518107210C303AF0C7FCD7
:100A9800042343700623C0F8024084710470047173
:100AA8002246C370314640F633400DF0EFFC044651
:100AB800A8B9012140F631400CF0E2FF06460028B3
:100AC80000F0338101210C303AF0B8FC224631465F
:100AD80040F631400DF0DAFC04460028BFD020462D
:100AE8000BB0F0BD084A1846CDE901320093012247
:100AF8003CF081F8BCE700BFF42100202021002051
:100B08008C300020FB8A0500298B0500002142F269
:100B1800030009AA0DF0BAFC04460028DFD1099B9E
:100B2800AF4EDA68D2F80100D2F8051003C61846AD
:100B380008F05AFD214642F2020009AA0DF0A6FC6F
:100B480004460028CBD1099CE368B3F8012091B290
:100B580049B1D97839B1A5F80421DA78114606F1F6
:100B6800280046F0F0FE204608F03EFD1F2395F8C9
:100B78007C60A5F8203116F0200618D1022140F635
:100B88006D400CF07DFF0446002800F0CE80022165
:100B98000C303AF044FC012321460370467032467B
:100BA80040F66D400DF072FC0446002897D195F888
:100BB8009C301F0712D5002142F21C0009AA0DF033
:100BC80065FC044600288AD10998C368D3F8012037
:100BD800D3F80530C5E9382308F006FD95F8D83074
:100BE8009E0625D50DF1220108A80DF04BFD0446FF
:100BF80000287FF474AF042142F224000CF040FF77
:100C08000646002800F0918004210C303AF007FCD9
:100C1800BDF8203022460380BDF82230314643809B
:100C280042F224000DF032FC044600287FF457AF4E
:100C380095F8D8305C0610D5002142F22A0009AA9E
:100C48000DF024FC044600287FF449AF0998C368D6
:100C58005B7885F8223108F0C7FC082142F20100D0
:100C68000CF00EFF044600285FD008210C303AF043
:100C7800D6FB95F8D81040F2022311F0400F08BFB8
:100C88000323024688074CBF43F02C0043F00C00B6
:100C98008B0695F8D93048BF40F0400013F0090F93
:100CA80095F8A23018BF40F4006003F00603CF07A0
:100CB80048BF40F01000062B08BF40F4C070002168
:100CC8003BF0B0FF2146002242F201000DF0DEFBAE
:100CD800044600287FF403AF95F87C20B5F804316A
:100CE800960625D4D3B9194641F2050009AA0DF094
:100CF800CDFB044600287FF4F2AEB5F80431099C18
:100D08004BB9E368B3F80120A5F804219A8835485F
:100D1800114646F018FE204608F066FC082140F609
:100D280001400CF0ADFE044698B96FF06804D6E6B1
:100D3800002BF3D12C490A68540702D16FF0040440
:100D4800CDE62A4A0093CDE9013201223BF053FF58
:100D5800F4E708210C303AF062FB95F8D8300246E7
:100D6800D90747BF1CA1D1E900014FF00051204825
:100D78003BF058FF2146002240F601400DF086FB6B
:100D8800044600287FF4ABAE014609AA4FF601409D
:100D98000DF07CFB144E78B3336813F0060F09D0BE
:100DA800144B0222CDE901433146234600941846EC
:100DB8003BF021FF0EF09CFA044600287FF48FAE2A
:100DC80010F05AF8044600287FF489AE0DF05CF85C
:100DD80085E600BFAFF30080908800020080002005
:100DE800F8210020282200208C3000204D8B05009F
:100DF80010880002708B05003368099F03F0070311
:100E0800022BFC6851D9B4F801304849032B96BF2E
:100E1800474A484A52F82320CDE90323464B032288
:100E2800029300231846CDE900333BF0E4FE336813
:100E380003F00703022B38D9B4F80130B4F80320C3
:100E4800022B4AD1052A48D83C4B53F82230CDE929
:100E580003323B4B03220293002334491846CDE961
:100E680000333BF0C8FE336803F00703022B1CD99C
:100E7800D4F8091063790791B4F80710032B069189
:100E8800A17998BF2F4ACDE9043198BF52F82320A1
:100E98002D4B88BF274A029300230392184603224A
:100EA800CDE9003321493BF0A6FE384608F09CFB0B
:100EB80000214FF6024009AA0DF0E8FA044670B185
:100EC800336813F0060F3FF475AF204B02930023ED
:100ED800CDE900330222154969E7164BB7E70998AF
:100EE800C368B3F80130A5F8C13008F07DFB95F868
:100EF800C1305B077FF55EAF21464FF6034009AA74
:100F08000DF0C4FA50B1336813F0060F3FF452AF36
:100F18000F4B0094CDE901432346DBE70998C368EA
:100F28005B7885F8C03008F05FFB43E78C30002021
:100F380038A5040083880500948B050020A50400CB
:100F4800AD8B050010A50400C58B0500F28B0500CC
:100F58001B8C05000000000070B514460646CD172E
:100F6800A1FB0201002304FB05110A22FFF7ACFADA
:100F78000FA3D3E900230C4D80FB054520462946E5
:100F8800FFF7A2FA06A3D3E90023306029462046DA
:100F9800FFF79AFA0023054AFFF796FA726070BDC8
:100FA80080A8120100000000D8EF2F0040420F0077
:100FB80000209BF35E10000003292DE9FF41054640
:100FC8000C4613D0072900F083806D490B6813F095
:100FD800060F08D06B4B0222029300231846CDE976
:100FE800003342F01BFB6FF085004CE0002A53D021
:100FF800072AF8D158681A68634BC117C2FB030166
:10100800012871F100035CDBD5F804805F4B98F888
:101018001A60C0184FEAD61655A3D3E9002341F148
:10102800000176B2FFF750FA002E14BF0423022302
:10103800984298F91A7029D0002E14BF2023102343
:10104800834225D0002E14BF08230423984221D0C0
:10105800002E14BF10230823984232D1E6B231463D
:1010680040462D6939F033F8002824DB3D22484BEF
:10107800002F33F81430AE77AABFA3FB02325343D4
:101088005B08EB60002004B0BDE8F0810024E5E7D0
:101098000124E3E70224E1E719883E4B14461F4682
:1010A80033F8022B914209D86868E1B22E6939F009
:1010B8007BF9002808DA6FF00400E4E701340B2C10
:1010C800EED16FF01500DEE737F81430B383D9E7B7
:1010D800002A3AD0072A86D1B4245A6819682A4BBC
:1010E800D017C1FB0320A2FB0431012A04FB001125
:1010F80070F100001DDB2848181841F100011EA3FB
:10110800D3E900230024FFF7DFF9244B33F8022B3F
:10111800904216D16868E1B22E6938F0EFFF0028D6
:10112800C9DB41F217121E4B33F814305343B36135
:10113800A8E71C48181861F100010FA3D3E90023A0
:10114800E0E70134072CE1D1BBE71988114B33F8EC
:10115800020B814206D86868D1B239F093F90028A9
:1011680090DAA8E701320B2AF1D1AAE7AFF30080A1
:101178003AA3950000000000D8EF2F0000000000FF
:10118800583000207D13060040420F009DD14A00D0
:1011980084C204008CC20400ECF7170076C2040075
:1011A80068C204001408E8FF2DE9F74F0329144624
:1011B800066905D90B1F032B53D96FF0850023E06F
:1011C8000229F7683A4D22D0032923D0012914BFF8
:1011D800B6F90460B6F90660A6FB076732A3D3E93F
:1011E800002386FB056530462946FFF76DF9002385
:1011F800304A206029463046FFF766F900232D4A19
:10120800FFF762F96260002003B0BDE8F08FB6F91D
:101218000860E1E74FF0000B02F11803DFF894A033
:101228000236019336F9028FA8FB07831EA3D3E980
:10123800002388FB059848464146FFF745F9524682
:1012480044F8080B5B4648464146FFF73DF95246CD
:101258005B46FFF739F9019B44F8042C9C42E1D125
:10126800D1E70629B5690CD007290ED02A460529E9
:1012780014BFB6F91010B6F912102046FFF76CFE2D
:10128800C1E72A46B6F91410F7E70E3602F1180737
:1012980020462A4636F9021F0834FFF75DFEA742AA
:1012A800F6D1B0E7AFF300800010A5D4E800000045
:1012B8003AA3950040420F002DE9F04F3A4B85B014
:1012C800D3F8042392070BD5D3F8042142B10022A6
:1012D800C3F80421354AD3F8043113680133136085
:1012E800334D0024A8464FF480362F4FD7F80433E7
:1012F80006FA04F919EA030F2CD00123A340DB43B3
:101308002C49D1E8EF2F02EA0300C1E8EC0FBCF149
:10131800000FF6D122FA04F3DB0703D4264B53F867
:101328002430BBB1204642F05CFB25F071FCEFF3A2
:101338001183202282F31288BFF36F8F08EB041CFD
:10134800DCE902AB504571EB0B010AD283F311883B
:10135800BFF36F8F103514B105B0BDE8F08F0124CD
:10136800C4E70020D5E900129FED0D7B28600E48E8
:1013780003938CED027B0292C0F84893204642F01A
:1013880030FB039B83F31188BFF36F8F0029E1D0F3
:10139800029A5B46009252468847DBE7AFF300802B
:1013A800FFFFFFFFFFFFFFFF00500150EC1F012070
:1013B80090550020E01F01204051015038B5064DDE
:1013C8000649284636F033FB00210446284636F005
:1013D80043FB204338BD00BFD89A04000100020037
:1013E80013B509480469836801A95B68984720B95F
:1013F800236801985840C0F3C010431E5842584112
:10140800024B187002B010BDFC890400803B01201B
:1014180030B5224B05461B7887B0002B3AD0FFF732
:10142800CDFF044698BB01231D4AD3601D4ACDF861
:101438000CD0CDE9012304220A23CDE904234FF07F
:10144800FF324FF0FF33184830F00EFE174801A95D
:1014580083685B6898470446134830F07DFEB4B94A
:10146800BDF802309FED127A07EE903AF8EE677AEF
:1014780067EE877A9FED0F7A67EE877A9FED0E7A8F
:1014880067EE877AFCEEE77A17EE903A2B802046D3
:1014980007B030BD6FF08B04F9E700BF813B012036
:1014A80000E00050B89A0400F43200208C8A04004E
:1014B8006666E63F0000803A00803B45034B1B7898
:1014C8000BB1FFF77BBF6FF08B007047813B0120AA
:1014D8007FB54E4D2B6803F00703022B09D94C4BFF
:1014E80003220293002329461846CDE9003336F03B
:1014F800C7FA484846F035F8034668B92A685207DB
:1015080007D0454ACDE9013240490122009336F01F
:10151800B7FA6FF0120433E0404E304646F021F837
:10152800034620B92A685607F3D03D4AEAE7304611
:1015380046F017F8034620B92A685507E9D0394A12
:10154800E0E7304646F00DF8034620B92A6854070C
:10155800DFD0354AD6E74FF40031344836F067FA21
:10156800044680B12B6858070AD0314B0394029384
:10157800002301221846CDE90033244936F080FAC9
:10158800204604B070BD4FF480312A4836F04FFA37
:10159800044628B12B685907F2D0274B0390E6E799
:1015A8002649274836F043FA044628B12B685A07DB
:1015B800E6D0244B0390DAE72349244B4B60802381
:1015C8008B60B368DB6913B1012230469847114834
:1015D8001F4983681B689847044628B12B685B0736
:1015E800CED01C4B0390C2E701221B4B1A702B680C
:1015F80003F00703022BC3D9184B0322CDE90103DB
:1016080002490346009036F03BFAB9E764300020FF
:1016180082C604008C8A04009AC60400FC8904006F
:10162800AFC60400C6C60400DCC60400C89A04009D
:10163800F0C60400D89A04000CC70400100001008A
:10164800D09A04002BC70400085F0020E9130000AB
:1016580054C1040049C70400813B01205EC704004F
:101668002DE9FF410D4618491F460B68044603F053
:101678000703022B164608D9144B032202930023B2
:101688001846CDE9003336F022FADFF84880D8F85A
:10169800003003930E4B029300231A46194618464E
:1016A800CDE9003336F013FA0823CDE90183BDF8FC
:1016B80028303246009329463B4620463DF043F801
:1016C80004B0BDE8F08100BFB430002081C7040039
:1016D800A1C70400245F00201FB50B461349012B46
:1016E8000A6802F007020DD1022A08D9104B0293AA
:1016F800002303221846CDE9003336F0E8F905B097
:101708005DF804FB23B9022AF9D90A4A0292F0E7E4
:10171800002AF4D00393084B0122029300231846B1
:10172800CDE9003336F0D3F9E9E700BFB430002043
:10173800B2C70400D6C70400FDC704001FB543683C
:10174800104A23F0FF039342044619D183685A1EB6
:10175800534253410C4A137003930C4B02930023DA
:101768001A4619461846CDE9003336F0B0F900227A
:1017780000232146064804B0BDE8104030F0C2BB43
:1017880004B010BD00011C00853B012013C80400F3
:101798002034002030B587B004460D4618220021B9
:1017A800684646F0BAFD064B694602930823204670
:1017B8000195ADF80C3011F0EFFE07B030BD00BF59
:1017C800245F00202DE9FF41984F99483B689949CB
:1017D800047801330A78984D3B6074B1002A40F0D0
:1017E800F58001222B600A7040F21F5200239348B3
:1017F80004B0BDE8F04130F0DDBF914E002A77D04B
:101808004FF0280C2A680C709A1A0CFB02F2B2F5F9
:10181800967F33606CD28B480268002A67D09A1A88
:101828000CFB02F2B2F5167F61D2046002244FF07D
:10183800280C2A68981A0CFB00FE3068821A0CFBE8
:1018480002F2B2F5967F80F086807E4A1068002802
:1018580000F08180BEF5967F4CD900247A4B146045
:1018680021462246CDE9014320462346009436F01E
:101878002EF90123754A76491370764A13600B686E
:1018880003F00703022B08D9734B0322CDE9014368
:1018980020462346009436F01AF902F0B9F920B12F
:1018A8006E4B19681431FFF775FF012000F0FCFB3F
:1018B800322036F01BF9002000F0F6FB322036F01B
:1018C80015F9012000F0F0FB322036F00FF9002066
:1018D80000F0EAFB322036F009F9012000F0E4FBC1
:1018E800322036F003F9002000F0DEFB7CE70360CD
:1018F80000249CE70A78002A40F09080002C3FF4EE
:1019080073AF0024564B22462146029320462346B5
:10191800CDE9004436F0DBF802234C4A4C491370F9
:101928004C4A13600B6803F00703022B08D94D4B90
:101938000322CDE9014323460094184636F0C7F840
:1019480002F066F900283FF44FAF444B1968143190
:10195800FFF720FF48E7BEF5967FCBD9DFF8EC808C
:1019680098F80030042B2DD000243F4B2246214606
:10197800029320462346CDE9004436F0A8F8042314
:101988000522334988F80030324B1A600B6803F09F
:101998000703022B08D9354B0322CDE90143204622
:1019A8002346009436F093F802F032F920B12B4B1D
:1019B80019681431FFF7EEFE0023224A3B602B60C2
:1019C8003360136001222A4B1A700DE72A689B1AAC
:1019D80028225343B3F57A7FFFF406AF1B4D2B78CB
:1019E800032B3FF401AF0024224B224621460293E9
:1019F80020462346CDE9004436F069F80322154B0A
:101A080013491A600B682A7003F00703022B97D951
:101A1800194B0094CDE9014323468EE72A689B1AA7
:101A280028225343B3F57A7FD8D267E7205F002096
:101A3800853B0120833B01201C5F0020C020002043
:101A4800185F0020145F002027C80400823B012093
:101A5800B4300020245F00203CC804004823002044
:101A68004EC8040063C804009AC80400ACC8040047
:101A7800843B012075C804008AC804001FB51448B7
:101A880045F06FFD1349034670B90A68520706D03E
:101A9800114A0090CDE90102012236F018F86FF0E2
:101AA800120005B05DF804FB0B6803F00703022B76
:101AB80008D90A4B0322029300231846CDE90033C4
:101AC80036F005F8064845F068FE0020E9E700BF53
:101AD8007C8B0400B4300020BCC80400D4C80400C7
:101AE800203400201FB50C490B6803F00703022BB4
:101AF80008D90A4B0322029300231846CDE9003384
:101B080035F0E5FF40F21F520023054805B05DF8A7
:101B180004EB30F01BBE00BFB4300020FBC804004B
:101B2800C02000201FB5134845F01BFD124C03468A
:101B3800A8B1002219210F4835F0F7FF236803F0F8
:101B48000703022B09D90D4B0322029300232146D8
:101B58001846CDE9003335F0D9FF04B010BD22682E
:101B68005207FAD0064A2146CDE901020090012227
:101B7800F1E700BFFC890400E43000201FC904001D
:101B880041C904007FB52A492A4845F0CCFF2A4EAE
:101B98002A4D304645F0E5FC034668B92A685207E5
:101BA80007D0274A2946CDE901020090012235F0E5
:101BB800ADFF6FF012041BE03269B168136830465C
:101BC80023F0007313600B684FF4C0221921984763
:101BD8002B68044678B15B070AD01A4B039002932E
:101BE8000023012229461846CDE9003335F08EFF3F
:101BF800204604B070BD03F00703022BF8D9124B3E
:101C08000322CDE9010329460346009035F07EFF03
:101C18002B6803F00703022BEAD9336803220393E6
:101C28000A4B2946CDE90143204623460094DDE7C7
:101C38002D1B000038380020FC890400E430002007
:101C480068C9040084C90400A6C90400BCC904000A
:101C5800F0B53B4D04462B6887B003F00703022B11
:101C68001AD90026374B039002930322334629469C
:101C78003046CDE9006635F049FF2B6803F00703CD
:101C8800022B09D9304B0322CDE90163294633469B
:101C98003046009635F03AFF2C4845F062FC034682
:101CA80060B92A68520707D0294A2549CDE90102B7
:101CB8000090012235F02AFF07B0F0BD41F28833C9
:101CC8009C4205D92A6812F0060F2CD141F28834BB
:101CD8000026204845F035FF012219211B4835F020
:101CE80024FF4FF4004740F2E73031464FF47A7250
:101CF8000023E4FB0701FEF737FC02460B461548B4
:101D080030F024FD2B6803F00703022BD4D9124BC3
:101D18000322CDE90163304633460949039400960E
:101D280035F0F4FEC8E7CDE903430C4B02220293D9
:101D3800002303491846CDE9003335F0E7FEC5E72F
:101D4800E4300020CBC90400E4C90400FC89040085
:101D58000FCA04003838002076CA04002CCA0400D0
:101D68002DE9FF41274E336803F00703022B09D9F9
:101D7800254B03220293002331461846CDE9003350
:101D880035F0E3FE214D0C21D5F81080AF68D8F866
:101D98000030284623F48053C8F800303B681C4ABA
:101DA8009847041E12DA336859070BD00C230393A3
:101DB800184B0293002301221846CDE9003311493C
:101DC80035F0C3FE204604B0BDE8F081D8F80030F5
:101DD800DA044FF4805154BFFB683B6928469847A2
:101DE8000028044606DA33685B07EBD00C2303931C
:101DF800094BDEE740F26760002131F065F8002406
:101E0800E0E700BF5430002098CA0400E4890400C9
:101E180000020200A6CA0400C2CA04002DE9F0416B
:101E28000C234FF0000892B00546CDE90438344E33
:101E3800304645F096FB48B92846324937F037FA1C
:101E48006FF01204204612B0BDE8F081B7683C6814
:101E58005CB142460321304604ABA047044638B182
:101E68002949284637F023FAECE76FF05704F7E7DB
:101E7800D7F80080B8F1000F08D002460721304695
:101E880004ABC047044620B12049EAE76FF0570485
:101E9800FAE73C213046FB689847044608B11C49DC
:101EA800DFE7032130463B6906AA9847044608B194
:101EB8001849D6E7072130463B690CAA98470446DB
:101EC80008B11549CDE70B9B284603930A9B134994
:101ED8000293099B0193089B0093DDE9062337F0E1
:101EE800CAF9119B28460393109B0D4902930F9B37
:101EF80001930E9B0093DDE90C2337F0BCF9A1E7B1
:101F0800948B0400D8CA0400EBCA040014CB040064
:101F18003CCB040055CB040070CB04008ACB0400F2
:101F2800B1CB040030B5524887B035F05AFE514C59
:101F38000546B8B923685B0711D04D4835F051FE06
:101F48001B23059004934C4B012203934B4B2146D2
:101F5800CDE9015328462B46009535F01FFE4FF07A
:101F6800FF3078E0464835F0FFFD00281ADA23688C
:101F78005D0711D0424835F0F7FD1C2304933E4B12
:101F8800059003933D4B01220293002321461846F6
:101F9800CDE9003335F002FE394807B0BDE83040DE
:101FA80035F0E2BD324835F01CFE054640B92368DD
:101FB8005807D4D02E4835F014FE1D230590C1E7EC
:101FC800304835F0D1FD002816DA2368590711D0BA
:101FD8002C4835F0C9FD1E230493274B0590039325
:101FE800264B01220293002321461846CDE90033EF
:101FF80035F0D4FD2348D0E71D4835F0F2FD0546FD
:1020080040B923685A07AAD0194835F0EAFD1F23BA
:10201800059097E71C4835F0A7FD0028236815DAD6
:102028005B0711D0184835F09FFD20230493124B0D
:1020380005900393114B0122029300232146184671
:10204800CDE9003335F0AAFD0F48A6E703F00703F2
:10205800022B02D8002007B030BD0C4B032202939C
:10206800002321461846CDE9003335F097FDF1E706
:10207800FC890400FC300020F0CB04000BCC0400E9
:10208800309B0400289B0400209B04001DCC040006
:102098000146014835F091BD309B040001460148D6
:1020A80035F08BBD289B04000146014835F085BDFD
:1020B800209B040038B5124B1B789BB1114A13784A
:1020C80083F0010313706BB10120FFF7E7FF0E4B9C
:1020D8001D784DB10020FFF7DBFFBDE83840002038
:1020E800FFF7E2BF0020F0E7084B01201C78002C26
:1020F800F1D0FFF7D9FF2846BDE83840FFF7C8BF41
:1021080092690120803B0120863B0120873B01200A
:102118002DE9F0414FF4FA608CB035F073FD0025DD
:10212800254F264CDFF8A880FFF7C4FF3B78002B2B
:1021380034D004AE224B20213046224A009534F098
:102148003BFA236803F00703022B0AD91E4B03222C
:102158000293002321461846CDE90033039635F053
:1021680042FD3046FEF72CFA411C304601F0CEFD08
:1021780068B123685B070AD0144B039002930023CD
:10218800012221461846CDE9003335F02CFD0135F2
:10219800EDB24FF47A7035F035FDC5E7226802F0EC
:1021A8000702022AF5D9032221461846CDE901384B
:1021B800009335F018FDECE7873B0120083100203B
:1021C8002ACC04003ACC040040CC040056CC0400CD
:1021D80076CC0400F0B59E4D85B02B6803F007035C
:1021E800022B4DD900249B4B0322029329462346F8
:1021F8002046CDE9004435F0F6FC2B6803F00703D0
:10220800022B3DD9944B03220393944B2946CDE9E5
:10221800014320462346009435F0E5FC2B6803F083
:102228000703022B2CD98E4B032203938D4B29468F
:10223800CDE9014320462346009435F0D4FC2B68B1
:1022480003F00703022B1BD9874B03220393874B09
:102258002946CDE9014320462346009435F0C3FCC6
:102268002B6803F00703022B0AD9814B0322CDE91F
:1022780001432946234620460394009435F0B3FCD5
:1022880000247C4F2346224621462046CDE90044BF
:10229800029735F0A8FC2B6803F00703022B17D927
:1022A800754E234603222046CDE90146684900942D
:1022B80035F099FC2B6803F00703022B08D9234655
:1022C80003222046CDE901466149009435F08BFC94
:1022D800FFF728FE044680B12B685F070AD0674BDA
:1022E800039002930023CDE9003301221846584990
:1022F80035F079FC204605B0F0BD0120FFF7C8FE97
:102308004FF4167035F07EFC2046FFF7C1FEC8205A
:1023180035F078FC0120FFF7C1FE4FF4167035F058
:1023280071FC2046FFF7BAFEC82035F06BFC01208F
:10233800FFF7BAFE4FF4167035F064FC2046FFF73D
:10234800B3FEC82035F05EFC0120FFF7A1FE012096
:10235800FFF7A4FE0120FFF7A7FE4FF4167035F033
:1023680051FC2046FFF794FE2046FFF797FE2046D3
:10237800FFF79AFE2B6803F00703022B09D9404B9D
:102388000322CDE90143204623463149009435F024
:102398002AFCFFF79DF8044628B12B685E07A9D0F0
:1023A800384B03909DE7FFF789F8044628B12B685E
:1023B8005D079FD0344B039093E7344B02460146A8
:1023C800CDE9000002930346064635F00CFCFFF702
:1023D80055FB2B68044640B158078BD02C4B03940F
:1023E800CDE90163009633467FE703F00703022B2C
:1023F80008D9284B0322CDE901031549034600906B
:1024080035F0F1FB0024FFF76DFB234622462146F9
:102418002046CDE90044029735F0E5FB2B6803F030
:102428000703022B09D91C4B0322CDE9014320469F
:1024380023460749009435F0D6FBFFF7A3FB2B682A
:10244800044668B359073FF455AF144B039048E767
:10245800083100209ACC0400A6CC0400AACC0400C1
:10246800B4CC0400BACC0400D0CC0400F0CC0400F6
:1024780006CD0400BFE1040018CD04002ECD0400F1
:1024880082C6040051CD04006ECD04008FCD040037
:10249800BDCD0400E2CD0400F5CD04000DCE04004E
:1024A80003F00703022B17D9454B0322CDE901039B
:1024B80044490346009035F096FB2B6803F0070368
:1024C800022B09D9404B0322CDE90143204623467C
:1024D8003C49009435F087FB00264FF4FA70FFF76B
:1024E800B7FB3346324631463046CDE9006602979F
:1024F80035F079FB2B6803F00703022B09D9334B1E
:102508000322CDE90163304633462E49009635F063
:102518006AFB0120FFF7C2FD0020FFF7BFFD01F0B5
:102528008FFA2A68034600283CD052070AD0284B65
:1025380003900293002301221846CDE90033214974
:1025480035F051FB0020FFF7A3FD0020FFF7A6FDA3
:102558002B6803F00703022B09D91E4B03220293B1
:10256800002318491846CDE9003335F03CFB01201B
:10257800FFF79AFD4FF47A7035F044FB0020FFF71F
:1025880093FD2B6803F00703022B7FF6B3AE124BC3
:102598000322029300230B491846CDE9003335F096
:1025A80022FBA7E602F00702022ACBD90B4A05490B
:1025B800CDE901020090032235F015FBC2E700BF08
:1025C80036CE0400083100204DCE04008BCE040026
:1025D800A6CE0400E8CE040008CF0400C9CE04004B
:1025E8007FB5002405460E462222094901A8CDE9F7
:1025F80001448DF80C4007F02FFA3246294601A80D
:1026080007F02AFB01A807F0DDFA204604B070BDE8
:10261800893B012010B5C6B035F013FB04462021D4
:102628000F4B104A0090104833F0C6FF204645F083
:1026380023FE0D4804A907F057FB78B10B490B6836
:102648005B0708D00A4B0122029300231846CDE904
:10265800003335F0E7FA002046B010BD4598FBE797
:1026680030CF040036CF0400A93B012034310020CC
:1026780053CF040030B5002489B00322264905A8A9
:10268800CDE905448DF81C4007F0E6F90028234DF4
:1026980011DA2B6859070AD0214B0390CDE9014381
:1026A8000122234629462046009435F0BBFA4FF014
:1026B800FF3009B030BD2246214605A807F0F0FAE0
:1026C800002805DA2B685A07F1D0164B0390E5E786
:1026D800042204A905A807F09BFA002805DA2B684C
:1026E8005B07E4D0104B0390D8E705A807F06AFA17
:1026F8002B6803F00703022B0BD9049B03220393D7
:102708000A4B2946CDE9014320462346009435F07B
:1027180089FA0498CDE700BF71CF04003431002056
:102728007FCF0400ABCF0400C1CF0400D7CF040093
:10273800014B1878704700BF883B012005480369A2
:102748001B689B0583684FF4007154BFDB681B69E5
:10275800184700BFE48904000548026981681368C6
:1027680023F4007313600B684FF4003209211847F3
:10277800E48904002DE9F74F3E4B06461B78914645
:1027880043B93D4936F093FD4FF0FF34204603B07E
:10279800BDE8F08F022905D8384936F088FD6FF07A
:1027A8001504F3E70022D9F80400114633F0A6FF18
:1027B8008046D9F80800FDF703FF4708384645F07A
:1027C80062FD0546E8B1002400F1FF3A4FEA470BE5
:1027D800A3454FF000031BD1DFF8B090FFF7BCFF13
:1027E800FFF7ACFF0121484602F026FF041E23DA5A
:1027F80030462246224936F05AFD284645F03CFD2F
:10280800C4E730461F4936F052FD6FF00B04BDE7B0
:10281800D9F8082001A8115D22448DF804105278D7
:1028280000218DF8052010228DF8063033F066FF60
:1028380002340AF8010FCBE7D9F808302A465C6859
:1028480041463B464846A047041E0CDA224630461D
:102858000D4936F02CFD284645F00EFD00210B48A9
:1028680002F0EAFE92E743463A463046084936F017
:1028780002FDF0E7CA3B0120EFCF04000DD00400B1
:1028880041D0040026D004005ED004001C8B040054
:102898007DD0040030B51E4B05461B7885B03BB98A
:1028A8001C4936F004FD4FF0FF34204605B030BD1A
:1028B800FFF752FFFFF742FF0121174802F0BCFE65
:1028C800021E03DA2846154936F0F1FC12488368DF
:1028D8009B696BB103A99847041E0CDA2246284667
:1028E8000F4936F0E4FC00210B4802F0A5FEDCE7B6
:1028F8006FF08504F2E79DF80E30284600939DF8A6
:102908000C209DF80D30074936F0B5FCEBE700BF09
:10291800CA3B0120EFCF04001C8B040041D0040007
:1029280097D00400B5D004002DE9F0432C4B07469E
:102938001B78144685B043B92A4936F0B8FC4FF0E5
:10294800FF34204605B0BDE8F083022905D82649A2
:1029580036F0ADFC6FF01504F3E70022606811460D
:1029680033F0CCFE002206461146A06833F0C6FEBE
:102978000546FFF7F1FEFFF7E1FE01211B4802F0D3
:102988005BFE041E1BDBDFF864909DB1102DA8468A
:1029980028BF4FF01008D9F808306A461C6831463D
:1029A80043461248A047041E0FDA2246384610490B
:1029B80036F07DFC00210D4802F03EFEC1E72246BC
:1029C80038460C4936F073FCBBE7314643466A4645
:1029D800384604F04DF84644A5EB0805D5E700BF96
:1029E800CA3B0120EFCF0400CFD004001C8B0400A9
:1029F800EAD0040041D00400F0B51346294A054640
:102A0800127885B03AB9284936F051FC4FF0FF34B6
:102A1800204605B0F0BD012905D8244936F047FC09
:102A28006FF01504F4E700225868114633F066FE8B
:102A38001F4F0646FFF790FEFFF780FE012138463C
:102A480002F0FAFD041E05DA22462846194936F036
:102A58002EFCDDE73146384601AA40F03BFA041E59
:102A680009DA22461449284636F021FC002110488C
:102A780002F0E2FDCCE7029ABB689B683BB13146A5
:102A880038469847041E05DA22460C49EBE76FF0F2
:102A98005704F9E733462846029A094936F0EBFB12
:102AA800E4E700BFCA3B0120EFCF04000AD10400CD
:102AB8001C8B040041D0040023D1040047D104003A
:102AC80063D104001FB501220B46144993420A70D2
:102AD8001349086800F007000DD1022808D9114BE6
:102AE8000293002303221846CDE9003335F0E8F8B5
:102AF80005B05DF804FB23B90228F9D90A4A029205
:102B0800F0E70028F4D00393084B029300231846FB
:102B1800CDE9003335F0D4F8EAE700BFD13B012016
:102B28005C310020B2C70400D6C70400FDC704000A
:102B38002DE9F047944F98463B68814603F0070318
:102B4800022B154688B01BD90024904B0322029310
:102B5800394623462046CDE9004435F0B1F83B68B4
:102B680003F00703022B0BD92B7803220393884B1E
:102B78003946CDE9014320462346009435F0A0F8B4
:102B88000023B8F1060F8DF81C3012D0B8F1020FEF
:102B98006AD03A6802F00702022A08D97D4A0093EF
:102BA800CDE9013203221846774935F089F8062520
:102BB80026E0D5F8024095F800A06E7824BA0025E2
:102BC800754B2A46029329462B462846CDE90464CC
:102BD800CDE90055CDF80CA035F072F8002E48D19B
:102BE8003B6803F00703022B09D96C4B0096CDE92B
:102BF8000163334603221846634935F061F803251B
:102C08003B688DF81C5003F00703022B1CD90024E5
:102C1800634B0322029320462346CDE900445A49D8
:102C2800CDF80C8035F04CF83B6803F00703022B15
:102C38000AD95C4B0322CDE9014320462346524979
:102C48000395009435F03CF8574B07AA1968484695
:102C58000123143135F01FF84FF4FA7035F03FF8BE
:102C6800404608B0BDE8F0871C4695F800A06E788D
:102C7800A5E74E4B3A68197802F00702B14207D22D
:102C8800022ABCD94A4B0095CDE901532B46B1E73E
:102C9800BAF1030F08D80AF1FF3ABAF1020F0FD8B8
:102CA800DFE80AF064686A00BAF1320F69D0022AD4
:102CB8007FF67DAF3F4B0095CDE901532B4671E779
:102CC8003D4B701EB14253F820301BD1022A09D95E
:102CD8003A4B0322029300232B491846CDE90033CF
:102CE80034F0EEFF4FF4DC72B4FBF2F302FB134353
:102CF800334AE31A1360334B1E70334B01221A70A8
:102D080000257DE763B9022A08D9304A1846CDE97B
:102D180001321D490322009334F0D2FF04256FE7E6
:102D28009C420DD9022A09D9294B03220293002378
:102D380015491846CDE9003334F0C2FF05255FE791
:102D4800022A09D9234B0322029300230E4918466D
:102D5800CDE9003334F0B4FF4FF4DC72B4FBF2F386
:102D680002FB1343E41A164B1C60C4E71A4B1E708F
:102D78001A4BC3E71A4BC1E700221A4B1A601A4BC9
:102D8800BCE71A4B1D70BBE75C310020F1D1040091
:102D98000FD204001DD204002DD2040061D2040019
:102DA800FAD2040016D30400D0230020C93B012026
:102DB80076D20400E8D204002C5F002089D20400F7
:102DC800385F0020862F0020D03B0120A2D20400CB
:102DD800B1D20400CDD20400CD3B0120CE3B01206E
:102DE800CC3B0120345F0020CF3B0120CB3B0120AE
:102DF800F0B5044687B00A2016461F460D4634F043
:102E08006EFF0A4B29461A685B68049205930823EB
:102E1800029304AB0193BDF830303246009320464C
:102E28003B463BF090FC07B0F0BD00BF2C5F002094
:102E3800F8B50446204E304644F093FB30B932686A
:102E48001E49204636F033FA0020F8BD2DF090FCDC
:102E580020461B4A1B4936F00EFA1B4D1A212A69D7
:102E6800AF681368284643F0806313603B68174ACD
:102E78009847021E01DA1649E3E7BF6957B14FF4D4
:102E880080024FF000731A212846B847021E04DA60
:102E98001049D6E76FF05702FAE720460E4936F098
:102EA800EAF90021304602F0C7FB021E01DA0B499D
:102EB800C7E735F08CFA00BF448A040022D3040027
:102EC8003AD3040046D30400FC8904001100010031
:102ED8005CD3040084D30400B6D30400E6D3040012
:102EE800BFF34F8F0549064BCA6802F4E0621343EB
:102EF800CB60BFF34F8F00BFFDE700BF00ED00E0E0
:102F08000400FA05F0B50D4610491F460B68044643
:102F180003F00703022B164685B008D90C4B032291
:102F2800029300231846CDE9003334F0FEFE142343
:102F38000293084B32460193BDF828302946009386
:102F480020463B463BF0FFFB05B0F0BD6431002056
:102F580016D4040034D40400F0B50024184B194DDD
:102F68001C70194B06461C702B680F4603F00703AC
:102F7800022B85B019D9154B0322CDE90143294607
:102F880023462046009434F0D0FE2B6803F0070354
:102F9800022B0AD90E4B0322CDE9014329462346C9
:102FA80020460397009434F0C0FE30460DF09CF99B
:102FB8000023084A1360084A138005B0F0BD00BF1B
:102FC800873B012064310020D13B012049D4040013
:102FD80068D40400745F00205C3901201FB5104CD0
:102FE8004FF4A17221460F4835F0D8FB0E4BB0F5CF
:102FF800A17F186010D00D490B685B0709D00C4BF6
:1030080003900293002301221846CDE9003334F0DF
:103018008CFE002004B010BD228801201A60F9E758
:1030280010400120405F00203C5F002064310020F8
:1030380073D4040010B588B00DF11E00FEF7E8F94E
:1030480088BBBDF81E100DF11D0034F028FD0446A4
:1030580048BB9DF81D3002460493BDF81E3001465A
:103068000393184B0090CDE90103034634F05DFE4D
:103078009DF81D0002F06EFB68B113490B685A07F2
:1030880009D0124B0390CDE9014301222346204683
:10309800009434F04AFE4FF4F02200230C482FF03D
:1030A80089FB08B010BD08490B685B07F3D0094BD2
:1030B8000122029300231846CDE9003334F035FE8F
:1030C800E9E700BFA7D4040064310020C9D4040094
:1030D800F0200020EAD4040070B51E4D0E462B687F
:1030E80086B003F00703022B30D900241A4B0322C1
:1030F8000293294623462046CDE9004434F015FEC4
:103108002B6803F00703022B20D97388032204934A
:10311800338829460393114B2046CDE90143009497
:10312800234634F002FE2B6803F00703022B0DD967
:10313800F38803220493B38829460393084B204657
:10314800CDE901430094234634F0EFFD012006B099
:1031580070BD00BF6431002007D5040040D50400CD
:103168006BD504002DE9F041144D98462B680E46A6
:1031780003F00703022B174686B01CD90024104B16
:1031880003220293294623462046CDE9004434F021
:10319800CCFD2B6803F00703022B0CD9094B032243
:1031A800CDE90143294623462046CDE90478039614
:1031B800009434F0BAFD06B0BDE8F0816431002017
:1031C80084D50400A3D5040010B50C460E4988B078
:1031D8000B6803F00703022B10D9E3880322069338
:1031E800A38805936388049323880393074B02936A
:1031F80000231846CDE9003334F097FD2288044BAC
:103208001A8008B010BD00BF64310020CED504007C
:103218005C390120F0B50F4617491C460B68064675
:1032280003F00703022B154687B008D9134B032276
:10323800029300231846CDE9003334F076FD012CC3
:1032480007D12B78062B13D1A8220D4B1A77FFF73D
:1032580047FE022C0CD12B78012B09D110223946BC
:103268008DF8172030460DF1170234F049FDEBE7D1
:10327800204607B0F0BD00BF643100200FD604001F
:10328800005500501FB50B461349012B0A6802F080
:1032980007020DD1022A08D9104B029300230322FA
:1032A8001846CDE9003334F040FD05B05DF804FB65
:1032B80023B9022AF9D90A4A0292F0E7022AF4D974
:1032C8000393084B0322029300231846CDE90033E9
:1032D80034F02BFDE9E700BF64310020B2C70400D9
:1032E800D6C70400FDC70400F0B50D4610491F46B7
:1032F8000B68044603F00703022B164685B008D96D
:103308000C4B0322029300231846CDE9003334F016
:103318000CFD0023CDE90133BDF828303246009377
:1033280029463B4620463BF00EFA05B0F0BD00BFEB
:10333800643100202FD60400F0B5164614220D463D
:1033480011491F460B6887B003F00703022B044698
:103358008DF8142009D90D4B039202930023032200
:103368001846CDE9003334F0E0FC0123029305ABA5
:103378000193BDF830303246009329463B4620463B
:103388003BF0E1F907B0F0BD643100204ED60400EF
:103398002DE9F0410E464FF0010892B00746282269
:1033A800002108A844F0B9FF5B4B5C4C83F800800F
:1033B80086B123685A070AD0594B03960293002313
:1033C800CDE9003342462146184634F0AEFC12B02F
:1033D800BDE8F081384608A90DF01EFC10F0FF008A
:1033E800236808D05B07F2D04E4B0390CDE9016308
:1033F80000963346E6E703F00703022B08D94A4B49
:103408000322CDE9010321460346009034F08DFCE8
:10341800384639F095FF454B1860109B1A88444B85
:103428001A80236803F00703022B5BD90025414B60
:103438000322029328462B46CDE90055374934F03C
:1034480074FC236803F00703022B4BD9BDF838300E
:1034580003220593BDF8363028460493BDF834306E
:103468002E490393344B0095CDE901532B4634F094
:103478005CFC236803F00703022B33D900250F9A5D
:10348800284613785278042B96BF2C492C4B51F8B8
:103498002330042A96BF2949294A51F82220CDE928
:1034A8000055CDE90332274B032202931B492B46D3
:1034B80034F03BFC236803F00703022B12D9109B5E
:1034C8002846DA88154906929A8805925A880492FD
:1034D8001B88032203931C4B0095CDE901532B460F
:1034E80034F023FC40F6CD42002318482FF02EF983
:1034F8000122174B1A70236803F00703022B7FF68B
:1035080066AF144B03220293002304491846CDE901
:10351800003334F00AFC5AE7D13B01206431002023
:1035280079D604008ED60400B5D60400745F002056
:103538005C390120D1D60400E5D60400F49B0400D0
:1035480071D604000CD70400CED50400F02000206A
:10355800873B012021D704001FB5214C012922688F
:103568000B4602F0070223D1022A09D91D4B032278
:103578000293002321461846CDE9003334F0D5FBE9
:103588000023194AC2E90233C2E9053353601361C3
:10359800226802F00702022A08D9144A1049CDE924
:1035A800013203220093184634F0BFFB04B010BD6B
:1035B80041B9022AFAD90E4A0091CDE90112032233
:1035C8002146F0E7002AF1D00A4B03910293002329
:1035D800012221461846CDE9003334F0A6FBE5E781
:1035E8006431002057D70400405F002085D70400CD
:1035F800B4D70400E5D704001FB5214C012922687F
:103608000B4602F0070223D1022A09D91D4B0322D7
:103618000293002321461846CDE9003334F085FB98
:103628000023194AC2E90233C2E905335360136122
:10363800226802F00702022A08D9144A1049CDE983
:10364800013203220093184634F06FFB04B010BD1A
:1036580041B9022AFAD90E4A0091CDE90112032292
:103668002146F0E7022AF1D90A4B0391029300237D
:10367800032221461846CDE9003334F056FBE5E72E
:103688006431002009D80400405F002085D7040079
:1036980038D80400FDC704002DE9F843FFF79EFC65
:1036A8000646F8B1DFF87C801B4FD8F800203B882D
:1036B800D1B24D1C5FFA85F953FA85F5B5F5DC7F73
:1036C800164C12DBE15420464FF4DC71FEF788FFFC
:1036D8002046D8F80020124900F8012BA7F80090DE
:1036E80044F0F4FD3046BDE8F88340F2B71C581C9E
:1036F8006545E15420440A4909D144F0E7FD002317
:103708004FF4DC7120463B80FEF76AFFEAE744F09D
:10371800DDFD3D80E6E700BF58390120D33B01209D
:10372800124001203C5F002010B50120FEF772FF17
:10373800024C2060FEF79EFF606010BD2C5F0020E9
:103748002DE9F04F4FF480400021A5B034F0FCFA89
:10375800DFF8E0A2A44B1868002800F0108139F0C7
:10376800EFFDBAF800300546632B40F2A68000282A
:1037780000F0A380DFF8C0B20122DBF8001014319A
:103788003BF0B4F8002800F09880FFF727FCA8B1B8
:10379800DBF800100122284614313BF0A7F8934EBD
:1037A800034688B9326812F0060F07D0904A3146AE
:1037B800CDE901020090022234F0B7FA4FF4A47068
:1037C800002134F0C1FA78E033688A4C03F007032B
:1037D800022B0BD9236803220393874B31460293AC
:1037E80000231846CDE9003334F09FFAD4F800805E
:1037F800B8F1630F1CD80024602221460CA80BAF37
:103808000B9444F08AFD424638467C4944F05EFDFC
:10381800336803F00703022B0AD9794B0322CDE959
:1038280001432046234671490397009434F07DFAFA
:103838000027B9463E46DFF804826E4BF9B21A6893
:10384800B24240D86F4C694E2269A3689B1A41F670
:10385800306293421DD9326812F0060F12D06422EA
:103868004FF421515A430393674BB2FBF1F2029391
:103878000023CDE90412184602223146CDE900336F
:1038880034F053FA0023C4E90233C4E90533636012
:103898002361336803F00703022B0BD95B4B032228
:1038A8000293002351491846CDE90033CDF80C9016
:1038B80034F03BFAB9F1000F80D028460CF014FD23
:1038C8002FF080FA46E75248921B038888F80210C6
:1038D8005C1C0480BAF800404849033C944228BF65
:1038E800144688F8003031441B0A2246494888F8B3
:1038F800013044F0EBFC03230793E3180893BDF869
:10390800203026440993DBF8001042462846099BDC
:10391800143134F0F5F9044670B334490B685B0789
:103928001DD03D4B0122029300230390CDE90033C3
:10393800184634F0FAF92D490A6802F00702022AFB
:103948000DD9089BBAF80020049300230392334A48
:1039580018460292CDE90033032234F0E6F90C341C
:10396800012C07D8A420002134F0EEF9079B013B75
:103978000793C8D1013760E709F10109FAE7284B35
:103988001C78002C9CD1274B5B6813F1011F97D83A
:103998004FF0FF324FF0FF3323482EF065FBFEF760
:1039A800C7FE18B920482EF0D7FB89E7FFF774FE49
:1039B80005461D482EF0D0FB002D81D01B4D2B78DD
:1039C8000133DBB2FF2B2B707FF47AAFFFF7ACFE2D
:1039D800174B2C702246CDE9014321462346204649
:1039E800009434F0A2F96BE7745F00206431002082
:1039F8006AD804003C5F0020ADD8040012400120C2
:103A0800D2D80400405F00201AD904005FD904000E
:103A18005A3901208E3D0120E2D8040001D9040062
:103A2800D13B01202C5F0020605F0020D23B0120A9
:103A380086D904005C390120482500208B3D0120EF
:103A480070B55D488EB00DF039F800200AF080FEA0
:103A580004465A4E4FF40040002134F075F933689B
:103A68007CB158070AD0564B0122029300233146F5
:103A7800CDE900330394184634F057F920460EB0C8
:103A880070BD03F00703022B09D94E4B0322CDE981
:103A98000143314623462046009434F046F94FF45A
:103AA800A0720021484844F038FC48480FF050FA0A
:103AB800474D48480FF04CFA09AC47480FF048FA10
:103AC8000FCD0FC42B68012523600222434B4449C4
:103AD800009509A80BF07EFE3368044650B15907DB
:103AE800CCD0404B2A46029300233449CDE9003319
:103AF8000390C0E703F00703022B19D93A4B0322BE
:103B0800CDE901032D490346009034F00EF93368DE
:103B180003F00703022B0BD9344B03220393344BD6
:103B28002046CDE9014325492346009434F0FDF8A9
:103B3800FDF7CEFC0546FDF7C1FC55EA00033268E7
:103B48002BD052070AD003932A4B01220293002359
:103B58001A491846CDE9003334F0E7F84FF42153F9
:103B6800254AD361254B13600023C2E90233C2E919
:103B7800053353601361002000210722CDE90601B7
:103B8800CDE90232CDE9003304934FF480521C4B47
:103B98001C491D482EF0D6FE70E702F00702022AE3
:103BA800DCD91A4A1846CDE90132044903220093A8
:103BB80034F0BBF8D2E700BF68260020643100204B
:103BC8008FD90400B8D90400D33B0120D0230020AA
:103BD800E096040048250020C0240020089C04002A
:103BE800109C0400D8D9040007DA040046DA04005F
:103BF8004ADA040051CD0400405F00205241012000
:103C08004937000088AB0220603900205ADA0400E6
:103C1800014B1868704700BF745F00202DE9F04F12
:103C2800DFF8E0800746D8F800300C4603F00703B9
:103C3800022B87B00BD92F4BCDE903100293002339
:103C4800032241461846CDE9003334F06EF80026C9
:103C5800DFF8A890284DC4F3072A09F1020BB4F540
:103C6800A07F09D9D8F80030022E03F0060319D135
:103C780093BB6FF0680012E022463946584689F82F
:103C8800004089F801A044F021FB4FF4A1722846B6
:103C98001A4934F033FDB0F5A17FE3D1002007B015
:103CA800BDE8F08F013653B1154B02220293002371
:103CB80014491846CDE90033039634F036F800234A
:103CC8004FF4A4700021C5E90233C5E905336B60E0
:103CD8002B6134F039F8C2E7032303930A4B3246C9
:103CE8000293002307491846CDE90033049434F0C1
:103CF8001CF8BEE76EDA0400405F0020CE3E0120CB
:103D080096DA040064310020C8DA04002DE9FF4780
:103D1800DFF898815A4CD8F8003006460F462268DA
:103D280083B912F0060F08D0564A2146CDE9013270
:103D380018460222009333F0F8FF6FF07F0004B0BA
:103D4800BDE8F08702F00702022A0AD94E4B039019
:103D580002930023032221461846CDE9003333F0AD
:103D6800E4FF00251423494A494903FB05F010588C
:103D780088425AD1236803F00703022B0AD9454B1E
:103D88000322029300233E491846CDE900330395E8
:103D980033F0CBFF4FF0140ADFF814910AFB05FA51
:103DA800D9F800100122D8F8000051443AF09EFDDD
:103DB800034600284CD0D9F800103246D8F8000045
:103DC800BBB2514433F09CFF0028B8D023685B078E
:103DD8000AD0314B03900293002301221846CDE903
:103DE8000033274933F0A1FFD9F800100122D8F891
:103DF800000014313AF07AFD0346002834D02368D5
:103E080003F00703022B09D9244B03220293002352
:103E18001B491846CDE9003333F087FF3946304651
:103E280004B0BDE8F047FFF7F9BE0135092D9CD174
:103E380023685A0701D10425ACE7194B01220293E4
:103E480000230F491846CDE9003333F06EFFF2E73F
:103E5800226812F0060FC7D0124A0949CDE90102BB
:103E6800039502220090BDE7226812F0060F3FF486
:103E780064AF0D4A0249CDE90102009002225AE7D7
:103E8800643100200CDB040036DB040054250020DC
:103E9800DF2F002058DB0400ACDB040028DC040022
:103EA8007EDB0400F0DB040054DC0400745F0020B7
:103EB800482500202DE9F04F91B0009302F004034B
:103EC8000293C2F3C2030133840705460E46DDF8A8
:103ED80068900392059340F0BB81041D30B1072917
:103EE80009D86FF01B0011B0BDE8F08F01F007068C
:103EF800341DC6F10806009B4FF000084FF0040A75
:103F0800591E4FF0FF3347460193C3465346CDF839
:103F180010800DB1009820600598002800F3E88013
:103F28009848009A824203D397488242C0F0E080C2
:103F3800039AA4EB050E92074FEA9E0000F1038155
:103F48000F2F00F2B180002D00F0058107F140022B
:103F58000DEB020C019A0CF8200C0CF8102C0498AC
:103F680001300490E7E07A285DD84B280ED847281E
:103F780059D829282DD8252852D054D820287AD085
:103F88002338D0F1000B4BEB000B74E04C382E2893
:103F980049D8DFE800F07048484848484848484849
:103FA80048484B484848484848484859484B4B595E
:103FB8005959704B6D487048184B184848827F4BC8
:103FC80048484B487F0000204FF0000B4FF0040A90
:103FD80038E001222A38C0B202FA00F010EA0E0FC7
:103FE80049D110F0625C2FD110EA020B43D0604631
:103FF800013C5444B4FBFAF40AFB04F4002D61D0EC
:10400800A3EB050CA444B4453FF66BAF002868D178
:10401800042B47D159F8043B2360042304342AE0D5
:10402800019A013A01924FF0000B24E011F8010CBB
:104038006C2834D1002011F8023C83466C2BC5D182
:104048004FF0080A5346D3E709F1070929F0070991
:10405800073424F00704F9E802AB35B10698204488
:10406800B0423FF63EAFC4E900AB4FF0000B083456
:104078004FF0080A534611F8010F002878D0BBF119
:10408800000F7FF470AF2528F5D14FF0010B019B8D
:10409800013301934FF0040AECE7584694E70020F7
:1040A8008346A5E7082B02D06FF015001BE709F13E
:1040B800070929F00709B9EC027B84ED007B082386
:1040C8000834D8E768B9042B02D109F10409A4E738
:1040D800082BE9D109F1070929F0070909F10809AD
:1040E800EDE705980138059059F8040B009010E7A2
:1040F800039A900720D54FF0010CA4EB050E4FEA68
:104108009E00BEF5007FCFD20F2FCDD8F5B107F1B5
:1041180040020DEB020E019AC0B20EF8200C0EF808
:10412800102CBCF1000F3FF41AAF60F07F000EF8BE
:10413800200C08F101080137C5F108024FF6DA7EB4
:104148000434069297E74FF0000CDAE7BCF1000F51
:1041580001D00136EFE7029A0236002AEBD1009827
:10416800CDE90631FCF72CFADDE906310644E2E731
:10417800631BB3F5806F97D245B9A6F10804E01820
:10418800B1E600BF5488040020570600029A9B0835
:1041980028602B709DF81030C2B1EB7085F8028052
:1041A800B8F1000F05D0002208A8C5F1010C97420C
:1041B8000ED14FF0000AC5F101030DF1200901935A
:1041C8000DF1300B574512D1601B8CE66B70E5E79B
:1041D80010F8013B190608D504EB0C0EB64503F0A0
:1041E8007F033FF67EAE04F8013B0132DFE7B8F10A
:1041F800000F03D099F90020002A17DB029BD3B1E6
:104208001AF80B2004F8012B0022019B981820446F
:10421800B0423FF666AE99F80000009904F8010B29
:104228002046039244F052F8039A14440AF1010A12
:1042380009F10109C6E799F8002055F822300093E2
:10424800029B009845F82230FCF7BAF9421CDCE7DB
:104258006FF00D0047E600BF014B1860704700BFC4
:104268009026002080B505460E46174698462EF043
:1042780067FE034644F0E0FA0446DFF81890424629
:1042880049F8003039463046A84754F8090004F088
:10429800A1F800BF080000002DE9F047058B04468F
:1042A8002807904611D4022905F0070540F0CC8074
:1042B800204634F0E6F878B10138218B042811D86B
:1042C800DFE800F0C2106D85950001290CBF45F0AC
:1042D800100545F02005258388F31188BFF36F8FFB
:1042E800BDE8F08701F0070AAA4500F0A58000277D
:1042F800B9463E46A368002B00F0BC8041F0080197
:10430800218388F31188BFF36F8FA168002900F01B
:10431800BA800D68002900F0B68033465246204620
:10432800D1F80480C047002D76D02B6829461D4659
:10433800F0E701F007035A1F012A1BD8002221F0D9
:104348000701062B276889B2C4E9002209D13B4638
:1043580003E0628B013262831B68002BF9D141F0C4
:1043680002012046218334F08CF800287AD041F0ED
:10437800200176E0042B0AD121F0070189B22046FA
:10438800218334F07EF810B141F020012183218B84
:1043980001F0070AAA454FD00027B946AAE72369C2
:1043A80021F0070141F00601062DD3F80090218382
:1043B8002DD1B9F1000F3FD041F00801218388F3D6
:1043C8001188BFF36F8F20463949C84729E021F08B
:1043D8000701236941F0040189B2042DD3F8049040
:1043E8002183E6D000274FF0040A3E4682E721F0F9
:1043F8000701236941F0050189B2052DD3F808901A
:104408002183D6D000274FF0050A3E4672E70027E1
:104418004FF0060A3E466DE72B4687E7B9F1000FD5
:10442800D1D1EFF31188202383F31288BFF36F8F64
:10443800238B23F008032383258BEA062ED525F04A
:104448001003238305F007056669218B002EBFF64C
:1044580070AF00232768C4E9003321F0070141F059
:1044680001012183218B4FF0000901F0070AAA45B9
:104478007FF440AF002F9CD041F00801218388F3DE
:104488001188BFF36F8F002FC8D03D683946334677
:104498005246204634F021F82F46F4E7AB067FF564
:1044A8001BAF25F02003238305F0070500E700BFB5
:1044B8000F8503001FB5034678B914490A685207E7
:1044C80006D0134A0090CDE90102012234F087F9A1
:1044D8006FF0150005B05DF804FB836873B90B49EC
:1044E8000A68520707D00B4A1846CDE901320093F3
:1044F800012234F074F96FF00400EBE71B681BB17C
:1045080005B05DF804EB18471846E3E7F8300020DB
:10451800B9DC0400CADC04001FB5034678B91449A5
:104528000A68520706D0134A0090CDE90102012219
:1045380034F055F96FF0150005B05DF804FB836899
:1045480073B90B490A68520707D00B4A1846CDE9D8
:1045580001320093012234F042F96FF00400EBE7D6
:104568005B681BB105B05DF804EB18471846E3E734
:10457800F8300020B9DC0400CADC040030B585B08E
:1045880008B101B182B916490B685A0708D0154B12
:104598000122029300231846CDE9003334F01FF9B5
:1045A8006FF0150005B030BD84680CB1E5687DB9C1
:1045B8000B490B685B0708D00B4B012202930023C1
:1045C8001846CDE9003334F00AF96FF00400E9E742
:1045D80041F8040BE36805B0BDE83040184700BF58
:1045E800F8300020E8DC0400CADC04001FB50446EB
:1045F80078B91E490B685B0707D01D4B0122CDE92E
:1046080001030090034634F0EAF86FF0150004B097
:1046180010BD036873B915490A68520707D0154ACF
:104628001846CDE901320093012234F0D8F86FF032
:104638000100ECE79A680AB112697AB90B490B686C
:104648005B0708D00C4B0122029300231846CDE9E2
:10465800003334F0C4F86FF00400D8E74168184616
:1046680090470028D3D12060D1E700BFF830002060
:1046780014DD040025DD0400CADC040030B513464F
:10468800044685B078B91E490B685D0707D01D4BF5
:104698000122CDE901030090034634F0A0F86FF041
:1046A800150005B030BD006870B915490B685A0788
:1046B80007D0154B0122CDE901030090034634F0E1
:1046C8008EF86FF00100ECE782680AB195687DB951
:1046D8000B490B685B0708D00C4B0122029300239F
:1046E8001846CDE9003334F07AF86FF00400D8E7C3
:1046F8000A46AC46616805B0BDE83040604700BF77
:10470800F830002014DD040025DD0400CADC0400B4
:10471800034A13680BB9526813600020704700BF42
:104728009426002030B50C460E4985B00291D0F889
:10473800D4110546CDE9003100F1F0014FF0FF3307
:1047480020462CF09DFD50B9012384F86C30D5F833
:10475800D03123B1204605B0BDE83040184705B038
:1047680030BD00BFF788030038B50C461146054632
:1047780034F0BFF8034638B92846044934F0B9F88C
:1047880003460020236038BD0120FBE7C0E1040098
:104798002DE9F04F01238146056946688FB005F27F
:1047A8000447D7E8EF2F002A03D1C7E8E13F0029E3
:1047B800F7D10CBF1A46002240F0BF80B368B16A37
:1047C80005F5F8781C1F104634F017F984427DD897
:1047D800013A00F0AC80B2FA82F24FF00044D440C3
:1047E80072682046073222F00302C5F88822B16AAF
:1047F80034F003F9C5F88C02B36A404663430333C7
:1048080023F0030302EB4302230103EB44030933C0
:1048180023F0030303EBC403C5F880221A440832CB
:10482800C5F87C227368C5F88442C5F87832444BD1
:10483800C5E9B363D9F80030C5F82432316800F00F
:10484800EBF9044600283FD1D9F810B0D9F804A0F4
:10485800D9F800300BF53A79059004934846DAE91F
:104868000734012B08BF103C43F056F9DAF824004E
:10487800344904AB009301EB8021234648464FF4AA
:1048880080622DF0BFFE2021DAF824302E4A06A8D7
:1048980031F092FE06A948462DF092FF2B490BF500
:1048A800367043F0D4F8DAE9050183685C684CB1E6
:1048B8005B46274AA047044630B9DAE90501836810
:1048C8001B692BB96FF05704002129E001327AE700
:1048D8000122984704460028F6D11E4B2846C5F801
:1048E800D0311D4BC5F8D4311C4B0393D5F8383261
:1048F8000293D5F83032CDE90083D5F89032B26A08
:10490800D5F8001400F050F904460028DCD105F170
:10491800F0002CF05BFD0028C5F808040ADB022132
:10492800384634F01AF820460FB0BDE8F08F6FF023
:104938000B04C9E76FF01504C6E76FF07704F2E7D8
:104948004D89030088BB02204ADD04003389030037
:104958002789030069490000D98A03009389030065
:1049680013B5044640B100230122CDE90032074BBC
:10497800D0E909122CF034FC236F1B6823B1606F57
:1049880002B0BDE81040184702B010BDC0E10400F5
:1049980013B504460846216901F20441D1E8AF1F66
:1049A800022910D193B1A0B10121CDE900311346FC
:1049B800D0E909122CF014FC074B984208BF6FF09D
:1049C8000B0002B010BD6FF00F00FAE76FF04C005B
:1049D800F7E76FF00100F4E72EF8FFFF2DE9F74342
:1049E80088461546066906F20443D3E8AF3F022B12
:1049F8005FD1136823B96FF0150003B0BDE8F083E9
:104A08001B78002BF7D0D6F80094B9F1000F33D1FA
:104A180006F5EC774FF0FF324FF0FF3338462DF0B4
:104A280023FB30462A6801A9FFF79EFE019C1CB9AA
:104A3800384633F090FFDEE705F1080323676B691A
:104A480084F86C906367646460B1384633F083FF20
:104A580021463046A36E2A68FFF764FE0020C8F896
:104A68000040CAE72022296804F1480043F0B1FC5D
:104A7800384633F070FFF1E730460F4933F039FF1D
:104A880004460028B7D005F1080303676B69406442
:104A98004367002380F86C3020222968483043F0AF
:104AA80098FC22460121304600F060F80028D5D055
:104AB800A1E76FF00F00A0E7C0E1040010B50C46B5
:104AC800006900F20443D3E8AF3F022B0FD189B14C
:104AD8000A4900F5367042F0F5FF204642F015FA13
:104AE80078220021204643F018FC002010BD6FF00A
:104AF8000F00FBE76FF00100F8E700BF785F0020C8
:104B08002DE9F04F05460E4690460027D0F8C4A080
:104B180085B0AAF5BE7421463046FBF73FFDE0B9E3
:104B2800114BA4F1480B0293DAF810303246CDE964
:104B3800008329464FF0FF335846AAF5E2792CF056
:104B48009FFB60B97823012203FB079383F86C204D
:104B5800DAF80C300BB158469847783417B105B0DD
:104B6800BDE8F08F0127D6E7078B03001FB5144671
:104B780090B18AB1012912D10A4B00F1F0010293D8
:104B8800D0F8D431483201934FF0FF3320460093D8
:104B98002CF076FB04B010BD6FF01500FAE700208A
:104BA800F8E700BF078B03002DE9F04387B00E46F6
:104BB800DDE90E811446DDE910251F4630B329B31F
:104BC800DFF850C000F1F009002D08BF65469EB916
:104BD800CDE9034400F5E2742046059642F02FFC27
:104BE80003ABCDE900432A463B46414648462CF0F4
:104BF80065FC07B0BDE8F083002241460E924846A6
:104C08002A4607B0BDE8F0432CF0AEBD6FF01500A2
:104C1800EFE700BF094B0000F0B50E46044689B027
:104C2800002872D0436B0BB9394B436301232246EA
:104C3800E3630023D4F8981004F1400042F8301FD1
:104C4800CDE901334FF0FF330093D4F89C3041F0A5
:104C5800F5F8304A06AB92E8030083E803001846EB
:104C680027F02CFE0546D8B904F1340027F008FED9
:104C78000546A8B9616B284805AA41F0BBF8054666
:104C880070B9059B9A6872B10C33D4F89400C4F8D3
:104C9800A03033F065FFC4F8D40030B96FF00B05CD
:104CA800284609B0F0BD0346EFE7D4F8940033F086
:104CB80057FFC4F8D8000028F0D0D4F88C30D4F8C6
:104CC800A010C4F8A8300423C4F8AC30C4F8C43029
:104CD8000223A362114BB4F89420D4F8D470C4F81A
:104CE800B810C4F8D010D4F89010236204F1A403CB
:104CF800A4F8B020C4F8A470C4F8C010A4F8C82060
:104D0800C4F8BC00A661E362CAE76FF01505C7E7FF
:104D180056DD0400F496040060DD04004C9C040099
:104D28002DE9F84F81462F480F4633F05BFF0646C2
:104D380070B92D4C0546A0464FF0010BDFF8ACA02A
:104D4800544507D3B9F1000F02D04FF0010AE5B975
:104D5800BDE8F88F237B6BB12368DB680BB1204675
:104D6800984723681B6943B9636804222046196879
:104D780000F094F901361034E2E7204698470028FD
:104D8800F2D00BFA06F31D43F4E7A94695FAA5F409
:104D9800B4FA84F40AFA04F3260108EB04146FEA5F
:104DA800030B25EA0305237B63B158F806301B691A
:104DB80093B94644736804222046196809EA0B0926
:104DC80000F06CF9002DE1D127B14FF4A470002157
:104DD8002EF07AF84D46BAE7204698470028F1D1D8
:104DE800E7E700BFA85F0020CC9004000C91040006
:104DF800014B53F820007047789C040008B503461F
:104E080008462BB1044A136000F07EFB002008BD61
:104E18006FF01500FBE700BFC026002008B500238F
:104E2800074A4FF400411370064A07481360074ABF
:104E38001360FFF7E3FFBDE8084000F07FB800BF4C
:104E480093690120A05F0020E98B0300A45F002084
:104E580070B50B4D297841B90120FFF761FF094C66
:104E6800094EB44202D301232B7070BD63685B798D
:104E78001BB1236820469B6898471034F1E700BFB0
:104E880093690120CC9004000C91040010B50446ED
:104E9800064833F0A7FE3CB1054BD3E8EF1F0139B4
:104EA800C3E8E21F002AF8D110BD00BFA05F0020B0
:104EB800A45F00202DE9F041164B05461B68984772
:104EC800154CDFF85880A860444501D3BDE8F0814F
:104ED80063685B793BB129784B0706D52368294677
:104EE80020461B6898471034EEE728462E88C1F301
:104EF800C20700F06DF9C6F382160246002EEDD007
:104F08000028EBDB01233946204600F0E1F8B042E7
:104F1800E9D3E3E7C0260020CC9004000C910400FC
:104F2800044A054B9B1AB1EBD30F34BF52F831003A
:104F380000207047848E0400CC90040000210B48A8
:104F48000B4B30B51B1A0B4CDB080430994200D1CF
:104F580030BD10F83120256802F0070225F007055A
:104F68002A4344F8042B0131F0E700BF848E040083
:104F7800CC90040054300020F8B5064600240A4FAF
:104F88000A4DED1BED08AC4203D14FF0FF3420462B
:104F9800F8BD57F8340020B13146FBF7FFFA002876
:104FA800F5D00134EFE700BF848E0400CC900400F4
:104FB80000282DE9F047884615461F461DDA4FF0B0
:104FC800000A5446DFF8A090234EA6EB09063609DE
:104FD800B24509F1100902D12046BDE8F08759F819
:104FE8000C0C3B462A4641460079FFF7E1FF844214
:104FF80038BF04460AF1010AEAE7184B184AD21AE0
:10500800B5EBD20F26D203EBC5031C79BC4228BFEF
:105018003C460722134EC0B200EB400056F825303C
:10502800824023EA020304F007028240134300216E
:10503800032223FA02F000F00700814202F1030282
:1050480038BF01461E2AF4D123F007030B4346F864
:105058002530C1E70024DCE70C910400848E0400AD
:10506800CC90040054300020CC900400F8B50646DB
:105078000F460024074D084BED1AED08AC4200D34B
:10508800F8BD002122B23B463046013433F0CBFD57
:10509800A4B2F3E7CC900400848E040038B50D4622
:1050A80011460A4B4268C31A1B1104460133137197
:1050B80043689971FFF7DAFF012263681D6063682E
:1050C8005A71BDE8384033F0ABBD00BFCC90040046
:1050D80070B14168097973B1002A17DBCBB20C496A
:1050E80003EB430351F82200D84000F00700704753
:1050F8004FF0FF31EFE707490748401AB2EBD00FEE
:105108003ABF01EBC201087918467047042070477E
:1051180054300020848E0400CC9004002DE9F04F18
:1051280087B004AF0446D7E90EA90E4693469846C1
:105138003D6BBAF1000F22D0C7F80490CDF800906B
:105148001021534600207A6BFEF7B4FEB0F5006FCD
:10515800014615D31C490B6813F0060F0BD040F21B
:10516800FF730393194B0222029300231846CDE9DB
:10517800003333F085FD0C37BD46BDE8F08F51464E
:1051880004F007040BF0070BE40044EA8B1444EA2C
:10519800412444EA055417350D4425F00705ADEBC5
:1051A800050D04ADBAF1000F07D0CDF800905346B5
:1051B8007A6B05F11000FEF77DFE43462246314624
:1051C800284633F044FDD6E70031002075DD0400A1
:1051D800406820B1034BC01A40F38F0070474FF06E
:1051E800FF307047543000200EB403B503AB53F8BA
:1051F800042B01460448019303F0D8FC02B05DF883
:1052080004EB03B0704700BFC58C0300CA0605D481
:105218008B064CBF02490349FFF7E6BF704700BF42
:10522800BFE104009B4D06002DE9F04F87B09DF8C3
:10523800446004460D4690469946002E00F0A28030
:10524800159B03F0020A03F001030493159B03F076
:10525800080B03F48073059333F0E3FC024600283F
:105268003DD020469449FFF7BFFF0746BAF1000F2B
:1052780009D0159B13F0440F33D12A4620468F4995
:10528800FFF7B2FF0744049B53B18D4B204653F8F8
:1052980026208C4B8C49002A08BF1A46FFF7A4FF2A
:1052A800059B002B49D0BBF1000F64D1B8F1000F6A
:1052B80066D0424620468549FFF796FF0546129B71
:1052C8003D44002B6DD1149B002B73D1159BDB073C
:1052D80000F1EB8020461599FFF798FFD8E00746C4
:1052E800C4E77B4B18680028CCD07A4B4FF47A7A05
:1052F8001B684FF46161B5FBF3F5B5FBF0F300FBF8
:1053080013550AFB05F5B3FBF1F2B5FBF0FE4FF0C0
:105318003C0C01FB123100FB1E55B1FBFCF30AFBF0
:1053280005F5B5FBF0F50CFB131120460091CDE90E
:1053380001E56949FFF758FFA4E7BBF1000F1DD04D
:10534800664B204653F826206549FFF74DFF054672
:10535800B8F1000F05D0424620465C49FFF744FFEC
:105368000544B9F1000FAAD04A4620465D49FFF727
:105378003BFF0544A3E74FF00009E1E75D46E7E797
:1053880045469CE7B9F1010F129B06D1002B66D167
:10539800149B002B7CD000250CE0002BF8D0524841
:1053A8005EE05248129B2246514932F0A0FF149BFE
:1053B800002B6AD0DFF84481DFF84491149F20461F
:1053C800102F159928BF10274FF0000BFFF71EFF6D
:1053D8005D4547DC139B494620461A78FFF704FFD2
:1053E8004FF0010B1BF0070F03D141462046FFF792
:1053F800FBFE5F453DD9139B4946204613F80B2019
:10540800FFF7F2FE0BF1010BBBF1100FEAD14FF0E1
:10541800000A20463749FFF7E7FE5246DFF8E4B0B6
:10542800139B20469A5CA2F120015F2928BF2E22F7
:105438005946FFF7D9FE0AF1010ABAF1100F1DD03B
:105448001AF0070F03D141462046FFF7CDFE574516
:105458005246E5D841462046FFF7C6FEEBE723480B
:1054680035469FE741462046FFF7BEFE0BF1010B8C
:10547800AEE720462049FFF7B7FEC3E7139B3B443E
:105488001393149BDB1B149398D1002E7FF41EAF4B
:105498006268A168D2E90023206833F001FC002289
:1054A80063681A6007B0BDE8F08F2046054A0649D0
:1054B800FFF79AFE0EE700BFFDAD0500B2DD040060
:1054C800889C0400ADDD04009AE20400D7DD0400E6
:1054D800B05F0020AC5F0020BBDD04009C9C040092
:1054E800DBDD0400E1DD0400E18C0300C58C030072
:1054F800B58B0000ECDD04007F200600812006004B
:10550800E6DD0400C674050000210123064A904226
:1055180006D8064A01B901231360054B1860704785
:10552800012140085B00F2E740420F00AC5F002019
:10553800B05F00200122014B1A7070479469012066
:10554800014B002019607047C85F002010B5064B5A
:105558000C461868FFF74CFC2146BDE8104003468E
:105568000F220248184700BFC85F0020CC9C0400E7
:105578000122F8B5084B094D094E1A70D5E90047C4
:105588000CB92C60F8BD214630463A4600F00AF8BE
:10559800241A0644F4E700BF95690120BC5F002087
:1055A80096690120F8B507460E460424174D324681
:1055B800394600202CF062F9C8B101232B70144B36
:1055C8001B782BB93046F8BD5CB92C704FF0FF340E
:1055D80000202CF0E5F90028F4D02B78002BF3D12B
:1055E800F0E7013C41F2883041F0B6FFF0E72B7854
:1055F80013B1013C04D12C702B78002BD7D1E1E7F3
:1056080041F2883041F0A8FFF6E700BF9469012015
:1056180095690120014B036000207047DC9C040061
:1056280003289ABF024B53F820000248704700BF76
:10563800DC9C0400C0E1040070B544690D469CB3CD
:105648001E4A2379565CB34231D01D4A525C9A42B5
:1056580030D1A3689847002810DA022D0CD0032D0A
:105668000BD110F1860F07D0D4E8EF3F43F00203C7
:10567800C4E8E23F002AF6E7267170BD022D2671C4
:1056880001D00020F9E7D4E8EF3F23F00403C4E891
:10569800E23F002AF7D1D4E8EF3F23F00203C4E841
:1056A800E23F002AEDD0F6E76FF05700E5E76FF02C
:1056B8007700E2E76FF08500DFE700BF36DE040021
:1056C80032DE040010B5084C86B024788DF81740F7
:1056D800012402940DF117040194BDF820400094B0
:1056E80039F031F806B010BD233000207FB50BAB80
:1056F80005930393054B0322029300231846CDE933
:105708000033FFF70BFD07B05DF804FB50DE040023
:105718001FB50A460B490B6803F00703022B0ED985
:1057280009480A4B012A08BF03460393084B032282
:10573800029300231846CDE90033FFF7D7FF05B0E1
:105748005DF804FB60300020946D050042CD050033
:1057580050DE040000B5642889B08DF8070019D818
:105768000E4B18221870002102A842F0D6FD0C4BEF
:10577800002003930DF107030493012302A9ADF858
:1057880014300DF009FF10F1800F08BF002009B098
:105798005DF804FB6FF01500F9E700BF2330002027
:1057A800B49D04002DE9F8430646FAF709FF0546BB
:1057B800EFF31188202383F31288BFF36F8F114B07
:1057C8001C68D3F804909C4208BF002434B988F3BD
:1057D8001188BFF36F8F2046BDE8F883A768384665
:1057E800FAF7EEFEA84206D12A463946304642F07C
:1057F800DEFD0028EBD04C4501D02468E6E7002404
:10580800E5E700BF10270020F0B585B00E46154625
:10581800FFF7C8FF044648B3C3683BB31F692FB3FB
:10582800062E08D0072E25D02A4631463B4605B01D
:10583800BDE8F0401847838A3BB92A463146B84745
:10584800B0B9A38A0133A3821DE04FF6FF729342D9
:10585800F8D11A490B685B0708D0194B012202934B
:105868000023CDE90033184633F0C2FA6FF0150073
:1058780005B0F0BD4DB12A783AB100228282314696
:105888002A461B6998470020F2E7A38A012B08D112
:105898002A4607212046B8470028E9D1A38A013BB8
:1058A800D1E7002BFBD105490A6812F0060FDDD0BD
:1058B800044A0093CDE901320222D4E7C430002023
:1058C80069DE04008BDE04001FB5044608B1806859
:1058D80080B916490B685A0708D0154B0293002364
:1058E80001221846CDE9003333F082FA6FF0150033
:1058F80004B010BDFFF756FF28B10C490B685B07D1
:10590800F4D00C4BEAE7A082EFF31181202383F354
:105918001288BFF36F8F084B5A68C4E900321460CD
:105928005C6081F31188BFF36F8FE1E7C43000201A
:10593800A9DE0400C2DE04001027002010B50446CA
:105948003EF071F803490246204633F094FC0020EB
:1059580010BD00BF02DF04001346002273B50446E1
:1059680001920A21586801AA01F0D2F9019D95B95E
:1059780020EAE0744FF40046294640F2E7304FF43D
:105988007A720023C4FB0601FAF7EEFD2DF09CFAAB
:10599800284602B070BD2A462046024933F087FCEB
:1059A800019DF5E72EDF040008B5034A034933F0EB
:1059B80062FC002008BD00BF1BE0040022E00400D8
:1059C8002DE9F3411746002304460A21B86801AAC5
:1059D800019301F09DF9019DC6B24DB12A462046BA
:1059E800134933F064FC019D284602B0BDE8F081FC
:1059F800042E09D9324620460E4933F058FC204679
:105A080033F0B0FC0125EFE77868FFF7B5FAB0F19D
:105A1800000804DA20467A68074933F048FC002178
:105A2800334608460FFA88F233F0FDF8DCE700BF8A
:105A380045E004006CE0040083E0040010B504466F
:105A480021F046FA07490246204633F014FC204666
:105A5800054933F010FC214604482DF02DFB0020A9
:105A680010BD00BFE2E0040001E10400795A000023
:105A780070B58EB004460D46D0F89C6042F0AAF886
:105A8800034642F0D9FE214A21491058214A002BE9
:105A980018BF1A460092204A2346844218BF0A4675
:105AA80028461E4933F0E7FBD4E90A23CDE9002351
:105AB800284694F90E30227B194933F0DCFB06A9FD
:105AC800202220462CF08CFE636E0246154928469B
:105AD80033F0D1FB204605A942F08CF8024628B1E4
