:10000000D8AE042061020100797004004D020100A5
:100010004D0201004D0201004D0201004D020100A0
:100020000000000000000000000000006D0401005E
:100030004D02010000000000F10301004D0201002B
:100040008506010085060100850601008506010080
:100050008506010085060100850601008506010070
:100060008506010085060100850601008506010060
:100070008506010085060100850601008506010050
:100080008506010085060100850601008506010040
:100090008506010085060100850601008506010030
:1000A0008506010085060100850601008506010020
:1000B0008506010085060100850601008506010010
:1000C0008506010085060100850601008506010000
:1000D00085060100850601008506010085060100F0
:1000E00085060100850601008506010085060100E0
:1000F00085060100850601008506010085060100D0
:1001000085060100850601008506010085060100BF
:1001100085060100850601008506010085060100AF
:10012000850601008506010085060100850601009F
:10013000850601008506010085060100850601008F
:10014000850601008506010085060100850601007F
:04015000850601001F
:1001580081F0004102E000BF83F0004330B54FEA70
:1001680041044FEA430594EA050F08BF90EA020FDD
:100178001FBF54EA000C55EA020C7FEA645C7FEA70
:10018800655C00F0E2804FEA5454D4EB5555B8BF93
:100198006D420CDD2C4480EA020281EA030382EA04
:1001A800000083EA010180EA020281EA0303362D96
:1001B80088BF30BD11F0004F4FEA01314FF4801C69
:1001C8004CEA113102D0404261EB410113F0004F7B
:1001D8004FEA03334CEA133302D0524263EB430332
:1001E80094EA050F00F0A780A4F10104D5F1200ED0
:1001F8000DDB02FA0EFC22FA05F2801841F100012B
:1002080003FA0EF2801843FA05F359410EE0A5F1FE
:1002180020050EF1200E012A03FA0EFC28BF4CF02F
:10022800020C43FA05F3C01851EBE37101F00045E5
:1002380007D54FF0000EDCF1000C7EEB00006EEBF2
:100248000101B1F5801F1BD3B1F5001F0CD349087C
:100258005FEA30004FEA3C0C04F101044FEA4452D3
:1002680012F5800F80F09A80BCF1004F08BF5FEA5A
:10027800500C50F1000041EB045141EA050130BD3A
:100288005FEA4C0C404141EB0101013C28BFB1F54C
:10029800801FE9D291F0000F04BF01460020B1FA97
:1002A80081F308BF2033A3F10B03B3F120020CDA6A
:1002B8000C3208DD02F1140CC2F10C0201FA0CF048
:1002C80021FA02F10CE002F11402D8BFC2F1200CAD
:1002D80001FA02F120FA0CFCDCBF41EA0C01904063
:1002E800E41AA2BF01EB0451294330BD6FEA0404AC
:1002F8001F3C1CDA0C340EDC04F11404C4F1200297
:1003080020FA04F001FA02F340EA030021FA04F3A8
:1003180045EA030130BDC4F10C04C4F1200220FAFF
:1003280002F001FA04F340EA0300294630BD21FA3D
:1003380004F0294630BD94F0000F83F4801306BF03
:1003480081F480110134013D4EE77FEA645C18BFF7
:100358007FEA655C29D094EA050F08BF90EA020F8E
:1003680005D054EA000C04BF1946104630BD91EA86
:10037800030F1EBF0021002030BD5FEA545C05D189
:100388004000494128BF41F0004130BD14F58004C8
:100398003CBF01F5801130BD01F0004545F0FE413C
:1003A80041F470014FF0000030BD7FEA645C1ABF71
:1003B800194610467FEA655C1CBF0B46024650EAA8
:1003C800013406BF52EA033591EA030F41F40021D4
:1003D80030BD00BF90F0000F04BF0021704730B55A
:1003E8004FF4806404F132044FF000054FF000012F
:1003F80050E700BF90F0000F04BF0021704730B5F0
:100408004FF4806404F1320410F0004548BF4042C4
:100418004FF000013EE700BF42004FEAE2014FEA19
:1004280031014FEA02701FBF12F07F4393F07F4FF4
:1004380081F06051704732F07F4208BF704793F0F7
:100448007F4F04BF41F40021704730B54FF460740A
:1004580001F0004521F000411CE700BF50EA01020D
:1004680008BF704730B54FF000050AE050EA0102B6
:1004780008BF704730B511F0004502D5404261EB26
:1004880041014FF4806404F132045FEA915C3FF467
:10049800D8AE4FF003025FEADC0C18BF03325FEA04
:1004A800DC0C18BF033202EBDC02C2F1200300FAB5
:1004B80003FC20FA02F001FA03FE40EA0E0021FADA
:1004C80002F11444BDE600BF7BB972B90029BEBF72
:1004D80000204FF0004106E008BF00281CBF6FF065
:1004E80000414FF0FF3000F057B8ADF1080C6DE94E
:1004F80004CE002909DB002B1ADB00F0E2F9DDF855
:1005080004E0DDE9022304B07047404261EB410199
:10051800002B1BDB00F0D5F9DDF804E0DDE9022350
:1005280004B0404261EB4101524263EB4303704720
:10053800524263EB430300F0C4F9DDF804E0DDE95F
:10054800022304B0404261EB41017047524263EB21
:10055800430300F0B6F9DDF804E0DDE9022304B056
:10056800524263EB4303704753B94AB9002908BFA5
:1005780000281CBF4FF0FF314FF0FF3000F00CB8DF
:10058800ADF1080C6DE904CE00F09BF9DDF804E04C
:10059800DDE9022304B07047704700BF2DE93440FD
:1005A80055F804AB1A1F55F804BB2CDD54F804CBDE
:1005B8001CFB0A6654F804EB1CFB1A77043A1CFB74
:1005C8000B881CFB1B991CFB3A6655F804AB1CFBFB
:1005D8002B771CFB3B881CFB2A99C8BF54F804CB1B
:1005E8001EFB0B661EFB1B771EFB0A881EFB1A9957
:1005F8001EFB3B6655F804BB1EFB2A771EFB3A8898
:100608001EFB2B99D4DC043236DD34F802CB013AD8
:100618001CFB0A66C8BF34F802EB1CFB1A771CFBEC
:100628000B881CFB1B9927DD1EFB1A66013A1EFB73
:100638000B7735F802AB1EFB1B88C8BF34F802CB1A
:100648001EFB0A9918DD1CFB0B66012A1CFB1B7795
:1006580035F8022B1CFB0A88C8BFB4F800E01CFB65
:10066800029909DD1EFB1B66B5F800B01EFB0A7770
:100678001EFB02881EFB0B99BDE834802DE9F04F64
:100688000D460999044615F0030F4FF001003BD0C1
:10069800B3F1040C4FF0000E35F8028B19DD54F855
:1006A800046B4FEA084855F8049B16FB18EE54F8FB
:1006B800047B16FB29EE55F8048B17FB19EEBCF1E9
:1006C800040C17FB28EEC4BF54F8046BEBE74FEAA1
:1006D80018481CF1040CA2BF34F8026B16FB08EE94
:1006E800BCF1010CC4BF35F8028BF4E7A4EB43045A
:1006F800A5EB4305704505F10205B8BF7046013901
:1007080042F804EB00DCC0E004391BDB4FF00006C4
:100718004FF000074FF000084FF00009FFF73EFFC9
:10072800B04205F10805B8BF3046B842B8BF3846F0
:100738004045B8BF40464845B8BF4846A2E8C00350
:100748000439E3DA02315FDBB3F1040C4FF0000A3D
:100758004FF0000B55F8048B20DD54F8046B55F866
:10076800049B16FB08AA54F8047B16FB18BBBCF1C3
:10077800040C16FB38AA55F8048B16FB29BBC8BF16
:1007880054F8046B17FB09AA17FB19BB17FB39AA06
:10079800C8BF55F8049B17FB28BBE2DC1CF1020C10
:1007A8000EDD54F8046B16FB08AA55F8049B16FBDB
:1007B80018BBACF1020C16FB38AAC84616FB29BBBD
:1007C80034F8026B1CF1010C16FB08AAC8BF34F8F8
:1007D800027B16FB18BB05DD35F8029B17FB18AA30
:1007E80017FB09BBA4EB4304A5EB4305504505F1F2
:1007F8000205B8BF5046A1F10201584542F804ABC2
:10080800B8BF584642F804BB01313EDBB3F1040CD3
:100818004FF0000E1DDB54F8046B55F8048B54F8A8
:10082800047B55F8049B16FB08EEBCF1040C16FB80
:1008380038EEA8BF54F8046B17FB09EEA8BF55F8AB
:10084800048B17FB39EEA2BF54F8047B55F8049BC0
:10085800E9E71CF1020CA1BF54F8046B55F8048BAE
:1008680016FB08EEACF1020CA8BF16FB38EE1CF123
:10087800010CA2BF34F8026B35F8028B16FB08EEA8
:10088800704542F804EBB8BF7046BDE8F08F10F829
:10089800012B11F8013B012A28BF9A42F7D0D01A40
:1008A8007047034611F8012B03F8012B002AF9D1F0
:1008B8007047034613F8012B002AFBD1181A013898
:1008C80070472DE9F04786468C460846089E15462F
:1008D80074461946002B40F0C1808542B2FA82F274
:1008E80045D94AB1C2F1200300FA02FC9540944070
:1008F8002EFA03F343EA0C0C4FEA154EA8B2230C68
:10090800BCFBFEF80EFB18CC08FB00F943EA0C43CD
:10091800994528D9EB1808F1FF3704D2994502D92F
:10092800A8F102072B44A3EB0903A4B2B3FBFEFC16
:100938000EFB1C330CFB00F044EA0344A04214D91C
:100948002C190CF1FF3304D2A04202D9ACF10203F6
:100958002C44241A43EA07401EB1D44000233460D3
:100968007360BDE8F0874746DDE76346F1E792BB71
:10097800431B01214FEA154EAFB2200CB3FBFEFC1E
:100988000EFB1C330CFB07F840EA0343984561D97A
:10099800EB180CF1FF3004D2984502D9ACF10200F3
:1009A8002B44A3EB0803A4B2B3FBFEFC0EFB1C33E1
:1009B8000CFB07F744EA0344A7424DD92C190CF164
:1009C800FF3304D2A74202D9ACF102032C44E41B42
:1009D80043EA0040C0E7C2F120039540944020FA62
:1009E80003F12EFA03F34FEA154E9040AFB20343DA
:1009F800B1FBFEFC0EFB1C10190C0CFB07F841EABE
:100A08000041884522D969180CF1FF3004D2884585
:100A180002D9ACF102002944A1EB08019BB2B1FB59
:100A2800FEFC0EFB1C110CFB07F743EA01439F4237
:100A38000ED9EB180CF1FF3104D29F4202D9ACF168
:100A480002012B44DB1B41EA004193E76046E3E7E0
:100A58006146F7E76046A4E76346B8E7834206D9EC
:100A680016B9002108467CE7C6E900E0F9E7B3FAC1
:100A780083F78FB9834201D3724508D8BEEB0204CD
:100A880060EB030301209C461EB9002169E7384644
:100A9800FAE7C6E9004CF8E7C7F1200CBB400EFAAC
:100AA80007F522FA0CF42EFA0CF1BA401C4320FA8E
:100AB8000CF3B8404FEA144901431FFA84FEB3FB14
:100AC800F9F809FB18300B0C08FB0EFA43EA00434F
:100AD8009A4540D9E31808F1FF3004D29A4502D963
:100AE800A8F102002344A3EB0A0389B2B3FBF9F887
:100AF80009FB183308FB0EFE41EA03418E452CD949
:100B0800611808F1FF3304D28E4502D9A8F1020317
:100B1800214443EA0040A1EB0E01A0FB02984145A5
:100B2800CE46434602D306D14D4504D20138B9EB2F
:100B3800020E68EB0403002EA7D0B5EB0E0261EBA2
:100B4800030101FA0CFC22FA07F3F9404CEA03030B
:100B5800C6E9003199E74046C5E74346D9E70000B2
:100B68002DE9F04706460F46904688B053F08EFAB6
:100B78004FF47A73A0FB034503FB0155E40B012FE7
:100B880044EA45444FEAD53507D122462B4630463C
:100B9800274944F04FFC002012E0D8F8047025489B
:100BA8003946FFF774FE70B139462348FFF76FFEE8
:100BB80048B130463A46214944F058FC6FF00400E9
:100BC80008B0BDE8F087204617A3D3E900232946DB
:100BD800FFF77AFC05460C4610461946184A0023CA
:100BE800FFF772FC80460F46104619464EF6602203
:100BF8000023FFF769FC82468946104619464FF4E0
:100C08007A720023FFF760FCCDE902A9CDE906233B
:100C1800CDE904012A4623463046CDE90087094933
:100C280044F008FCB7E700BF005C260500000000A0
:100C38008DE305009EE30500A1E30500AAE3050096
:100C480080EE3600C2E30500F0B58BB0002140F617
:100C5800034009AA15F0CAFB0446002840F0B780F3
:100C68000998C3681B7853B95F4BD3E8AF2F02F0DC
:100C78000902D3E8EF1FC3E8E42F002CF9D110F0E4
:100C880063FC002141F2030009AA15F0AFFB0446FA
:100C9800002840F09C80099A544DD16805F17803EA
:100CA800D1F80100D1F8051003C3104610F04CFC30
:100CB800214641F2010009AA15F098FB04460028D4
:100CC80040F085800998C3685A7885F870205A885A
:100CD800A5F872201A7985F87120B3F80720A5F8CD
:100CE8007420B3F80530A5F8763010F02DFC2146B5
:100CF80041F2020009AA15F079FB0446002866D1E2
:100D0800099F05F18006FA68531C41323446186879
:100D18005968083303C493422646F7D1384610F081
:100D280013FC16F03DFE0446002850D195F88A3091
:100D380013F0200317D12E490A6812F0060F06D0C7
:100D48002C4A0093CDE90132022248F033F895F895
:100D58007C3013F0400351D125490A68520739D134
:100D68006FF0120433E0072140F6334014F038FEE8
:100D78000646002800F0518107210C3046F02EFC71
:100D8800042343700623C0F8024084710470047180
:100D98002246C370314640F6334015F027FB04461F
:100DA800A8B9012140F6314014F01AFE0646002881
:100DB80000F0338101210C3046F01FFC22463146F9
:100DC80040F6314015F012FB04460028BFD02046FB
:100DD8000BB0F0BD084A1846CDE901320093012254
:100DE80047F0E8FFBCE700BFF421002020210020E5
:100DF800C03000202D8F06005B8F0600002142F2D4
:100E0800030009AA15F0F2FA04460028DFD1099B6D
:100E1800AF4EDA68D2F80100D2F8051003C61846BA
:100E280010F092FB214642F2020009AA15F0DEFA00
:100E380004460028CBD1099CE368B3F8012091B29D
:100E480049B1D97839B1A5F80421DA78114606F103
:100E5800280052F057FE204610F076FB1F2395F825
:100E68007C60A5F8203116F0200618D1022140F642
:100E78006D4014F0B5FD0446002800F0CE80022134
:100E88000C3046F0ABFB0123214603704670324616
:100E980040F66D4015F0AAFA0446002897D195F857
:100EA8009C301F0712D5002142F21C0009AA15F038
:100EB8009DFA044600288AD10998C368D3F801200E
:100EC800D3F80530C5E9382310F03EFB95F8D83043
:100ED8009E0625D50DF1220108A815F083FB0446CE
:100EE80000287FF474AF042142F2240014F078FD46
:100EF8000646002800F0918004210C3046F06EFB75
:100F0800BDF8203022460380BDF8223031464380A8
:100F180042F2240015F06AFA044600287FF457AF1D
:100F280095F8D8305C0610D5002142F22A0009AAAB
:100F380015F05CFA044600287FF449AF0998C368A5
:100F48005B7885F8223110F0FFFA082142F201009F
:100F580014F046FD044600285FD008210C3046F006
:100F68003DFB95F8D81040F2022311F0400F08BF5E
:100F78000323024688074CBF43F02C0043F00C00C3
:100F88008B0695F8D93048BF40F0400013F0090FA0
:100F980095F8A23018BF40F4006003F00603CF07AD
:100FA80048BF40F01000062B08BF40F4C070002175
:100FB80047F017FF2146002242F2010015F016FA09
:100FC800044600287FF403AF95F87C20B5F8043177
:100FD800960625D4D3B9194641F2050009AA15F099
:100FE80005FA044600287FF4F2AEB5F80431099CEE
:100FF8004BB9E368B3F80120A5F804219A8835486D
:10100800114652F07FFD204610F09EFA082140F666
:10101800014014F0E5FC044698B96FF06804D6E680
:10102800002BF3D12C490A68540702D16FF004044D
:10103800CDE62A4A0093CDE90132012247F0BAFEF3
:10104800F4E708210C3046F0C9FA95F8D830024682
:10105800D90747BF1CA1D1E900014FF00051204832
:1010680047F0BFFE2146002240F6014015F0BEF9C8
:10107800044600287FF4ABAE014609AA4FF60140AA
:1010880015F0B4F9144E78B3336813F0060F09D08D
:10109800144B0222CDE901433146234600941846F9
:1010A80047F088FE16F0D4F8044600287FF48FAE87
:1010B80017F092FE044600287FF489AE14F094FEDF
:1010C80085E600BFAFF30080908800020080002012
:1010D800F821002028220020C03000207F8F060041
:1010E80010880002A28F06003368099F03F00703E7
:1010F800022BFC6851D9B4F801304849032B96BF3C
:10110800474A484A52F82320CDE90323464B032295
:10111800029300231846CDE9003347F04BFE3368AD
:1011280003F00703022B38D9B4F80130B4F80320D0
:10113800022B4AD1052A48D83C4B53F82230CDE936
:1011480003323B4B03220293002334491846CDE96E
:10115800003347F02FFE336803F00703022B1CD936
:10116800D4F8091063790791B4F80710032B069196
:10117800A17998BF2F4ACDE9043198BF52F82320AE
:101188002D4B88BF274A0293002303921846032257
:10119800CDE90033214947F00DFE384610F0D4F967
:1011A80000214FF6024009AA15F020F9044670B153
:1011B800336813F0060F3FF475AF204B02930023FA
:1011C800CDE900330222154969E7164BB7E70998BC
:1011D800C368B3F80130A5F8C13010F0B5F995F837
:1011E800C1305B077FF55EAF21464FF6034009AA81
:1011F80015F0FCF850B1336813F0060F3FF452AF06
:101208000F4B0094CDE901432346DBE70998C368F7
:101218005B7885F8C03010F097F943E7C0300020BC
:1012280010800500B58C0600C68F0600F87F050003
:10123800DF8F0600E87F0500F78F06002490060080
:101248004D9006000000000070B514460646CD1704
:10125800A1FB0201002304FB05110A22FFF734F960
:101268000FA3D3E900230C4D80FB054520462946F2
:10127800FFF72AF906A3D3E9002330602946204660
:10128800FFF722F90023054AFFF71EF9726070BDC7
:1012980080A8120100000000D8EF2F0040420F0084
:1012A80000209BF35E10000003292DE9FF4105464D
:1012B8000C4613D0072900F083806D490B6813F0A2
:1012C800060F08D06B4B0222029300231846CDE983
:1012D80000334EF082FA6FF085004CE0002A53D0BC
:1012E800072AF8D158681A68634BC117C2FB030173
:1012F800012871F100035CDBD5F804805F4B98F896
:101308001A60C0184FEAD61655A3D3E9002341F155
:10131800000176B2FFF7D8F8002E14BF0423022389
:10132800984298F91A7029D0002E14BF2023102350
:10133800834225D0002E14BF08230423984221D0CD
:10134800002E14BF10230823984232D1E6B231464A
:1013580040462D6944F09AFF002824DB3D22484B83
:10136800002F33F81430AE77AABFA3FB02325343E1
:101378005B08EB60002004B0BDE8F0810024E5E7DD
:101388000124E3E70224E1E719883E4B14461F468F
:1013980033F8022B914209D86868E1B22E6945F00A
:1013A800E2F8002808DA6FF00400E4E701340B2CB7
:1013B800EED16FF01500DEE737F81430B383D9E7C4
:1013C800002A3AD0072A86D1B4245A6819682A4BC9
:1013D800D017C1FB0320A2FB0431012A04FB001132
:1013E80070F100001DDB2848181841F100011EA308
:1013F800D3E900230024FFF767F8244B33F8022BC6
:10140800904216D16868E1B22E6944F056FF002870
:10141800C9DB41F217121E4B33F814305343B36142
:10142800A8E71C48181861F100010FA3D3E90023AD
:10143800E0E70134072CE1D1BBE71988114B33F8F9
:10144800020B814206D86868D1B245F0FAF8002844
:1014580090DAA8E701320B2AF1D1AAE7AFF30080AE
:101468003AA3950000000000D8EF2F00000000000C
:101478008C300020AF17070040420F009DD14A0072
:1014880092BC05009ABC0500ECF7170084BC050067
:1014980076BC05001408E8FF2DE9F74F0329144628
:1014A800066905D90B1F032B53D96FF0850023E07C
:1014B8000229F7683A4D22D0032923D0012914BF05
:1014C800B6F90460B6F90660A6FB076732A3D3E94C
:1014D800002386FB056530462946FEF7F5FF002305
:1014E800304A206029463046FEF7EEFF00232D4A99
:1014F800FEF7EAFF6260002003B0BDE8F08FB6F99E
:101508000860E1E74FF0000B02F11803DFF894A040
:101518000236019336F9028FA8FB07831EA3D3E98D
:10152800002388FB059848464146FEF7CDFF524602
:1015380044F8080B5B4648464146FEF7C5FF52464D
:101548005B46FEF7C1FF019B44F8042C9C42E1D1A5
:10155800D1E70629B5690CD007290ED02A460529F6
:1015680014BFB6F91010B6F912102046FFF76CFE3A
:10157800C1E72A46B6F91410F7E70E3602F1180744
:1015880020462A4636F9021F0834FFF75DFEA742B7
:10159800F6D1B0E7AFF300800010A5D4E800000052
:1015A8003AA3950040420F002DE9F04F3A4B85B021
:1015B800D3F8042392070BD5D3F8042142B10022B3
:1015C800C3F80421354AD3F8043113680133136092
:1015D800334D0024A8464FF480362F4FD7F80433F4
:1015E80006FA04F919EA030F2CD00123A340DB43C0
:1015F8002C49D1E8EF2F02EA0300C1E8EC0FBCF157
:10160800000FF6D122FA04F3DB0703D4264B53F874
:101618002430BBB120464EF0C3FA2DF0A9FAEFF3FF
:101628001183202282F31288BFF36F8F08EB041C0A
:10163800DCE902AB504571EB0B010AD283F3118848
:10164800BFF36F8F103514B105B0BDE8F08F0124DA
:10165800C4E70020D5E900129FED0D7B28600E48F5
:1016680003938CED027B0292C0F8489320464EF01B
:1016780097FA039B83F31188BFF36F8F0029E1D09A
:10168800029A5B46009252468847DBE7AFF3008038
:10169800FFFFFFFFFFFFFFFF00500150084D012033
:1016A800D0570020FC4C01204051015038B5064D60
:1016B800064928463EF06BF90021044628463EF0CC
:1016C8007BF9204338BD00BF985C0500010002008B
:1016D80013B509480469836801A95B68984720B96C
:1016E800236801985840C0F3C010431E584258411F
:1016F800024B187002B010BDB84B0500DC69012020
:1017080030B5224B05461B7887B0002B3AD0FFF73F
:10171800CDFF044698BB01231D4AD3601D4ACDF86E
:101728000CD0CDE9012304220A23CDE904234FF08C
:10173800FF324FF0FF33184838F046FC174801A92C
:1017480083685B6898470446134838F0B5FCB4B919
:10175800BDF802309FED127A07EE903AF8EE677AFC
:1017680067EE877A9FED0F7A67EE877A9FED0E7A9C
:1017780067EE877AFCEEE77A17EE903A2B802046E0
:1017880007B030BD6FF08B04F9E700BFDD690120B9
:1017980000E00050785C050044330020484C050008
:1017A8006666E63F0000803A00803B45034B1B78A5
:1017B8000BB1FFF77BBF6FF08B007047DD6901202D
:1017C8007FB54E4D2B6803F00703022B09D94C4B0C
:1017D80003220293002329461846CDE900333EF040
:1017E800FFF8484851F09CFF034668B92A68520739
:1017F80007D0454ACDE901324049012200933EF025
:10180800EFF86FF0120433E0404E304651F088FF95
:10181800034620B92A685607F3D03D4AEAE730461E
:1018280051F07EFF034620B92A685507E9D0394AA6
:10183800E0E7304651F074FF034620B92A685407A0
:10184800DFD0354AD6E74FF4003134483EF09FF8F0
:10185800044680B12B6858070AD0314B0394029391
:10186800002301221846CDE9003324493EF0B8F898
:10187800204604B070BD4FF480312A483EF087F806
:10188800044628B12B685907F2D0274B0390E6E7A6
:10189800264927483EF07BF8044628B12B685A07AA
:1018A800E6D0244B0390DAE72349244B4B6080238E
:1018B8008B60B368DB6913B1012230469847114841
:1018C8001F4983681B689847044628B12B685B0743
:1018D800CED01C4B0390C2E701221B4B1A702B6819
:1018E80003F00703022BC3D9184B0322CDE90103E8
:1018F8000249034600903EF073F8B9E7983000209B
:1019080090C00500484C0500A8C00500B84B05006C
:10191800BDC00500D4C00500EAC00500885C05000C
:10192800FEC00500985C05001AC105001000010002
:10193800905C050039C1050048610020D9160000F7
:101948002C9C050057C10500DD6901206CC105000C
:101958002DE9FF410D4618491F460B68044603F060
:101968000703022B164608D9144B032202930023BF
:101978001846CDE900333EF05AF8DFF84880D8F829
:10198800003003930E4B029300231A46194618465B
:10199800CDE900333EF04BF80823CDE90183BDF8CB
:1019A80028303246009329463B46204648F0AAFF95
:1019B80004B0BDE8F08100BFE83000208FC1050009
:1019C800AFC10500646100201FB50B461349012B08
:1019D8000A6802F007020DD1022A08D9104B0293B7
:1019E800002303221846CDE900333EF020F805B065
:1019F8005DF804FB23B9022AF9D90A4A0292F0E7F2
:101A0800002AF4D00393084B0122029300231846BE
:101A1800CDE900333EF00BF8E9E700BFE8300020DD
:101A2800C0C10500E4C105000BC205001FB543682D
:101A3800104A23F0FF039342044619D183685A1EC3
:101A4800534253410C4A137003930C4B02930023E7
:101A58001A4619461846CDE900333DF0E8FF002242
:101A680000232146064804B0BDE8104038F0FAB912
:101A780004B010BD00011C00E169012021C205006D
:101A88007034002030B587B004460D461822002176
:101A9800684652F021FD064B69460293082320460A
:101AA8000195ADF80C3019F027FD07B030BD00BF27
:101AB800646100202DE9FF41984F99483B68994996
:101AC800047801330A78984D3B6074B1002A40F0DD
:101AD800F58001222B600A7040F21F5200239348C0
:101AE80004B0BDE8F04138F015BE914E002A77D019
:101AF8004FF0280C2A680C709A1A0CFB02F2B2F507
:101B0800967F33606CD28B480268002A67D09A1A95
:101B18000CFB02F2B2F5167F61D2046002244FF08A
:101B2800280C2A68981A0CFB00FE3068821A0CFBF5
:101B380002F2B2F5967F80F086807E4A106800280F
:101B480000F08180BEF5967F4CD900247A4B146052
:101B580021462246CDE901432046234600943DF024
:101B680066FF0123754A76491370764A13600B683D
:101B780003F00703022B08D9734B0322CDE9014375
:101B88002046234600943DF052FF02F011FE20B19A
:101B98006E4B19681431FFF775FF012000F014FE31
:101BA80032203DF053FF002000F00EFE32203DF0C1
:101BB8004DFF012000F008FE32203DF047FF0020D5
:101BC80000F002FE32203DF041FF012000F0FCFD54
:101BD80032203DF03BFF002000F0F6FD7CE703607B
:101BE80000249CE70A78002A40F09080002C3FF4FB
:101BF80073AF0024564B22462146029320462346C3
:101C0800CDE900443DF013FF02234C4A4C491370C0
:101C18004C4A13600B6803F00703022B08D94D4B9D
:101C28000322CDE901432346009418463DF0FFFE08
:101C380002F0BEFD00283FF44FAF444B1968143141
:101C4800FFF720FF48E7BEF5967FCBD9DFF8EC8099
:101C580098F80030042B2DD000243F4B2246214613
:101C6800029320462346CDE900443DF0E0FE0423DC
:101C78000522334988F80030324B1A600B6803F0AC
:101C88000703022B08D9354B0322CDE9014320462F
:101C9800234600943DF0CBFE02F08AFD20B12B4B89
:101CA80019681431FFF7EEFE0023224A3B602B60CF
:101CB8003360136001222A4B1A700DE72A689B1AB9
:101CC80028225343B3F57A7FFFF406AF1B4D2B78D8
:101CD800032B3FF401AF0024224B224621460293F6
:101CE80020462346CDE900443DF0A1FE0322154BD2
:101CF80013491A600B682A7003F00703022B97D95F
:101D0800194B0094CDE9014323468EE72A689B1AB4
:101D180028225343B3F57A7FD8D267E76061002061
:101D2800E1690120DF6901205C610020C0200020FA
:101D3800586100205461002035C20500DE69012089
:101D4800E8300020646100204AC2050048230020D2
:101D58005CC2050071C20500A8C20500BAC2050030
:101D6800E069012083C2050098C205001FB5144828
:101D780051F0D6FC1349034670B90A68520706D0D9
:101D8800114A0090CDE9010201223DF050FE6FF0AA
:101D9800120005B05DF804FB0B6803F00703022B83
:101DA80008D90A4B0322029300231846CDE90033D1
:101DB8003DF03DFE064851F0CFFD0020E9E700BFA9
:101DC800384D0500E8300020CAC20500E2C205000F
:101DD800703400201FB50C490B6803F00703022B71
:101DE80008D90A4B0322029300231846CDE9003391
:101DF8003DF01DFE40F21F520023054805B05DF876
:101E080004EB38F053BC00BFE830002009C30500DC
:101E1800C0200020014B1860704700BF348C0020A0
:101E280030B505461C4887B0436842694C009A1A89
:101E3800C3699B1AB3EB410F13D218490A6812F011
:101E4800060F0AD0CDE90334154B02220293002372
:101E58001846CDE900333DF009FE6FF00B0007B0DE
:101E680030BD2246294642F028FD844211D00B4954
:101E78000B685B070AD00B4BCDE9030402930023E0
:101E880001221846CDE900333DF0F0FD4FF0FF3058
:101E9800E5E70020E3E700BF148C0020F4300020C1
:101EA80027C3050074C3050030B5012089B040F090
:101EB800FBFE40F6030301224FF47A519E4807F0D7
:101EC8007BFA0446C8B19D4C23685A073BD040F6BC
:101ED800030301224FF47A51974807F06DFAB0FADC
:101EE80080F07723400905900493954B0393954B15
:101EF80002930023CDE9003349E04FF4FA4240F65B
:101F0800A2718D4808F0DAFB054608B38B4D2B68A3
:101F18005B0718D04FF4FA4240F6A271864808F0E1
:101F2800CDFBB0FA80F07823400905900493844BE8
:101F380001220393834B2946CDE9014323460094AC
:101F480018463DF093FD4FF0FF34204609B030BDF0
:101F5800012240F6A671784808F0B0FB0446C8B1E3
:101F6800764C23685807EED0012240F6A6717248D5
:101F780008F0A4FBB0FA80F0792340090590049397
:101F88006F4B009503936F4BCDE901532B4601220C
:101F98002146D5E7024640F6B471674808F08EFB43
:101FA800054678B1654D2B685907CCD0224640F6D6
:101FB800B471614808F082FBB0FA80F040097A23D6
:101FC8000590B3E7032240F6AA715B4808F076FB58
:101FD800044678B1594C23685A07B4D0032240F616
:101FE800AA71554808F06AFBB0FA80F040097B23D3
:101FF8000590C4E740F6B93240F6B8714E4808F08B
:102008005DFB054680B14D4D2B685B079BD040F6C4
:10201800B93240F6B871484808F050FBB0FA80F081
:1020280040097C23059081E7102240F6C47142489C
:1020380008F044FB044678B1404C2368580782D026
:10204800102240F6C4713C4808F038FBB0FA80F022
:1020580040097D23059092E702464FF47B6136489C
:1020680008F02CFB024680B1344D2B6859073FF429
:102078006AAF22464FF47B612F4808F01FFBB0FA85
:1020880080F040097E23059050E740F6AC712A485D
:1020980008F014FB0246D0B1284B1B685A073FF4DE
:1020A80052AF002240F6AC71234808F007FB7F23AB
:1020B8000493234BB0FA80F00393224B4009029318
:1020C80000230122CDE900331C49059038E740F68A
:1020D800AE71194808F0F2FA044680B1174C23682B
:1020E8005B073FF430AF002240F6AE71124808F0AB
:1020F800E5FAB0FA80F0400980230590F4E6124929
:10210800124B4FF4FA420B600023CA61C1E9023353
:10211800C1E905334B600B6100200021CDE90601C0
:102128000421CDE90033CDE9023104930849094B74
:10213800094838F0B7FB08E770610020F430002048
:10214800B2C30500CFC30500148C0020236B012007
:1021580028540320F9210000883800204FF4A07388
:1021680030B587B00093A0221A4B1B491B4808F0D2
:102178007DFA041E10DA1A490B685B0709D0194B5F
:1021880001220293002303941846CDE900333DF061
:102198006DFC002007B030BD1421134D2A68B2FB36
:1021A800F1F301FB13237BB90D49086800F0070020
:1021B800022809D9CDE903420C4A1846CDE9013273
:1021C800009303223DF052FC2B68A0B201332B6030
:1021D800E0E700BFE3690120746601207061002018
:1021E800F4300020E1C305006C610020FAC305004B
:1021F80070B5104C104E114DA36822699B1AB3F5A7
:10220800A07F05D200214FF4A47038F00DFEF3E74B
:1022180031464FF4A072204642F09FFBFFF79EFF25
:102228002B68014613B12B680548984738F07AFDAA
:10223800E2E700BF148C002074660120348C002073
:10224800E36901201FB5134851F06AFA124C03469E
:10225800A8B1002219210F483DF026FC236803F09D
:102268000703022B09D90D4B0322029300232146B1
:102278001846CDE900333DF008FC04B010BD2268D3
:102288005207FAD0064A2146CDE901020090012200
:10229800F1E700BFB84B05001831002027C405003E
:1022A80049C405007FB52A492A4851F01BFD2A4E2A
:1022B8002A4D304651F034FA034668B92A68520765
:1022C80007D0274A2946CDE90102009001223DF0B6
:1022D800DCFB6FF012041BE03269B168136830460A
:1022E80023F0007313600B684FF4C022192198473C
:1022F8002B68044678B15B070AD01A4B0390029307
:102308000023012229461846CDE900333DF0BDFBE4
:10231800204604B070BD03F00703022BF8D9124B16
:102328000322CDE901032946034600903DF0ADFBA9
:102338002B6803F00703022BEAD9336803220393BF
:102348000A4B2946CDE90143204623460094DDE7A0
:102358004D22000080390020B84B050018310020BC
:1023680070C405008CC40500AEC40500C4C40500D3
:10237800F0B53B4D04462B6887B003F00703022BEA
:102388001AD90026374B0390029303223346294675
:102398003046CDE900663DF078FB2B6803F0070373
:1023A800022B09D9304B0322CDE901632946334674
:1023B800304600963DF069FB2C4851F0B1F90346D0
:1023C80060B92A68520707D0294A2549CDE9010290
:1023D800009001223DF059FB07B0F0BD41F288336F
:1023E8009C4205D92A6812F0060F2CD141F2883494
:1023F8000026204851F084FC012219211B483DF099
:1024080053FB4FF4004740F2E73031464FF47A72FD
:102418000023E4FB0701FEF7A7F802460B46154820
:1024280038F044F92B6803F00703022BD4D9124B78
:102438000322CDE9016330463346094903940096E7
:102448003DF023FBC8E7CDE903430C4B022202937E
:10245800002303491846CDE900333DF016FBC5E7D4
:1024680018310020D3C40500ECC40500B84B0500A2
:1024780017C50500803900207EC5050034C5050054
:102488002DE9FF41274E336803F00703022B09D9D2
:10249800254B03220293002331461846CDE9003329
:1024A8003DF012FB214D0C21D5F81080AF68D8F80B
:1024B8000030284623F48053C8F800303B681C4A93
:1024C8009847041E12DA336859070BD00C2303937C
:1024D800184B0293002301221846CDE90033114915
:1024E8003DF0F2FA204604B0BDE8F081D8F800309B
:1024F800DA044FF4805154BFFB683B69284698477B
:102508000028044606DA33685B07EBD00C230393F4
:10251800094BDEE740F26760002138F085FC0024B3
:10252800E0E700BF88300020A0C50500A04B0500EB
:1025380000020200AEC50500CAC505002DE9F0413C
:102548000C234FF0000892B00546CDE90438344E0C
:10255800304651F0E5F848B92846324942F086FF3E
:102568006FF01204204612B0BDE8F081B7683C68ED
:102578005CB142460321304604ABA047044638B15B
:102588002949284642F072FFECE76FF05704F7E755
:10259800D7F80080B8F1000F08D00246072130466E
:1025A80004ABC047044620B12049EAE76FF057045E
:1025B800FAE73C213046FB689847044608B11C49B5
:1025C800DFE7032130463B6906AA9847044608B16D
:1025D8001849D6E7072130463B690CAA98470446B4
:1025E80008B11549CDE70B9B284603930A9B13496D
:1025F8000293099B0193089B0093DDE9062342F0AF
:1026080019FF119B28460393109B0D4902930F9BBA
:1026180001930E9B0093DDE90C2342F00BFFA1E729
:10262800504D0500E0C50500F3C505001CC60500B2
:1026380044C605005DC6050078C6050092C60500BB
:10264800B9C6050030B5524887B03DF089FA514CFB
:102658000546B8B923685B0711D04D483DF080FAAC
:102668001B23059004934C4B012203934B4B2146AB
:10267800CDE9015328462B4600953DF04EFA4FF020
:10268800FF3078E046483DF02EFA00281ADA236831
:102698005D0711D042483DF026FA1C2304933E4BB7
:1026A800059003933D4B01220293002321461846CF
:1026B800CDE900333DF031FA394807B0BDE8304084
:1026C8003DF011BA32483DF04BFA054640B923684F
:1026D8005807D4D02E483DF043FA1D230590C1E792
:1026E80030483DF000FA002816DA2368590711D05F
:1026F8002C483DF0F8F91E230493274B05900393CB
:10270800264B01220293002321461846CDE90033C7
:102718003DF003FA2348D0E71D483DF021FA05466D
:1027280040B923685A07AAD019483DF019FA1F235F
:10273800059097E71C483DF0D6F90028236815DA7C
:102748005B0711D018483DF0CEF920230493124BB3
:1027580005900393114B012202930023214618464A
:10276800CDE900333DF0D9F90F48A6E703F0070398
:10277800022B02D8002007B030BD0C4B0322029375
:10278800002321461846CDE900333DF0C6F9F1E7AC
:10279800B84B050030310020F8C60500CFC305004E
:1027A800F05C0500E85C0500E05C050013C7050067
:1027B800014601483DF0C0B9F05C050001460148FA
:1027C8003DF0BAB9E85C0500014601483DF0B4B9EE
:1027D800E05C05001FB50C4601F0F0FF88B10F4919
:1027E80010F1690F0B680ED113F0060F09D00C4BCE
:1027F800022202930023CDE90033039418463DF0EA
:10280800C6F904B010BD5B07FBD0064B012202934A
:1028180000230390CDE90033F0E700BF3C310020EE
:1028280020C7050051C705001FB54FF4C861FFF761
:10283800F7FA68B108490B685B0709D0074B0390A2
:102848000293002301221846CDE900333DF09FF999
:1028580005B05DF804FB00BF3C31002077C70500D8
:1028680038B5124B1B789BB1114A137883F00103DA
:1028780013706BB10120FFF7A1FF0E4B1D784DB10E
:102888000020FFF795FFBDE838400020FFF79CBF08
:102898000020F0E7084B01201C78002CF1D0FFF74E
:1028A80093FF2846BDE83840FFF782BF3016022064
:1028B800DC690120E269012024E80120F0B54FF429
:1028C800FA608DB03DF072F90025274F274CFFF7CD
:1028D800C7FF3B78002B34D0254B1B78002B3ED00C
:1028E80004AE244B20213046234A00953BF014FEC9
:1028F800236803F00703022B0AD9204B0322029313
:10290800002321461846CDE9003303963DF03FF9F0
:102918003046FDF7CEFF411C304601F0E9FF68B1B3
:1029280023685B070AD0164B039002930023012209
:1029380021461846CDE900333DF029F90135EDB2BD
:102948000DE0226802F00702022A08D90D4A214642
:10295800CDE901321846032200933DF018F94FF4EF
:102968007A703DF023F9B2E724E801203C310020D9
:1029780023E8012096C70500A6C70500ACC70500D7
:10298800C2C70500E2C705001FB5134A13491070F6
:102998000A68034602F0070278B1022A08D9104BE8
:1029A8000322029300231846CDE900333DF0EFF8E7
:1029B80005B05DF804EB00F0C3BB022A06D9094A4A
:1029C8000090CDE9010203223DF0E1F805B05DF881
:1029D80004EB00F033BC00BF23E801203C310020A9
:1029E80006C8050030C80500F0B59E4D85B02B68B7
:1029F80003F00703022B4DD900249B4B03220293BB
:102A0800294623462046CDE900443DF0C0F82B680E
:102A180003F00703022B3DD9944B03220393944BF5
:102A28002946CDE901432046234600943DF0AFF8FE
:102A38002B6803F00703022B2CD98E4B0322039338
:102A48008D4B2946CDE901432046234600943DF0AD
:102A58009EF82B6803F00703022B1BD9874B032230
:102A68000393874B2946CDE901432046234600942A
:102A78003DF08DF82B6803F00703022B0AD9814B30
:102A88000322CDE9014329462346204603940094B6
:102A98003DF07DF800247C4F2346224621462046FF
:102AA800CDE9004402973DF072F82B6803F0070364
:102AB800022B17D9754E234603222046CDE901463D
:102AC800684900943DF063F82B6803F00703022B74
:102AD80008D9234603222046CDE9014661490094DE
:102AE8003DF055F8FFF7AEFD044680B12B685B0753
:102AF8000AD0674B039002930023CDE900330122EB
:102B0800184658493DF043F8204605B0F0BD01206D
:102B1800FFF74EFE4FF416703DF048F82046FFF7D9
:102B280047FEC8203DF042F80120FFF747FE4FF46A
:102B380016703DF03BF82046FFF740FEC8203DF0F8
:102B480035F80120FFF740FE4FF416703DF02EF8DF
:102B58002046FFF739FEC8203DF028F80120FFF78E
:102B680027FE0120FFF72AFE0120FFF72DFE4FF474
:102B780016703DF01BF82046FFF71AFE2046FFF7B7
:102B88001DFE2046FFF720FE2B6803F00703022BEB
:102B980009D9404B0322CDE9014320462346314958
:102BA80000943CF0F4FFFEF70BFE044628B12B68B6
:102BB8005F07A9D0384B03909DE7FEF7F7FD044661
:102BC80028B12B685E079FD0344B039093E7344BB2
:102BD80002460146CDE900000293034606463CF052
:102BE800D6FFFFF7C3F82B68044640B15D078BD0CA
:102BF8002C4B0390CDE90163009633467FE703F041
:102C08000703022B08D9284B0322CDE901031549F4
:102C1800034600903CF0BBFF0024FFF7DBF8234697
:102C2800224621462046CDE9004402973CF0AFFFFA
:102C38002B6803F00703022B09D91C4B0322CDE9AB
:102C4800014320462346074900943CF0A0FFFFF7C4
:102C580029FB2B68044668B358073FF455AF144B5B
:102C6800039448E73C31002056C8050062C80500B7
:102C780066C8050070C8050076C805008CC8050040
:102C8800ACC80500C2C80500F1E50500D4C80500B8
:102C9800EAC8050090C005000DC905002AC905004D
:102CA8004BC9050079C905009EC90500B1C90500D1
:102CB800C9C9050003F00703022B17D99B4B032250
:102CC800CDE901039A49034600903CF060FF2B6868
:102CD80003F00703022B09D9964B0322CDE90143E0
:102CE80020462346924900943CF051FF00244FF4BB
:102CF800FA70FFF73DFB2346224621462046CDE9E0
:102D0800004402973CF043FF2B6803F00703022BB3
:102D180009D9894B0322CDE901432046234684493A
:102D280000943CF034FF0120FFF748FD0020FFF736
:102D380045FD01F055FC2A680346002850D051078C
:102D48000AD07E4B03900293002301221846CDE956
:102D5800003377493CF01BFF0024029723462246A4
:102D680021462046CDE900443CF011FF2B6803F0D2
:102D78000703022B09D9724B0322CDE901432046F0
:102D880023466B4900943CF002FF0120FFF71CFD2D
:102D98006C48FFF73FF8FFF787F8044668B32B68DD
:102DA8005A070AD0684B0390029300230122184661
:102DB800CDE900335E493CF0EAFE0525634E304616
:102DC8003CF0D0FEB0FA80F04009FFF7FDFCC820C7
:102DD8003CF0ECFE013DF2D12846FFF7F5FC93E606
:102DE80002F00702022AB7D9594A5149CDE901022E
:102DF800009003223CF0CBFEAEE7FFF7E5FC23464C
:102E0800224621462046CDE9014700943CF0BFFE0A
:102E18002B6803F00703022B09D94E4B0322CDE997
:102E2800014320462346424900943CF0B0FE01206D
:102E3800FFF7BEFC0120FFF7C1FC4FF47A703CF0AD
:102E4800B5FE454800F076F900F07AFA044660B31A
:102E58002B685B070AD0414B0390029300230122A1
:102E68001846CDE9003332493CF091FE05253C4F28
:102E78003C4E38463CF076FEB0FA80F04009FFF749
:102E880097FC30463CF06EFEB0FA80F04009FFF740
:102E980095FCC8203CF08AFE013DEAD12846FFF7A0
:102EA80087FC2846FFF78AFC2EE6FFF76DFD2B68A6
:102EB80003F00703022B09D92B4B0322CDE9014369
:102EC800204623461A4900943CF061FE0020FFF793
:102ED8006FFC0020FFF772FC2B6803F00703022B3E
:102EE80009D9224B03220293002311491846CDE940
:102EF80000333CF04CFE0120FFF766FC4FF47A707B
:102F08003CF054FE0020FFF75FFC2B6803F007033A
:102F1800022B7FF6F9AD164B0322029300230449D6
:102F28001846CDE900333CF032FEEDE5F2C9050064
:102F38003C31002009CA050047CA050062CA0500DD
:102F4800A4CA0500DD270000BBCA0500F85C05001F
:102F580085CA0500D5CA050031280000F1CA050058
:102F6800085D0500005D050010CB05003ECB05009F
:102F78005ECB05000146024882685268104700BFD0
:102F8800C04C050000232DE9F0435D4C87B0226852
:102F9800049302F00702022A08D95A4A2146CDE9C9
:102FA80001321846032200933CF039FE564D57492A
:102FB800AB6828461B6898470028554E2ADB554FB2
:102FC800DFF86C81327802F0FF03002A35D12268DD
:102FD80002F00702022A08D94F4A1846CDE9013201
:102FE8004749032200933CF01AFE0020FFF7C2FF76
:102FF80000281FDA236813F0060F1BD0474B0390F5
:103008000293002302221846CDE900333C493CF0E4
:1030180006FE0FE0236859070AD0414B039002933C
:10302800002301221846CDE9003335493CF0F7FD6D
:103038000023337007B0BDE8F0830120FFF79AFF43
:10304800002813DA23685A070AD0364B03900293F4
:10305800002301221846CDE9003329493CF0DFFD61
:10306800002140F6CD4037F0DFFEABE74FF47A722F
:10307800AB680092D3F808900021284605AB04AA53
:10308800C847002818DA23685B070AD0264B039044
:103098000293002301221846CDE9003318493CF079
:1030A800BEFD0020FFF766FF40F6CD40002137F057
:1030B800BBFE0023049385E70020FFF75BFF002891
:1030C8000EDA236813F0060F0AD0184B0390029308
:1030D800002302221846CDE9003309493CF09FFD40
:1030E8003B682BB1049818B1059B0BB13B68984716
:1030F800049900293FF466AF404650F0E9FBD8E751
:103108004431002082CB0500C04C0500D0230020AC
:1031180025E801203C8C0020EDCB050006CC0500FD
:103128009ACB0500B8CB0500D7CB05000CCC050021
:10313800E4310020014B1860704700BF3C8C002030
:103148001FB54FF4003134483CF040FD00280DDA3B
:1031580032490B685B0709D0314B03900293002377
:1031680001221846CDE900333CF059FD00212A48D8
:103178003CF041FD00280DDA28490B685A0709D0B0
:10318800284B03900293002301221846CDE900330F
:103198003CF045FD4FF4803123483CF017FD0028F2
:1031A8000DDA1E490B685B0709D0204B0390029388
:1031B800002301221846CDE900333CF030FD4FF4DE
:1031C80000311B483CF002FD00280DDA13490B685A
:1031D8005A0709D0174B039002930023012218467F
:1031E800CDE900333CF01BFD002111483CF003FD04
:1031F80000280DDA09490B685B0709D00E4B0390CC
:103208000293002301221846CDE900333CF007FD64
:1032180005B05DF804FB00BF185D050044310020CF
:103228002ACC050046CC0500105D05005CCC0500E5
:10323800205D050077CC050090CC05001FB54FF444
:10324800003136483CF0C2FC00280DDA34490B68DE
:103258005B0709D0334B03900293002301221846E1
:10326800CDE900333CF0DBFC01212C483CF0C3FCE9
:1032780000280DDA2A490B685A0709D02A4B03900F
:103288000293002301221846CDE900333CF0C7FC25
:103298004FF4803125483CF099FC00280DDA20498C
:1032A8000B685B0709D0224B03900293002301228D
:1032B8001846CDE900333CF0B2FC4FF400311D480C
:1032C8003CF084FC00280DDA15490B685A0709D030
:1032D800194B03900293002301221846CDE90033CD
:1032E8003CF09DFC012113483CF085FC00280DDAD8
:1032F8000B490B685B0709D0104B0390029300231E
:1033080001221846CDE900333CF089FCA4200021B5
:1033180005B05DF804EB37F087BD00BF185D050008
:10332800443100202ACC050046CC0500105D05007C
:103338005CCC0500205D050077CC050090CC05002D
:10334800F0B5294E294D337889B003F0FF04002BDE
:103358003FD10127FFF772FF377000220023CDE924
:10336800062305234FF48062CDE90243CDE90044EA
:103378001F4B20492048049437F094FA1F4A03460B
:10338800106090B92A68520707D01D4A2946CDE92E
:10339800010200903A463CF042FCFFF7D1FE0023C0
:1033A8004FF0FF30337009B0F0BD164937F0B8F967
:1033B8002B6803F00703022B09D9134B0322CDE92D
:1033C800014323460094294618463CF028FC002077
:1033D800E9E72B6813F0060FF9D00C4B0222029391
:1033E8000023CDE90033EEE725E801204431002031
:1033F8008D2F000028D50320A83A0020388C002003
:10340800A3CC0500BFCC0500C8CC0500DBCC05006B
:103418007FB5002405460E462222094901A8CDE9B8
:1034280001448DF80C400EF0C7FA3246294601A82F
:103438000EF0C2FB01A80EF075FB204604B070BD6B
:1034480027E8012010B5C6B03CF007FC044620214F
:103458000F4B104A009010483BF05EF8204650F0A1
:10346800EAFF0D4804A90EF0EFFB78B10B490B6891
:103478005B0708D00A4B0122029300231846CDE9C6
:1034880000333CF0DBFB002046B010BD4598FBE75D
:10349800FACC050000CD050047E80120683100207E
:1034A8001DCD050030B5002489B00322264905A8A2
:1034B800CDE905448DF81C400EF07EFA0028234D16
:1034C80011DA2B6859070AD0214B0390CDE9014343
:1034D800012223462946204600943CF0AFFB4FF0DA
:1034E800FF3009B030BD2246214605A80EF088FB02
:1034F800002805DA2B685A07F1D0164B0390E5E748
:10350800042204A905A80EF033FB002805DA2B686D
:103518005B07E4D0104B0390D8E705A80EF002FB38
:103528002B6803F00703022B0BD9049B0322039398
:103538000A4B2946CDE901432046234600943CF036
:103548007DFB0498CDE700BF3BCD05006831002026
:1035580049CD050075CD05008BCD0500A1CD050031
:10356800014B1878704700BF26E801200548036919
:103578001B689B0583684FF4007154BFDB681B69A7
:10358800184700BFA04B0500054802698168136809
:1035980023F4007313600B684FF4003209211847B5
:1035A800A04B05002DE9F74F3E4B06461B78914688
:1035B80043B93D4941F05AFF4FF0FF34204603B06C
:1035C800BDE8F08F022905D8384941F04FFF6FF068
:1035D8001504F3E70022D9F8040011463BF03EF841
:1035E8008046D9F80800FDF764F94708384650F0D6
:1035F80029FF0546E8B1002400F1FF3A4FEA470BDE
:10360800A3454FF000031BD1DFF8B090FFF7BCFFD4
:10361800FFF7ACFF0121484609F0BEFF041E23DA7C
:1036280030462246224941F021FF284650F003FF48
:10363800C4E730461F4941F019FF6FF00B04BDE79E
:10364800D9F8082001A8115D22448DF80410527899
:1036580000218DF8052010228DF806303AF0FEFF83
:1036680002340AF8010FCBE7D9F808302A465C681B
:1036780041463B464846A047041E0CDA22463046DF
:103688000D4941F0F3FE284650F0D5FE00210B48C5
:1036980009F082FF92E743463A463046084941F02E
:1036A800C9FEF0E768E80120B9CD0500D7CD0500CF
:1036B8000BCE0500F0CD050028CE0500D84C05003E
:1036C80047CE050030B51E4B05461B7885B03BB983
:1036D8001C4941F0CBFE4FF0FF34204605B030BD09
:1036E800FFF752FFFFF742FF0121174809F054FF87
:1036F800021E03DA2846154941F0B8FE12488368CD
:103708009B696BB103A99847041E0CDA2246284628
:103718000F4941F0ABFE00210B4809F03DFFDCE703
:103728006FF08504F2E79DF80E30284600939DF867
:103738000C209DF80D30074941F07CFEEBE700BFF7
:1037480068E80120B9CD0500D84C05000BCE05006E
:1037580061CE05007FCE05002DE9F0432C4B0746CE
:103768001B78144685B043B92A4941F07FFE4FF0D3
:10377800FF34204605B0BDE8F083022905D8264964
:1037880041F074FE6FF01504F3E7002260681146FB
:103798003AF064FF002206461146A0683AF05EFF40
:1037A8000546FFF7F1FEFFF7E1FE01211B4809F08E
:1037B800F3FE041E1BDBDFF864909DB1102DA846B4
:1037C80028BF4FF01008D9F808306A461C683146FF
:1037D80043461248A047041E0FDA224638461049CD
:1037E80041F044FE00210D4809F0D6FEC1E722460B
:1037F80038460C4941F03AFEBBE7314643466A4633
:1038080038460BF0E5F84644A5EB0805D5E700BFB8
:1038180068E80120B9CD050099CE0500D84C05000F
:10382800B4CE05000BCE0500F0B51346294A05466F
:10383800127885B03AB9284941F018FE4FF0FF34A4
:10384800204605B0F0BD012905D8244941F00EFEF7
:103858006FF01504F4E70022586811463AF0FEFEAE
:103868001F4F0646FFF790FEFFF780FE01213846FE
:1038780009F092FE041E05DA22462846194941F04D
:10388800F5FDDDE73146384601AA4BF002FC041E7F
:1038980009DA22461449284641F0E8FD002110487B
:1038A80009F07AFECCE7029ABB689B683BB13146C7
:1038B80038469847041E05DA22460C49EBE76FF0B4
:1038C8005704F9E733462846029A094941F0B2FD00
:1038D800E4E700BF68E80120B9CD0500D4CE0500B3
:1038E800D84C05000BCE0500EDCE050011CF050024
:1038F8002DCF05001FB501220B46144993420A70CB
:103908001349086800F007000DD1022808D9114BA7
:103918000293002303221846CDE900333CF0DCF97A
:1039280005B05DF804FB23B90228F9D90A4A0292C6
:10393800F0E70028F4D00393084B029300231846BD
:10394800CDE900333CF0C8F9EAE700BF6FE8012091
:1039580090310020C0C10500E4C105000BC205007C
:103968002DE9F047944F98463B68814603F00703DA
:10397800022B154688B01BD90024904B03220293D2
:10398800394623462046CDE900443CF0A5F93B687A
:1039980003F00703022B0BD92B7803220393884BE0
:1039A8003946CDE901432046234600943CF094F97A
:1039B8000023B8F1060F8DF81C3012D0B8F1020FB1
:1039C8006AD03A6802F00702022A08D97D4A0093B1
:1039D800CDE901320322184677493CF07DF90625E6
:1039E80026E0D5F8024095F800A06E7824BA0025A4
:1039F800754B2A46029329462B462846CDE904648E
:103A0800CDE90055CDF80CA03CF066F9002E48D160
:103A18003B6803F00703022B09D96C4B0096CDE9EC
:103A2800016333460322184663493CF055F90325E0
:103A38003B688DF81C5003F00703022B1CD90024A7
:103A4800634B0322029320462346CDE900445A499A
:103A5800CDF80C803CF040F93B6803F00703022BDB
:103A68000AD95C4B0322CDE901432046234652493B
:103A7800039500943CF030F9574B07AA196848465B
:103A8800012314313CF013F94FF4FA703CF033F988
:103A9800404608B0BDE8F0871C4695F800A06E784F
:103AA800A5E74E4B3A68197802F00702B14207D2EF
:103AB800022ABCD94A4B0095CDE901532B46B1E700
:103AC800BAF1030F08D80AF1FF3ABAF1020F0FD87A
:103AD800DFE80AF064686A00BAF1320F69D0022A96
:103AE8007FF67DAF3F4B0095CDE901532B4671E73B
:103AF8003D4B701EB14253F820301BD1022A09D920
:103B08003A4B0322029300232B491846CDE9003390
:103B18003CF0E2F84FF4DC72B4FBF2F302FB13431F
:103B2800334AE31A1360334B1E70334B01221A7069
:103B380000257DE763B9022A08D9304A1846CDE93D
:103B480001321D49032200933CF0C6F804256FE7B3
:103B58009C420DD9022A09D9294B0322029300233A
:103B680015491846CDE900333CF0B6F805255FE75E
:103B7800022A09D9234B0322029300230E4918462F
:103B8800CDE900333CF0A8F84FF4DC72B4FBF2F353
:103B980002FB1343E41A164B1C60C4E71A4B1E7051
:103BA8001A4BC3E71A4BC1E700221A4B1A601A4B8B
:103BB800BCE71A4B1D70BBE790310020BBCF050056
:103BC800D9CF0500E7CF0500F7CF05002BD00500BA
:103BD800C4D00500E0D005000424002067E80120D7
:103BE80040D00500B2D00500408C002053D005001D
:103BF8004C8C0020BA2F00206EE801206CD0050004
:103C08007BD0050097D005006BE801206CE8012007
:103C18006AE80120488C00206DE8012069E801204D
:103C2800F0B5044687B00A2016461F460D463CF0FC
:103C380062F80A4B29461A685B68049205930823C0
:103C4800029304AB0193BDF830303246009320460E
:103C58003B4646F057FE07B0F0BD00BF408C002041
:103C6800F8B50446204E30464FF05AFD30B9326858
:103C78001E49204641F0FAFB0020F8BD34F028FD2B
:103C880020461B4A1B4941F0D5FB1B4D1A212A69C6
:103C9800AF681368284643F0806313603B68174A8F
:103CA8009847021E01DA1649E3E7BF6957B14FF496
:103CB80080024FF000731A212846B847021E04DA22
:103CC8001049D6E76FF05702FAE720460E4941F04F
:103CD800B1FB0021304609F05FFC021E01DA0B49F6
:103CE800C7E740F053FC00BF004C0500ECD00500CE
:103CF80004D1050010D10500B84B050011000100E2
:103D080026D105004ED1050080D10500B0D10500AF
:103D1800BFF34F8F0549064BCA6802F4E0621343AC
:103D2800CB60BFF34F8F00BFFDE700BF00ED00E0A1
:103D38000400FA051FB5104C4FF4A17221460F4834
:103D480040F00BFE0E4BB0F5A17F186010D00D4966
:103D58000B685B0709D00C4B0390029300230122E8
:103D68001846CDE900333BF0ECFF002004B010BD4D
:103D7800228801201A60F9E7AEEC01205C8C002053
:103D8800588C002098310020E0D10500F0B50D4690
:103D980010491F460B68044603F00703022B16461A
:103DA80085B008D90C4B0322029300231846CDE9AD
:103DB80000333BF0C6FF14230293084B32460193AD
:103DC800BDF828302946009320463B4646F09AFD28
:103DD80005B0F0BD9831002014D2050032D205009C
:103DE8002DE9F0473B4D1C462B68064603F00703B8
:103DF800022B0F4692468CB00AD9374B0322029306
:103E0800002329461846CDE9003303943BF099FF77
:103E18004FF000081C22414605A8CDF810800DF18E
:103E2800100950F059FB1F2C2246514628BF1F226B
:103E3800484650F02AFB2B6803F00703022B0CD9E5
:103E4800264B0322CDE90183404643462149CDF85C
:103E58000C90CDF800803BF074FF042248462049BE
:103E680050F084FB0346C8B92A6802F00702022A08
:103E780007D91C4A1749CDE90102009003223BF0FB
:103E880060FF0120FEF780FD1123174A39463046AE
:103E98003BF042FF20460CB0BDE8F08705224846BB
:103EA800124950F063FB03460028F3D12A6802F058
:103EB8000702022A07D90E4A0649CDE901020090F5
:103EC80003223BF03EFF0020FEF75EFD1223094A65
:103ED800DCE700BF9831002047D2050071D2050009
:103EE80086D205008BD205009ED2050050C8050079
:103EF800B0D20500C4D20500F0B50024184B194D06
:103F08001C70194B06461C702B680F4603F00703FC
:103F1800022B85B019D9154B0322CDE90143294657
:103F28002346204600943BF00CFF2B6803F0070360
:103F3800022B0AD90E4B0322CDE901432946234619
:103F48002046039700943BF0FCFE304614F07CF9C1
:103F58000023084A1360084A138005B0F0BD00BF6B
:103F680024E80120983100206FE80120D7D205000D
:103F7800F6D20500908C0020B867012010B588B0F3
:103F88000DF11E00FDF7BCFB88BBBDF81E100DF13E
:103F98001D003BF034FD044648BB9DF81D30024629
:103FA8000493BDF81E3001460393184B0090CDE9E9
:103FB800010303463BF0C5FE9DF81D0009F07AFB9E
:103FC80068B113490B685A0709D0124B0390CDE921
:103FD800014301222346204600943BF0B2FE4FF4F1
:103FE800F02200230C4836F095FB08B010BD0849B4
:103FF8000B685B07F3D0094B012202930023184694
:10400800CDE900333BF09DFEE9E700BF01D3050091
:104018009831002023D30500F020002044D3050068
:1040280070B51E4D0E462B6886B003F00703022BB1
:1040380030D900241A4B03220293294623462046EE
:10404800CDE900443BF07DFE2B6803F00703022B0B
:1040580020D9738803220493338829460393114B8C
:104068002046CDE90143009423463BF06AFE2B68C5
:1040780003F00703022B0DD9F38803220493B388B6
:1040880029460393084B2046CDE901430094234673
:104098003BF057FE012006B070BD00BF98310020EC
:1040A80061D305009AD30500C5D305002DE9F04179
:1040B800144D98462B680E4603F00703022B17464B
:1040C80086B01CD90024104B0322029329462346AC
:1040D8002046CDE900443BF034FE2B6803F007038B
:1040E800022B0CD9094B0322CDE90143294623466B
:1040F8002046CDE90478039600943BF022FE06B0F2
:10410800BDE8F08198310020DED30500FDD305001D
:1041180010B50C460E4988B00B6803F00703022B54
:1041280010D9E38803220693A38805936388049330
:1041380023880393074B029300231846CDE90033E5
:104148003BF0FFFD2288044B1A8008B010BD00BF69
:104158009831002028D40500B8670120F0B50F4633
:1041680017491C460B68064603F00703022B154641
:1041780087B008D9134B0322029300231846CDE9D0
:1041880000333BF0DEFD012C07D12B78062B13D131
:10419800A8220D4B1A77FFF7BBFD022C0CD12B7808
:1041A800012B09D1102239468DF8172030460DF120
:1041B80017023BF0B1FDEBE7204607B0F0BD00BFAA
:1041C8009831002069D40500005500501FB50B46F2
:1041D8001349012B0A6802F007020DD1022A08D9F7
:1041E800104B0293002303221846CDE900333BF01D
:1041F800A8FD05B05DF804FB23B9022AF9D90A4ADB
:104208000292F0E7022AF4D90393084B032202939F
:1042180000231846CDE900333BF093FDE9E700BFE2
:1042280098310020C0C10500E4C105000BC205009B
:10423800F0B50D4610491F460B68044603F0070306
:10424800022B164685B008D90C4B03220293002393
:104258001846CDE900333BF074FD0023CDE9013366
:10426800BDF828303246009329463B46204646F0A2
:1042780049FB05B0F0BD00BF9831002089D4050086
:10428800F0B5164614220D4611491F460B6887B033
:1042980003F00703022B04468DF8142009D90D4BAF
:1042A80003920293002303221846CDE900333BF022
:1042B80048FD0123029305AB0193BDF83030324627
:1042C800009329463B46204646F01CFB07B0F0BD4C
:1042D80098310020A8D405002DE9F0410E464FF092
:1042E800010892B007462822002108A850F0F4F8E7
:1042F8005B4B5C4C83F8008086B123685A070AD070
:10430800594B039602930023CDE9003342462146D8
:1043180018463BF016FD12B0BDE8F081384608A9F2
:1043280014F02AFC10F0FF00236808D05B07F2D0D5
:104338004E4B0390CDE9016300963346E6E703F060
:104348000703022B08D94A4B0322CDE90103214672
:10435800034600903BF0F5FC384645F0D0F8454B55
:104368001860109B1A88444B1A80236803F00703CF
:10437800022B5BD90025414B0322029328462B468A
:10438800CDE9005537493BF0DCFC236803F007030F
:10439800022B4BD9BDF8383003220593BDF83630CF
:1043A80028460493BDF834302E490393344B0095C6
:1043B800CDE901532B463BF0C4FC236803F0070307
:1043C800022B33D900250F9A284613785278042BEC
:1043D80096BF2C492C4B51F82330042A96BF294903
:1043E800294A51F82220CDE90055CDE90332274B5F
:1043F800032202931B492B463BF0A3FC236803F0DE
:104408000703022B12D9109B2846DA881549069211
:104418009A8805925A8804921B88032203931C4B9E
:104428000095CDE901532B463BF08BFC40F6CD427D
:104438000023184836F03AF90122174B1A702368FE
:1044480003F00703022B7FF666AF144B0322029397
:10445800002304491846CDE900333BF072FC5AE7C3
:104468006FE8012098310020D3D40500E8D4050076
:104478000FD50500908C0020B86701202BD50500CA
:104488003FD50500E45D0500CBD4050066D50500E1
:1044980028D40500F020002024E801207BD5050061
:1044A8001FB5214C012922680B4602F0070223D1CF
:1044B800022A09D91D4B03220293002321461846DC
:1044C800CDE900333BF03DFC0023194AC2E9023331
:1044D800C2E9053353601361226802F00702022A19
:1044E80008D9144A1049CDE901320322009318462D
:1044F8003BF027FC04B010BD41B9022AFAD90E4A94
:104508000091CDE9011203222146F0E7002AF1D0FB
:104518000A4B039102930023012221461846CDE954
:1045280000333BF00EFCE5E798310020B1D50500DB
:104538005C8C0020DFD505000ED605003FD60500AF
:104548001FB5214C012922680B4602F0070223D12E
:10455800022A09D91D4B032202930023214618463B
:10456800CDE900333BF0EDFB0023194AC2E90233E1
:10457800C2E9053353601361226802F00702022A78
:1045880008D9144A1049CDE901320322009318468C
:104598003BF0D7FB04B010BD41B9022AFAD90E4A44
:1045A8000091CDE9011203222146F0E7022AF1D950
:1045B8000A4B039102930023032221461846CDE9B2
:1045C80000333BF0BEFBE5E79831002063D60500D9
:1045D8005C8C0020DFD5050092D605000BC20500D3
:1045E80070B55D488EB014F019FA002012F060F82A
:1045F80004465A4E4FF4004000213BF0B1FB3368AB
:104608007CB158070AD0564B012202930023314649
:10461800CDE90033039418463BF093FB20460EB0D7
:1046280070BD03F00703022B09D94E4B0322CDE9D5
:10463800014331462346204600943BF082FB4FF469
:10464800A072002148484FF047FF484816F030FC58
:10465800474D484816F02CFC09AC474816F028FC92
:104668000FCD0FC42B680322236002234349009314
:1046780009A8434B13F05EF83368044650B1590754
:10468800CCD0404B0122029300233449CDE90033BA
:104698000390C0E703F00703022B19D93A4B032212
:1046A800CDE901032D49034600903BF04AFB3368EE
:1046B80003F00703022B0BD9344B03220393344B2B
:1046C8002046CDE901432549234600943BF039FBB8
:1046D800FDF776F80546FDF769F855EA00033268F4
:1046E8002BD052070AD003932A4B012202930023AE
:1046F8001A491846CDE900333BF023FB4FF4215308
:10470800254AD361254B13600023C2E90233C2E96D
:10471800053353601361002000210722CDE906010B
:10472800CDE90232CDE9003304934FF480521C4B9B
:104738001C491D4836F0B6F870E702F00702022A55
:10474800DCD91A4A1846CDE90132044903220093FC
:104758003BF0F7FAD2E700BF9C26002098310020F2
:10476800C4D60500EDD6050070E801200424002019
:10477800A05805007C250020F4240020085E0500D0
:10478800F85D05000DD705003CD705007BD705006F
:104798007FD705000DC905005C8C0020F0ED0120D5
:1047A800494B000028D90320A03B00208FD70500E3
:1047B800014B1868704700BF908C002014222DE927
:1047C800F047444D074628680C46B0FBF2F302FB5D
:1047D80013038AB0F3B98C46082906A928BF4FF0FD
:1047E800080C0E46CDE90633CDE908339C452ADC92
:1047F80039490B6803F00703022B0BD9374B039099
:104808000293002303221846CDE90446CDE900337C
:104818003BF097FA00262B68DFF8C88001332B603D
:104828002F4DC4F3072908F1020AB4F5A07F15D962
:104838002949022E0B6803F0060325D1002B3CD131
:104848006FF068001DE0FA5C0133A2F1200EBEF1A2
:104858005E0F88BF2E2201F8012BC7E72246394692
:10486800504688F8004088F801904FF00EFE4FF44B
:10487800A17228461B4940F020F8B0F5A17FD7D196
:1048880000200AB0BDE8F08701364BB1164B022272
:104898000293002303961846CDE900333BF051FA02
:1048A80000234FF4A4700021C5E90233C5E905339C
:1048B8006B602B613BF054FAB7E7032303930B4B70
:1048C80032460293002304941846CDE900333BF0A6
:1048D80038FAB5E7508C002098310020A3D705009E
:1048E8005C8C00206CEB0120E1D7050013D8050093
:1048F8002DE9FF47DFF898815A4CD8F80030064672
:104908000F46226883B912F0060F08D0564A21468E
:10491800CDE901321846022200933BF012FA6FF0FB
:104928007F0004B0BDE8F08702F00702022A0AD926
:104938004E4B039002930023032221461846CDE9EB
:1049480000333BF0FEF900251423494A494903FB8B
:1049580005F0105888425AD1236803F00703022B48
:104968000AD9454B0322029300233E491846CDE954
:10497800003303953BF0E5F94FF0140ADFF8149182
:104988000AFB05FAD9F800100122D8F800005144B2
:1049980046F08BF8034600284CD0D9F80010324670
:1049A800D8F80000BBB251443BF0B6F90028B8D0A3
:1049B80023685B070AD0314B03900293002301223E
:1049C8001846CDE9003327493BF0BBF9D9F8001068
:1049D8000122D8F80000143146F067F80346002891
:1049E80034D0236803F00703022B09D9244B032290
:1049F800029300231B491846CDE900333BF0A1F987
:104A08003946304604B0BDE8F047FFF7D7BE013558
:104A1800092D9CD123685A0701D10425ACE7194B0D
:104A28000122029300230F491846CDE900333BF0D9
:104A380088F9F2E7226812F0060FC7D0124A09492E
:104A4800CDE90102039502220090BDE7226812F029
:104A5800060F3FF464AF0D4A0249CDE90102009008
:104A680002225AE79831002057D8050081D805005E
:104A78008825002013300020A3D80500F7D80500AA
:104A880073D90500C9D805003BD905009FD9050091
:104A9800908C00207C2500202DE9F843FFF74AF987
:104AA8000646F8B1DFF87C801B4FD8F800203B8819
:104AB800D1B24D1C5FFA85F953FA85F5B5F5DC7F5F
:104AC800164C12DBE15420464FF4DC71FEF7A0FCD3
:104AD8002046D8F80020124900F8012BA7F80090CA
:104AE8004FF0D3FC3046BDE8F88340F2B71C581CA1
:104AF8006545E15420440A4909D14FF0C6FC00231A
:104B08004FF4DC7120463B80FEF782FCEAE74FF069
:104B1800BCFC3D80E6E700BFB467012070E80120D7
:104B2800B0EC0120588C002010B50120FEF78AFC5B
:104B3800024C2060FEF7B6FC606010BD408C00207F
:104B48002DE9F04F2DED028B4FF48040002197B0F6
:104B58003BF006F94FF09AFA4FF47A720026A0FB60
:104B6800020302FB0133C00B40EA4343DFF8FC8237
:104B78000A93AD4B1868002800F0A48144F0BFFCEC
:104B8800AA4B08901B88632B3FD900283DD0DFF83B
:104B9800E0B20122DBF80010143145F086FFA0B323
:104BA800731D0C93FFF7C6F8A0B1DBF800100122C3
:104BB8000898143145F079FF034670BB9C490A6890
:104BC80012F0060F06D09B4A0090CDE9010202229E
:104BD8003BF0B7F84FF05AFA4FF47A72A0FB020391
:104BE80002FB013341F28732C00B40EA43440A9B7F
:104BF8000025E31A934208D98D4F3A6802F007025C
:104C0800022A00F2398100260A94089813F01CFB46
:104C1800A42000213BF0A4F8ABE71422864DDFF86E
:104C28001C922B68D9F800A0B3FBF2F402FB1434F1
:104C3800002C4ED001332B604FF0000AD146CDF83E
:104C480024A07E4B5FFA8AF11A684A4500F28C80EC
:104C58007B4D2A69AB689B1A41F6306293421DD995
:104C680073490A6812F0060F11D064224FF42150DC
:104C78005A430393734BB2FBF0F202930023CDE93E
:104C88000402CDE90033022218463BF05AF800230B
:104C9800C5E90233C5E905336B602B6184B9644902
:104CA8000B6803F00703022B0AD9099B032203931D
:104CB800654B2046CDE90143009423463BF041F87B
:104CC800099B002B86D00C9B01369E427FF46AAF6D
:104CD80080E7574F3A6802F00702022A35D9CDE932
:104CE80003A35A4B0322CDE9014339462346204604
:104CF80000943BF026F82B68D9F800A001332B600C
:104D0800BAF1630F98D800251C2229460FA80E95E2
:104D18004FF0E2FBBAF1100F0EAA28BF4FF0100AAD
:104D280010464B49AA4513DC3B6803F00703022BE6
:104D380082D9484B03900293002303221846CDE9F9
:104D480000333B493AF0FDFF76E701332B60D7E7A4
:104D580011F8013F0135A3F1200CBCF15E0F88BFAB
:104D68002E2302F8013BDDE73B48A2EB090203884A
:104D780088F802105D1C05802C483849058888F899
:104D88000030033D954228BF15461B0A49442A4670
:104D9800334888F801304FF078FB03230B93EB1866
:104DA8009BB2A9440D93DBF8001042460D9B08986E
:104DB80014313AF0B1FF0746002830D00CBB1C492B
:104DC8000B685B071DD0274B0390CDE901430122F7
:104DD8002346204600943AF0B4FF15490B6803F0C7
:104DE8000703022B0DD9EB1C0493104B03221B88DD
:104DF800204603931C4B0094CDE9014323463AF027
:104E0800A0FF0C37012F07D8A42000213AF0A8FFF3
:104E18000B9B013B0B93C6D10AF1010A11E7099BD1
:104E280001330993F8E700BF908C0020B867012090
:104E380098310020D4D90500548C0020588C0020CB
:104E48005C8C002097DA0500DCDA050017DA05002B
:104E5800AFEC012049DA0500B6670120B0EC01206B
:104E68002CEA01205FDA05007EDA050029EA012034
:104E78007C25002000007A4407EE903A1FED037A63
:104E8800F8EE677A87EE878A07EE906AF8EE677A17
:104E9800C7EE887A17EE900AFBF7BEFACDE906014D
:104EA80018EE100AFBF7B8FA214BCDE90401CDE959
:104EB800015303222B4639462846039600953AF0BB
:104EC80040FFA0E61B4B1C788CB91B4B5B6813F1A9
:104ED800011F0CD84FF0FF324FF0FF33174835F061
:104EE80073F8FEF73DFB28B9144835F0E5F84FF4A0
:104EF80024708EE6FFF7D0FD0546104835F0DCF843
:104F0800002DF4D00E4D2B780133DBB2FF2B2B7024
:104F1800EDD1FFF709FE0B4B2C702246CDE901437A
:104F280021462346204600943AF00BFFDFE700BFF6
:104F380003DB05006FE80120408C00207C8C0020FA
:104F480028EA012048DB05002DE9F84F15464A43B9
:104F58004FEA420B0C460BF1070121F0070100AFA5
:104F6800ADEB010D69464FEA450E43B99C46AB428D
:104F780028DA002600EB430801EB4C091DE0144B2E
:104F880003EB85080023AB421CDA002600EB430C38
:104F980009E058F82320BCF800A002FB0469F44497
:104FA80021F819A00136A642F3DB0133EBE7B8F884
:104FB80000A0013629F802ABF044A642F7DB013322
:104FC800A444D4E75A464FF060FABD46BDE8F88FCE
:104FD800185E05002DE9F84F15464A434FEA420B83
:104FE8000C460BF1070121F0070100AFADEB010DF5
:104FF80069464FEA450E43B99846AB4228DA00267F
:1050080000EB480901EB430C1DE0144B03EB85084A
:105018000023AB421CDA002601EB430C09E058F8E8
:10502800232002FB046930F819900136ACF800908F
:10503800F444A642F3DB0133EBE739F902AB01365E
:10504800ACF800A0F444A642F7DB0133A044D4E74F
:105058005A464FF01AFABD46BDE8F88F185E0500AB
:10506800B1F5807F024610B502D9B0FBF1F010BD52
:105078004B420B40B3FA83F3C3F12004C3F11F037F
:10508800D840064B21FA04F453F82430A3FB00302F
:1050980000FB1122914298BF0130E8E7D472050065
:1050A8002DE9F74FB2F1000A04460E46174618BF1D
:1050B8004FF0010A8B464FF000081D460368D0F8F0
:1050C8001C900093226A072A15DC62682ABBB8F193
:1050D800000F0CBF012302239A454FF0010808DA9C
:1050E8001DB1B6F900301B112B80012003B0BDE8BB
:1050F800F08FBB46E6E7009BA3B1BBF80010012286
:10510800C90B484601913CF05BFC0199226A083AB8
:1051180022626268002ADAD051B94FF48042ABF8B3
:105128000020D4E7012148463CF047FB0146EDE763
:10513800004AF4E700C0FFFF2DE9F04F8BB0CDE93E
:1051480005328368199E0793C36882460493436AAD
:10515800049A0893079BD0F800B01B6BD0F8108016
:1051680033F91250189BD0F81C9005EBC305159B1A
:10517800149F1C68039168103EB3022F25D139464D
:10518800103800FB01403AF0FCFD641BA4F11F033A
:105198009842A8BFA4F12000032823DCCEB1049BC9
:1051A800434532DABBF1000F40F09B80484604F0DB
:1051B80009F88046159B1B68102B04DDDAF82030AF
:1051C800102B00F3FA81002685E0790004380139B4
:1051D800D7E7BBF1000F1BD1484603F0F3FF804629
:1051E8003446D8E04028A8BF4020C44B00F007024E
:1051F80033F91240C010C0F10E000441013424F00C
:1052080001053EB1049B434526DBBBF1000FCDD021
:10521800012524E0BBF1000F21D1484603F0D2FF5D
:10522800179B8046012B65DC5C466E10731C03FBE4
:1052380003FABBF1000F00F06781A642C0F2558166
:1052480004FB0441621C4910534648460A4404F0D2
:1052580001F82946A00353E0BBF1000F43D0DDE974
:105268000510DAF82C30324600933B463EF0ECFD50
:105278000446484603F0A6FF012D804644D1002E7F
:1052880000F08980BBF1000F94D0B4F5005F40F3C3
:105298009281DAF83430002B40F08D81059A023A79
:1052A800BB42C0F28281DDE90521049B0798009387
:1052B8000197089B80683AF070FD159B1B68102BBE
:1052C80081DDDAF82030102B7FF77DAF02223146DE
:1052D80048463CF050FBDAF83440002C5BD00026FE
:1052E8007EE73546BBE7484603F06CFF022F804651
:1052F80000F3C980691C48463CF08EFA29468003B1
:10530800FFF7AEFE044645E005FB04F396B1DAF874
:105318003020002A40F0928003F50053022F4FEA14
:10532800A33410DC179B012B00F38280BBF1000F24
:105338007ED1DFE703F500539C13DAF83830002BF1
:105348004DD1179B71E005EBD57A4FEA6A0A0AF14D
:10535800010202EB42020AEB02015445C5BF04F107
:10536800FF30A0EB0A0004EB44008018C8BFA4EB90
:105378000A0A0B46D8BFC21C0146C8BF5244484659
:1053880003F068FFA0032946FFF76AFE0446002ED3
:1053980040F0E5800026484603F014FF159B159A57
:1053A8001B68A0EB08055B1B1360002C40F00B8109
:1053B8000123A04647F6FF79169A514F93401A9A4F
:1053C800013B12681A401A9B1A60039BC3E90069E3
:1053D800C3E90287C3E904450BB0BDE8F08F002C90
:1053E800AFDDA542ADDD2946A003FFF739FE8246B1
:1053F80000B23AF042FD0990CAF5804000B23AF096
:105408003CFD09993AF05AFD4FF480427B1EDB01BE
:1054180013FB0020159BC2131B68B3EBE03F5EDB58
:105428005B4293428DDD3446179B012B7FF7FDAE1F
:10543800214648466A1C3CF0F9FAA3E7B4F5005F38
:10544800CCBF47F6FF742F4C94FBF5F41C44A4130F
:1054580024EAE474AC42A8BF05F1FF34002A00DB5B
:105468000134022F7FF762AF05EBD57A4FEA6A0A5B
:105478000AF1010303EB430202EB0A01BBF1000F3F
:105488007FF46BAF07E04FEA640A0AF1010303EB0C
:10549800430202EB0A014846CDE90532049103F0C4
:1054A800ABFEDDE90413069A8242C7BF032390FBD3
:1054B800F3F4841AE418A245BBBF04F1FF30A0EB53
:1054C8000A0004EB440080180B460146B6BFA4EB63
:1054D8000A0AC21C524448463CF04CF9B9E6179BEC
:1054E8002C46012B3FF722AF9FE66A1CA91C121B12
:1054F800091B5143AAEB6101A6E600BF789C050091
:1055080000C0FFFF0180FFFF51464846049303F0A7
:1055180073FE049B5E43B0EB660F0CDAC0000130EB
:105528003CF081FF441E640804FB0441621C4910DE
:1055380053460A44CFE7AAEB0000C00007383CF006
:1055480072FF6C1C2246C0EB4400A91CA2EB50025F
:10555800A1EB500151434408AAEB6101E8E7C8B147
:10556800002145F6822C069B9D1E059B981E8F42A6
:105578007FF710AF35F8022F30F8023F1CFB02F21C
:105588001CFB03F3D6189B1AF613DB132E8003803B
:105598000131ECE7049B079800930197089B80680A
:1055A800DDE905213AF0F9FBF4E632F8021F013390
:1055B8004942118074E6002675E6022148463CF00F
:1055C800EAF8064687E6B4F5804F0FD10123169A0C
:1055D80027469340013B93401A9A47F6FF78126892
:1055E8004FF000091A401A9B1A60EEE620B23AF012
:1055F80044FC8146C4F5804000B23AF03EFC49467E
:1056080080463AF05BFC4FF48043013FFF0117FBF3
:105618000037FF13D9E600BF2DE9F04F044699B0D3
:105628008B461146BDF99420249808922268D4F834
:105638000C800D92A2681193099262690A92E2693C
:105648000B92099AD2F85CC0421C0C92099A956890
:10565800926D00FB0555454432F915A0421C1CF813
:105668000A500CEB0A0900F0EB8019F805200C32FF
:105678009A4280F2E580022940F3E28021F0010697
:105688000BEB06030B93229B00F1FF38012B08BF9D
:10569800269A4FEA610902BF02F0010343EA420376
:1056A8002693229B5A4601334FEA630A26AB069398
:1056B8000023CDE90483229B2046CDE902A311AB48
:1056C800CDE9009312A90B9BFFF736FDDDE91553D1
:1056D8000993BDF94C30179A0D93BDF950300E93CC
:1056E800229B012B15DD099BC3F30D038BB1099B8D
:1056F800B3F5005FDBBF4FEAC903C8F10501C8F184
:1057080004030B41CBBF45FA03F35B19ED1A03EA17
:10571800E375119F236A7D1B05EBD5756D10BD429E
:10572800A8BF3D469B1A0A932362239B25EAE57589
:105738007F1B002B48D01E44269BBD420C9343FA86
:105748000AF30F93229B4FEA63031093089B3DDBF8
:105758000D9A13FB02F303F5804343F3CF330C9AFE
:10576800CDE90283239B5946CDE900A304922B4639
:105778004A462046FFF750FF236A0A9A8346D31AFF
:10578800EB1A182B03DD099A0AB1183B1F440E9A2D
:10579800089B13FB02F30F9A03F5804343F3CF33BF
:1057A800CDE9028304923B464A462046CDE900A64D
:1057B8000B99FFF731FF109B00FA03F747EA0B0735
:1057C800384619B0BDE8F08F239EB5E70E9A13FB53
:1057D80002F30F9A03F5804343F3CF33CDE90283F5
:1057E800CDE900A63B46049220464A460B99FFF7AE
:1057F80013FF109B0A9A00FA03F6236AD31AFF1ABA
:10580800182F05DD099BB3F5804F1CBF183FED1914
:105818000D9A089B13FB02F303F5804343F3CF3340
:105828000C9ACDE90283239B0492CDE900A34A4652
:105838002B4659462046FFF7EFFE46EA0007BFE72A
:105848000627002203F1FF3E50190130401019F8D5
:105858000060B645D4BF05460246013FF4D119F8A9
:105868000500A0EB0E0022B9834226DD45B92A4681
:105878000BE019F80230AEEB030E8645F6DC154650
:10588800D4441CF805302A465D1C236A5B1B002B98
:10589800236228DA9AB96368002B91D00125229BEC
:1058A8009D40269B013D2B402693002B43D14A0067
:1058B800584619464EF010FE82E71546E5E7099866
:1058C8002B4423620C9EC56D8068013A00FB06805C
:1058D800099EB66D36F91000DDD005EB020C1CF8F8
:1058E80000500135D2E7002AD5D0072A06DD02F09C
:1058F8000703D2100833013A03FA02F20D9B7BB179
:10590800E36A5846049363680393089B02930B9BCE
:105918000193229B00930A9B3EF0F0F907464FE75C
:10592800089B584602930B9B0193229B00930A9B6A
:105938003EF028FAF2E7239ABAB10022164D174E24
:105948008A4216DB1D4609E0A36A00FB0363A362D3
:105958001B152BF8123001328A42F5DB5846E36AF0
:10596800089A3EF03EFA2F462AE7239A0A480B4E39
:10597800F2E7A06A239F05FB006010F4004FA062C5
:1059880014BF04206FF0030037F8127038442BF866
:1059980012000132D4E700BF0D6619005FF36E3CB8
:1059A8002DE9F04F16468FB00B931A9BDDE9184A84
:1059B8000C931B9B621E0A93BDF9703006900D93E1
:1059C80003680F46DDE91D5808938369214607934C
:1059D8005342534130460993FFF742FB012E834659
:1059E80008D1002239460A9B06980FB0BDE8F04F4F
:1059F800FFF756BB079B23EAE37985B1BAF1000F9D
:105A08000DD0002B05DC10F0010F00D10BB9012CD3
:105A180005DD5146284672004EF037FDAA4600259E
:105A28004D4557D10BFA09F54FF0000B44FA09F42C
:105A3800EB0703D4079B13EB0B0F6CD4012C14DD7D
:105A4800089B3BB13846099B04FA09F245FA09F16B
:105A5800FFF77AFABAF1000F07D05046099B04FA0B
:105A680009F245FA09F1FFF76FFA0D9BCDF810809E
:105A780003930C9B3246CDE901A339460B9B06984C
:105A88000094FFF7C9FD069B80465B68F3B1012CC3
:105A980007DD3846099B04FA09F245FA09F1FFF7D0
:105AA80099FA4FF0000AD3454DD100254FF0010B6C
:105AB800DFF8ECA04D4554D10A9B04FA05F5002BFC
:105AC8005AD10123AB40013B08EA030840460FB016
:105AD800BDE8F08F089B3BB10123384603FA05F275
