:1000000058AE042015F900005D67040001F90000F6
:1000100001F9000001F9000001F9000001F90000F8
:1000200000000000000000000000000021FB0000B4
:1000300001F9000000000000A5FA000001F900002D
:1000400039FD000039FD000039FD000039FD0000D8
:1000500039FD000039FD000039FD000039FD0000C8
:1000600039FD000039FD000039FD000039FD0000B8
:1000700039FD000039FD000039FD000039FD0000A8
:1000800039FD000039FD000039FD000039FD000098
:1000900039FD000039FD000039FD000039FD000088
:1000A00039FD000039FD000039FD000039FD000078
:1000B00039FD000039FD000039FD000039FD000068
:1000C00039FD000039FD000039FD000039FD000058
:1000D00039FD000039FD000039FD000039FD000048
:1000E00039FD000039FD000039FD000039FD000038
:1000F00039FD000039FD000039FD000039FD000028
:1001000039FD000039FD000039FD000039FD000017
:1001100039FD000039FD000039FD000039FD000007
:1001200039FD000039FD000039FD000039FD0000F7
:1001300039FD000039FD000039FD000039FD0000E7
:1001400039FD000039FD000039FD000039FD0000D7
:0401500039FD000075
:1001580081F0004102E000BF83F0004330B54FEA70
:1001680041044FEA430594EA050F08BF90EA020FDD
:100178001FBF54EA000C55EA020C7FEA645C7FEA70
:10018800655C00F0E2804FEA5454D4EB5555B8BF93
:100198006D420CDD2C4480EA020281EA030382EA04
:1001A800000083EA010180EA020281EA0303362D96
:1001B80088BF30BD11F0004F4FEA01314FF4801C69
:1001C8004CEA113102D0404261EB410113F0004F7B
:1001D8004FEA03334CEA133302D0524263EB430332
:1001E80094EA050F00F0A780A4F10104D5F1200ED0
:1001F8000DDB02FA0EFC22FA05F2801841F100012B
:1002080003FA0EF2801843FA05F359410EE0A5F1FE
:1002180020050EF1200E012A03FA0EFC28BF4CF02F
:10022800020C43FA05F3C01851EBE37101F00045E5
:1002380007D54FF0000EDCF1000C7EEB00006EEBF2
:100248000101B1F5801F1BD3B1F5001F0CD349087C
:100258005FEA30004FEA3C0C04F101044FEA4452D3
:1002680012F5800F80F09A80BCF1004F08BF5FEA5A
:10027800500C50F1000041EB045141EA050130BD3A
:100288005FEA4C0C404141EB0101013C28BFB1F54C
:10029800801FE9D291F0000F04BF01460020B1FA97
:1002A80081F308BF2033A3F10B03B3F120020CDA6A
:1002B8000C3208DD02F1140CC2F10C0201FA0CF048
:1002C80021FA02F10CE002F11402D8BFC2F1200CAD
:1002D80001FA02F120FA0CFCDCBF41EA0C01904063
:1002E800E41AA2BF01EB0451294330BD6FEA0404AC
:1002F8001F3C1CDA0C340EDC04F11404C4F1200297
:1003080020FA04F001FA02F340EA030021FA04F3A8
:1003180045EA030130BDC4F10C04C4F1200220FAFF
:1003280002F001FA04F340EA0300294630BD21FA3D
:1003380004F0294630BD94F0000F83F4801306BF03
:1003480081F480110134013D4EE77FEA645C18BFF7
:100358007FEA655C29D094EA050F08BF90EA020F8E
:1003680005D054EA000C04BF1946104630BD91EA86
:10037800030F1EBF0021002030BD5FEA545C05D189
:100388004000494128BF41F0004130BD14F58004C8
:100398003CBF01F5801130BD01F0004545F0FE413C
:1003A80041F470014FF0000030BD7FEA645C1ABF71
:1003B800194610467FEA655C1CBF0B46024650EAA8
:1003C800013406BF52EA033591EA030F41F40021D4
:1003D80030BD00BF90F0000F04BF0021704730B55A
:1003E8004FF4806404F132044FF000054FF000012F
:1003F80050E700BF90F0000F04BF0021704730B5F0
:100408004FF4806404F1320410F0004548BF4042C4
:100418004FF000013EE700BF42004FEAE2014FEA19
:1004280031014FEA02701FBF12F07F4393F07F4FF4
:1004380081F06051704732F07F4208BF704793F0F7
:100448007F4F04BF41F40021704730B54FF460740A
:1004580001F0004521F000411CE700BF50EA01020D
:1004680008BF704730B54FF000050AE050EA0102B6
:1004780008BF704730B511F0004502D5404261EB26
:1004880041014FF4806404F132045FEA915C3FF467
:10049800D8AE4FF003025FEADC0C18BF03325FEA04
:1004A800DC0C18BF033202EBDC02C2F1200300FAB5
:1004B80003FC20FA02F001FA03FE40EA0E0021FADA
:1004C80002F11444BDE600BF7BB972B90029BEBF72
:1004D80000204FF0004106E008BF00281CBF6FF065
:1004E80000414FF0FF3000F057B8ADF1080C6DE94E
:1004F80004CE002909DB002B1ADB00F0E2F9DDF855
:1005080004E0DDE9022304B07047404261EB410199
:10051800002B1BDB00F0D5F9DDF804E0DDE9022350
:1005280004B0404261EB4101524263EB4303704720
:10053800524263EB430300F0C4F9DDF804E0DDE95F
:10054800022304B0404261EB41017047524263EB21
:10055800430300F0B6F9DDF804E0DDE9022304B056
:10056800524263EB4303704753B94AB9002908BFA5
:1005780000281CBF4FF0FF314FF0FF3000F00CB8DF
:10058800ADF1080C6DE904CE00F09BF9DDF804E04C
:10059800DDE9022304B07047704700BF2DE93440FD
:1005A80055F804AB1A1F55F804BB2CDD54F804CBDE
:1005B8001CFB0A6654F804EB1CFB1A77043A1CFB74
:1005C8000B881CFB1B991CFB3A6655F804AB1CFBFB
:1005D8002B771CFB3B881CFB2A99C8BF54F804CB1B
:1005E8001EFB0B661EFB1B771EFB0A881EFB1A9957
:1005F8001EFB3B6655F804BB1EFB2A771EFB3A8898
:100608001EFB2B99D4DC043236DD34F802CB013AD8
:100618001CFB0A66C8BF34F802EB1CFB1A771CFBEC
:100628000B881CFB1B9927DD1EFB1A66013A1EFB73
:100638000B7735F802AB1EFB1B88C8BF34F802CB1A
:100648001EFB0A9918DD1CFB0B66012A1CFB1B7795
:1006580035F8022B1CFB0A88C8BFB4F800E01CFB65
:10066800029909DD1EFB1B66B5F800B01EFB0A7770
:100678001EFB02881EFB0B99BDE834802DE9F04F64
:100688000D460999044615F0030F4FF001003BD0C1
:10069800B3F1040C4FF0000E35F8028B19DD54F855
:1006A800046B4FEA084855F8049B16FB18EE54F8FB
:1006B800047B16FB29EE55F8048B17FB19EEBCF1E9
:1006C800040C17FB28EEC4BF54F8046BEBE74FEAA1
:1006D80018481CF1040CA2BF34F8026B16FB08EE94
:1006E800BCF1010CC4BF35F8028BF4E7A4EB43045A
:1006F800A5EB4305704505F10205B8BF7046013901
:1007080042F804EB00DCC0E004391BDB4FF00006C4
:100718004FF000074FF000084FF00009FFF73EFFC9
:10072800B04205F10805B8BF3046B842B8BF3846F0
:100738004045B8BF40464845B8BF4846A2E8C00350
:100748000439E3DA02315FDBB3F1040C4FF0000A3D
:100758004FF0000B55F8048B20DD54F8046B55F866
:10076800049B16FB08AA54F8047B16FB18BBBCF1C3
:10077800040C16FB38AA55F8048B16FB29BBC8BF16
:1007880054F8046B17FB09AA17FB19BB17FB39AA06
:10079800C8BF55F8049B17FB28BBE2DC1CF1020C10
:1007A8000EDD54F8046B16FB08AA55F8049B16FBDB
:1007B80018BBACF1020C16FB38AAC84616FB29BBBD
:1007C80034F8026B1CF1010C16FB08AAC8BF34F8F8
:1007D800027B16FB18BB05DD35F8029B17FB18AA30
:1007E80017FB09BBA4EB4304A5EB4305504505F1F2
:1007F8000205B8BF5046A1F10201584542F804ABC2
:10080800B8BF584642F804BB01313EDBB3F1040CD3
:100818004FF0000E1DDB54F8046B55F8048B54F8A8
:10082800047B55F8049B16FB08EEBCF1040C16FB80
:1008380038EEA8BF54F8046B17FB09EEA8BF55F8AB
:10084800048B17FB39EEA2BF54F8047B55F8049BC0
:10085800E9E71CF1020CA1BF54F8046B55F8048BAE
:1008680016FB08EEACF1020CA8BF16FB38EE1CF123
:10087800010CA2BF34F8026B35F8028B16FB08EEA8
:10088800704542F804EBB8BF7046BDE8F08F10F829
:10089800012B11F8013B012A28BF9A42F7D0D01A40
:1008A8007047034611F8012B03F8012B002AF9D1F0
:1008B8007047034613F8012B002AFBD1181A013898
:1008C80070472DE9F04786468C460846089E15462F
:1008D80074461946002B40F0C1808542B2FA82F274
:1008E80045D94AB1C2F1200300FA02FC9540944070
:1008F8002EFA03F343EA0C0C4FEA154EA8B2230C68
:10090800BCFBFEF80EFB18CC08FB00F943EA0C43CD
:10091800994528D9EB1808F1FF3704D2994502D92F
:10092800A8F102072B44A3EB0903A4B2B3FBFEFC16
:100938000EFB1C330CFB00F044EA0344A04214D91C
:100948002C190CF1FF3304D2A04202D9ACF10203F6
:100958002C44241A43EA07401EB1D44000233460D3
:100968007360BDE8F0874746DDE76346F1E792BB71
:10097800431B01214FEA154EAFB2200CB3FBFEFC1E
:100988000EFB1C330CFB07F840EA0343984561D97A
:10099800EB180CF1FF3004D2984502D9ACF10200F3
:1009A8002B44A3EB0803A4B2B3FBFEFC0EFB1C33E1
:1009B8000CFB07F744EA0344A7424DD92C190CF164
:1009C800FF3304D2A74202D9ACF102032C44E41B42
:1009D80043EA0040C0E7C2F120039540944020FA62
:1009E80003F12EFA03F34FEA154E9040AFB20343DA
:1009F800B1FBFEFC0EFB1C10190C0CFB07F841EABE
:100A08000041884522D969180CF1FF3004D2884585
:100A180002D9ACF102002944A1EB08019BB2B1FB59
:100A2800FEFC0EFB1C110CFB07F743EA01439F4237
:100A38000ED9EB180CF1FF3104D29F4202D9ACF168
:100A480002012B44DB1B41EA004193E76046E3E7E0
:100A58006146F7E76046A4E76346B8E7834206D9EC
:100A680016B9002108467CE7C6E900E0F9E7B3FAC1
:100A780083F78FB9834201D3724508D8BEEB0204CD
:100A880060EB030301209C461EB9002169E7384644
:100A9800FAE7C6E9004CF8E7C7F1200CBB400EFAAC
:100AA80007F522FA0CF42EFA0CF1BA401C4320FA8E
:100AB8000CF3B8404FEA144901431FFA84FEB3FB14
:100AC800F9F809FB18300B0C08FB0EFA43EA00434F
:100AD8009A4540D9E31808F1FF3004D29A4502D963
:100AE800A8F102002344A3EB0A0389B2B3FBF9F887
:100AF80009FB183308FB0EFE41EA03418E452CD949
:100B0800611808F1FF3304D28E4502D9A8F1020317
:100B1800214443EA0040A1EB0E01A0FB02984145A5
:100B2800CE46434602D306D14D4504D20138B9EB2F
:100B3800020E68EB0403002EA7D0B5EB0E0261EBA2
:100B4800030101FA0CFC22FA07F3F9404CEA03030B
:100B5800C6E9003199E74046C5E74346D9E70000B2
:100B68002DE9F04706460F46904688B052F000FE41
:100B78004FF47A73A0FB034503FB0155E40B012FE7
:100B880044EA45444FEAD53507D122462B4630463C
:100B9800274943F0C1FF002012E0D8F80470254827
:100BA8003946FFF774FE70B139462348FFF76FFEE8
:100BB80048B130463A46214943F0CAFF6FF0040075
:100BC80008B0BDE8F087204617A3D3E900232946DB
:100BD800FFF77AFC05460C4610461946184A0023CA
:100BE800FFF772FC80460F46104619464EF6602203
:100BF8000023FFF769FC82468946104619464FF4E0
:100C08007A720023FFF760FCCDE902A9CDE906233B
:100C1800CDE904012A4623463046CDE90087094933
:100C280043F07AFFB7E700BF005C2605000000002C
:100C3800A7D30500B8D30500BBD30500C4D305006E
:100C480080EE3600DCD30500F0B58BB0002140F60D
:100C5800034009AA14F024FF0446002840F0B78096
:100C68000998C3681B7853B95F4BD3E8AF2F02F0DC
:100C78000902D3E8EF1FC3E8E42F002CF9D10FF0E5
:100C8800BDFF002141F2030009AA14F009FF044640
:100C9800002840F09C80099A544DD16805F17803EA
:100CA800D1F80100D1F8051003C310460FF0A6FFD4
:100CB800214641F2010009AA14F0F2FE0446002878
:100CC80040F085800998C3685A7885F870205A885A
:100CD800A5F872201A7985F87120B3F80720A5F8CD
:100CE8007420B3F80530A5F876300FF087FF214659
:100CF80041F2020009AA14F0D3FE0446002866D186
:100D0800099F05F18006FA68531C41323446186879
:100D18005968083303C493422646F7D138460FF082
:100D28006DFF16F097F90446002850D195F88A30DF
:100D380013F0200317D12E490A6812F0060F06D0C7
:100D48002C4A0093CDE90132022247F0A5FB95F821
:100D58007C3013F0400351D125490A68520739D134
:100D68006FF0120433E0072140F6334014F092F993
:100D78000646002800F0518107210C3045F0A0FFFD
:100D8800042343700623C0F8024084710470047180
:100D98002246C370314640F6334014F081FE0446C3
:100DA800A8B9012140F6314014F074F9064600282C
:100DB80000F0338101210C3045F091FF2246314685
:100DC80040F6314014F06CFE04460028BFD020469F
:100DD8000BB0F0BD084A1846CDE901320093012254
:100DE80047F05AFBBCE700BFF42100202021002077
:100DF80044300020477F0600757F0600002142F23C
:100E0800030009AA14F04CFE04460028DFD1099B10
:100E1800AF4EDA68D2F80100D2F8051003C61846BA
:100E28000FF0ECFE214642F2020009AA14F038FE47
:100E380004460028CBD1099CE368B3F8012091B29D
:100E480049B1D97839B1A5F80421DA78114606F103
:100E5800280052F0C9F920460FF0D0FE1F2395F85C
:100E68007C60A5F8203116F0200618D1022140F642
:100E78006D4014F00FF90446002800F0CE800221DE
:100E88000C3045F01DFF01232146037046703246A1
:100E980040F66D4014F004FE0446002897D195F8FA
:100EA8009C301F0712D5002142F21C0009AA14F039
:100EB800F7FD044600288AD10998C368D3F80120B1
:100EC800D3F80530C5E938230FF098FE95F8D830E7
:100ED8009E0625D50DF1220108A814F0DDFE044672
:100EE80000287FF474AF042142F2240014F0D2F8F1
:100EF8000646002800F0918004210C3045F0E0FE01
:100F0800BDF8203022460380BDF8223031464380A8
:100F180042F2240014F0C4FD044600287FF457AFC1
:100F280095F8D8305C0610D5002142F22A0009AAAB
:100F380014F0B6FD044600287FF449AF0998C36849
:100F48005B7885F822310FF059FE082142F2010042
:100F580014F0A0F8044600285FD008210C3045F0B2
:100F6800AFFE95F8D81040F2022311F0400F08BFE9
:100F78000323024688074CBF43F02C0043F00C00C3
:100F88008B0695F8D93048BF40F0400013F0090FA0
:100F980095F8A23018BF40F4006003F00603CF07AD
:100FA80048BF40F01000062B08BF40F4C070002175
:100FB80047F089FA2146002242F2010014F070FD40
:100FC800044600287FF403AF95F87C20B5F8043177
:100FD800960625D4D3B9194641F2050009AA14F09A
:100FE8005FFD044600287FF4F2AEB5F80431099C91
:100FF8004BB9E368B3F80120A5F804219A8835486D
:10100800114652F0F1F820460FF0F8FD082140F69D
:10101800014014F03FF8044698B96FF06804D6E62A
:10102800002BF3D12C490A68540702D16FF004044D
:10103800CDE62A4A0093CDE90132012247F02CFA85
:10104800F4E708210C3045F03BFE95F8D83002460D
:10105800D90747BF1CA1D1E900014FF00051204832
:1010680047F031FA2146002240F6014014F018FDFD
:10107800044600287FF4ABAE014609AA4FF60140AA
:1010880014F00EFD144E78B3336813F0060F09D030
:10109800144B0222CDE901433146234600941846F9
:1010A80047F0FAF915F02EFC044600287FF48FAEBD
:1010B80017F0ECF9044600287FF489AE14F0EEF935
:1010C80085E600BFAFF30080908800020080002012
:1010D800F82100202822002044300020997F0600B3
:1010E80010880002BC7F06003368099F03F00703DD
:1010F800022BFC6851D9B4F801304849032B96BF3C
:10110800474A484A52F82320CDE90323464B032295
:10111800029300231846CDE9003347F0BDF9336840
:1011280003F00703022B38D9B4F80130B4F80320D0
:10113800022B4AD1052A48D83C4B53F82230CDE936
:1011480003323B4B03220293002334491846CDE96E
:10115800003347F0A1F9336803F00703022B1CD9C9
:10116800D4F8091063790791B4F80710032B069196
:10117800A17998BF2F4ACDE9043198BF52F82320AE
:101188002D4B88BF274A0293002303921846032257
:10119800CDE90033214947F07FF938460FF02EFD9D
:1011A80000214FF6024009AA14F07AFC044670B1F7
:1011B800336813F0060F3FF475AF204B02930023FA
:1011C800CDE900330222154969E7164BB7E70998BC
:1011D800C368B3F80130A5F8C1300FF00FFD95F8DA
:1011E800C1305B077FF55EAF21464FF6034009AA81
:1011F80014F056FC50B1336813F0060F3FF452AFA9
:101208000F4B0094CDE901432346DBE70998C368F7
:101218005B7885F8C0300FF0F1FC43E744300020DC
:10122800F0760500CF7C0600E07F0600D876050042
:10123800F97F0600C8760500118006003E8006008A
:10124800678006000000000070B514460646CD17FA
:10125800A1FB0201002304FB05110A22FFF734F960
:101268000FA3D3E900230C4D80FB054520462946F2
:10127800FFF72AF906A3D3E9002330602946204660
:10128800FFF722F90023054AFFF71EF9726070BDC7
:1012980080A8120100000000D8EF2F0040420F0084
:1012A80000209BF35E10000003292DE9FF4105464D
:1012B8000C4613D0072900F083806D490B6813F0A2
:1012C800060F08D06B4B0222029300231846CDE983
:1012D80000334DF0F4FD6FF085004CE0002A53D048
:1012E800072AF8D158681A68634BC117C2FB030173
:1012F800012871F100035CDBD5F804805F4B98F896
:101308001A60C0184FEAD61655A3D3E9002341F155
:10131800000176B2FFF7D8F8002E14BF0423022389
:10132800984298F91A7029D0002E14BF2023102350
:10133800834225D0002E14BF08230423984221D0CD
:10134800002E14BF10230823984232D1E6B231464A
:1013580040462D6944F00CFB002824DB3D22484B15
:10136800002F33F81430AE77AABFA3FB02325343E1
:101378005B08EB60002004B0BDE8F0810024E5E7DD
:101388000124E3E70224E1E719883E4B14461F468F
:1013980033F8022B914209D86868E1B22E6944F00B
:1013A80054FC002808DA6FF00400E4E701340B2C41
:1013B800EED16FF01500DEE737F81430B383D9E7C4
:1013C800002A3AD0072A86D1B4245A6819682A4BC9
:1013D800D017C1FB0320A2FB0431012A04FB001132
:1013E80070F100001DDB2848181841F100011EA308
:1013F800D3E900230024FFF767F8244B33F8022BC6
:10140800904216D16868E1B22E6944F0C8FA002803
:10141800C9DB41F217121E4B33F814305343B36142
:10142800A8E71C48181861F100010FA3D3E90023AD
:10143800E0E70134072CE1D1BBE71988114B33F8F9
:10144800020B814206D86868D1B244F06CFC0028CF
:1014580090DAA8E701320B2AF1D1AAE7AFF30080AE
:101468003AA3950000000000D8EF2F00000000000C
:1014780010300020BC07070040420F009DD14A00F1
:101488006AB3050072B30500ECF717005CB30500FA
:101498004EB305001408E8FF2DE9F74F0329144659
:1014A800066905D90B1F032B53D96FF0850023E07C
:1014B8000229F7683A4D22D0032923D0012914BF05
:1014C800B6F90460B6F90660A6FB076732A3D3E94C
:1014D800002386FB056530462946FEF7F5FF002305
:1014E800304A206029463046FEF7EEFF00232D4A99
:1014F800FEF7EAFF6260002003B0BDE8F08FB6F99E
:101508000860E1E74FF0000B02F11803DFF894A040
:101518000236019336F9028FA8FB07831EA3D3E98D
:10152800002388FB059848464146FEF7CDFF524602
:1015380044F8080B5B4648464146FEF7C5FF52464D
:101548005B46FEF7C1FF019B44F8042C9C42E1D1A5
:10155800D1E70629B5690CD007290ED02A460529F6
:1015680014BFB6F91010B6F912102046FFF76CFE3A
:10157800C1E72A46B6F91410F7E70E3602F1180744
:1015880020462A4636F9021F0834FFF75DFEA742B7
:10159800F6D1B0E7AFF300800010A5D4E800000052
:1015A8003AA3950040420F002DE9F04F3A4B85B021
:1015B800D3F8042392070BD5D3F8042142B10022B3
:1015C800C3F80421354AD3F8043113680133136092
:1015D800334D0024A8464FF480362F4FD7F80433F4
:1015E80006FA04F919EA030F2CD00123A340DB43C0
:1015F8002C49D1E8EF2F02EA0300C1E8EC0FBCF157
:10160800000FF6D122FA04F3DB0703D4264B53F874
:101618002430BBB120464DF035FE2CF003FEEFF32D
:101628001183202282F31288BFF36F8F08EB041C0A
:10163800DCE902AB504571EB0B010AD283F3118848
:10164800BFF36F8F103514B105B0BDE8F08F0124DA
:10165800C4E70020D5E900129FED0D7B28600E48F5
:1016680003938CED027B0292C0F8489320464DF01C
:1016780009FE039B83F31188BFF36F8F0029E1D024
:10168800029A5B46009252468847DBE7AFF3008038
:10169800FFFFFFFFFFFFFFFF00500150844C0120B8
:1016A80058570020784C01204051015038B5064D5C
:1016B800064928463DF0C5FC0021044628463DF071
:1016C800D5FC204338BD00BF785305000100020057
:1016D80013B509480469836801A95B68984720B96C
:1016E800236801985840C0F3C010431E584258411F
:1016F800024B187002B010BD9C42050058690120C9
:1017080030B5224B05461B7887B0002B3AD0FFF73F
:10171800CDFF044698BB01231D4AD3601D4ACDF86E
:101728000CD0CDE9012304220A23CDE904234FF08C
:10173800FF324FF0FF33184837F0A0FF174801A9D0
:1017480083685B6898470446134838F00FF8B4B9C3
:10175800BDF802309FED127A07EE903AF8EE677AFC
:1017680067EE877A9FED0F7A67EE877A9FED0E7A9C
:1017780067EE877AFCEEE77A17EE903A2B802046E0
:1017880007B030BD6FF08B04F9E700BF596901203D
:1017980000E0005058530500C83200202C430500D3
:1017A8006666E63F0000803A00803B45034B1B78A5
:1017B8000BB1FFF77BBF6FF08B00704759690120B1
:1017C8007FB54E4D2B6803F00703022B09D94C4B0C
:1017D80003220293002329461846CDE900333DF041
:1017E80059FC484851F00EFB034668B92A6852076D
:1017F80007D0454ACDE901324049012200933DF026
:1018080049FC6FF0120433E0404E304651F0FAFACA
:10181800034620B92A685607F3D03D4AEAE730461E
:1018280051F0F0FA034620B92A685507E9D0394A39
:10183800E0E7304651F0E6FA034620B92A68540733
:10184800DFD0354AD6E74FF4003134483DF0F9FB94
:10185800044680B12B6858070AD0314B0394029391
:10186800002301221846CDE9003324493DF012FC3B
:10187800204604B070BD4FF480312A483DF0E1FBAA
:10188800044628B12B685907F2D0274B0390E6E7A6
:10189800264927483DF0D5FB044628B12B685A074E
:1018A800E6D0244B0390DAE72349244B4B6080238E
:1018B8008B60B368DB6913B1012230469847114841
:1018C8001F4983681B689847044628B12B685B0743
:1018D800CED01C4B0390C2E701221B4B1A702B6819
:1018E80003F00703022BC3D9184B0322CDE90103E8
:1018F8000249034600903DF0CDFBB9E71C300020BB
:1019080068B705002C43050080B705009C42050018
:1019180095B70500ACB70500C2B7050068530500C8
:10192800D6B7050078530500F2B70500100001008E
:101938007053050011B80500D0600020D9160000CA
:101948000C9305002FB805005969012044B805001B
:101958002DE9FF410D4618491F460B68044603F060
:101968000703022B164608D9144B032202930023BF
:101978001846CDE900333DF0B4FBDFF84880D8F8CD
:10198800003003930E4B029300231A46194618465B
:10199800CDE900333DF0A5FB0823CDE90183BDF86F
:1019A80028303246009329463B46204648F01CFB27
:1019B80004B0BDE8F08100BF6C30002067B80500B6
:1019C80087B80500EC6000201FB50B461349012BB2
:1019D8000A6802F007020DD1022A08D9104B0293B7
:1019E800002303221846CDE900333DF07AFB05B009
:1019F8005DF804FB23B9022AF9D90A4A0292F0E7F2
:101A0800002AF4D00393084B0122029300231846BE
:101A1800CDE900333DF065FBE9E700BF6C300020FD
:101A280098B80500BCB80500E3B805001FB54368C1
:101A3800104A23F0FF039342044619D183685A1EC3
:101A4800534253410C4A137003930C4B02930023E7
:101A58001A4619461846CDE900333DF042FB0022EC
:101A680000232146064804B0BDE8104037F054BDB5
:101A780004B010BD00011C005D690120F9B8050023
:101A8800F433002030B587B004460D4618220021F3
:101A9800684652F093F8064B69460293082320469D
:101AA8000195ADF80C3019F081F807B030BD00BFD2
:101AB800EC6000202DE9FF41984F99483B6899490F
:101AC800047801330A78984D3B6074B1002A40F0DD
:101AD800F58001222B600A7040F21F5200239348C0
:101AE80004B0BDE8F04138F06FB9914E002A77D0C4
:101AF8004FF0280C2A680C709A1A0CFB02F2B2F507
:101B0800967F33606CD28B480268002A67D09A1A95
:101B18000CFB02F2B2F5167F61D2046002244FF08A
:101B2800280C2A68981A0CFB00FE3068821A0CFBF5
:101B380002F2B2F5967F80F086807E4A106800280F
:101B480000F08180BEF5967F4CD900247A4B146052
:101B580021462246CDE901432046234600943DF024
:101B6800C0FA0123754A76491370764A13600B68E8
:101B780003F00703022B08D9734B0322CDE9014375
:101B88002046234600943DF0ACFA02F0FBFC20B15D
:101B98006E4B19681431FFF775FF012000F004FE41
:101BA80032203DF0ADFA002000F0FEFD32203DF07D
:101BB800A7FA012000F0F8FD32203DF0A1FA00203C
:101BC80000F0F2FD32203DF09BFA012000F0ECFD20
:101BD80032203DF095FA002000F0E6FD7CE7036036
:101BE80000249CE70A78002A40F09080002C3FF4FB
:101BF80073AF0024564B22462146029320462346C3
:101C0800CDE900443DF06DFA02234C4A4C4913706B
:101C18004C4A13600B6803F00703022B08D94D4B9D
:101C28000322CDE901432346009418463DF059FAB2
:101C380002F0A8FC00283FF44FAF444B1968143158
:101C4800FFF720FF48E7BEF5967FCBD9DFF8EC8099
:101C580098F80030042B2DD000243F4B2246214613
:101C6800029320462346CDE900443DF03AFA042386
:101C78000522334988F80030324B1A600B6803F0AC
:101C88000703022B08D9354B0322CDE9014320462F
:101C9800234600943DF025FA02F074FC20B12B4B4A
:101CA80019681431FFF7EEFE0023224A3B602B60CF
:101CB8003360136001222A4B1A700DE72A689B1AB9
:101CC80028225343B3F57A7FFFF406AF1B4D2B78D8
:101CD800032B3FF401AF0024224B224621460293F6
:101CE80020462346CDE900443DF0FBF90322154B7D
:101CF80013491A600B682A7003F00703022B97D95F
:101D0800194B0094CDE9014323468EE72A689B1AB4
:101D180028225343B3F57A7FD8D267E7E8600020DA
:101D28005D6901205B690120E4600020C02000207B
:101D3800E0600020DC6000200DB905005A69012030
:101D48006C300020EC60002022B9050048230020F8
:101D580034B9050049B9050080B9050092B90500F4
:101D68005C6901205BB9050070B905001FB514480E
:101D780051F048F81349034670B90A68520706D06B
:101D8800114A0090CDE9010201223DF0AAF96FF055
:101D9800120005B05DF804FB0B6803F00703022B83
:101DA80008D90A4B0322029300231846CDE90033D1
:101DB8003DF097F9064851F041F90020E9E700BFE6
:101DC8001C4405006C300020A2B90500BAB9050012
:101DD800F43300201FB50C490B6803F00703022BEE
:101DE80008D90A4B0322029300231846CDE9003391
:101DF8003DF077F940F21F520023054805B05DF821
:101E080004EB37F0ADBF00BF6C300020E1B905002E
:101E1800C0200020014B1860704700BFB88B00201D
:101E280030B505461C4887B0436842694C009A1A89
:101E3800C3699B1AB3EB410F13D218490A6812F011
:101E4800060F0AD0CDE90334154B02220293002372
:101E58001846CDE900333DF063F96FF00B0007B089
:101E680030BD2246294642F09AF8844211D00B49E7
:101E78000B685B070AD00B4BCDE9030402930023E0
:101E880001221846CDE900333DF04AF94FF0FF3002
:101E9800E5E70020E3E700BF988B002078300020BA
:101EA800FFB905004CBA050030B5012089B040F0F3
:101EB8006DFA40F6030301224FF47A519E4806F06A
:101EC800D5FD0446C8B19D4C23685A073BD040F65F
:101ED800030301224FF47A51974806F0C7FDB0FA80
:101EE80080F07723400905900493954B0393954B15
:101EF80002930023CDE9003349E04FF4FA4240F65B
:101F0800A2718D4807F034FF054608B38B4D2B6846
:101F18005B0718D04FF4FA4240F6A271864807F0E2
:101F280027FFB0FA80F07823400905900493844B8A
:101F380001220393834B2946CDE9014323460094AC
:101F480018463DF0EDF84FF0FF34204609B030BD9B
:101F5800012240F6A671784807F00AFF0446C8B186
:101F6800764C23685807EED0012240F6A6717248D5
:101F780007F0FEFEB0FA80F079234009059004933B
:101F88006F4B009503936F4BCDE901532B4601220C
:101F98002146D5E7024640F6B471674807F0E8FEE7
:101FA800054678B1654D2B685907CCD0224640F6D6
:101FB800B471614807F0DCFEB0FA80F040097A237A
:101FC8000590B3E7032240F6AA715B4807F0D0FEFC
:101FD800044678B1594C23685A07B4D0032240F616
:101FE800AA71554807F0C4FEB0FA80F040097B2377
:101FF8000590C4E740F6B93240F6B8714E4807F08C
:10200800B7FE054680B14D4D2B685B079BD040F667
:10201800B93240F6B871484807F0AAFEB0FA80F025
:1020280040097C23059081E7102240F6C47142489C
:1020380007F09EFE044678B1404C2368580782D0CA
:10204800102240F6C4713C4807F092FEB0FA80F0C6
:1020580040097D23059092E702464FF47B6136489C
:1020680007F086FE024680B1344D2B6859073FF4CD
:102078006AAF22464FF47B612F4807F079FEB0FA29
:1020880080F040097E23059050E740F6AC712A485D
:1020980007F06EFE0246D0B1284B1B685A073FF482
:1020A80052AF002240F6AC71234807F061FE7F234F
:1020B8000493234BB0FA80F00393224B4009029318
:1020C80000230122CDE900331C49059038E740F68A
:1020D800AE71194807F04CFE044680B1174C2368CE
:1020E8005B073FF430AF002240F6AE71124807F0AC
:1020F8003FFEB0FA80F0400980230590F4E61249CB
:10210800124B4FF4FA420B600023CA61C1E9023353
:10211800C1E905334B600B6100200021CDE90601C0
:102128000421CDE90033CDE9023104930849094B74
:10213800094837F011FF08E7F460002078300020E4
:102148008ABA0500A7BA0500988B00209F6A01206B
:10215800A8530320D9210000103800201FB54FF4E0
:10216800A07315490093A022144B154807F0D8FD19
:102178001449041E0B680EDA5B0709D0124B0122C2
:102188000293002303941846CDE900333CF0C8FFBE
:10219800002004B010BD03F00703022B09D90B4B34
:1021A80003220293002303941846CDE900333CF040
:1021B800B7FFA0B2EDE700BFF06501205F6901201D
:1021C800F460002078300020B9BA0500D2BA0500C2
:1021D80070B5104C104E114DA36822699B1AB3F5C7
:1021E800A07F05D200214FF4A47038F077F9F3E707
:1021F80031464FF4A072204641F021FFFFF7AEFFB1
:102208002B68014613B12B680548984738F0E4F865
:10221800E2E700BF988B0020F0650120B88B002012
:102228005F6901201FB5134850F0ECFD124C0346BE
:10223800A8B1002219210F483CF090FF236803F051
:102248000703022B09D90D4B0322029300232146D1
:102258001846CDE900333CF072FF04B010BD226887
:102268005207FAD0064A2146CDE901020090012220
:10227800F1E700BF9C4205009C300020F2BA05003F
:1022880014BB05007FB52A492A4851F09DF82A4E0B
:102298002A4D304650F0B6FD034668B92A68520701
:1022A80007D0274A2946CDE90102009001223CF0D7
:1022B80046FF6FF012041BE03269B16813683046BC
:1022C80023F0007313600B684FF4C022192198475C
:1022D8002B68044678B15B070AD01A4B0390029327
:1022E8000023012229461846CDE900333CF027FF98
:1022F800204604B070BD03F00703022BF8D9124B37
:102308000322CDE901032946034600903CF017FF5C
:102318002B6803F00703022BEAD9336803220393DF
:102328000A4B2946CDE90143204623460094DDE7C0
:102338002D220000083900209C4205009C30002016
:102348003BBB050057BB050079BB05008FBB0500EB
:10235800F0B53B4D04462B6887B003F00703022B0A
:102368001AD90026374B0390029303223346294695
:102378003046CDE900663CF0E2FE2B6803F0070327
:10238800022B09D9304B0322CDE901632946334694
:10239800304600963CF0D3FE2C4850F033FD0346FF
:1023A80060B92A68520707D0294A2549CDE90102B0
:1023B800009001223CF0C3FE07B0F0BD41F2883323
:1023C8009C4205D92A6812F0060F2CD141F28834B4
:1023D8000026204851F006F8012219211B483CF03C
:1023E800BDFE4FF4004740F2E73031464FF47A72B1
:1023F8000023E4FB0701FEF7B7F802460B46154831
:1024080037F0AEFC2B6803F00703022BD4D9124B2C
:102418000322CDE901633046334609490394009607
:102428003CF08DFEC8E7CDE903430C4B0222029332
:10243800002303491846CDE900333CF080FEC5E788
:102448009C3000209EBB0500B7BB05009C420500E0
:10245800E2BB05000839002049BC0500FFBB0500A8
:102468002DE9FF41274E336803F00703022B09D9F2
:10247800254B03220293002331461846CDE9003349
:102488003CF07CFE214D0C21D5F81080AF68D8F8BF
:102498000030284623F48053C8F800303B681C4AB3
:1024A8009847041E12DA336859070BD00C2303939C
:1024B800184B0293002301221846CDE90033114935
:1024C8003CF05CFE204604B0BDE8F081D8F800304E
:1024D800DA044FF4805154BFFB683B69284698479B
:1024E8000028044606DA33685B07EBD00C23039315
:1024F800094BDEE740F26760002137F0EFFF002468
:10250800E0E700BF0C3000206BBC050084420500EA
:102518000002020079BC050095BC05002DE9F041D8
:102528000C234FF0000892B00546CDE90438344E2C
:10253800304650F067FC48B92846324942F008FB5B
:102548006FF01204204612B0BDE8F081B7683C680D
:102558005CB142460321304604ABA047044638B17B
:102568002949284642F0F4FAECE76FF05704F7E7F8
:10257800D7F80080B8F1000F08D00246072130468E
:1025880004ABC047044620B12049EAE76FF057047E
:10259800FAE73C213046FB689847044608B11C49D5
:1025A800DFE7032130463B6906AA9847044608B18D
:1025B8001849D6E7072130463B690CAA98470446D4
:1025C80008B11549CDE70B9B284603930A9B13498D
:1025D8000293099B0193089B0093DDE9062342F0CF
:1025E8009BFA119B28460393109B0D4902930F9B5E
:1025F80001930E9B0093DDE90C2342F08DFAA1E7CD
:1026080034440500ABBC0500BEBC0500E7BC0500B2
:102618000FBD050028BD050043BD05005DBD0500D3
:1026280084BD050030B5524887B03CF0F3FD514CED
:102638000546B8B923685B0711D04D483CF0EAFD60
:102648001B23059004934C4B012203934B4B2146CB
:10265800CDE9015328462B4600953CF0B8FD4FF0D4
:10266800FF3078E046483CF098FD00281ADA2368E5
:102678005D0711D042483CF090FD1C2304933E4B6B
:10268800059003933D4B01220293002321461846EF
:10269800CDE900333CF09BFD394807B0BDE8304038
:1026A8003CF07BBD32483CF0B5FD054640B9236897
:1026B8005807D4D02E483CF0ADFD1D230590C1E746
:1026C80030483CF06AFD002816DA2368590711D013
:1026D8002C483CF062FD1E230493274B059003937E
:1026E800264B01220293002321461846CDE90033E8
:1026F8003CF06DFD2348D0E71D483CF08BFD0546B6
:1027080040B923685A07AAD019483CF083FD1F2313
:10271800059097E71C483CF040FD0028236815DA2F
:102728005B0711D018483CF038FD20230493124B66
:1027380005900393114B012202930023214618466A
:10274800CDE900333CF043FD0F48A6E703F007034B
:10275800022B02D8002007B030BD0C4B0322029395
:10276800002321461846CDE900333CF030FDF1E75F
:102778009C420500B4300020C3BD0500A7BA05007F
:10278800D0530500C8530500C0530500DEBD050041
:10279800014601483CF02ABDD053050001460148D6
:1027A8003CF024BDC8530500014601483CF01EBD5D
:1027B800C05305001FB50C4601F0EAFE88B10F4969
:1027C80010F1690F0B680ED113F0060F09D00C4BEE
:1027D800022202930023CDE90033039418463CF00B
:1027E80030FD04B010BD5B07FBD0064B01220293FD
:1027F80000230390CDE90033F0E700BFC03000208C
:10280800EBBD05001CBE05001FB54FF4C861FFF7FE
:1028180007FB68B108490B685B0709D0074B0390B1
:102828000293002301221846CDE900333CF009FD4C
:1028380005B05DF804FB00BFC030002042BE0500B3
:1028480038B5124B1B789BB1114A137883F00103FA
:1028580013706BB10120FFF7A1FF0E4B1D784DB12E
:102868000020FFF795FFBDE838400020FFF79CBF28
:102878000020F0E7084B01201C78002CF1D0FFF76E
:1028880093FF2846BDE83840FFF782BFAC15022009
:10289800586901205E6901209FE70120F0B59E4D2F
:1028A80085B02B6803F00703022B4DD900249B4BFE
:1028B80003220293294623462046CDE900443CF0F2
:1028C800C0FC2B6803F00703022B3DD9944B03226D
:1028D8000393944B2946CDE90143204623460094AF
:1028E8003CF0AFFC2B6803F00703022B2CD98E4B6E
:1028F800032203938D4B2946CDE901432046234605
:1029080000943CF09EFC2B6803F00703022B1BD9B4
:10291800874B03220393874B2946CDE90143204681
:10292800234600943CF08DFC2B6803F00703022B30
:102938000AD9814B0322CDE9014329462346204683
:10294800039400943CF07DFC00247C4F23462246EF
:1029580021462046CDE9004402973CF072FC2B68E2
:1029680003F00703022B17D9754E2346032220468E
:10297800CDE90146684900943CF063FC2B6803F0FC
:102988000703022B08D9234603222046CDE9014636
:10299800614900943CF055FCFFF744FE044680B1C1
:1029A8002B685B070AD0674B039002930023CDE99D
:1029B80000330122184658493CF043FC204605B034
:1029C800F0BD0120FFF7E4FE4FF416703CF048FC20
:1029D8002046FFF7DDFEC8203CF042FC0120FFF74F
:1029E800DDFE4FF416703CF03BFC2046FFF7D6FEA8
:1029F800C8203CF035FC0120FFF7D6FE4FF41670D6
:102A08003CF02EFC2046FFF7CFFEC8203CF028FC07
:102A18000120FFF7BDFE0120FFF7C0FE0120FFF7F0
:102A2800C3FE4FF416703CF01BFC2046FFF7B0FEC7
:102A38002046FFF7B3FE2046FFF7B6FE2B6803F0EB
:102A48000703022B09D9404B0322CDE90143204655
:102A58002346314900943CF0F4FBFEF7B1FE0446EE
:102A680028B12B685F07A9D0384B03909DE7FEF784
:102A78009DFE044628B12B685E079FD0344B039017
:102A880093E7344B02460146CDE900000293034622
:102A980006463CF0D6FBFFF769F92B68044640B1BF
:102AA8005D078BD02C4B0390CDE90163009633462C
:102AB8007FE703F00703022B08D9284B0322CDE94F
:102AC80001031549034600903CF0BBFB0024FFF7C7
:102AD80081F92346224621462046CDE90044029743
:102AE8003CF0AFFB2B6803F00703022B09D91C4B02
:102AF8000322CDE9014320462346074900943CF0D0
:102B0800A0FBFFF7BFFB2B68044668B358073FF4E8
:102B180055AF144B039448E7C030002061BE050050
:102B28006DBE050071BE05007BBE050081BE0500B7
:102B380097BE0500B7BE0500CDBE05000BD6050043
:102B4800DFBE0500F5BE050068B7050018BF050023
:102B580035BF050056BF050084BF0500A9BF0500A5
:102B6800BCBF0500D4BF050003F00703022B17D92B
:102B7800874B0322CDE901038649034600903CF0C8
:102B880060FB2B6803F00703022B09D9824B032251
:102B9800CDE90143204623467E4900943CF051FB91
:102BA80000244FF4FA70FFF7D3FB23462246214650
:102BB8002046CDE9004402973CF043FB2B6803F024
:102BC8000703022B09D9754B0322CDE9014320469F
:102BD8002346704900943CF034FB0120FFF7DEFDEA
:102BE8000020FFF7DBFD01F0FBFB044630B12B684A
:102BF80059073FF4E3AE6A4B0390D6E60346024614
:102C08000146CDE9010700903CF01BFB2B6803F05F
:102C18000703022B09D9634B0322CDE90143204660
:102C280023465C4900943CF00CFB0120FFF7BCFDF7
:102C38005D48FFF7EFF8FFF737F9044600B32B6854
:102C48005A070AD0594B03900293002301221846D1
:102C5800CDE900334F493CF0F4FA0525544E30468F
:102C68003CF0DAFAB0FA80F04009FFF79DFDC82081
:102C78003CF0F6FA013DF2D12846FFF795FD9DE6B6
:102C8800FFF792FD2346224621462046CDE901471B
:102C980000943CF0D6FA2B6803F00703022B09D9FD
:102CA800444B0322CDE90143204623463949009489
:102CB8003CF0C7FA0120FFF76BFD0120FFF76EFD1E
:102CC8004FF47A703CF0CCFA3B4800F061F900F020
:102CD80065FA044660B32B685B070AD0374B03904C
:102CE8000293002301221846CDE9003329493CF01C
:102CF800A8FA0525324F334E38463CF08DFAB0FA23
:102D080080F04009FFF744FD30463CF085FAB0FA00
:102D180080F04009FFF742FDC8203CF0A1FA013DD0
:102D2800EAD12846FFF734FD2846FFF737FD45E688
:102D3800FFF72EFD2046FFF731FD2B6803F0070350
:102D4800022B09D9204B0322CDE901432046234613
:102D5800104900943CF075FA0120FFF725FD4FF467
:102D68007A703CF07DFA0020FFF71EFD2B6803F017
:102D78000703022B7FF622AE144B03220293002393
:102D880004491846CDE900333CF05BFA16E600BF6B
:102D9800FDBF0500C030002014C0050052C005006A
:102DA8006DC0050090C00500BD270000A7C0050044
:102DB800D8530500C1C0050011280000DDC005007A
:102DC800E8530500E0530500FCC005001CC10500E0
:102DD8000146024882685268104700BFA4430500B4
:102DE80000232DE9F0435D4C87B02268049302F07C
:102DF8000702022A08D95A4A2146CDE90132184663
:102E0800032200933CF06DFA564D5749AB682846AB
:102E18001B6898470028554E2ADB554FDFF86C8110
:102E2800327802F0FF03002A35D1226802F0070247
:102E3800022A08D94F4A1846CDE9013247490322E8
:102E480000933CF04EFA0020FFF7C2FF00281FDA7B
:102E5800236813F0060F1BD0474B039002930023FF
:102E680002221846CDE900333C493CF03AFA0FE01B
:102E7800236859070AD0414B03900293002301228B
:102E88001846CDE9003335493CF02BFA002333705E
:102E980007B0BDE8F0830120FFF79AFF002813DA96
:102EA80023685A070AD0364B039002930023012265
:102EB8001846CDE9003329493CF013FA002140F6C1
:102EC800CD4037F00BFBABE74FF47A72AB6800925A
:102ED800D3F808900021284605AB04AAC847002863
:102EE80018DA23685B070AD0264B03900293002365
:102EF80001221846CDE9003318493CF0F2F90020C8
:102F0800FFF766FF40F6CD40002137F0E7FA0023CF
:102F1800049385E70020FFF75BFF00280EDA23689B
:102F280013F0060F0AD0184B0390029300230222D5
:102F38001846CDE9003309493CF0D3F93B682BB179
:102F4800049818B1059B0BB13B6898470499002970
:102F58003FF466AF404650F02DF8D8E7C83000205F
:102F680040C10500A4430500D0230020A0E70120AC
:102F7800C08B0020ABC10500C4C1050058C10500C5
:102F880076C1050095C10500CAC105006831002059
:102F9800014B1860704700BFC08B00201FB54FF46D
:102FA800003134483CF074F900280DDA32490B68D6
:102FB8005B0709D0314B0390029300230122184686
:102FC800CDE900333CF08DF900212A483CF075F931
:102FD80000280DDA28490B685A0709D0284B0390B6
:102FE8000293002301221846CDE900333CF079F919
:102FF8004FF4803123483CF04BF900280DDA1E4984
:103008000B685B0709D0204B039002930023012231
:103018001846CDE900333CF064F94FF400311B4801
:103028003CF036F900280DDA13490B685A0709D025
:10303800174B03900293002301221846CDE9003371
:103048003CF04FF9002111483CF037F900280DDA1F
:1030580009490B685B0709D00E4B039002930023C4
:1030680001221846CDE900333CF03BF905B05DF884
:1030780004FB00BFF8530500C8300020E8C1050074
:1030880004C20500F05305001AC2050000540500EB
:1030980035C205004EC205001FB54FF40031364851
:1030A8003CF0F6F800280DDA34490B685B0709D0C4
:1030B800334B03900293002301221846CDE90033D5
:1030C8003CF00FF901212C483CF0F7F800280DDA04
:1030D8002A490B685A0709D02A4B03900293002308
:1030E80001221846CDE900333CF0FBF84FF480315B
:1030F80025483CF0CDF800280DDA20490B685B071D
:1031080009D0224B03900293002301221846CDE9EF
:1031180000333CF0E6F84FF400311D483CF0B8F8B5
:1031280000280DDA15490B685A0709D0194B039086
:103138000293002301221846CDE900333CF0D1F870
:10314800012113483CF0B9F800280DDA0B490B6847
:103158005B0709D0104B0390029300230122184605
:10316800CDE900333CF0BDF8A420002105B05DF89E
:1031780004EB37F0B3B900BFF8530500C83000209E
:10318800E8C1050004C20500F05305001AC2050095
:103198000054050035C205004EC20500F0B5294EA1
:1031A800294D337889B003F0FF04002B3FD1012764
:1031B800FFF772FF377000220023CDE906230523AD
:1031C8004FF48062CDE90243CDE900441F4B20490A
:1031D8002048049436F0C0FE1F4A0346106090B998
:1031E8002A68520707D01D4A2946CDE901020090F6
:1031F8003A463CF076F8FFF7D1FE00234FF0FF3057
:10320800337009B0F0BD164936F0E4FD2B6803F0C1
:103218000703022B09D9134B0322CDE901432346A7
:103228000094294618463CF05CF80020E9E72B6832
:1032380013F0060FF9D00C4B022202930023CDE9BC
:103248000033EEE7A0E70120C8300020E92D000098
:10325800A8D40320303A0020BC8B002061C20500AE
:103268007DC2050086C2050099C205007FB500240D
:1032780005460E462222094901A8CDE901448DF8E8
:103288000C400DF0F3FE3246294601A80DF0EEFF82
:1032980001A80DF0A1FF204604B070BDA2E70120EF
:1032A80010B5C6B03CF03BF8044620210F4B104A3D
:1032B800009010483AF08AFC204650F02EFC0D4849
:1032C80004A90EF01BF878B10B490B685B0708D00E
:1032D8000A4B0122029300231846CDE900333CF043
:1032E8000FF8002046B010BD4598FBE7B8C20500AE
:1032F800BEC20500C2E70120EC300020DBC2050099
:1033080030B5002489B00322264905A8CDE9054433
:103318008DF81C400DF0AAFE0028234D11DA2B6809
:1033280059070AD0214B0390CDE9014301222346D6
:103338002946204600943BF0E3FF4FF0FF3009B0E8
:1033480030BD2246214605A80DF0B4FF002805DA55
:103358002B685A07F1D0164B0390E5E7042204A91D
:1033680005A80DF05FFF002805DA2B685B07E4D09D
:10337800104B0390D8E705A80DF02EFF2B6803F03B
:103388000703022B0BD9049B032203930A4B2946FC
:10339800CDE901432046234600943BF0B1FF049851
:1033A800CDE700BFF9C20500EC30002007C30500D7
:1033B80033C3050049C305005FC30500014B1878F6
:1033C800704700BFA1E70120054803691B689B05FA
:1033D80083684FF4007154BFDB681B69184700BF4E
:1033E80084420500054802698168136823F4007364
:1033F80013600B684FF40032092118478442050016
:103408002DE9F74F3E4B06461B78914643B93D4997
:1034180041F09EFB4FF0FF34204603B0BDE8F08F2B
:10342800022905D8384941F093FB6FF01504F3E7FA
:103438000022D9F8040011463AF06AFC8046D9F80F
:103448000800FDF736FA4708384650F06DFB054688
:10345800E8B1002400F1FF3A4FEA470BA3454FF0CB
:1034680000031BD1DFF8B090FFF7BCFFFFF7ACFFFC
:103478000121484609F0EAFB041E23DA30462246B9
:10348800224941F065FB284650F047FBC4E7304627
:103498001F4941F05DFB6FF00B04BDE7D9F8082028
:1034A80001A8115D22448DF80410527800218DF88E
:1034B800052010228DF806303AF02AFC02340AF86A
:1034C800010FCBE7D9F808302A465C6841463B46ED
:1034D8004846A047041E0CDA224630460D4941F002
:1034E80037FB284650F019FB00210B4809F0AEFBCA
:1034F80092E743463A463046084941F00DFBF0E76B
:10350800E3E7012077C3050095C30500C9C305009B
:10351800AEC30500E6C30500BC43050005C40500AD
:1035280030B51E4B05461B7885B03BB91C4941F0A8
:103538000FFB4FF0FF34204605B030BDFFF752FFB8
:10354800FFF742FF0121174809F080FB021E03DA4A
:103558002846154941F0FCFA124883689B696BB10B
:1035680003A99847041E0CDA224628460F4941F061
:10357800EFFA00210B4809F069FBDCE76FF08504DE
:10358800F2E79DF80E30284600939DF80C209DF830
:103598000D30074941F0C0FAEBE700BFE3E701202F
:1035A80077C30500BC430500C9C305001FC4050057
:1035B8003DC405002DE9F0432C4B07461B78144603
:1035C80085B043B92A4941F0C3FA4FF0FF34204689
:1035D80005B0BDE8F083022905D8264941F0B8FABC
:1035E8006FF01504F3E70022606811463AF090FB8B
:1035F800002206461146A0683AF08AFB0546FFF706
:10360800F1FEFFF7E1FE01211B4809F01FFB041E34
:103618001BDBDFF864909DB1102DA84628BF4FF042
:103628001008D9F808306A461C68314643461248E3
:10363800A047041E0FDA22463846104941F088FA9E
:1036480000210D4809F002FBC1E7224638460C4923
:1036580041F07EFABBE7314643466A4638460AF0EF
:1036680011FD4644A5EB0805D5E700BFE3E70120B7
:1036780077C3050057C40500BC43050072C40500A4
:10368800C9C30500F0B51346294A0546127885B026
:103698003AB9284941F05CFA4FF0FF34204605B0AA
:1036A800F0BD012905D8244941F052FA6FF01504FC
:1036B800F4E70022586811463AF02AFB1F4F0646E5
:1036C800FFF790FEFFF780FE0121384609F0BEFAA9
:1036D800041E05DA22462846194941F039FADDE781
:1036E8003146384601AA4BF046F8041E09DA22464C
:1036F8001449284641F02CFA0021104809F0A6FA8E
:10370800CCE7029ABB689B683BB13146384698477C
:10371800041E05DA22460C49EBE76FF05704F9E777
:1037280033462846029A094941F0F6F9E4E700BF12
:10373800E3E7012077C3050092C40500BC430500F8
:10374800C9C30500ABC40500CFC40500EBC4050020
:103758001FB501220B46144993420A7013490868A1
:1037680000F007000DD1022808D9114B029300235D
:1037780003221846CDE900333BF010FE05B05DF892
:1037880004FB23B90228F9D90A4A0292F0E7002873
:10379800F4D00393084B029300231846CDE9003375
:1037A8003BF0FCFDEAE700BFEAE701201431002006
:1037B80098B80500BCB80500E3B805002DE9F04746
:1037C800944F98463B68814603F00703022B154641
:1037D80088B01BD90024904B032202933946234614
:1037E8002046CDE900443BF0D9FD3B6803F00703D0
:1037F800022B0BD92B7803220393884B3946CDE94A
:1038080001432046234600943BF0C8FD0023B8F14D
:10381800060F8DF81C3012D0B8F1020F6AD03A6842
:1038280002F00702022A08D97D4A0093CDE9013245
:103838000322184677493BF0B1FD062526E0D5F866
:10384800024095F800A06E7824BA0025754B2A46E8
:10385800029329462B462846CDE90464CDE9005554
:10386800CDF80CA03BF09AFD002E48D13B6803F040
:103878000703022B09D96C4B0096CDE90163334647
:103888000322184663493BF089FD03253B688DF800
:103898001C5003F00703022B1CD90024634B03229E
:1038A800029320462346CDE900445A49CDF80C80BE
:1038B8003BF074FD3B6803F00703022B0AD95C4B0D
:1038C8000322CDE90143204623465249039500943B
:1038D8003BF064FD574B07AA196848460123143189
:1038E8003BF047FD4FF4FA703BF067FD404608B0E7
:1038F800BDE8F0871C4695F800A06E78A5E74E4B0A
:103908003A68197802F00702B14207D2022ABCD9F4
:103918004A4B0095CDE901532B46B1E7BAF1030FA5
:1039280008D80AF1FF3ABAF1020F0FD8DFE80AF017
:1039380064686A00BAF1320F69D0022A7FF67DAF57
:103948003F4B0095CDE901532B4671E73D4B701E67
:10395800B14253F820301BD1022A09D93A4B03222D
:10396800029300232B491846CDE900333BF016FD9E
:103978004FF4DC72B4FBF2F302FB1343334AE31A4D
:103988001360334B1E70334B01221A7000257DE7FC
:1039980063B9022A08D9304A1846CDE901321D49CF
:1039A800032200933BF0FAFC04256FE79C420DD9F3
:1039B800022A09D9294B03220293002315491846E4
:1039C800CDE900333BF0EAFC05255FE7022A09D977
:1039D800234B0322029300230E491846CDE90033F6
:1039E8003BF0DCFC4FF4DC72B4FBF2F302FB134354
:1039F800E41A164B1C60C4E71A4B1E701A4BC3E737
:103A08001A4BC1E700221A4B1A601A4BBCE71A4B33
:103A18001D70BBE71431002079C5050097C5050066
:103A2800A5C50500B5C50500E9C5050082C60500A0
:103A38009EC6050004240020E2E70120FEC505001B
:103A480070C60500C48B002011C60500D08B00206D
:103A5800522F0020E9E701202AC6050039C60500D3
:103A680055C60500E6E70120E7E70120E5E7012064
:103A7800CC8B0020E8E70120E4E70120F0B50446FC
:103A880087B00A2016461F460D463BF096FC0A4BA7
:103A980029461A685B68049205930823029304ABCD
:103AA8000193BDF830303246009320463B4646F03D
:103AB8009BFA07B0F0BD00BFC48B0020F8B50446E0
:103AC800204E30464FF09EF930B932681E492046E4
:103AD80041F03EF80020F8BD34F054F920461B4A66
:103AE8001B4941F019F81B4D1A212A69AF68136860
:103AF800284643F0806313603B68174A9847021EC4
:103B080001DA1649E3E7BF6957B14FF480024FF075
:103B180000731A212846B847021E04DA1049D6E76E
:103B28006FF05702FAE720460E4940F0F5FF0021F2
:103B3800304609F08BF8021E01DA0B49C7E740F05E
:103B480097F800BFE4420500AAC60500C2C60500F2
:103B5800CEC605009C42050011000100E4C6050020
:103B68000CC705003EC705006EC70500BFF34F8FA1
:103B78000549064BCA6802F4E0621343CB60BFF301
:103B88004F8F00BFFDE700BF00ED00E00400FA051D
:103B98001FB500230E4A0F4913700F4A04461370CD
:103BA8000A6802F00702022A07D90C4A1846CDE92A
:103BB8000132009303223BF026FC204613F09EFEC0
:103BC8000023074A1360074A138004B010BD00BFE2
:103BD8009FE701201C310020EAE701209EC705006D
:103BE8000C8C0020346701201FB5104C4FF4A172D3
:103BF80021460F4840F023FA0E4BB0F5A17F18601C
:103C080010D00D490B685B0709D00C4B0390029349
:103C1800002301221846CDE900333BF0F4FB0020D5
:103C280004B010BD228801201A60F9E72AEC0120AF
:103C3800D48B0020F48B00201C310020B5C7050070
:103C480010B588B00DF11E00FDF75AFD88BBBDF810
:103C58001E100DF11D003BF02CFA044648BB9DF8E0
:103C68001D3002460493BDF81E3001460393184BDD
:103C78000090CDE9010303463BF0C5FB9DF81D000C
:103C880009F072F868B113490B685A0709D0124B4A
:103C98000390CDE9014301222346204600943BF0DE
:103CA800B2FB4FF4F02200230C4836F08DF808B030
:103CB80010BD08490B685B07F3D0094B012202933A
:103CC80000231846CDE900333BF09DFBE9E700BF30
:103CD800E9C705001C3100200BC80500F0200020B2
:103CE8002CC8050070B51E4D0E462B6886B003F033
:103CF8000703022B30D900241A4B032202932946CA
:103D080023462046CDE900443BF07DFB2B6803F0B9
:103D18000703022B20D9738803220493338829468A
:103D28000393114B2046CDE90143009423463BF011
:103D38006AFB2B6803F00703022B0DD9F3880322D3
:103D48000493B38829460393084B2046CDE90143E1
:103D5800009423463BF057FB012006B070BD00BF1E
:103D68001C31002049C8050082C80500ADC80500FF
:103D78002DE9F041144D98462B680E4603F00703D1
:103D8800022B174686B01CD90024104B032202933D
:103D9800294623462046CDE900443BF034FB2B68F6
:103DA80003F00703022B0CD9094B0322CDE9014389
:103DB800294623462046CDE90478039600943BF033
:103DC80022FB06B0BDE8F0811C310020C6C8050002
:103DD800E5C8050010B50C460E4988B00B6803F01D
:103DE8000703022B10D9E38803220693A3880593BF
:103DF8006388049323880393074B02930023184690
:103E0800CDE900333BF0FFFA2288044B1A8008B052
:103E180010BD00BF1C31002010C905003467012007
:103E2800F0B50F4617491C460B68064603F0070312
:103E3800022B154687B008D9134B0322029300239F
:103E48001846CDE900333BF0DEFA012C07D12B7878
:103E5800062B13D1A8220D4B1A77FFF787FE022CE9
:103E68000CD12B78012B09D1102239468DF8172057
:103E780030460DF117023BF0B1FAEBE7204607B0E8
:103E8800F0BD00BF1C31002051C90500005500508D
:103E9800F0B50D4610491F460B68044603F00703AA
:103EA800022B164685B008D90C4B03220293002337
:103EB8001846CDE900333BF0A6FA0023CDE90133DB
:103EC800BDF828303246009329463B46204646F046
:103ED8008BF805B0F0BD00BF1C31002071C905008A
:103EE8001FB50B461349012B0A6802F007020DD1D2
:103EF800022A08D9104B0293002303221846CDE961
:103F080000333BF080FA05B05DF804FB23B9022AC0
:103F1800F9D90A4A0292F0E7022AF4D90393084B26
:103F28000322029300231846CDE900333BF06BFAD5
:103F3800E9E700BF1C31002098B80500BCB80500AF
:103F4800E3B80500F0B5164614220D4611491F4680
:103F58000B6887B003F00703022B04468DF8142082
:103F680009D90D4B03920293002303221846CDE989
:103F780000333BF048FA0123029305AB0193BDF8E7
:103F880030303246009329463B46204646F02CF80E
:103F980007B0F0BD1C31002090C9050070B505467A
:103FA800012692B02822002108A84FF007FE4D4BA9
:103FB800284608A91E7014F039F94B4C10F0FF037D
:103FC80022680ED052070AD00393484B3246029318
:103FD800002321461846CDE900333BF014FA12B00D
:103FE80070BD02F00702022A08D9414A2146CDE9EC
:103FF80001321846032200933BF005FA284644F0A4
:10400800F0FD3C4B1860109B1A883B4B1A802368C4
:1040180003F00703022B5BD90025384B03220293D8
:1040280028462B46CDE900552F493BF0ECF923688B
:1040380003F00703022B4BD9BDF838300322059350
:10404800BDF8363028460493BDF83430264903932A
:104058002B4B0095CDE901532B463BF0D4F923684F
:1040680003F00703022B33D900250F9A284613784B
:104078005278042B96BF2349234B51F82330042A46
:1040880096BF2049204A51F82220CDE90055CDE9B4
:1040980003321E4B0322029313492B463BF0B3F91C
:1040A800236803F00703022B12D9109B2846DA88ED
:1040B8000D4906929A8805925A8804921B88032211
:1040C8000393134B0095CDE901532B463BF09BF925
:1040D80040F6CD4200230F4835F042FE01220E4B38
:1040E8001A707CE7EAE701201C310020BBC90500F3
:1040F800E2C905000C8C002034670120F6C90500D0
:104108000ACA0500C4540500B3C9050031CA050030
:1041180010C90500F02000209FE701202DE9F84391
:10412800FFF762FD0646F8B1DFF87C801B4FD8F830
:1041380000203B88D1B24D1C5FFA85F953FA85F50A
:10414800B5F5DC7F164C12DBE15420464FF4DC71E8
:10415800FFF78CF82046D8F80020124900F8012B08
:10416800A7F800904FF003FD3046BDE8F88340F211
:10417800B71C581C6545E15420440A4909D14FF041
:10418800F6FC00234FF4DC7120463B80FFF76EF805
:10419800EAE74FF0ECFC3D80E6E700BF306701201E
:1041A800EDE701202CEC0120F48B002010B5012054
:1041B800FFF776F8024C2060FFF7A2F8606010BDA8
:1041C800C48B00202DE9F04F4FF4FA7089B03BF012
:1041D8002BF9DFF800B2714B714D1C68DFF8F8A1BC
:1041E8001CB32B7823B964203BF01EF901232B70F4
:1041F800204644F0F6FCBAF800300546632B40F23E
:10420800A180002800F08F80DBF800100122143113
:1042180045F0BDFF002800F08980FFF7E5FC002885
:104228007BD1284613F06AFB98E0BAF800205D4B72
:10423800632A1B782C7076D8002B40F08F805A4B5D
:104248005B6813F1011F00F2898000254FF0FF32EF
:104258004FF0FF33554835F011FAFFF7AFF8002853
:104268007FD1524835F082FA75E05148D21B038855
:1042780088F802105C1C0480BAF800404D49033CE1
:10428800944228BF144688F8003022461B0A394455
:1042980049482744033488F801304FF068FCA3B23A
:1042A8000793DBF8001042462846079B14313BF081
:1042B80095F8064640B909F10109404B5FFA89F1C2
:1042C8001A68BA42D1D8ACE73D490B685B071CD0E5
:1042D8003C4B0122029300230390CDE9003318469A
:1042E8003BF091F836490A6802F00702022A0CD915
:1042F8000023BAF8002018460392334ACDE9003368
:104308000292049403223BF07EF8212000210C360F
:1043180036F0E4F8012ECED8C3E74FF00009DFF8F5
:10432800BC804F46C9E71F4B1B7885E71D4B1B78A0
:10433800002B7FF476AF1C4B5B6813F1011F3FF62F
:1043480070AF83E7174B1B782BB9174B5B6813F1DA
:10435800011F7FF67BAF002D7FF463AF36F03CF88A
:1043680039E7FFF7DBFE0446104835F0FFF9002C6B
:10437800F1D0164C23780133DBB2FF2B2370EAD13E
:10438800FFF714FF0023124A23701946CDE90132C2
:1043980018461A4600933BF036F8DCE70C8C0020F0
:1043A800EBE70120EAE70120C48B0020F88B00200E
:1043B800326701202CEC0120A8E90120F48B0020B1
:1043C8001C31002046CA050065CA0500ECE701203B
:1043D8007ECA05007C25002034670120A5E901205C
:1043E80070B554488EB013F073FE002011F0BAFC7B
:1043F8000446514E4FF47A703BF016F833687CB19E
:1044080058070AD04D4B0122029300233146CDE9CB
:104418000033039418463AF0F6FF20460EB070BDFC
:1044280003F00703022B09D9454B0322CDE90143C9
:1044380031462346204600943AF0E5FF4FF4A07237
:10444800002140484FF0BAFB3F4816F08BF83F4D2B
:104458003F4816F087F809AC3E4816F083F80FCDB0
:104468000FC42B680322236002233B49009309A849
:104478003A4B12F0B9FC3368044650B15907CCD016
:10448800374B0122029300232B49CDE900330390D7
:10449800C0E703F00703022B08D9324B0322CDE90A
:1044A80001032549034600903AF0ADFFFDF788F96E
:1044B8000546FDF77BF955EA000332682BD0520711
:1044C8000AD00393284B0122029300231A49184665
:1044D800CDE900333AF097FF4FF42153234AD361D3
:1044E800234B13600023C2E90233C2E9053353604A
:1044F8001361002000210722CDE90601CDE902322F
:10450800CDE9003304934FF480521A4B1A491B48E3
:1045180035F022FD81E702F00702022ADCD9184AA9
:104528001846CDE901320449032200933AF06BFFA3
:10453800D2E700BF342600201C31002087CA0500BE
:10454800B0CA0500EDE7012004240020804F0500D3
:104558007C250020F4240020E8540500D8540500E8
:10456800D0CA0500FFCA050018BF0500D48B00207B
:104578006CED0120CD410000A8D80320283B002085
:1045880020CB0500014B1868704700BF0C8C002039
:1045980030B5B1F5A07F0C4685B011D913490B6829
:1045A80013F0060F09D0124B022202930023039442
:1045B8001846CDE900333AF026FF6FF0680012E0A4
:1045C8000C4D0B0A0A4629700146A81C6B704FF067
:1045D800CEFA4FF4A172294607483FF0E0FCB0F547
:1045E800A17FDBD1002005B030BD00BF1C31002009
:1045F80034CB0500E8EA0120D48B00202DE9F84FE0
:1046080015464A434FEA420B0C460BF1070121F0CD
:10461800070100AFADEB010D69464FEA450E43B9FE
:104628009C46AB4228DA002600EB430801EB4C0914
:104638001DE0144B03EB85080023AB421CDA00266F
:1046480000EB430C09E058F82320BCF800A002FB5B
:104658000469F44421F819A00136A642F3DB0133BA
:10466800EBE7B8F800A0013629F802ABF044A642FF
:10467800F7DB0133A444D4E75A464FF078FABD4635
:10468800BDE8F88FF85405002DE9F84F15464A4360
:104698004FEA420B0C460BF1070121F0070100AF6E
:1046A800ADEB010D69464FEA450E43B99846AB425A
:1046B80028DA002600EB480901EB430C1DE0144BF7
:1046C80003EB85080023AB421CDA002601EB430C00
:1046D80009E058F8232002FB046930F819900136E4
:1046E800ACF80090F444A642F3DB0133EBE739F968
:1046F80002AB0136ACF800A0F444A642F7DB013364
:10470800A044D4E75A464FF032FABD46BDE8F88FC8
:10471800F8540500B1F5807F024610B502D9B0FB08
:10472800F1F010BD4B420B40B3FA83F3C3F1200400
:10473800C3F11F03D840064B21FA04F453F8243080
:10474800A3FB003000FB1122914298BF0130E8E73B
:10475800B46905002DE9F74FB2F1000A04460E4688
:10476800174618BF4FF0010A8B464FF000081D4648
:104778000368D0F81C900093226A072A15DC626847
:104788002ABBB8F1000F0CBF012302239A454FF052
:10479800010808DA1DB1B6F900301B112B80012081
:1047A80003B0BDE8F08FBB46E6E7009BA3B1BBF8BA
:1047B80000100122C90B484601913CF073FC019995
:1047C800226A083A22626268002ADAD051B94FF4A4
:1047D8008042ABF80020D4E7012148463CF05FFB5B
:1047E8000146EDE7004AF4E700C0FFFF2DE9F04F6E
:1047F8008BB0CDE905328368199E0793C36882465A
:104808000493436A049A0893079BD0F800B01B6B83
:10481800D0F8108033F91250189BD0F81C9005EB93
:10482800C305159B149F1C68039168103EB3022FA3
:1048380025D13946103800FB01403AF014FE641BBC
:10484800A4F11F039842A8BFA4F12000032823DC89
:10485800CEB1049B434532DABBF1000F40F09B8098
:10486800484604F009F88046159B1B68102B04DDA8
:10487800DAF82030102B00F3FA81002685E0790061
:1048880004380139D7E7BBF1000F1BD1484603F0C4
:10489800F3FF80463446D8E04028A8BF4020C44BE8
:1048A80000F0070233F91240C010C0F10E000441B5
:1048B800013424F001053EB1049B434526DBBBF1DE
:1048C800000FCDD0012524E0BBF1000F21D14846CF
:1048D80003F0D2FF179B8046012B65DC5C466E1007
:1048E800731C03FB03FABBF1000F00F06781A642BB
:1048F800C0F2558104FB0441621C491053464846E6
:104908000A4404F001F82946A00353E0BBF1000F64
:1049180043D0DDE90510DAF82C30324600933B46E7
:104928003EF004FE0446484603F0A6FF012D8046EB
:1049380044D1002E00F08980BBF1000F94D0B4F56B
:10494800005F40F39281DAF83430002B40F08D811B
:10495800059A023ABB42C0F28281DDE90521049B37
:10496800079800930197089B80683AF088FD159B8B
:104978001B68102B81DDDAF82030102B7FF77DAF14
:104988000222314648463CF068FBDAF83440002CF5
:104998005BD000267EE73546BBE7484603F06CFF50
:1049A800022F804600F3C980691C48463CF0A6FAED
:1049B80029468003FFF7AEFE044645E005FB04F3F5
:1049C80096B1DAF83020002A40F0928003F50053BF
:1049D800022F4FEAA33410DC179B012B00F38280CF
:1049E800BBF1000F7ED1DFE703F500539C13DAF823
:1049F8003830002B4DD1179B71E005EBD57A4FEA83
:104A08006A0A0AF1010202EB42020AEB020154456A
:104A1800C5BF04F1FF30A0EB0A0004EB4400801886
:104A2800C8BFA4EB0A0A0B46D8BFC21C0146C8BFC0
:104A38005244484603F068FFA0032946FFF76AFE80
:104A48000446002E40F0E5800026484603F014FF97
:104A5800159B159A1B68A0EB08055B1B1360002CBF
:104A680040F00B810123A04647F6FF79169A514F73
:104A780093401A9A013B12681A401A9B1A60039BCA
:104A8800C3E90069C3E90287C3E904450BB0BDE87F
:104A9800F08F002CAFDDA542ADDD2946A003FFF75E
:104AA80039FE824600B23AF05AFD0990CAF58040B4
:104AB80000B23AF054FD09993AF072FD4FF4804281
:104AC8007B1EDB0113FB0020159BC2131B68B3EB95
:104AD800E03F5EDB5B4293428DDD3446179B012B42
:104AE8007FF7FDAE214648466A1C3CF011FBA3E760
:104AF800B4F5005FCCBF47F6FF742F4C94FBF5F478
:104B08001C44A41324EAE474AC42A8BF05F1FF34A2
:104B1800002A00DB0134022F7FF762AF05EBD57A5C
:104B28004FEA6A0A0AF1010303EB430202EB0A01A6
:104B3800BBF1000F7FF46BAF07E04FEA640A0AF19C
:104B4800010303EB430202EB0A014846CDE90532B3
:104B5800049103F0ABFEDDE90413069A8242C7BF55
:104B6800032390FBF3F4841AE418A245BBBF04F1B5
:104B7800FF30A0EB0A0004EB440080180B46014606
:104B8800B6BFA4EB0A0AC21C524448463CF064F97A
:104B9800B9E6179B2C46012B3FF722AF9FE66A1C0C
:104BA800A91C121B091B5143AAEB6101A6E600BF11
:104BB8005093050000C0FFFF0180FFFF51464846A3
:104BC800049303F073FE049B5E43B0EB660F0CDAAC
:104BD800C00001303CF099FF441E640804FB044106
:104BE800621C491053460A44CFE7AAEB0000C000F4
:104BF80007383CF08AFF6C1C2246C0EB4400A91C15
:104C0800A2EB5002A1EB500151434408AAEB610109
:104C1800E8E7C8B1002145F6822C069B9D1E059B3E
:104C2800981E8F427FF710AF35F8022F30F8023FF9
:104C38001CFB02F21CFB03F3D6189B1AF613DB13BA
:104C48002E8003800131ECE7049B079800930197BD
:104C5800089B8068DDE905213AF011FCF4E632F89A
:104C6800021F01334942118074E6002675E60221CD
:104C780048463CF002F9064687E6B4F5804F0FD166
:104C88000123169A27469340013B93401A9A47F608
:104C9800FF7812684FF000091A401A9B1A60EEE676
:104CA80020B23AF05CFC8146C4F5804000B23AF08C
:104CB80056FC494680463AF073FC4FF48043013F66
:104CC800FF0117FB0037FF13D9E600BF2DE9F04FAE
:104CD800044699B08B461146BDF994202498089251
:104CE8002268D4F80C800D92A26811930992626927
:104CF8000A92E2690B92099AD2F85CC0421C0C92A3
:104D0800099A9568926D00FB0555454432F915A03E
:104D1800421C1CF80A500CEB0A0900F0EB8019F849
:104D280005200C329A4280F2E580022940F3E280A5
:104D380021F001060BEB06030B93229B00F1FF38D1
:104D4800012B08BF269A4FEA610902BF02F001034E
:104D580043EA42032693229B5A4601334FEA630AE9
:104D680026AB06930023CDE90483229B2046CDE998
:104D780002A311ABCDE9009312A90B9BFFF736FDF7
:104D8800DDE915530993BDF94C30179A0D93BDF918
:104D980050300E93229B012B15DD099BC3F30D03A5
:104DA8008BB1099BB3F5005FDBBF4FEAC903C8F1BC
:104DB8000501C8F104030B41CBBF45FA03F35B19A6
:104DC800ED1A03EAE375119F236A7D1B05EBD57580
:104DD8006D10BD42A8BF3D469B1A0A932362239BD0
:104DE80025EAE5757F1B002B48D01E44269BBD4253
:104DF8000C9343FA0AF30F93229B4FEA6303109331
:104E0800089B3DDB0D9A13FB02F303F5804343F344
:104E1800CF330C9ACDE90283239B5946CDE900A3F1
:104E280004922B464A462046FFF750FF236A0A9A07
:104E38008346D31AEB1A182B03DD099A0AB1183BDB
:104E48001F440E9A089B13FB02F30F9A03F5804345
:104E580043F3CF33CDE9028304923B464A462046CA
:104E6800CDE900A60B99FFF731FF109B00FA03F775
:104E780047EA0B07384619B0BDE8F08F239EB5E71F
:104E88000E9A13FB02F30F9A03F5804343F3CF33D3
:104E9800CDE90283CDE900A63B46049220464A4666
:104EA8000B99FFF713FF109B0A9A00FA03F6236A7F
:104EB800D31AFF1A182F05DD099BB3F5804F1CBFC5
:104EC800183FED190D9A089B13FB02F303F5804375
:104ED80043F3CF330C9ACDE90283239B0492CDE9A7
:104EE80000A34A462B4659462046FFF7EFFE46EAFE
:104EF8000007BFE70627002203F1FF3E50190130E3
:104F0800401019F80060B645D4BF05460246013F77
:104F1800F4D119F80500A0EB0E0022B9834226DD72
:104F280045B92A460BE019F80230AEEB030E864568
:104F3800F6DC1546D4441CF805302A465D1C236A65
:104F48005B1B002B236228DA9AB96368002B91D087
:104F58000125229B9D40269B013D2B402693002B3B
:104F680043D14A00584619464EF028FE82E71546B6
:104F7800E5E709982B4423620C9EC56D8068013AC9
:104F880000FB0680099EB66D36F91000DDD005EBF2
:104F9800020C1CF800500135D2E7002AD5D0072AA8
:104FA80006DD02F00703D2100833013A03FA02F2D1
:104FB8000D9B7BB1E36A5846049363680393089B8F
:104FC80002930B9B0193229B00930A9B3EF008FAE5
:104FD80007464FE7089B584602930B9B0193229B79
:104FE80000930A9B3EF040FAF2E7239ABAB10022F6
:104FF800164D174E8A4216DB1D4609E0A36A00FBD0
:105008000363A3621B152BF8123001328A42F5DBC9
:105018005846E36A089A3EF056FA2F462AE7239A3A
:105028000A480B4EF2E7A06A239F05FB006010F4C4
:10503800004FA06214BF04206FF0030037F812700D
:1050480038442BF812000132D4E700BF0D6619006E
:105058005FF36E3C2DE9F04F16468FB00B931A9B09
:10506800DDE9184A0C931B9B621E0A93BDF9703048
:1050780006900D9303680F46DDE91D580893836970
:10508800214607935342534130460993FFF742FBA9
:10509800012E834608D1002239460A9B06980FB094
:1050A800BDE8F04FFFF756BB079B23EAE37985B1CC
:1050B800BAF1000F0DD0002B05DC10F0010F00D164
:1050C8000BB9012C05DD5146284672004EF04FFD04
:1050D800AA4600254D4557D10BFA09F54FF0000BAC
:1050E80044FA09F4EB0703D4079B13EB0B0F6CD4BA
:1050F800012C14DD089B3BB13846099B04FA09F2E0
:1051080045FA09F1FFF77AFABAF1000F07D05046CD
:10511800099B04FA09F245FA09F1FFF76FFA0D9BAA
:10512800CDF8108003930C9B3246CDE901A3394694
:105138000B9B06980094FFF7C9FD069B80465B68A9
:10514800F3B1012C07DD3846099B04FA09F245FA48
:1051580009F1FFF799FA4FF0000AD3454DD1002520
:105168004FF0010BDFF8ECA04D4554D10A9B04FA2F
:1051780005F5002B5AD10123AB40013B08EA03088F
:1051880040460FB0BDE8F08F089B3BB1012338467D
:1051980003FA05F246FA05F13AF0E3FBBAF1000F1B
:1051A80007D00123504603FA05F246FA05F13AF012
:1051B800D8FB274B08F00F024FEA28189A5C13F81F
:1051C8000880013542EA880884E7089B23B1224613
:1051D800294638463AF0C5FBBAF1000F04D02246FA
:1051E800294650463AF0BDFB08FA04F348EA03089A
:1051F80064006D100BF1010B74E764106D0028FA60
:1052080004F322462946384648EA03080AF1010A07
:105218003AF0A7FBA1E70BFA05F246FA05F1384682
:105228001AF8088001353AF09CFB9DE7B0053CF080
:10523800B1FC002300B2B3429DDA0A9937F8132073
:1052480010FB02F2D21321F813200133F3E700BF59
:105258009ACB05008ACB05002DE9F04F9B460368E1
:1052680095B00B93C369BBF1010F06460D46144672
:105278000A9307D1229BFFF76DFA8046404615B086
:10528800BDE8F08F1EAB53F8182F06930123059342
:10529800219B0C9204931F9B0A46CDE902331EAB57
:1052A800CDE900B30EA92346FFF7A0FADDE91127DF
:1052B8000E9BBBF1020F0D93BDF93C301399089377
:1052C800BDF9403009931E9B40F09C809846326A95
:1052D800002F69D1A246A946521A326247F6FF72D8
:1052E8000C9B04920693239B02220593229B49461A
:1052F8000393219B30460293209B7F0001931F9BC1
:1053080000934346FFF7A6FEB9F802307A1E13FB56
:1053180002F3AAF80030B9F80030C7F1010713FB0F
:1053280007F3AAF8023073688046002BA6D02B88B2
:10533800089A12FB03F3DB132B806B8812FB03F331
:10534800DB136B802388099A099912FB03F362889F
:10535800DB1311FB02F2D213238062802A88D31A4E
:105368002B8023881A4422806B8862889A1A6A8064
:105378006288134463807368002B3FF47FAF0D9BF2
:10538800002B3FF47BAF0023023C5B45BFF676AFB2
:1053980034F8022F013352422280F6E7521AAA4605
:1053A800A1460027326299E7B7F5804FF6D0A3F1FE
:1053B800080808310B9BB7F5005FA2EB0102D9BFC3
:1053C800A246A946AA46A1463262ABB1BAF8022063
:1053D800B9F80070BAF8001017FB02F7B9F8022004
:1053E8000A9812FB01F29742ACBF0027012701225D
:1053F80039463BF057FE71E701210A983BF04FFD13
:1054080007466BE7A3EB020909EBD9794FEA69096B
:105418009945A8BF994629EAE979A3EB0908336AAF
:105428001F9A5B1A0A933362249BC1450B9343FA74
:1054380002FA53DB0693239B0092059347F6FF730A
:105448000493229B5A460393219B29460293209B4F
:10545800304601934B46FFF7FDFD336A0A9A0B90DD
:10546800D31AA9EB0303182B02DD0FB1183B98449C
:105478000023099A0593CDE90332219A2146CDE903
:1054880001321F9B5A46009330464346CDF818A078
:10549800FFF7E0FD0B9B43EA00087368002B3FF41D
:1054A800EDAE0022134611468B4550DC089933FBBC
:1054B80001F34FEA610A1AFB0AFA9244AAEB830045
:1054C8000AEB830A4C4B9A4501DD984249DC294690
:1054D80020464FEA4B024EF04AFB50E70023099A58
:1054E8000593CDE90332219ACDF818A0CDE9013210
:1054F8001F9B5A460093214643463046FFF7AAFDB4
:10550800336A0A9A8246D31AA8EB0308B8F1180F2F
:1055180005DDB7F5804F1CBFA8F11808C1440B9BE7
:105528005A460693239B2946059347F6FF7304932F
:10553800229B30460393219B0293209B01931F9B40
:1055480000934B46FFF786FD4AEA0008A5E734F9C1
:10555800110035F8116010FB0022013110FB0633F1
:10556800A2E7B0FA80F7C7F11F077F10FB1F5B00A7
:10557800BAFA8AF618413CF0DEFAC6F11F06761030
:105588008146F01F40004AFA00F03CF0D4FA0123AB
:1055980001370FFA87FE03FA07F747FA03F2099073
:1055A800002710461E440FFA86FA03FA06F61E4133
:1055B800023DA4F1020CBB457FF7E1AE35F8023F8E
:1055C800089A12FB03F33CF8022F03F58043C3F358
:1055D800CF33991A134419FB01F1099A014412FBBC
:1055E80003F3334441FA0EF143FA0AF32980ACF885
:1055F80000300137DFE700BF247502002DE9F74FBF
:10560800002643F6FF7E1468DFF898806442C4F3EE
:105618000D0A4FEAA439546801906442C4F30D0C92
:10562800A4130D9A964202DB03B0BDE8F08F019AED
:105638001D6832F916700A6832FB07525D689200DD
:1056480032FB0AFB4FEA6B3B0BF1010B05EB6B05D9
:1056580032FB0CFB4FEA6B3B32FB09550BF1010B9C
:105668001D6048684FEA6B0B30FB07551D6032FB25
:1056780004B572445D60B2F1005F886830FB07557D
:105688005D604FEAA23508DA15F5004F08DB2AB24B
:105698000C9820F816200136C3E747F6FF72F7E7A3
:1056A8004246F5E70080FFFF2DE9F04F022600256E
:1056B80043F6FF7E146852686442524285B0C4F3D0
:1056C8000D0C44F38F340394C2F30D0B42F38F385F
:1056D8000F9A954202DB05B0BDE8F08F0A6830F8F2
:1056E800069030F825401F6832FB04749F6832FB2F
:1056F8000972DF68920032FB0CF94FEA693909F147
:105708000109A40007EB690934FB0CFA5F684FEA4A
:105718006A3A01920AF1010A07EB6A07039A34FB15
:105728000272019F1A600292039A37FB0299C3F82A
:10573800089030F825A04A68029F32FB0A771F605C
:1057480030F806A04F68019A37FB0A9732FB0BF92D
:105758009F604FEA693934FB0BF77F13013709F172
:1057680001097F104FEA690934FB087732FB089971
:105778005F60C3F80C90744430F825A08A68B4F1CF
:10578800005F32FB0A775F608F6830F806A037FB4E
:105798000A97DF604FEAA43716DA17F5004F16DBD1
:1057A8003FB20E9A22F82570019A7244B2F1005F56
:1057B8004FEAA2340DDA14F5004F0DDB24B20E9A2D
:1057C80001359453043683E747F6FF77E9E7034F3B
:1057D800E7E747F6FF74F2E7004CF0E70080FFFFC9
:1057E8002DE9F04F95B0239DBDF97C70BDF980601F
:1057F8009C4612951E9B249D57EA060896460893D8
:105808008246DDE921230C46019509D1814200F049
:105818002A81089B9A0015B0BDE8F04F4EF0B4B944
:10582800714660464FF0060C0F29B8BF0F210F28AC
:10583800B8BF0F200CFB02F8DFF868E30CFB03FC91
:1058480005900EEB08003EF8088017FB08F808F5ED
:10585800804848F3CF35B0F80280808817FB00F005
:1058680000F5804040F3CF3017FB08F808F5804872
:105878000F95119048F3CF350EEB0C003EF80CC095
:1058880016FB0CFC0CF5804C10954CF3CF35B0F89A
:1058980002C0808816FB00F000F5804040F3CF304E
:1058A80004906FF0030016FB0CFC0CF5804C02957D
:1058B8004CF3CF350395059DB74205FB00F000F189
:1058C800040554F805800E9525580695A0F10405A1
:1058D800099565590795A0F108050A9565590B952D
:1058E80007D1059DA94204D1019D9A4208BF002510
:1058F8000195059B4FF0000CC3F18043013304EB85
:1059080083030D936FF0030303FB0142019B63457F
:105918000EDC002E7CD1544500F0A580089B019A2E
:105928009A1A019B920004EB83010AEB830072E749
:105938000D9B079D53F8041FCDE90C13129B33F9F7
:105948001CE047F6FF731EFB0EFE4EF3CF31A3EBB0
:10595800EE3E0FFA8EFE0F9B1EFB03F913684FEA0B
:10596800E93933FB09F9109B1EFB03FB52F8043F8E
:105978004FEAEB3B52F8087C3B4452F80C7C33FB73
:105988000BF31393119B1EFB03FE536808EB050BE7
:105998001F444FEAEE3E029B37FB0EF711FB03FE56
:1059A800069B4FEAEE3E33FB0EFE039B11FB03F30F
:1059B800DB133BFB03FB049B11FB03F1DDE90B3518
:1059C800C9132B4433FB01F154F82C30139D03EB1E
:1059D800490303EB450303EB470303EB4E0303EBD8
:1059E8004B0303EB41036D498B42B8BF0B466C492F
:1059F8008B42D4BF4AF82C304AF82C10079B0CF184
:105A0800010C0B93069BCDE90683DDF830807DE71A
:105A18004FF0000B019B089923EAE3728F1A0A9949
:105A280004EB82035E5809991C585D58043F6900CD
:105A38000691610001910E99DFF860C158580599E7
:105A4800DFF85CE1C1F102017600400003EB81015F
:105A58000AEB82020597059D1431AB4503F1140347
:105A680002F1140202DB15B0BDE8F08F51F814AC56
:105A780053F8147CDDE9014534FB0577069C039D4A
:105A880000EB040906EB4A0639FB0579049D36FB51
:105A980005966645B8BF6646019C7645D4BF42F870
:105AA800146C42F814EC51F8109C4FEA4A0804EBC5
:105AB8004A0A069C53F8107C029D30FB0577039D2B
:105AC8003AFB057A049F04EB490535FB07A56545B4
:105AD800B8BF65467545D4BF42F8105C42F810EC73
