:020000040000FA
:1000000020E7042075060100DF740400610601008A
:100010006106010061060100610601006106010040
:100020000000000000000000000000008108010046
:1000300061060100000000000508010061060100E2
:10004000990A0100990A0100990A0100990A010020
:10005000990A0100990A0100990A0100990A010010
:10006000990A0100990A0100990A0100990A010000
:10007000990A0100990A0100990A0100990A0100F0
:10008000990A0100990A0100990A0100990A0100E0
:10009000990A0100990A0100990A0100990A0100D0
:1000A000990A0100990A0100990A0100990A0100C0
:1000B000990A0100990A0100990A0100990A0100B0
:1000C000990A0100990A0100990A0100990A0100A0
:1000D000990A0100990A0100990A0100990A010090
:1000E000990A0100990A0100990A0100990A010080
:1000F000990A0100990A0100990A0100990A010070
:10010000990A0100990A0100990A0100990A01005F
:10011000990A0100990A0100990A0100990A01004F
:10012000990A0100990A0100990A0100990A01003F
:10013000990A0100990A0100990A0100990A01002F
:10014000990A0100990A0100990A0100990A01001F
:04015000990A010007
:1001580081F0004102E000BF83F0004330B54FEA70
:1001680041044FEA430594EA050F08BF90EA020FDD
:100178001FBF54EA000C55EA020C7FEA645C7FEA70
:10018800655C00F0E2804FEA5454D4EB5555B8BF93
:100198006D420CDD2C4480EA020281EA030382EA04
:1001A800000083EA010180EA020281EA0303362D96
:1001B80088BF30BD11F0004F4FEA01314FF4801C69
:1001C8004CEA113102D0404261EB410113F0004F7B
:1001D8004FEA03334CEA133302D0524263EB430332
:1001E80094EA050F00F0A780A4F10104D5F1200ED0
:1001F8000DDB02FA0EFC22FA05F2801841F100012B
:1002080003FA0EF2801843FA05F359410EE0A5F1FE
:1002180020050EF1200E012A03FA0EFC28BF4CF02F
:10022800020C43FA05F3C01851EBE37101F00045E5
:1002380007D54FF0000EDCF1000C7EEB00006EEBF2
:100248000101B1F5801F1BD3B1F5001F0CD349087C
:100258005FEA30004FEA3C0C04F101044FEA4452D3
:1002680012F5800F80F09A80BCF1004F08BF5FEA5A
:10027800500C50F1000041EB045141EA050130BD3A
:100288005FEA4C0C404141EB0101013C28BFB1F54C
:10029800801FE9D291F0000F04BF01460020B1FA97
:1002A80081F308BF2033A3F10B03B3F120020CDA6A
:1002B8000C3208DD02F1140CC2F10C0201FA0CF048
:1002C80021FA02F10CE002F11402D8BFC2F1200CAD
:1002D80001FA02F120FA0CFCDCBF41EA0C01904063
:1002E800E41AA2BF01EB0451294330BD6FEA0404AC
:1002F8001F3C1CDA0C340EDC04F11404C4F1200297
:1003080020FA04F001FA02F340EA030021FA04F3A8
:1003180045EA030130BDC4F10C04C4F1200220FAFF
:1003280002F001FA04F340EA0300294630BD21FA3D
:1003380004F0294630BD94F0000F83F4801306BF03
:1003480081F480110134013D4EE77FEA645C18BFF7
:100358007FEA655C29D094EA050F08BF90EA020F8E
:1003680005D054EA000C04BF1946104630BD91EA86
:10037800030F1EBF0021002030BD5FEA545C05D189
:100388004000494128BF41F0004130BD14F58004C8
:100398003CBF01F5801130BD01F0004545F0FE413C
:1003A80041F470014FF0000030BD7FEA645C1ABF71
:1003B800194610467FEA655C1CBF0B46024650EAA8
:1003C800013406BF52EA033591EA030F41F40021D4
:1003D80030BD00BF90F0000F04BF0021704730B55A
:1003E8004FF4806404F132044FF000054FF000012F
:1003F80050E700BF90F0000F04BF0021704730B5F0
:100408004FF4806404F1320410F0004548BF4042C4
:100418004FF000013EE700BF42004FEAE2014FEA19
:1004280031014FEA02701FBF12F07F4393F07F4FF4
:1004380081F06051704732F07F4208BF704793F0F7
:100448007F4F04BF41F40021704730B54FF460740A
:1004580001F0004521F000411CE700BF50EA01020D
:1004680008BF704730B54FF000050AE050EA0102B6
:1004780008BF704730B511F0004502D5404261EB26
:1004880041014FF4806404F132045FEA915C3FF467
:10049800D8AE4FF003025FEADC0C18BF03325FEA04
:1004A800DC0C18BF033202EBDC02C2F1200300FAB5
:1004B80003FC20FA02F001FA03FE40EA0E0021FADA
:1004C80002F11444BDE600BF7BB972B90029BEBF72
:1004D80000204FF0004106E008BF00281CBF6FF065
:1004E80000414FF0FF3000F057B8ADF1080C6DE94E
:1004F80004CE002909DB002B1ADB00F0E2F9DDF855
:1005080004E0DDE9022304B07047404261EB410199
:10051800002B1BDB00F0D5F9DDF804E0DDE9022350
:1005280004B0404261EB4101524263EB4303704720
:10053800524263EB430300F0C4F9DDF804E0DDE95F
:10054800022304B0404261EB41017047524263EB21
:10055800430300F0B6F9DDF804E0DDE9022304B056
:10056800524263EB4303704753B94AB9002908BFA5
:1005780000281CBF4FF0FF314FF0FF3000F00CB8DF
:10058800ADF1080C6DE904CE00F09BF9DDF804E04C
:10059800DDE9022304B07047704700BF2DE93440FD
:1005A80055F804AB1A1F55F804BB2CDD54F804CBDE
:1005B8001CFB0A6654F804EB1CFB1A77043A1CFB74
:1005C8000B881CFB1B991CFB3A6655F804AB1CFBFB
:1005D8002B771CFB3B881CFB2A99C8BF54F804CB1B
:1005E8001EFB0B661EFB1B771EFB0A881EFB1A9957
:1005F8001EFB3B6655F804BB1EFB2A771EFB3A8898
:100608001EFB2B99D4DC043236DD34F802CB013AD8
:100618001CFB0A66C8BF34F802EB1CFB1A771CFBEC
:100628000B881CFB1B9927DD1EFB1A66013A1EFB73
:100638000B7735F802AB1EFB1B88C8BF34F802CB1A
:100648001EFB0A9918DD1CFB0B66012A1CFB1B7795
:1006580035F8022B1CFB0A88C8BFB4F800E01CFB65
:10066800029909DD1EFB1B66B5F800B01EFB0A7770
:100678001EFB02881EFB0B99BDE834802DE9F04F64
:100688000D460999044615F0030F4FF001003BD0C1
:10069800B3F1040C4FF0000E35F8028B19DD54F855
:1006A800046B4FEA084855F8049B16FB18EE54F8FB
:1006B800047B16FB29EE55F8048B17FB19EEBCF1E9
:1006C800040C17FB28EEC4BF54F8046BEBE74FEAA1
:1006D80018481CF1040CA2BF34F8026B16FB08EE94
:1006E800BCF1010CC4BF35F8028BF4E7A4EB43045A
:1006F800A5EB4305704505F10205B8BF7046013901
:1007080042F804EB00DCC0E004391BDB4FF00006C4
:100718004FF000074FF000084FF00009FFF73EFFC9
:10072800B04205F10805B8BF3046B842B8BF3846F0
:100738004045B8BF40464845B8BF4846A2E8C00350
:100748000439E3DA02315FDBB3F1040C4FF0000A3D
:100758004FF0000B55F8048B20DD54F8046B55F866
:10076800049B16FB08AA54F8047B16FB18BBBCF1C3
:10077800040C16FB38AA55F8048B16FB29BBC8BF16
:1007880054F8046B17FB09AA17FB19BB17FB39AA06
:10079800C8BF55F8049B17FB28BBE2DC1CF1020C10
:1007A8000EDD54F8046B16FB08AA55F8049B16FBDB
:1007B80018BBACF1020C16FB38AAC84616FB29BBBD
:1007C80034F8026B1CF1010C16FB08AAC8BF34F8F8
:1007D800027B16FB18BB05DD35F8029B17FB18AA30
:1007E80017FB09BBA4EB4304A5EB4305504505F1F2
:1007F8000205B8BF5046A1F10201584542F804ABC2
:10080800B8BF584642F804BB01313EDBB3F1040CD3
:100818004FF0000E1DDB54F8046B55F8048B54F8A8
:10082800047B55F8049B16FB08EEBCF1040C16FB80
:1008380038EEA8BF54F8046B17FB09EEA8BF55F8AB
:10084800048B17FB39EEA2BF54F8047B55F8049BC0
:10085800E9E71CF1020CA1BF54F8046B55F8048BAE
:1008680016FB08EEACF1020CA8BF16FB38EE1CF123
:10087800010CA2BF34F8026B35F8028B16FB08EEA8
:10088800704542F804EBB8BF7046BDE8F08F10F829
:10089800012B11F8013B012A28BF9A42F7D0D01A40
:1008A8007047034611F8012B03F8012B002AF9D1F0
:1008B8007047034613F8012B002AFBD1181A013898
:1008C80070472DE9F04786468C460846089E15462F
:1008D80074461946002B40F0C1808542B2FA82F274
:1008E80045D94AB1C2F1200300FA02FC9540944070
:1008F8002EFA03F343EA0C0C4FEA154EA8B2230C68
:10090800BCFBFEF80EFB18CC08FB00F943EA0C43CD
:10091800994528D9EB1808F1FF3704D2994502D92F
:10092800A8F102072B44A3EB0903A4B2B3FBFEFC16
:100938000EFB1C330CFB00F044EA0344A04214D91C
:100948002C190CF1FF3304D2A04202D9ACF10203F6
:100958002C44241A43EA07401EB1D44000233460D3
:100968007360BDE8F0874746DDE76346F1E792BB71
:10097800431B01214FEA154EAFB2200CB3FBFEFC1E
:100988000EFB1C330CFB07F840EA0343984561D97A
:10099800EB180CF1FF3004D2984502D9ACF10200F3
:1009A8002B44A3EB0803A4B2B3FBFEFC0EFB1C33E1
:1009B8000CFB07F744EA0344A7424DD92C190CF164
:1009C800FF3304D2A74202D9ACF102032C44E41B42
:1009D80043EA0040C0E7C2F120039540944020FA62
:1009E80003F12EFA03F34FEA154E9040AFB20343DA
:1009F800B1FBFEFC0EFB1C10190C0CFB07F841EABE
:100A08000041884522D969180CF1FF3004D2884585
:100A180002D9ACF102002944A1EB08019BB2B1FB59
:100A2800FEFC0EFB1C110CFB07F743EA01439F4237
:100A38000ED9EB180CF1FF3104D29F4202D9ACF168
:100A480002012B44DB1B41EA004193E76046E3E7E0
:100A58006146F7E76046A4E76346B8E7834206D9EC
:100A680016B9002108467CE7C6E900E0F9E7B3FAC1
:100A780083F78FB9834201D3724508D8BEEB0204CD
:100A880060EB030301209C461EB9002169E7384644
:100A9800FAE7C6E9004CF8E7C7F1200CBB400EFAAC
:100AA80007F522FA0CF42EFA0CF1BA401C4320FA8E
:100AB8000CF3B8404FEA144901431FFA84FEB3FB14
:100AC800F9F809FB18300B0C08FB0EFA43EA00434F
:100AD8009A4540D9E31808F1FF3004D29A4502D963
:100AE800A8F102002344A3EB0A0389B2B3FBF9F887
:100AF80009FB183308FB0EFE41EA03418E452CD949
:100B0800611808F1FF3304D28E4502D9A8F1020317
:100B1800214443EA0040A1EB0E01A0FB02984145A5
:100B2800CE46434602D306D14D4504D20138B9EB2F
:100B3800020E68EB0403002EA7D0B5EB0E0261EBA2
:100B4800030101FA0CFC22FA07F3F9404CEA03030B
:100B5800C6E9003199E74046C5E74346D9E70000B2
:100B68002DE9F04706460F46904688B053F0D5FC6D
:100B78004FF47A73A0FB034503FB0155E40B012FE7
:100B880044EA45444FEAD53507D122462B4630463C
:100B9800274944F082FE002012E0D8F80470254866
:100BA8003946FFF774FE70B139462348FFF76FFEE8
:100BB80048B130463A46214944F08BFE6FF00400B4
:100BC80008B0BDE8F087204617A3D3E900232946DB
:100BD800FFF77AFC05460C4610461946184A0023CA
:100BE800FFF772FC80460F46104619464EF6602203
:100BF8000023FFF769FC82468946104619464FF4E0
:100C08007A720023FFF760FCCDE902A9CDE906233B
:100C1800CDE904012A4623463046CDE90087094933
:100C280044F03BFEB7E700BF005C2605000000006B
:100C380087EA050098EA05009BEA0500A4EA050092
:100C480080EE3600BCEA0500F0B58BB0002140F616
:100C5800034009AA15F0D4FD0446002840F0B780E7
:100C68000998C3681B7853B95F4BD3E8AF2F02F0DC
:100C78000902D3E8EF1FC3E8E42F002CF9D110F0E4
:100C88006DFE002141F2030009AA15F0B9FD0446E2
:100C9800002840F09C80099A544DD16805F17803EA
:100CA800D1F80100D1F8051003C3104610F056FE24
:100CB800214641F2010009AA15F0A2FD04460028C8
:100CC80040F085800998C3685A7885F870205A885A
:100CD800A5F872201A7985F87120B3F80720A5F8CD
:100CE8007420B3F80530A5F8763010F037FE2146A9
:100CF80041F2020009AA15F083FD0446002866D1D6
:100D0800099F05F18006FA68531C41323446186879
:100D18005968083303C493422646F7D1384610F081
:100D28001DFE17F047F80446002850D195F88A3080
:100D380013F0200317D12E490A6812F0060F06D0C7
:100D48002C4A0093CDE90132022248F066FA95F860
:100D58007C3013F0400351D125490A68520739D134
:100D68006FF0120433E0072140F6334015F042F8E3
:100D78000646002800F0518107210C3046F061FE3C
:100D8800042343700623C0F8024084710470047180
:100D98002246C370314640F6334015F031FD044613
:100DA800A8B9012140F6314015F024F8064600287C
:100DB80000F0338101210C3046F052FE22463146C4
:100DC80040F6314015F01CFD04460028BFD02046EF
:100DD8000BB0F0BD084A1846CDE901320093012254
:100DE80048F01BFABCE700BFF421002020210020B6
:100DF800C43000202796060055960600002142F2CE
:100E0800030009AA15F0FCFC04460028DFD1099B61
:100E1800AF4EDA68D2F80100D2F8051003C61846BA
:100E280010F09CFD214642F2020009AA15F0E8FCE8
:100E380004460028CBD1099CE368B3F8012091B29D
:100E480049B1D97839B1A5F80421DA78114606F103
:100E5800280053F09EF8204610F080FD1F2395F8D7
:100E68007C60A5F8203116F0200618D1022140F642
:100E78006D4014F0BFFF0446002800F0CE80022128
:100E88000C3046F0DEFD01232146037046703246E1
:100E980040F66D4015F0B4FC0446002897D195F84B
:100EA8009C301F0712D5002142F21C0009AA15F038
:100EB800A7FC044600288AD10998C368D3F8012002
:100EC800D3F80530C5E9382310F048FD95F8D83037
:100ED8009E0625D50DF1220108A815F08DFD0446C2
:100EE80000287FF474AF042142F2240014F082FF3A
:100EF8000646002800F0918004210C3046F0A1FD40
:100F0800BDF8203022460380BDF8223031464380A8
:100F180042F2240015F074FC044600287FF457AF11
:100F280095F8D8305C0610D5002142F22A0009AAAB
:100F380015F066FC044600287FF449AF0998C36899
:100F48005B7885F8223110F009FD082142F2010092
:100F580014F050FF044600285FD008210C3046F0FA
:100F680070FD95F8D81040F2022311F0400F08BF29
:100F78000323024688074CBF43F02C0043F00C00C3
:100F88008B0695F8D93048BF40F0400013F0090FA0
:100F980095F8A23018BF40F4006003F00603CF07AD
:100FA80048BF40F01000062B08BF40F4C070002175
:100FB80048F04AF92146002242F2010015F020FCCF
:100FC800044600287FF403AF95F87C20B5F8043177
:100FD800960625D4D3B9194641F2050009AA15F099
:100FE8000FFC044600287FF4F2AEB5F80431099CE2
:100FF8004BB9E368B3F80120A5F804219A8835486D
:10100800114652F0C6FF204610F0A8FC082140F611
:10101800014014F0EFFE044698B96FF06804D6E674
:10102800002BF3D12C490A68540702D16FF004044D
:10103800CDE62A4A0093CDE90132012248F0EDF8C5
:10104800F4E708210C3046F0FCFC95F8D83002464D
:10105800D90747BF1CA1D1E900014FF00051204832
:1010680048F0F2F82146002240F6014015F0C8FB8E
:10107800044600287FF4ABAE014609AA4FF60140AA
:1010880015F0BEFB144E78B3336813F0060F09D081
:10109800144B0222CDE901433146234600941846F9
:1010A80048F0BBF816F0DEFA044600287FF48FAE4D
:1010B80018F09CF8044600287FF489AE15F09EF8D5
:1010C80085E600BFAFF30080908800020080002012
:1010D800F821002028220020C4300020799606003C
:1010E800108800029C9606003368099F03F00703E6
:1010F800022BFC6851D9B4F801304849032B96BF3C
:10110800474A484A52F82320CDE90323464B032295
:10111800029300231846CDE9003348F07EF833687F
:1011280003F00703022B38D9B4F80130B4F80320D0
:10113800022B4AD1052A48D83C4B53F82230CDE936
:1011480003323B4B03220293002334491846CDE96E
:10115800003348F062F8336803F00703022B1CD908
:10116800D4F8091063790791B4F80710032B069196
:10117800A17998BF2F4ACDE9043198BF52F82320AE
:101188002D4B88BF274A0293002303921846032257
:10119800CDE90033214948F040F8384610F0DEFB2D
:1011A80000214FF6024009AA15F02AFB044670B147
:1011B800336813F0060F3FF475AF204B02930023FA
:1011C800CDE900330222154969E7164BB7E70998BC
:1011D800C368B3F80130A5F8C13010F0BFFB95F82B
:1011E800C1305B077FF55EAF21464FF6034009AA81
:1011F80015F006FB50B1336813F0060F3FF452AFF9
:101208000F4B0094CDE901432346DBE70998C368F7
:101218005B7885F8C03010F0A1FB43E7C4300020AC
:10122800A0840500AF930600C096060088840500D8
:10123800D996060078840500F19606001E970600E8
:10124800479706000000000070B514460646CD1703
:10125800A1FB0201002304FB05110A22FFF734F960
:101268000FA3D3E900230C4D80FB054520462946F2
:10127800FFF72AF906A3D3E9002330602946204660
:10128800FFF722F90023054AFFF71EF9726070BDC7
:1012980080A8120100000000D8EF2F0040420F0084
:1012A80000209BF35E10000003292DE9FF4105464D
:1012B8000C4613D0072900F083806D490B6813F0A2
:1012C800060F08D06B4B0222029300231846CDE983
:1012D80000334EF0C9FC6FF085004CE0002A53D073
:1012E800072AF8D158681A68634BC117C2FB030173
:1012F800012871F100035CDBD5F804805F4B98F896
:101308001A60C0184FEAD61655A3D3E9002341F155
:10131800000176B2FFF7D8F8002E14BF0423022389
:10132800984298F91A7029D0002E14BF2023102350
:10133800834225D0002E14BF08230423984221D0CD
:10134800002E14BF10230823984232D1E6B231464A
:1013580040462D6945F0CDF9002824DB3D22484B55
:10136800002F33F81430AE77AABFA3FB02325343E1
:101378005B08EB60002004B0BDE8F0810024E5E7DD
:101388000124E3E70224E1E719883E4B14461F468F
:1013980033F8022B914209D86868E1B22E6945F00A
:1013A80015FB002808DA6FF00400E4E701340B2C81
:1013B800EED16FF01500DEE737F81430B383D9E7C4
:1013C800002A3AD0072A86D1B4245A6819682A4BC9
:1013D800D017C1FB0320A2FB0431012A04FB001132
:1013E80070F100001DDB2848181841F100011EA308
:1013F800D3E900230024FFF767F8244B33F8022BC6
:10140800904216D16868E1B22E6945F089F9002842
:10141800C9DB41F217121E4B33F814305343B36142
:10142800A8E71C48181861F100010FA3D3E90023AD
:10143800E0E70134072CE1D1BBE71988114B33F8F9
:10144800020B814206D86868D1B245F02DFB00280E
:1014580090DAA8E701320B2AF1D1AAE7AFF30080AE
:101468003AA3950000000000D8EF2F00000000000C
:1014780090300020A91E070040420F009DD14A006D
:1014880022C105002AC10500ECF7170014C10500A8
:1014980006C105001408E8FF2DE9F74F0329144693
:1014A800066905D90B1F032B53D96FF0850023E07C
:1014B8000229F7683A4D22D0032923D0012914BF05
:1014C800B6F90460B6F90660A6FB076732A3D3E94C
:1014D800002386FB056530462946FEF7F5FF002305
:1014E800304A206029463046FEF7EEFF00232D4A99
:1014F800FEF7EAFF6260002003B0BDE8F08FB6F99E
:101508000860E1E74FF0000B02F11803DFF894A040
:101518000236019336F9028FA8FB07831EA3D3E98D
:10152800002388FB059848464146FEF7CDFF524602
:1015380044F8080B5B4648464146FEF7C5FF52464D
:101548005B46FEF7C1FF019B44F8042C9C42E1D1A5
:10155800D1E70629B5690CD007290ED02A460529F6
:1015680014BFB6F91010B6F912102046FFF76CFE3A
:10157800C1E72A46B6F91410F7E70E3602F1180744
:1015880020462A4636F9021F0834FFF75DFEA742B7
:10159800F6D1B0E7AFF300800010A5D4E800000052
:1015A8003AA3950040420F002DE9F04F3A4B85B021
:1015B800D3F8042392070BD5D3F8042142B10022B3
:1015C800C3F80421354AD3F8043113680133136092
:1015D800334D0024A8464FF480362F4FD7F80433F4
:1015E80006FA04F919EA030F2CD00123A340DB43C0
:1015F8002C49D1E8EF2F02EA0300C1E8EC0FBCF157
:10160800000FF6D122FA04F3DB0703D4264B53F874
:101618002430BBB120464EF00AFD2DF0DDFCEFF37F
:101628001183202282F31288BFF36F8F08EB041C0A
:10163800DCE902AB504571EB0B010AD283F3118848
:10164800BFF36F8F103514B105B0BDE8F08F0124DA
:10165800C4E70020D5E900129FED0D7B28600E48F5
:1016680003938CED027B0292C0F8489320464EF01B
:10167800DEFC039B83F31188BFF36F8F0029E1D051
:10168800029A5B46009252468847DBE7AFF3008038
:10169800FFFFFFFFFFFFFFFF00500150104D01202B
:1016A800D8570020044D01204051015038B5064D4F
:1016B800064928463EF09FFB0021044628463EF096
:1016C800AFFB204338BD00BF2861050001000200C0
:1016D80013B509480469836801A95B68984720B96C
:1016E800236801985840C0F3C010431E584258411F
:1016F800024B187002B010BD48500500E469012083
:1017080030B5224B05461B7887B0002B3AD0FFF73F
:10171800CDFF044698BB01231D4AD3601D4ACDF86E
:101728000CD0CDE9012304220A23CDE904234FF08C
:10173800FF324FF0FF33184838F07AFE174801A9F6
:1017480083685B6898470446134838F0E9FEB4B9E3
:10175800BDF802309FED127A07EE903AF8EE677AFC
:1017680067EE877A9FED0F7A67EE877A9FED0E7A9C
:1017780067EE877AFCEEE77A17EE903A2B802046E0
:1017880007B030BD6FF08B04F9E700BFE5690120B1
:1017980000E000500861050048330020D8500500DB
:1017A8006666E63F0000803A00803B45034B1B78A5
:1017B8000BB1FFF77BBF6FF08B007047E569012025
:1017C8007FB54E4D2B6803F00703022B09D94C4B0C
:1017D80003220293002329461846CDE900333EF040
:1017E80033FB484852F0E3F9034668B92A685207C0
:1017F80007D0454ACDE901324049012200933EF025
:1018080023FB6FF0120433E0404E304652F0CFF91C
:10181800034620B92A685607F3D03D4AEAE730461E
:1018280052F0C5F9034620B92A685507E9D0394A64
:10183800E0E7304652F0BBF9034620B92A6854075E
:10184800DFD0354AD6E74FF4003134483EF0D3FABA
:10185800044680B12B6858070AD0314B0394029391
:10186800002301221846CDE9003324493EF0ECFA62
:10187800204604B070BD4FF480312A483EF0BBFAD0
:10188800044628B12B685907F2D0274B0390E6E7A6
:10189800264927483EF0AFFA044628B12B685A0774
:1018A800E6D0244B0390DAE72349244B4B6080238E
:1018B8008B60B368DB6913B1012230469847114841
:1018C8001F4983681B689847044628B12B685B0743
:1018D800CED01C4B0390C2E701221B4B1A702B6819
:1018E80003F00703022BC3D9184B0322CDE90103E8
:1018F8000249034600903EF0A7FAB9E79C30002061
:1019080020C50500D850050038C505004850050019
:101918004DC5050064C505007AC5050018610500B8
:101928008EC5050028610500AAC505001000010044
:1019380020610500C9C5050050610020D9160000C6
:10194800BCA00500E7C50500E5690120FCC5050048
:101958002DE9FF410D4618491F460B68044603F060
:101968000703022B164608D9144B032202930023BF
:101978001846CDE900333EF08EFADFF84880D8F8F3
:10198800003003930E4B029300231A46194618465B
:10199800CDE900333EF07FFA0823CDE90183BDF895
:1019A80028303246009329463B46204649F0F1F953
:1019B80004B0BDE8F08100BFEC3000201FC6050070
:1019C8003FC605006C6100201FB50B461349012B6B
:1019D8000A6802F007020DD1022A08D9104B0293B7
:1019E800002303221846CDE900333EF054FA05B02F
:1019F8005DF804FB23B9022AF9D90A4A0292F0E7F2
:101A0800002AF4D00393084B0122029300231846BE
:101A1800CDE900333EF03FFAE9E700BFEC300020A3
:101A280050C6050074C605009BC605001FB543686F
:101A3800104A23F0FF039342044619D183685A1EC3
:101A4800534253410C4A137003930C4B02930023E7
:101A58001A4619461846CDE900333EF01CFA002212
:101A680000232146064804B0BDE8104038F02EBCDB
:101A780004B010BD00011C00E9690120B1C60500D1
:101A88007434002030B587B004460D461822002172
:101A9800684652F068FF064B6946029308232046C1
:101AA8000195ADF80C3019F031FF07B030BD00BF1B
:101AB8006C6100202DE9FF41984F99483B6899498E
:101AC800047801330A78984D3B6074B1002A40F0DD
:101AD800F58001222B600A7040F21F5200239348C0
:101AE80004B0BDE8F04139F049B8914E002A77D0EA
:101AF8004FF0280C2A680C709A1A0CFB02F2B2F507
:101B0800967F33606CD28B480268002A67D09A1A95
:101B18000CFB02F2B2F5167F61D2046002244FF08A
:101B2800280C2A68981A0CFB00FE3068821A0CFBF5
:101B380002F2B2F5967F80F086807E4A106800280F
:101B480000F08180BEF5967F4CD900247A4B146052
:101B580021462246CDE901432046234600943EF023
:101B68009AF90123754A76491370764A13600B680F
:101B780003F00703022B08D9734B0322CDE9014375
:101B88002046234600943EF086F903F08DF820B1F4
:101B98006E4B19681431FFF775FF012000F04EFEF7
:101BA80032203EF087F9002000F048FE32203EF057
:101BB80081F9012000F042FE32203EF07BF900203E
:101BC80000F03CFE32203EF075F9012000F036FEB0
:101BD80032203EF06FF9002000F030FE7CE7036011
:101BE80000249CE70A78002A40F09080002C3FF4FB
:101BF80073AF0024564B22462146029320462346C3
:101C0800CDE900443EF047F902234C4A4C49137091
:101C18004C4A13600B6803F00703022B08D94D4B9D
:101C28000322CDE901432346009418463EF033F9D8
:101C380003F03AF800283FF44FAF444B19681431C9
:101C4800FFF720FF48E7BEF5967FCBD9DFF8EC8099
:101C580098F80030042B2DD000243F4B2246214613
:101C6800029320462346CDE900443EF014F90423AC
:101C78000522334988F80030324B1A600B6803F0AC
:101C88000703022B08D9354B0322CDE9014320462F
:101C9800234600943EF0FFF803F006F820B12B4BE2
:101CA80019681431FFF7EEFE0023224A3B602B60CF
:101CB8003360136001222A4B1A700DE72A689B1AB9
:101CC80028225343B3F57A7FFFF406AF1B4D2B78D8
:101CD800032B3FF401AF0024224B224621460293F6
:101CE80020462346CDE900443EF0D5F80322154BA3
:101CF80013491A600B682A7003F00703022B97D95F
:101D0800194B0094CDE9014323468EE72A689B1AB4
:101D180028225343B3F57A7FD8D267E76861002059
:101D2800E9690120E769012064610020C0200020E2
:101D3800606100205C610020C5C60500E6690120DD
:101D4800EC3000206C610020DAC605004823002032
:101D5800ECC6050001C7050038C705004AC70500DD
:101D6800E869012013C7050028C705001FB51448F6
:101D780051F01DFF1349034670B90A68520706D08F
:101D8800114A0090CDE9010201223EF084F86FF07B
:101D9800120005B05DF804FB0B6803F00703022B83
:101DA80008D90A4B0322029300231846CDE90033D1
:101DB8003EF071F8064852F016F80020E9E700BF37
:101DC800C8510500EC3000205AC7050072C705004D
:101DD800743400201FB50C490B6803F00703022B6D
:101DE80008D90A4B0322029300231846CDE9003391
:101DF8003EF051F840F21F520023054805B05DF847
:101E080004EB38F087BE00BFEC30002099C705000E
:101E1800C0200020014B1860704700BF3C8C002098
:101E280070B5B7EE087A47F6FF76054602464C00CD
:101E380000EB4101274886B091421BD126484368F0
:101E480042699A1AC3699B1A9C4228D923490A688D
:101E580012F0060F0AD0CDE90334214B0222029377
:101E680000231846CDE900333EF034F86FF00B003C
:101E780006B070BDB2F9003007EE903AF8EEE77A96
:101E880067EE877AFDEEE77A17EE903A8342B8BF9D
:101E98000346B342A8BF334622F8023BCCE72246AA
:101EA800294642F03DFFA04211D00C490B685B0760
:101EB8000AD00C4BCDE903040293002301221846F3
:101EC800CDE900333EF006F84FF0FF30D0E70020B0
:101ED800CEE700BF0080FFFF1C8C0020F8300020F8
:101EE800B7C7050004C8050030B5012089B041F026
:101EF8000EF940F6010301224FF47A51AB4807F07E
:101F080065FC0446C8B1AA4C236859073BD040F683
:101F1800010301224FF47A51A44807F057FCB0FAA4
:101F280080F07C23400905900493A24B0393A24BB5
:101F380002930023CDE9003349E04FF47A4240F69A
:101F4800A2719A4808F0C4FD054608B3984D2B685D
:101F58005A0718D04FF47A4240F6A271934808F015
:101F6800B7FDB0FA80F07D23400905900493914BAA
:101F780001220393904B2946CDE90143234600945F
:101F880018463DF0A7FF4FF0FF34204609B030BD9A
:101F9800012240F6A671854808F09AFD0446C8B1AA
:101FA800834C23685B07EED0012240F6A6717F4878
:101FB80008F08EFDB0FA80F07E2340090590049366
:101FC8007C4B009503937C4BCDE901532B460122B2
:101FD8002146D5E7024640F6B471744808F078FD0A
:101FE800054678B1724D2B685807CCD0224640F68A
:101FF800B4716E4808F06CFDB0FA80F040097F2398
:102008000590B3E7062240F6AA71684808F060FD1B
:10201800044678B1664C23685907B4D0062240F6C6
:10202800AA71624808F054FDB0FA80F04009802394
:102038000590C4E740F6B93240F6B8715B4808F03D
:1020480047FD054680B15A4D2B685A079BD040F68C
:10205800B93240F6B871554808F03AFDB0FA80F048
:1020680040098123059081E7102240F6C4714F484A
:1020780008F02EFD044678B14D4C23685B0782D0EA
:10208800102240F6C471494808F022FDB0FA80F0E9
:1020980040098223059092E702464FF47B6143484A
:1020A80008F016FD80B1424D2B6858073FF46BAF1E
:1020B80022464FF47B613D4808F00AFDB0FA80F0F3
:1020C80040098323059051E7012240F6AC71374857
:1020D80008F0FEFCD0B1364B1B6859073FF453AFEC
:1020E800012240F6AC71314808F0F2FC86230493D3
:1020F800304BB0FA80F003932F4B40090293002332
:102108000122CDE900332A49059039E70A2240F631
:10211800AE71264808F0DCFC80B1254C23685A07CC
:102128003FF431AF0A2240F6AE71204808F0D0FCE7
:10213800B0FA80F0400989230590F5E640F24F4255
:1021480040F6A871194808F0C3FC044688B1184C39
:1021580023685B073FF417AF40F24F4240F6A8717F
:10216800124808F0B5FCB0FA80F040098C230590BD
:10217800DAE64FF4FA42114B1149C3E90200C3E908
:102188000500DA61196058601861002000210423F5
:10219800CDE90601CDE90243CDE90044094B0A49DE
:1021A80004940A4838F0B2FDEFE600BF78610020D9
:1021B800F830002042C805005FC805001C8C0020CC
:1021C8002B6B01206D220000707C032090380020CA
:1021D8004FF4A07330B587B00093A0221A4B1B4967
:1021E8001B4808F04DFC041E10DA1A490B685B07FF
:1021F80009D0194B01220293002303941846CDE914
:1022080000333DF067FE002007B030BD1421134DA8
:102218002A68B2FBF1F301FB13237BB90D49086867
:1022280000F00700022809D9CDE903420C4A1846F4
:10223800CDE90132009303223DF04CFE2B68A0B299
:1022480001332B60E0E700BFEB6901207C660120C9
:1022580078610020F830002071C805007461002002
:102268008AC8050070B5104C104E114DA36822693C
:102278009B1AB3F5A07F05D200214FF4A47039F062
:1022880007F8F3E731464FF4A072204642F098FD74
:10229800FFF79EFF2B68014613B12B680548984746
:1022A80038F074FFE2E700BF1C8C00207C66012038
:1022B8003C8C0020EB6901201FB5134851F077FCD6
:1022C800124C0346A8B1002219210F483DF020FE08
:1022D800236803F00703022B09D90D4B032202934D
:1022E800002321461846CDE900333DF002FE04B034
:1022F80010BD22685207FAD0064A2146CDE90102EC
:1023080000900122F1E700BF485005001C31002071
:10231800B7C80500D9C805007FB52A492A4851F031
:1023280028FF2A4E2A4D304651F041FC034668B931
:102338002A68520707D0274A2946CDE901020090AA
:1023480001223DF0D6FD6FF012041BE03269B1683E
:102358001368304623F0007313600B684FF4C022F3
:10236800192198472B68044678B15B070AD01A4BA5
:10237800039002930023012229461846CDE9003331
:102388003DF0B7FD204604B070BD03F00703022BF3
:10239800F8D9124B0322CDE90103294603460090E0
:1023A8003DF0A7FD2B6803F00703022BEAD9336839
:1023B800032203930A4B2946CDE9014320462346CD
:1023C8000094DDE7C122000088390020485005004C
:1023D8001C31002000C905001CC905003EC90500C4
:1023E80054C90500F0B53B4D04462B6887B003F08F
:1023F8000703022B1AD90026374B039002930322B6
:10240800334629463046CDE900663DF072FD2B681B
:1024180003F00703022B09D9304B0322CDE90163EE
:1024280029463346304600963DF063FD2C4851F06E
:10243800BEFB034660B92A68520707D0294A2549D6
:10244800CDE90102009001223DF053FD07B0F0BD37
:1024580041F288339C4205D92A6812F0060F2CD124
:1024680041F288340026204851F091FE01221921BA
:102478001B483DF04DFD4FF4004740F2E730314630
:102488004FF47A720023E4FB0701FEF76DF8024669
:102498000B46154838F03EFB2B6803F00703022B68
:1024A800D4D9124B0322CDE901633046334609499A
:1024B800039400963DF01DFDC8E7CDE903430C4B9E
:1024C80002220293002303491846CDE900333DF068
:1024D80010FDC5E71C31002063C905007CC9050053
:1024E80048500500A7C90500883900200ECA050014
:1024F800C4C905002DE9FF41274E336803F00703DF
:10250800022B09D9254B0322029300233146184692
:10251800CDE900333DF00CFD214D0C21D5F810809C
:10252800AF68D8F80030284623F48053C8F8003044
:102538003B681C4A9847041E12DA336859070BD0C7
:102548000C230393184B0293002301221846CDE96C
:10255800003311493DF0ECFC204604B0BDE8F081A1
:10256800D8F80030DA044FF4805154BFFB683B6957
:10257800284698470028044606DA33685B07EBD0FC
:102588000C230393094BDEE740F26760002138F023
:102598007FFE0024E0E700BF8C30002030CA050031
:1025A80030500500000202003ECA05005ACA050064
:1025B8002DE9F0410C234FF0000892B00546CDE913
:1025C8000438344E304651F0F2FA48B928463249B8
:1025D80043F07FF96FF01204204612B0BDE8F08195
:1025E800B7683C685CB142460321304604ABA0475B
:1025F800044638B12949284643F06BF9ECE76FF0F7
:102608005704F7E7D7F80080B8F1000F08D0024662
:102618000721304604ABC047044620B12049EAE709
:102628006FF05704FAE73C213046FB6898470446A8
:1026380008B11C49DFE7032130463B6906AA9847E1
:10264800044608B11849D6E7072130463B690CAA69
:102658009847044608B11549CDE70B9B28460393D4
:102668000A9B13490293099B0193089B0093DDE998
:10267800062343F012F9119B28460393109B0D493A
:1026880002930F9B01930E9B0093DDE90C2343F00B
:1026980004F9A1E7E051050070CA050083CA0500E6
:1026A800ACCA0500D4CA0500EDCA050008CB050070
:1026B80022CB050049CB050030B5524887B03DF024
:1026C80083FC514C0546B8B923685B0711D04D48C7
:1026D8003DF07AFC1B23059004934C4B0122039395
:1026E8004B4B2146CDE9015328462B4600953DF03A
:1026F80048FC4FF0FF3078E046483DF028FC0028C1
:102708001ADA23685D0711D042483DF020FC1C23EB
:1027180004933E4B059003933D4B01220293002303
:1027280021461846CDE900333DF02BFC394807B067
:10273800BDE830403DF00BBC32483DF045FC054655
:1027480040B923685807D4D02E483DF03DFC1D23DE
:102758000590C1E730483DF0FAFB002816DA2368F7
:10276800590711D02C483DF0F2FB1E230493274B48
:1027780005900393264B0122029300232146184615
:10278800CDE900333DF0FDFB2348D0E71D483DF07F
:102798001BFC054640B923685A07AAD019483DF0E2
:1027A80013FC1F23059097E71C483DF0D0FB002839
:1027B800236815DA5B0711D018483DF0C8FB2023C1
:1027C8000493124B05900393114B012202930023AB
:1027D80021461846CDE900333DF0D3FB0F48A6E764
:1027E80003F00703022B02D8002007B030BD0C4BC2
:1027F80003220293002321461846CDE900333DF019
:10280800C0FBF1E7485005003431002088CB0500B3
:102818005FC80500806105007861050070610500EA
:10282800A3CB0500014601483DF0BABB8061050015
:10283800014601483DF0B4BB7861050001460148F6
:102848003DF0AEBB706105001FB50C4602F032FAD0
:1028580088B10F4910F1690F0B680ED113F0060FFC
:1028680009D00C4B022202930023CDE900330394D4
:1028780018463DF0C0FB04B010BD5B07FBD0064B0B
:102888000122029300230390CDE90033F0E700BF53
:1028980040310020B0CB0500E1CB05001FB54FF457
:1028A800C861FFF7BDFA68B108490B685B0709D032
:1028B800074B03900293002301221846CDE9003309
:1028C8003DF099FB05B05DF804FB00BF40310020E6
:1028D80007CC050038B5124B1B789BB1114A137809
:1028E80083F0010313706BB10120FFF7A1FF0E4BBA
:1028F8001D784DB10020FFF795FFBDE83840002056
:10290800FFF79CBF0020F0E7084B01201C78002C43
:10291800F1D0FFF793FF2846BDE83840FFF782BFA4
:10292800783E0220E4690120EA6901202CE80120B0
:10293800F0B54FF4FA608DB03DF06CFB0025274FE1
:10294800274CFFF7C7FF3B78002B34D0254B1B786B
:10295800002B3ED004AE244B20213046234A00955C
:102968003CF00EF8236803F00703022B0AD9204B2A
:1029780003220293002321461846CDE9003303962B
:102988003DF039FB3046FDF794FF411C304602F01C
:1029980097FA68B123685B070AD0164B0390029335
:1029A8000023012221461846CDE900333DF023FBE0
:1029B8000135EDB20DE0226802F00702022A08D9BB
:1029C8000D4A2146CDE901321846032200933DF015
:1029D80012FB4FF47A703DF01DFBB2E72CE80120A2
:1029E800403100202BE8012026CC050036CC05001C
:1029F8003CCC050052CC050072CC05001FB5134A2B
:102A0800134910700A68034602F0070278B1022AD7
:102A180008D9104B0322029300231846CDE900334E
:102A28003DF0E9FA05B05DF804EB00F0D5BB022AE9
:102A380006D9094A0090CDE9010203223DF0DBFAEC
:102A480005B05DF804EB00F055BC00BF2BE8012091
:102A58004031002096CC0500C0CC0500F0B59E4D55
:102A680085B02B6803F00703022B4DD900249B4B3C
:102A780003220293294623462046CDE900443DF02F
:102A8800BAFA2B6803F00703022B3DD9944B0322B3
:102A98000393944B2946CDE90143204623460094ED
:102AA8003DF0A9FA2B6803F00703022B2CD98E4BB3
:102AB800032203938D4B2946CDE901432046234643
:102AC80000943DF098FA2B6803F00703022B1BD9FA
:102AD800874B03220393874B2946CDE901432046C0
:102AE800234600943DF087FA2B6803F00703022B76
:102AF8000AD9814B0322CDE90143294623462046C2
:102B0800039400943DF077FA00247C4F2346224634
:102B180021462046CDE9004402973DF06CFA2B6827
:102B280003F00703022B17D9754E234603222046CC
:102B3800CDE90146684900943DF05DFA2B6803F041
:102B48000703022B08D9234603222046CDE9014674
:102B5800614900943DF04FFAFFF7AEFD044680B19D
:102B68002B685B070AD0674B039002930023CDE9DB
:102B780000330122184658493DF03DFA204605B079
:102B8800F0BD0120FFF74EFE4FF416703DF042FAFB
:102B98002046FFF747FEC8203DF03CFA0120FFF72A
:102BA80047FE4FF416703DF035FA2046FFF740FE19
:102BB800C8203DF02FFA0120FFF740FE4FF41670B1
:102BC8003DF028FA2046FFF739FEC8203DF022FAEA
:102BD8000120FFF727FE0120FFF72AFE0120FFF75B
:102BE8002DFE4FF416703DF015FA2046FFF71AFE39
:102BF8002046FFF71DFE2046FFF720FE2B6803F056
:102C08000703022B09D9404B0322CDE90143204693
:102C18002346314900943DF0EEF9FEF7D1FD044614
:102C280028B12B685F07A9D0384B03909DE7FEF7C2
:102C3800BDFD044628B12B685E079FD0344B039036
:102C480093E7344B02460146CDE900000293034660
:102C580006463DF0D0F9FFF789F82B68044640B1E5
:102C68005D078BD02C4B0390CDE90163009633466A
:102C78007FE703F00703022B08D9284B0322CDE98D
:102C880001031549034600903DF0B5F90024FFF70C
:102C9800A1F82346224621462046CDE90044029762
:102CA8003DF0A9F92B6803F00703022B09D91C4B47
:102CB8000322CDE9014320462346074900943DF00D
:102CC8009AF9FFF729FB2B68044668B358073FF4C5
:102CD80055AF144B039448E740310020E6CC05007B
:102CE800F2CC0500F6CC050000CD050006CD0500A8
:102CF8001CCD05003CCD050052CD0500EBEC0500D0
:102D080064CD05007ACD050020C505009DCD0500E0
:102D1800BACD0500DBCD050009CE05002ECE050095
:102D280041CE050059CE050003F00703022B17D941
:102D38009B4B0322CDE901039A49034600903DF0DD
:102D48005AF92B6803F00703022B09D9964B032283
:102D5800CDE9014320462346924900943DF04BF9C2
:102D680000244FF4FA70FFF73DFB23462246214624
:102D78002046CDE9004402973DF03DF92B6803F069
:102D88000703022B09D9894B0322CDE901432046C9
:102D98002346844900943DF02EF90120FFF748FDB1
:102DA8000020FFF745FD01F097FE2A68034600283A
:102DB80050D051070AD07E4B039002930023012282
:102DC8001846CDE9003377493DF015F900240297FC
:102DD8002346224621462046CDE900443DF00BF922
:102DE8002B6803F00703022B09D9724B0322CDE9A4
:102DF8000143204623466B4900943DF0FCF801202E
:102E0800FFF71CFD6C48FFF705F8FFF76DF804465F
:102E180068B32B685A070AD0684B039002930023C3
:102E280001221846CDE900335E493DF0E4F8052556
:102E3800634E30463DF0CAF8B0FA80F04009FFF71B
:102E4800FDFCC8203DF0E6F8013DF2D12846FFF729
:102E5800F5FC93E602F00702022AB7D9594A51490C
:102E6800CDE90102009003223DF0C5F8AEE7FFF777
:102E7800E5FC2346224621462046CDE90147009439
:102E88003DF0B9F82B6803F00703022B09D94E4B24
:102E98000322CDE9014320462346424900943DF0F0
:102EA800AAF80120FFF7BEFC0120FFF7C1FC4FF490
:102EB8007A703DF0AFF8454800F088F900F0AEFAB6
:102EC800044660B32B685B070AD0414B039002931A
:102ED800002301221846CDE9003332493DF08BF832
:102EE80005253C4F3C4E38463DF070F8B0FA80F06E
:102EF8004009FFF797FC30463DF068F8B0FA80F0DB
:102F08004009FFF795FCC8203DF084F8013DEAD15F
:102F18002846FFF787FC2846FFF78AFC2EE6FFF7CE
:102F28006DFD2B6803F00703022B09D92B4B0322F5
:102F3800CDE90143204623461A4900943DF05BF849
:102F48000020FFF76FFC0020FFF772FC2B6803F0EE
:102F58000703022B09D9224B0322029300231149AC
:102F68001846CDE900333DF046F80120FFF766FC2E
:102F78004FF47A703DF04EF80020FFF75FFC2B68A5
:102F880003F00703022B7FF6F9AD164B03220293D9
:102F9800002304491846CDE900333DF02CF8EDE54F
:102FA80082CE05004031002099CE0500D7CE05001D
:102FB800F2CE050034CF0500512800004BCF0500A4
:102FC8008861050015CF050065CF0500A52800001C
:102FD80081CF05009861050090610500A0CF05002C
:102FE800CECF0500EECF0500014602488268526840
:102FF800104700BF5051050000232DE9F043654CF0
:1030080087B02268049302F00702022A08D9624AAC
:103018002146CDE901321846032200933DF033F8EA
:103028005E4D5F49AB6828461B68984700285D4E8F
:103038002ADB5D4FDFF89081327802F0FF03002A27
:1030480035D1226802F00702022A08D9574A1846E1
:10305800CDE901324F49032200933DF014F80020D6
:10306800FFF7C2FF00281FDA236813F0060F1BD0F2
:103078004F4B03900293002302221846CDE90033F8
:1030880044493DF000F80FE0236859070AD0494B3E
:1030980003900293002301221846CDE900333D49ED
:1030A8003CF0F1FF0023337007B0BDE8F083012046
:1030B800FFF79AFF002813DA23685A070AD03E4B15
:1030C80003900293002301221846CDE900333149C9
:1030D8003CF0D9FF002140F6CD4038F0D9F8ABE7F5
:1030E8004FF47A72AB680092D3F80890002105ABD0
:1030F800284604AAC8470028236817DA5B070AD0BD
:103108002E4B03900293002301221846CDE9003389
:1031180020493CF0B8FF0020FFF766FF40F6CD409D
:10312800002138F0B5F80023049385E703F007037E
:10313800022B0BD9059B03220393214B15490293BC
:1031480000231846CDE900333CF09DFF0020FFF72F
:103158004BFF00280EDA236813F0060F0AD0194B2C
:1031680003900293002302221846CDE9003309494F
:103178003CF089FF3B682BB1049818B1059B0BB153
:103188003B689847049900293FF456AF404650F0F1
:10319800E6FDC8E74831002012D00500505105006F
:1031A800D02300202DE80120448C00208BD005007E
:1031B800A4D005002AD0050048D0050067D0050036
:1031C8007DD00500AAD00500E8310020014B186029
:1031D800704700BF448C00201FB54FF400313B48B6
:1031E8003CF028FF00283A4C0DDA23685A070AD029
:1031F800384B039002930023012221461846CDE95B
:1032080000333CF040FF002130483CF028FF002804
:103218000DDA23685B070AD02F4B03900293002333
:1032280001221846CDE9003329493CF02CFF4FF420
:1032380080312A483CF0FEFE00280DDA2368590741
:103248000AD0274B03900293002301221846CDE9A8
:1032580000331F493CF017FF4FF4003121483CF080
:10326800E9FE00280DDA23685A070AD01E4B03909E
:103278000293002301221846CDE9003314493CF09B
:1032880002FF002117483CF0EAFE00280DDA236807
:103298005B0719D0154B03900293002301221846AF
:1032A800CDE900330A493CF0EEFE236803F007033A
:1032B800022B09D90E4B0322029300230449184616
:1032C800CDE900333CF0DFFE04B010BDA861050075
:1032D80048310020C8D00500E4D00500A0610500F1
:1032E800FAD00500B061050015D105002ED1050002
:1032F80041D105001FB54FF400313E483CF09AFE1D
:1033080000283D4C0DDA23685A070AD03B4B03903E
:1033180002930023012221461846CDE900333CF0F0
:10332800B2FE012133483CF09AFE00280DDA2368EA
:103338005B070AD0324B0390029300230122184600
:10334800CDE900332C493CF09EFE4FF480312D48E6
:103358003CF070FE00280DDA236859070AD02A4B82
:1033680003900293002301221846CDE90033224935
:103378003CF089FE4FF4003124483CF05BFE002805
:103388000DDA23685A070AD0214B039002930023D1
:1033980001221846CDE9003317493CF074FE01219B
:1033A8001A483CF05CFE00280DDA23685B070AD057
:1033B800184B03900293002301221846CDE90033ED
:1033C8000D493CF060FE4FF42470002137F060FF97
:1033D800236803F00703022B09D90F4B032202933A
:1033E800002305491846CDE900333CF04CFE04B0F3
:1033F80010BD00BFA861050048310020C8D00500F5
:10340800E4D00500A0610500FAD00500B061050010
:1034180015D105002ED1050051D10500F0B5294E72
:10342800294D337889B003F0FF04002B3FD10127E1
:10343800FFF760FF377000220023CDE9062305233C
:103448004FF48062CDE90243CDE900441F4B204987
:103458002048049437F05AFC1F4A0346106090B97C
:103468002A68520707D01D4A2946CDE90102009073
:103478003A463CF008FEFFF7AFFE00234FF0FF305E
:10348800337009B0F0BD164937F07EFB2B6803F0A6
:103498000703022B09D9134B0322CDE90143234625
:1034A8000094294618463CF0EEFD0020E9E72B6819
:1034B80013F0060FF9D00C4B022202930023CDE93A
:1034C8000033EEE72DE801204831002001300000EC
:1034D80070FD0320B03A0020408C002060D1050028
:1034E8007CD1050085D1050098D105007FB5002461
:1034F80005460E462222094901A8CDE901448DF866
:103508000C400EF063FC3246294601A80EF05EFD21
:1035180001A80EF011FD204604B070BD2FE801206F
:1035280010B5C6B03CF0CDFD044620210F4B104A23
:10353800009010483BF024FA204651F0C3F90D489A
:1035480004A90EF08BFD78B10B490B685B0708D016
:103558000A4B0122029300231846CDE900333CF0C0
:10356800A1FD002046B010BD4598FBE7B7D1050086
:10357800BDD105004FE801206C310020DAD10500EB
:1035880030B5002489B00322264905A8CDE90544B1
:103598008DF81C400EF01AFC0028234D11DA2B6818
:1035A80059070AD0214B0390CDE901430122234654
:1035B8002946204600943CF075FD4FF0FF3009B0D5
:1035C80030BD2246214605A80EF024FD002805DA64
:1035D8002B685A07F1D0164B0390E5E7042204A99B
:1035E80005A80EF0CFFC002805DA2B685B07E4D0AD
:1035F800104B0390D8E705A80EF09EFC2B6803F04B
:103608000703022B0BD9049B032203930A4B294679
:10361800CDE901432046234600943CF043FD04983D
:10362800CDE700BFF8D105006C31002006D20500B7
:1036380032D2050048D205005ED20500014B187849
:10364800704700BF2EE80120054803691B689B05E9
:1036580083684FF4007154BFDB681B69184700BFCB
:1036680030500500054802698168136823F4007327
:1036780013600B684FF400320921184730500500D9
:103688002DE9F74F3E4B06461B78914643B93D4915
:1036980042F01FF94FF0FF34204603B0BDE8F08F29
:1036A800022905D8384942F014F96FF01504F3E7F8
:1036B8000022D9F8040011463BF004FA8046D9F8F4
:1036C8000800FDF7F6F84708384651F002F90546B4
:1036D800E8B1002400F1FF3A4FEA470BA3454FF049
:1036E80000031BD1DFF8B090FFF7BCFFFFF7ACFF7A
:1036F800012148460AF05AF9041E23DA30462246C8
:10370800224942F0E6F8284651F0DCF8C4E7304692
:103718001F4942F0DEF86FF00B04BDE7D9F8082026
:1037280001A8115D22448DF80410527800218DF80B
:10373800052010228DF806303BF0C4F902340AF84F
:10374800010FCBE7D9F808302A465C6841463B466A
:103758004846A047041E0CDA224630460D4942F07E
:10376800B8F8284651F0AEF800210B480AF01EF9C7
:1037780092E743463A463046084942F08EF8F0E769
:1037880070E8012076D2050094D20500C8D2050061
:10379800ADD20500E5D205006851050004D3050047
:1037A80030B51E4B05461B7885B03BB91C4942F025
:1037B80090F84FF0FF34204605B030BDFFF752FFB8
:1037C800FFF742FF012117480AF0F0F8021E03DA5A
:1037D8002846154942F07DF8124883689B696BB109
:1037E80003A99847041E0CDA224628460F4942F0DE
:1037F80070F800210B480AF0D9F8DCE76FF085046F
:10380800F2E79DF80E30284600939DF80C209DF8AD
:103818000D30074942F041F8EBE700BF70E801209E
:1038280076D2050068510500C8D205001ED30500F0
:103838003CD305002DE9F0432C4B07461B78144672
:1038480085B043B92A4942F044F84FF0FF34204686
:1038580005B0BDE8F083022905D8264942F039F8B9
:103868006FF01504F3E70022606811463BF02AF96F
:10387800002206461146A0683BF024F90546FFF7EA
:10388800F1FEFFF7E1FE01211B480AF08FF8041E44
:103898001BDBDFF864909DB1102DA84628BF4FF0C0
:1038A8001008D9F808306A461C6831464346124861
:1038B800A047041E0FDA22463846104942F009F89C
:1038C80000210D480AF072F8C1E7224638460C4933
:1038D80041F0FFFFBBE7314643466A4638460BF0E6
:1038E80081FA4644A5EB0805D5E700BF70E801203A
:1038F80076D2050056D305006851050071D305003E
:10390800C8D20500F0B51346294A0546127885B095
:103918003AB9284941F0DDFF4FF0FF34204605B0A1
:10392800F0BD012905D8244941F0D3FF6FF01504F3
:10393800F4E70022586811463BF0C4F81F4F0646CA
:10394800FFF790FEFFF780FE012138460AF02EF8B7
:10395800041E05DA22462846194941F0BAFFDDE778
:103968003146384601AA4BF0DBFD041E09DA22462F
:103978001449284641F0ADFF002110480AF016F816
:10398800CCE7029ABB689B683BB1314638469847FA
:10399800041E05DA22460C49EBE76FF05704F9E7F5
:1039A80033462846029A094941F077FFE4E700BF09
:1039B80070E8012076D2050091D305006851050012
:1039C800C8D20500AAD30500CED30500EAD3050066
:1039D8001FB501220B46144993420A70134908681F
:1039E80000F007000DD1022808D9114B02930023DB
:1039F80003221846CDE900333CF0A2FB05B05DF880
:103A080004FB23B90228F9D90A4A0292F0E70028F0
:103A1800F4D00393084B029300231846CDE90033F2
:103A28003CF08EFBEAE700BF77E8012094310020E4
:103A380050C6050074C605009BC605002DE9F04771
:103A4800944F98463B68814603F00703022B1546BE
:103A580088B01BD90024904B032202933946234691
:103A68002046CDE900443CF06BFB3B6803F00703BC
:103A7800022B0BD92B7803220393884B3946CDE9C7
:103A880001432046234600943CF05AFB0023B8F13A
:103A9800060F8DF81C3012D0B8F1020F6AD03A68C0
:103AA80002F00702022A08D97D4A0093CDE90132C3
:103AB8000322184677493CF043FB062526E0D5F853
:103AC800024095F800A06E7824BA0025754B2A4666
:103AD800029329462B462846CDE90464CDE90055D2
:103AE800CDF80CA03CF02CFB002E48D13B6803F02D
:103AF8000703022B09D96C4B0096CDE901633346C5
:103B08000322184663493CF01BFB03253B688DF8EC
:103B18001C5003F00703022B1CD90024634B03221B
:103B2800029320462346CDE900445A49CDF80C803B
:103B38003CF006FB3B6803F00703022B0AD95C4BF9
:103B48000322CDE9014320462346524903950094B8
:103B58003CF0F6FA574B07AA196848460123143176
:103B68003CF0D9FA4FF4FA703CF0F9FA404608B044
:103B7800BDE8F0871C4695F800A06E78A5E74E4B87
:103B88003A68197802F00702B14207D2022ABCD972
:103B98004A4B0095CDE901532B46B1E7BAF1030F23
:103BA80008D80AF1FF3ABAF1020F0FD8DFE80AF095
:103BB80064686A00BAF1320F69D0022A7FF67DAFD5
:103BC8003F4B0095CDE901532B4671E73D4B701EE5
:103BD800B14253F820301BD1022A09D93A4B0322AB
:103BE800029300232B491846CDE900333CF0A8FA8C
:103BF8004FF4DC72B4FBF2F302FB1343334AE31ACB
:103C08001360334B1E70334B01221A7000257DE779
:103C180063B9022A08D9304A1846CDE901321D494C
:103C2800032200933CF08CFA04256FE79C420DD9DF
:103C3800022A09D9294B0322029300231549184661
:103C4800CDE900333CF07CFA05255FE7022A09D963
:103C5800234B0322029300230E491846CDE9003373
:103C68003CF06EFA4FF4DC72B4FBF2F302FB134340
:103C7800E41A164B1C60C4E71A4B1E701A4BC3E7B4
:103C88001A4BC1E700221A4B1A601A4BBCE71A4BB1
:103C98001D70BBE79431002078D4050096D4050048
:103CA800A4D40500B4D40500E8D4050081D50500E6
:103CB8009DD50500042400206FE80120FDD40500EF
:103CC8006FD50500488C002010D50500548C0020C5
:103CD800BE2F002076E8012029D5050038D505003B
:103CE80054D5050073E8012074E8012072E801202A
:103CF800508C002075E8012071E80120F0B50446D9
:103D080087B00A2016461F460D463CF028FA0A4B93
:103D180029461A685B68049205930823029304AB4A
:103D28000193BDF830303246009320463B4647F0B9
:103D380030F807B0F0BD00BF488C0020F8B5044645
:103D4800204E30464FF033FF30B932681E492046C6
:103D580041F0BFFD0020F8BD34F0EEFE20461B4ABE
:103D68001B4941F09AFD1B4D1A212A69AF68136857
:103D7800284643F0806313603B68174A9847021E41
:103D880001DA1649E3E7BF6957B14FF480024FF0F3
:103D980000731A212846B847021E04DA1049D6E7EC
:103DA8006FF05702FAE720460E4941F076FD0021F0
:103DB800304609F0FBFD021E01DA0B49C7E740F067
:103DC80018FE00BF90500500A9D50500C1D5050013
:103DD800CDD505004850050011000100E3D50500C8
:103DE8000BD605003DD605006DD60500BFF34F8FF5
:103DF8000549064BCA6802F4E0621343CB60BFF37F
:103E08004F8F00BFFDE700BF00ED00E00400FA059A
:103E18007FB50C46144EB9B947F052F833680546D9
:103E280003F00703022B0AD9104B0390CDE9014395
:103E3800032223463146204600943CF0B5F90C4B4A
:103E4800033D1D8004B070BD336813F0060FF9D030
:103E5800084B039102930023022231461846CDE90C
:103E680000333CF0A1F9EDE79C3100209DD6050018
:103E7800C0670120BDD6050010B51A4886B0836812
:103E880002699B1AB3F5A17F13D217490A68520732
:103E98000CD04FF4A172CDE90332144B02930023E6
:103EA80001221846CDE900333CF07EF9002006B027
:103EB80010BD0F4C4FF4A172214640F081FF0D4B0D
:103EC800B0F5A17F186009D007490B685B07EDD0F2
:103ED8004FF4A17304900393074BDFE72288012076
:103EE8001A60E4E7648C00209C310020DAD60500D3
:103EF800B6EC0120608C00200ED70500F0B50D4609
:103F080010491F460B68044603F00703022B1646A8
:103F180085B008D90C4B0322029300231846CDE93B
:103F280000333CF041F914230293084B32460193C5
:103F3800BDF828302946009320463B4646F029FF25
:103F480005B0F0BD9C31002049D7050067D70500B2
:103F58002DE9F0473B4D1C462B68064603F0070346
:103F6800022B0F4692468CB00AD9374B0322029394
:103F7800002329461846CDE9003303943CF014F990
:103F88004FF000081C22414605A8CDF810800DF11D
:103F9800100950F0E8FC1F2C2246514628BF1F226A
:103FA800484650F0B9FC2B6803F00703022B0CD9E4
:103FB800264B0322CDE90183404643462149CDF8EB
:103FC8000C90CDF800803CF0EFF8042248462049D8
:103FD80050F013FD0346C8B92A6802F00702022A06
:103FE80007D91C4A1749CDE90102009003223CF089
:103FF800DBF80120FEF702FD1123174A3946304647
:104008003CF0BDF820460CB0BDE8F08705224846D4
:10401800124950F0F2FC03460028F3D12A6802F056
:104028000702022A07D90E4A0649CDE90102009083
:1040380003223CF0B9F80020FEF7E0FC1223094AFD
:10404800DCE700BF9C3100207CD70500A6D705001F
:10405800BBD70500C0D70500D3D70500E0CC0500C5
:10406800E5D70500F9D70500F0B50024184B194D20
:104078001C70194B06461C702B680F4603F007038B
:10408800022B85B019D9154B0322CDE901432946E6
:104098002346204600943CF087F82B6803F007037A
:1040A800022B0AD90E4B0322CDE9014329462346A8
:1040B8002046039700943CF077F8304614F0CEFA87
:1040C8000023084A1360084A138005B0F0BD00BFFA
:1040D8002CE801209C31002077E801200CD805004D
:1040E8002BD80500988C0020C067012010B588B037
:1040F8000DF11E00FDF704FB88BBBDF81E100DF185
:104108001D003BF0B0FE044648BB9DF81D3002463A
:104118000493BDF81E3001460393184B0090CDE977
:10412800010303463CF040F89DF81D0009F0CCFC63
:1041380068B113490B685A0709D0124B0390CDE9AF
:10414800014301222346204600943CF02DF84FF409
:10415800F02200230C4836F011FD08B010BD0849C4
:104168000B685B07F3D0094B012202930023184622
:10417800CDE900333CF018F8E9E700BF36D8050070
:104188009C31002058D80500F020002079D805007F
:1041980070B51E4D0E462B6886B003F00703022B40
:1041A80030D900241A4B032202932946234620467D
:1041B800CDE900443BF0F8FF2B6803F00703022B1E
:1041C80020D9738803220493338829460393114B1B
:1041D8002046CDE90143009423463BF0E5FF2B68D8
:1041E80003F00703022B0DD9F38803220493B38845
:1041F80029460393084B2046CDE901430094234602
:104208003BF0D2FF012006B070BD00BF9C310020FA
:1042180096D80500CFD80500FAD805002DE9F04159
:10422800144D98462B680E4603F00703022B1746D9
:1042380086B01CD90024104B03220293294623463A
:104248002046CDE900443BF0AFFF2B6803F007039D
:10425800022B0CD9094B0322CDE9014329462346F9
:104268002046CDE90478039600943BF09DFF06B004
:10427800BDE8F0819C31002013D9050032D9050032
:1042880010B50C460E4988B00B6803F00703022BE3
:1042980010D9E38803220693A388059363880493BF
:1042A80023880393074B029300231846CDE9003374
:1042B8003BF07AFF2288044B1A8008B010BD00BF7B
:1042C8009C3100205DD90500C0670120F0B50F467C
:1042D80017491C460B68064603F00703022B1546D0
:1042E80087B008D9134B0322029300231846CDE95F
:1042F80000333BF059FF012C07D12B78062B13D143
:10430800A8220D4B1A77FFF771FD022C0CD12B78E0
:10431800012B09D1102239468DF8172030460DF1AE
:1043280017023BF02CFFEBE7204607B0F0BD00BFBB
:104338009C3100209ED90500005500501FB50B4642
:104348001349012B0A6802F007020DD1022A08D985
:10435800104B0293002303221846CDE900333BF0AB
:1043680023FF05B05DF804FB23B9022AF9D90A4AEC
:104378000292F0E7022AF4D90393084B032202932E
:1043880000231846CDE900333BF00EFFE9E700BFF4
:104398009C31002050C6050074C605009BC6050068
:1043A800F0B50D4610491F460B68044603F0070395
:1043B800022B164685B008D90C4B03220293002322
:1043C8001846CDE900333BF0EFFE0023CDE9013379
:1043D800BDF828303246009329463B46204646F031
:1043E800D8FC05B0F0BD00BF9C310020BED9050047
:1043F800F0B5164614220D4611491F460B6887B0C2
:1044080003F00703022B04468DF8142009D90D4B3D
:1044180003920293002303221846CDE900333BF0B0
:10442800C3FE0123029305AB0193BDF83030324639
:10443800009329463B46204646F0ABFC07B0F0BD4A
:104448009C310020DDD905002DE9F04FDDB0089042
:10445800FFF712FDB0B1DFF8E0B20122DBF800107F
:104468000898143146F068FD034678B9A0490A68EF
:1044780012F0060F06D09F4A0090CDE901020222F1
:104488003BF092FE00205DB0BDE8F08F32229A4DDD
:104498009A4F2B683968B3FBF2F402FB1434002CF2
:1044A80053D001332B604FF000094E464F46DFF8DA
:1044B8008CA2924A5FFA89F312689742C0F088800A
:1044C8008F4D2A69AB689B1A43F2AA52934227D9A7
:1044D80087490A6812F0060F11D064224FF4A140F0
:1044E8005A430393874BB2FBF0F202930023CDE9C2
:1044F8000402CDE90033022218463BF055FE10278E
:10450800DFF8FC81AB682A699B1AB3F5A17F07D352
:104518004FF4A17240460BA940F052FC013FF1D183
:104528007CB973490B6803F00703022B09D9764B52
:104538000322CDE9014320462346039600943BF02D
:1045480033FE301E18BF01209DE7694E326802F025
:104558000702022A0CD9CDE903136C4B0322CDE9DB
:10456800014331462346204600943BF01DFE2B684C
:1045780001332B6000250D2229460CA80B9550F01D
:10458800F2F93A680DF12C080F2A28BF0F2240468D
:104598005F49AA4211DC336803F00703022B82D972
:1045A8005C4B03220293002351491846CDE900339E
:1045B800CDF80C803BF0F8FD75E711F8013F0135A7
:1045C800A3F120075E2F88BF2E2300F8013BE0E708
:1045D8005149D21BB1F800808AF8023008F1010075
:1045E80008804E494E480D884E49033D954228BFE4
:1045F80015464FEA18228AF8012039442A468AF8D3
:104608000080079350F088F99CB93949079B0A68DC
:1046180002F00702022A0CD9CDE90453424B0322C7
:10462800CDE9014320462346CDF80C8000943BF0A9
:10463800BBFD02230793EB1C17FA85F79BB2BFB2A9
:104648000993DBF800105246099B089814313BF097
:1046580096FD8046002839D00CBB25490B685B07BE
:104668001DD0324B0390CDE9014301222346204659
:1046780000943BF099FD1E490B6803F00703022BD9
:104688000DD9EB1C0493254B03221B88204603936A
:10469800274B0094CDE9014323463BF085FD08F103
:1046A8000C08B8F1010F07D84FF4A47000213BF0B3
:1046B8008AFD079B012B06D1422000213BF083FD98
:1046C80009F10109F5E601230793BAE70CB10136B0
:1046D800F2E707490B6803F00703022BF7D9154BDC
:1046E8000322CDE90143009423463BF05DFDEEE74C
:1046F8009C31002000DA05005C8C0020608C0020D2
:10470800648C002004DB050049DB050043DA050062
:10471800B7EC012075DA0500BE670120C0670120EB
:1047280034EA0120B8EC012088DA0500ADDA05008A
:10473800CCDA0500E5DA05007C25002031EA012005
:104748001FB5214C012922680B4602F0070223D12C
:10475800022A09D91D4B0322029300232146184639
:10476800CDE900333BF020FD0023194AC2E90233AA
:10477800C2E9053353601361226802F00702022A76
:1047880008D9144A1049CDE901320322009318468A
:104798003BF00AFD04B010BD41B9022AFAD90E4A0D
:1047A8000091CDE9011203222146F0E7022AF1D94E
:1047B8000A4B039102930023032221461846CDE9B0
:1047C80000333BF0F1FCE5E79C31002070DB05008D
:1047D800648C00209FDB0500CEDB05009BC605002E
:1047E8001FB5214C012922680B4602F0070223D18C
:1047F800022A09D91D4B0322029300232146184699
:10480800CDE900333BF0D0FC0023194AC2E902335A
:10481800C2E9053353601361226802F00702022AD5
:1048280008D9144A1049CDE90132032200931846E9
:104838003BF0BAFC04B010BD41B9022AFAD90E4ABD
:104848000091CDE9011203222146F0E7002AF1D0B8
:104858000A4B039102930023012221461846CDE911
:1048680000333BF0A1FCE5E79C31002000DC0500AB
:10487800648C00209FDB05002EDC05005FDC050052
:104888002DE9F0410E464FF0010892B00746282264
:10489800002108A850F067F8674B684C83F800803F
:1048A80086B1236859070AD0654B03960293002303
:1048B800CDE900334246214618463BF075FC12B05C
:1048C800BDE8F081384608A914F060FB10F0FF0538
:1048D80009D023685A07F2D05A4B0395CDE90163F2
:1048E80000963346E6E73846574917F02BF910F09B
:1048F800FF000DD023685B0719D0544B0390CDE916
:10490800015342462B462146284600953BF04CFC75
:10491800236803F00703022B09D94D4B03220293A6
:10492800002346491846CDE900333BF03DFC3846A4
:1049380045F018F8474B1860109B1A88464B1A80A8
:10494800236803F00703022B5BD90025434B03229E
:10495800029328462B46CDE9005538493BF024FC04
:10496800236803F00703022B4BD9BDF83830032224
:104978000593BDF8363028460493BDF834302F49E6
:104988000393374B0095CDE901532B463BF00CFCC4
:10499800236803F00703022B33D900250F9A284612
:1049A80013785278042B96BF2E492F4B51F8233099
:1049B800042A96BF2B492C4A51F82220CDE90055EC
:1049C800CDE90332294B032202931C492B463BF0C5
:1049D800EBFB236803F00703022B12D9109B284630
:1049E800DA88164906929A8805925A8804921B8892
:1049F800032203931E4B0095CDE901532B463BF050
:104A0800D3FB40F6CD4200231A4836F083F8012242
:104A1800194B1A70236803F00703022B7FF64FAF78
:104A2800164B03220293002304491846CDE90033AC
:104A38003BF0BAFB43E700BF77E801209C31002038
:104A48008BDC0500A0DC0500C4260020C7DC0500BF
:104A5800DFDC0500988C0020C0670120FBDC050026
:104A68000FDD05007462050083DC05007CDD0500B0
:104A78005DD90500F02000202CE8012036DD050076
:104A88007FB5114B1B6803F00703022B19D90B786C
:104A9800042B96BF0D4A0E4B52F823304A78042A4D
:104AA80096BF0A490A4A51F822200749CDE903323C
:104AB800084B0322029300231846CDE900333BF04C
:104AC80073FB07B05DF804FB9C310020746205009D
:104AD80083DC05006CDD050070B55D488EB014F010
:104AE800A7F9002011F0EEFF04465A4E4FF400409B
:104AF80000213BF068FB33687CB158070AD0564B5D
:104B08000122029300233146CDE90033039418466D
:104B18003BF04AFB20460EB070BD03F00703022BA2
:104B280009D94E4B0322CDE901433146234620469D
:104B380000943BF039FB4FF4A072002148484FF035
:104B480012FF484816F0BEFB474D484816F0BAFB1E
:104B580009AC474816F0B6FB0FCD0FC42B680322EB
:104B6800236002234349009309A8434B12F0ECFF4A
:104B78003368044650B15907CCD0404B0122029308
:104B880000233449CDE900330390C0E703F007035D
:104B9800022B19D93A4B0322CDE901032D490346CB
:104BA80000903BF001FB336803F00703022B0BD99D
:104BB800344B03220393344B2046CDE90143254966
:104BC800234600943BF0F0FAFCF7FAFD0546FCF7A3
:104BD800EDFD55EA000332682BD052070AD0039343
:104BE8002A4B0122029300231A491846CDE90033C3
:104BF8003BF0DAFA4FF4A143254AD361254B136001
:104C08000023C2E90233C2E905335360136100206F
:104C180000210722CDE90601CDE90232CDE90033B2
:104C280004934FF400521C4B1C491D4836F06EF893
:104C380070E702F00702022ADCD91A4A1846CDE9C1
:104C480001320449032200933BF0AEFAD2E700BFD9
:104C58009C2600209C31002091DD0500BADD05006E
:104C680078E8012004240020305D05007C25002020
:104C7800F42400209862050088620500DADD05004A
:104C880009DE050048DE05004CDE05009DCD050067
:104C9800648C0020F8ED01203D51000070010420D3
:104CA800A83B00205CDE0500014B1868704700BF78
:104CB800988C002014222DE9F04FDFF8FC8107467C
:104CC800D8F800000D46B0FBF2F302FB1303D9B08D
:104CD800EBB907AC08290E4628BF082621462360F1
:104CE800CDE908330A939E426EDC69490B6803F0EC
:104CF8000703022B0BD9674B03900293002303226F
:104D08001846CDE90454CDE900333BF04DFA0026AE
:104D1800D8F80030DFF8A49101335F4CC8F80030B0
:104D2800C5F3072AB5F5A07F43D82A4639465B481C
:104D380089F8005089F801A04FF0EEFD2269A368B8
:104D48009B1A03F5A172B2F5A14F18D950490A6808
:104D580012F0060F0CD04FF4A142CDE90332504BAC
:104D68000222029300231846CDE900333BF01CFAD7
:104D78000023C4E90233C4E90533636023614FF4B7
:104D8800A172494620463FF0CBFFB0F5A17F26D05F
:104D98003F490B685B070CD04FF4A173CDE90303BF
:104DA800404B0122029300231846CDE900333BF023
:104DB800FBF93749022E0B6803F0060329D1002BB3
:104DC80058D16FF0680021E0FA5C0133A2F1200CA1
:104DD800BCF15E0F88BF2E2201F8012B83E7142255
:104DE800D8F80030B3FBF2F102FB11336BB9284954
:104DF8000A6802F00702022A07D92B4A1846CDE9A9
:104E08000132009303223BF0CFF9002059B0BDE8EE
:104E1800F08F2069A2680136121A43F66040824278
:104E28001BD94BB1214B022202930023039618464B
:104E3800CDE900333BF0B8F94FF0100B4FF4A172F5
:104E4800154807A93FF0BCFFBBF1010BF6D14FF4A1
:104E5800A47000213BF0B7F964E7002BF7D0144B9E
:104E680002220293002303961846CDE900333BF053
:104E78009BF9ECE7032303930E4B3246029300237E
:104E880004951846CDE900333BF08EF999E700BF49
:104E98009C31002070DE0500648C002076EB012038
:104EA800AEDE0500ECDE050021DF05004DDF050064
:104EB80085DF0500AADF0500588C002074EB01206F
:104EC8002DE9FF47DFF8BC81624CD8F80030064670
:104ED8000F46226873B912F0060F08D05E4A2146C1
:104EE800CDE901321846022200933BF05DF96FF0DC
:104EF8007F0593E002F00702022A0AD9574B039074
:104F080002930023032221461846CDE900333BF0E3
:104F18004BF900251423524A524903FB05F0105857
:104F280088425BD1236803F00703022B0AD94E4B52
:104F380003220293002347491846CDE9003303951D
:104F48003BF032F94FF0140ADFF83C910AFB05FAFE
:104F5800D9F800100122D8F80000514445F0ECFFC0
:104F6800034600285ED0D9F80010BBB23246D8F804
:104F7800000051443BF003F923680546002840D05F
:104F88005B070AD0394B039002930023012218468D
:104F9800CDE900332F493BF007F9D9F80010012279
:104FA800D8F80000143145F0C7FF0346002845D063
:104FB800236803F00703022B09D92D4B0322029320
:104FC800002324491846CDE900333BF0EDF8394673
:104FD800304604B0BDE8F047FFF76CBE0135092D37
:104FE8009BD123685A0701D10425ABE7214B012245
:104FF8000293002317491846CDE900333BF0D4F853
:10500800F2E703F00703022B08D91B4B0322CDE973
:1050180001031049034600903BF0C6F8284604B047
:10502800BDE8F087226812F0060FB6D0134A094986
:10503800CDE90102039502220090ACE7226812F044
:10504800060F3FF454AF0E4A0249CDE90102009021
:1050580002224AE79C310020EEDF050018E0050037
:1050680088250020173000203AE005008EE0050072
:1050780040E1050060E00500D2E0050008E1050018
:105088006CE10500988C00207C2500202DE9F84370
:10509800FEF7F2FE0646F8B1DFF87C801B4FD8F821
:1050A80000203B88D1B24D1C5FFA85F953FA85F58B
:1050B800B5F5DC7F164C12DBE15420464FF4DC7169
:1050C800FEF714FA2046D8F80020124900F8012B00
:1050D800A7F800904FF020FC3046BDE8F88340F276
:1050E800B71C581C6545E15420440A4909D14FF0C2
:1050F80013FC00234FF4DC7120463B80FEF7F6F9E1
:10510800EAE74FF009FC3D80E6E700BFBC670120F5
:1051180078E80120B8EC0120608C002010B501204F
:10512800FEF7FEF9024C2060FEF72AFA606010BD17
:10513800488C00202DE9F04F2DED028B4FF4804074
:10514800002189B03BF03FF800244FF0E6F94FF416
:105158007A722746A0FB020302FB0133C00BDFF87B
:10516800EC91DFF8ECA1DFF8ECB140EA4345D9F85F
:105178000080B8F1000F00F09D80404644F0F2FB3B
:10518800034660B967490A68520700F0A880664A72
:105198000090CDE9010201223BF006F89FE0634B45
:1051A8001A881A2A18D85F490B6803F00703022BDC
:1051B80009D95F4B03920293002303221846CDE9D5
:1051C80000333AF0F1FF404613F048FA4FF4A47068
:1051D80000213AF0F8FFCAE7564B01221968404609
:1051E800143145F0A9FE034650B34046FFF72CF9A9
:1051F80030B135F0CBFF4046FFF726F9E0B901376B
:105208004FF08BF94FF47A72A0FB020302FB0133D3
:1052180041F28732C00B40EA4346731B93424FF07A
:105228000004D0D93F4D2A6802F00702022A1BD891
:10523800002435462746C6E7023735F0A7FFDFE7E3
:10524800621E082A0ED937490A6802F00702022AA4
:1052580006D9394A0090CDE9010203223AF0A4FFA9
:105268000124B0E70134AEE707EE903A9FED337AB8
:10527800F8EE677A87EE878A07EE907AF8EE677A13
:10528800C7EE887A17EE900AFBF7C6F8CDE9060153
:1052980018EE100AFBF7C0F8294BCDE90401CDE957
:1052A80001430322234629462046039700943AF0F7
:1052B8007BFFBDE79AF800608EB9DBF8043013F184
:1052C800011F0CD84FF0FF324FF0FF331D4835F067
:1052D800AFF8FEF7B3F928B91A4835F021F94FF4B9
:1052E800247075E7FFF7D2FE8046164835F018F9A6
:1052F800B8F1000FF3D0DFF8608098F80030013380
:10530800DBB2FF2B88F80030E9D1FFF707FF0E4B1F
:1053180088F800603246CDE90163314633463046AD
:10532800009639E79C310020A1E10500C067012003
:10533800BEE105007C250020D0E1050000007A448C
:10534800FDE10500848C002042E20500988C0020D5
:1053580077E80120488C002030EA01202DE9F84F39
:1053680015464A434FEA420B0C460BF1070121F060
:10537800070100AFADEB010D69464FEA450E43B991
:105388009C46AB4228DA002600EB430801EB4C09A7
:105398001DE0144B03EB85080023AB421CDA002602
:1053A80000EB430C09E058F82320BCF800A002FBEE
:1053B8000469F44421F819A00136A642F3DB01334D
:1053C800EBE7B8F800A0013629F802ABF044A64292
:1053D800F7DB0133A444D4E75A464FF09DFABD46A3
:1053E800BDE8F88FA86205002DE9F84F15464A4335
:1053F8004FEA420B0C460BF1070121F0070100AF01
:10540800ADEB010D69464FEA450E43B99846AB42EC
:1054180028DA002600EB480901EB430C1DE0144B89
:1054280003EB85080023AB421CDA002601EB430C92
:1054380009E058F8232002FB046930F81990013676
:10544800ACF80090F444A642F3DB0133EBE739F9FA
:1054580002AB0136ACF800A0F444A642F7DB0133F6
:10546800A044D4E75A464FF057FABD46BDE8F88F36
:10547800A8620500B1F5807F024610B502D9B0FBDD
:10548800F1F010BD4B420B40B3FA83F3C3F1200493
:10549800C3F11F03D840064B21FA04F453F8243013
:1054A800A3FB003000FB1122914298BF0130E8E7CE
:1054B800647705002DE9F74FB2F1000A04460E465D
:1054C800174618BF4FF0010A8B464FF000081D46DB
:1054D8000368D0F81C900093226A072A15DC6268DA
:1054E8002ABBB8F1000F0CBF012302239A454FF0E5
:1054F800010808DA1DB1B6F900301B112B80012014
:1055080003B0BDE8F08FBB46E6E7009BA3B1BBF84C
:1055180000100122C90B484601913CF084FC019916
:10552800226A083A22626268002ADAD051B94FF436
:105538008042ABF80020D4E7012148463CF070FBDC
:105548000146EDE7004AF4E700C0FFFF2DE9F04F00
:105558008BB0CDE905328368199E0793C3688246EC
:105568000493436A049A0893079BD0F800B01B6B16
:10557800D0F8108033F91250189BD0F81C9005EB26
:10558800C305159B149F1C68039168103EB3022F36
:1055980025D13946103800FB01403AF025FE641B3E
:1055A800A4F11F039842A8BFA4F12000032823DC1C
:1055B800CEB1049B434532DABBF1000F40F09B802B
:1055C800484604F009F88046159B1B68102B04DD3B
:1055D800DAF82030102B00F3FA81002685E07900F4
:1055E80004380139D7E7BBF1000F1BD1484603F057
:1055F800F3FF80463446D8E04028A8BF4020C44B7B
:1056080000F0070233F91240C010C0F10E00044147
:10561800013424F001053EB1049B434526DBBBF170
:10562800000FCDD0012524E0BBF1000F21D1484661
:1056380003F0D2FF179B8046012B65DC5C466E1099
:10564800731C03FB03FABBF1000F00F06781A6424D
:10565800C0F2558104FB0441621C49105346484678
:105668000A4404F001F82946A00353E0BBF1000FF7
:1056780043D0DDE90510DAF82C30324600933B467A
:105688003EF015FE0446484603F0A6FF012D80466D
:1056980044D1002E00F08980BBF1000F94D0B4F5FE
:1056A800005F40F39281DAF83430002B40F08D81AE
:1056B800059A023ABB42C0F28281DDE90521049BCA
:1056C800079800930197089B80683AF099FD159B0D
:1056D8001B68102B81DDDAF82030102B7FF77DAFA7
:1056E8000222314648463CF079FBDAF83440002C77
:1056F8005BD000267EE73546BBE7484603F06CFFE3
:10570800022F804600F3C980691C48463CF0B7FA6E
:1057180029468003FFF7AEFE044645E005FB04F387
:1057280096B1DAF83020002A40F0928003F5005351
:10573800022F4FEAA33410DC179B012B00F3828061
:10574800BBF1000F7ED1DFE703F500539C13DAF8B5
:105758003830002B4DD1179B71E005EBD57A4FEA15
:105768006A0A0AF1010202EB42020AEB02015445FD
:10577800C5BF04F1FF30A0EB0A0004EB4400801819
:10578800C8BFA4EB0A0A0B46D8BFC21C0146C8BF53
:105798005244484603F068FFA0032946FFF76AFE13
:1057A8000446002E40F0E5800026484603F014FF2A
:1057B800159B159A1B68A0EB08055B1B1360002C52
:1057C80040F00B810123A04647F6FF79169A514F06
:1057D80093401A9A013B12681A401A9B1A60039B5D
:1057E800C3E90069C3E90287C3E904450BB0BDE812
:1057F800F08F002CAFDDA542ADDD2946A003FFF7F1
:1058080039FE824600B23AF06BFD0990CAF5804035
:1058180000B23AF065FD09993AF083FD4FF48042F1
:105828007B1EDB0113FB0020159BC2131B68B3EB27
:10583800E03F5EDB5B4293428DDD3446179B012BD4
:105848007FF7FDAE214648466A1C3CF022FBA3E7E1
:10585800B4F5005FCCBF47F6FF742F4C94FBF5F40A
:105868001C44A41324EAE474AC42A8BF05F1FF3435
:10587800002A00DB0134022F7FF762AF05EBD57AEF
:105888004FEA6A0A0AF1010303EB430202EB0A0139
:10589800BBF1000F7FF46BAF07E04FEA640A0AF12F
:1058A800010303EB430202EB0A014846CDE9053246
:1058B800049103F0ABFEDDE90413069A8242C7BFE8
:1058C800032390FBF3F4841AE418A245BBBF04F148
:1058D800FF30A0EB0A0004EB440080180B46014699
:1058E800B6BFA4EB0A0AC21C524448463CF075F9FC
:1058F800B9E6179B2C46012B3FF722AF9FE66A1C9F
:10590800A91C121B091B5143AAEB6101A6E600BFA3
:1059180008A1050000C0FFFF0180FFFF514648466F
:10592800049303F073FE049B5E43B0EB660F0CDA3E
:10593800C00001303CF0AAFF441E640804FB044187
:10594800621C491053460A44CFE7AAEB0000C00086
:1059580007383CF09BFF6C1C2246C0EB4400A91C96
:10596800A2EB5002A1EB500151434408AAEB61019C
:10597800E8E7C8B1002145F6822C069B9D1E059BD1
:10598800981E8F427FF710AF35F8022F30F8023F8C
:105998001CFB02F21CFB03F3D6189B1AF613DB134D
:1059A8002E8003800131ECE7049B07980093019750
:1059B800089B8068DDE905213AF022FCF4E632F81C
:1059C800021F01334942118074E6002675E6022160
:1059D80048463CF013F9064687E6B4F5804F0FD1E8
:1059E8000123169A27469340013B93401A9A47F69B
:1059F800FF7812684FF000091A401A9B1A60EEE609
:105A080020B23AF06DFC8146C4F5804000B23AF00D
:105A180067FC494680463AF084FC4FF48043013FD6
:105A2800FF0117FB0037FF13D9E600BF2DE9F04F40
:105A3800044699B08B461146BDF9942024980892E3
:105A48002268D4F80C800D92A268119309926269B9
:105A58000A92E2690B92099AD2F85CC0421C0C9235
:105A6800099A9568926D00FB0555454432F915A0D1
:105A7800421C1CF80A500CEB0A0900F0EB8019F8DC
:105A880005200C329A4280F2E580022940F3E28038
:105A980021F001060BEB06030B93229B00F1FF3864
:105AA800012B08BF269A4FEA610902BF02F00103E1
:105AB80043EA42032693229B5A4601334FEA630A7C
:105AC80026AB06930023CDE90483229B2046CDE92B
