:020000040000FA
:10000000302F0520BDFA00009D620400A9FA00000F
:10001000A9FA0000A9FA0000A9FA0000A9FA000054
:10002000000000000000000000000000C9FC00000B
:10003000A9FA0000000000004DFC0000A9FA000031
:10004000E1FE0000E1FE0000E1FE0000E1FE000034
:10005000E1FE0000E1FE0000E1FE0000E1FE000024
:10006000E1FE0000E1FE0000E1FE0000E1FE000014
:10007000E1FE0000E1FE0000E1FE0000E1FE000004
:10008000E1FE0000E1FE0000E1FE0000E1FE0000F4
:10009000E1FE0000E1FE0000E1FE0000E1FE0000E4
:1000A000E1FE0000E1FE0000E1FE0000E1FE0000D4
:1000B000E1FE0000E1FE0000E1FE0000E1FE0000C4
:1000C000E1FE0000E1FE0000E1FE0000E1FE0000B4
:1000D000E1FE0000E1FE0000E1FE0000E1FE0000A4
:1000E000E1FE0000E1FE0000E1FE0000E1FE000094
:1000F000E1FE0000E1FE0000E1FE0000E1FE000084
:10010000E1FE0000E1FE0000E1FE0000E1FE000073
:10011000E1FE0000E1FE0000E1FE0000E1FE000063
:10012000E1FE0000E1FE0000E1FE0000E1FE000053
:10013000E1FE0000E1FE0000E1FE0000E1FE000043
:10014000E1FE0000E1FE0000E1FE0000E1FE000033
:04015000E1FE0000CC
:1001580081F0004102E000BF83F0004330B54FEA70
:1001680041044FEA430594EA050F08BF90EA020FDD
:100178001FBF54EA000C55EA020C7FEA645C7FEA70
:10018800655C00F0E2804FEA5454D4EB5555B8BF93
:100198006D420CDD2C4480EA020281EA030382EA04
:1001A800000083EA010180EA020281EA0303362D96
:1001B80088BF30BD11F0004F4FEA01314FF4801C69
:1001C8004CEA113102D0404261EB410113F0004F7B
:1001D8004FEA03334CEA133302D0524263EB430332
:1001E80094EA050F00F0A780A4F10104D5F1200ED0
:1001F8000DDB02FA0EFC22FA05F2801841F100012B
:1002080003FA0EF2801843FA05F359410EE0A5F1FE
:1002180020050EF1200E012A03FA0EFC28BF4CF02F
:10022800020C43FA05F3C01851EBE37101F00045E5
:1002380007D54FF0000EDCF1000C7EEB00006EEBF2
:100248000101B1F5801F1BD3B1F5001F0CD349087C
:100258005FEA30004FEA3C0C04F101044FEA4452D3
:1002680012F5800F80F09A80BCF1004F08BF5FEA5A
:10027800500C50F1000041EB045141EA050130BD3A
:100288005FEA4C0C404141EB0101013C28BFB1F54C
:10029800801FE9D291F0000F04BF01460020B1FA97
:1002A80081F308BF2033A3F10B03B3F120020CDA6A
:1002B8000C3208DD02F1140CC2F10C0201FA0CF048
:1002C80021FA02F10CE002F11402D8BFC2F1200CAD
:1002D80001FA02F120FA0CFCDCBF41EA0C01904063
:1002E800E41AA2BF01EB0451294330BD6FEA0404AC
:1002F8001F3C1CDA0C340EDC04F11404C4F1200297
:1003080020FA04F001FA02F340EA030021FA04F3A8
:1003180045EA030130BDC4F10C04C4F1200220FAFF
:1003280002F001FA04F340EA0300294630BD21FA3D
:1003380004F0294630BD94F0000F83F4801306BF03
:1003480081F480110134013D4EE77FEA645C18BFF7
:100358007FEA655C29D094EA050F08BF90EA020F8E
:1003680005D054EA000C04BF1946104630BD91EA86
:10037800030F1EBF0021002030BD5FEA545C05D189
:100388004000494128BF41F0004130BD14F58004C8
:100398003CBF01F5801130BD01F0004545F0FE413C
:1003A80041F470014FF0000030BD7FEA645C1ABF71
:1003B800194610467FEA655C1CBF0B46024650EAA8
:1003C800013406BF52EA033591EA030F41F40021D4
:1003D80030BD00BF90F0000F04BF0021704730B55A
:1003E8004FF4806404F132044FF000054FF000012F
:1003F80050E700BF90F0000F04BF0021704730B5F0
:100408004FF4806404F1320410F0004548BF4042C4
:100418004FF000013EE700BF42004FEAE2014FEA19
:1004280031014FEA02701FBF12F07F4393F07F4FF4
:1004380081F06051704732F07F4208BF704793F0F7
:100448007F4F04BF41F40021704730B54FF460740A
:1004580001F0004521F000411CE700BF50EA01020D
:1004680008BF704730B54FF000050AE050EA0102B6
:1004780008BF704730B511F0004502D5404261EB26
:1004880041014FF4806404F132045FEA915C3FF467
:10049800D8AE4FF003025FEADC0C18BF03325FEA04
:1004A800DC0C18BF033202EBDC02C2F1200300FAB5
:1004B80003FC20FA02F001FA03FE40EA0E0021FADA
:1004C80002F11444BDE600BF7BB972B90029BEBF72
:1004D80000204FF0004106E008BF00281CBF6FF065
:1004E80000414FF0FF3000F057B8ADF1080C6DE94E
:1004F80004CE002909DB002B1ADB00F0E2F9DDF855
:1005080004E0DDE9022304B07047404261EB410199
:10051800002B1BDB00F0D5F9DDF804E0DDE9022350
:1005280004B0404261EB4101524263EB4303704720
:10053800524263EB430300F0C4F9DDF804E0DDE95F
:10054800022304B0404261EB41017047524263EB21
:10055800430300F0B6F9DDF804E0DDE9022304B056
:10056800524263EB4303704753B94AB9002908BFA5
:1005780000281CBF4FF0FF314FF0FF3000F00CB8DF
:10058800ADF1080C6DE904CE00F09BF9DDF804E04C
:10059800DDE9022304B07047704700BF2DE93440FD
:1005A80055F804AB1A1F55F804BB2CDD54F804CBDE
:1005B8001CFB0A6654F804EB1CFB1A77043A1CFB74
:1005C8000B881CFB1B991CFB3A6655F804AB1CFBFB
:1005D8002B771CFB3B881CFB2A99C8BF54F804CB1B
:1005E8001EFB0B661EFB1B771EFB0A881EFB1A9957
:1005F8001EFB3B6655F804BB1EFB2A771EFB3A8898
:100608001EFB2B99D4DC043236DD34F802CB013AD8
:100618001CFB0A66C8BF34F802EB1CFB1A771CFBEC
:100628000B881CFB1B9927DD1EFB1A66013A1EFB73
:100638000B7735F802AB1EFB1B88C8BF34F802CB1A
:100648001EFB0A9918DD1CFB0B66012A1CFB1B7795
:1006580035F8022B1CFB0A88C8BFB4F800E01CFB65
:10066800029909DD1EFB1B66B5F800B01EFB0A7770
:100678001EFB02881EFB0B99BDE834802DE9F04F64
:100688000D460999044615F0030F4FF001003BD0C1
:10069800B3F1040C4FF0000E35F8028B19DD54F855
:1006A800046B4FEA084855F8049B16FB18EE54F8FB
:1006B800047B16FB29EE55F8048B17FB19EEBCF1E9
:1006C800040C17FB28EEC4BF54F8046BEBE74FEAA1
:1006D80018481CF1040CA2BF34F8026B16FB08EE94
:1006E800BCF1010CC4BF35F8028BF4E7A4EB43045A
:1006F800A5EB4305704505F10205B8BF7046013901
:1007080042F804EB00DCC0E004391BDB4FF00006C4
:100718004FF000074FF000084FF00009FFF73EFFC9
:10072800B04205F10805B8BF3046B842B8BF3846F0
:100738004045B8BF40464845B8BF4846A2E8C00350
:100748000439E3DA02315FDBB3F1040C4FF0000A3D
:100758004FF0000B55F8048B20DD54F8046B55F866
:10076800049B16FB08AA54F8047B16FB18BBBCF1C3
:10077800040C16FB38AA55F8048B16FB29BBC8BF16
:1007880054F8046B17FB09AA17FB19BB17FB39AA06
:10079800C8BF55F8049B17FB28BBE2DC1CF1020C10
:1007A8000EDD54F8046B16FB08AA55F8049B16FBDB
:1007B80018BBACF1020C16FB38AAC84616FB29BBBD
:1007C80034F8026B1CF1010C16FB08AAC8BF34F8F8
:1007D800027B16FB18BB05DD35F8029B17FB18AA30
:1007E80017FB09BBA4EB4304A5EB4305504505F1F2
:1007F8000205B8BF5046A1F10201584542F804ABC2
:10080800B8BF584642F804BB01313EDBB3F1040CD3
:100818004FF0000E1DDB54F8046B55F8048B54F8A8
:10082800047B55F8049B16FB08EEBCF1040C16FB80
:1008380038EEA8BF54F8046B17FB09EEA8BF55F8AB
:10084800048B17FB39EEA2BF54F8047B55F8049BC0
:10085800E9E71CF1020CA1BF54F8046B55F8048BAE
:1008680016FB08EEACF1020CA8BF16FB38EE1CF123
:10087800010CA2BF34F8026B35F8028B16FB08EEA8
:10088800704542F804EBB8BF7046BDE8F08F10F829
:10089800012B11F8013B012A28BF9A42F7D0D01A40
:1008A8007047034611F8012B03F8012B002AF9D1F0
:1008B8007047034613F8012B002AFBD1181A013898
:1008C80070472DE9F04786468C460846089E15462F
:1008D80074461946002B40F0C1808542B2FA82F274
:1008E80045D94AB1C2F1200300FA02FC9540944070
:1008F8002EFA03F343EA0C0C4FEA154EA8B2230C68
:10090800BCFBFEF80EFB18CC08FB00F943EA0C43CD
:10091800994528D9EB1808F1FF3704D2994502D92F
:10092800A8F102072B44A3EB0903A4B2B3FBFEFC16
:100938000EFB1C330CFB00F044EA0344A04214D91C
:100948002C190CF1FF3304D2A04202D9ACF10203F6
:100958002C44241A43EA07401EB1D44000233460D3
:100968007360BDE8F0874746DDE76346F1E792BB71
:10097800431B01214FEA154EAFB2200CB3FBFEFC1E
:100988000EFB1C330CFB07F840EA0343984561D97A
:10099800EB180CF1FF3004D2984502D9ACF10200F3
:1009A8002B44A3EB0803A4B2B3FBFEFC0EFB1C33E1
:1009B8000CFB07F744EA0344A7424DD92C190CF164
:1009C800FF3304D2A74202D9ACF102032C44E41B42
:1009D80043EA0040C0E7C2F120039540944020FA62
:1009E80003F12EFA03F34FEA154E9040AFB20343DA
:1009F800B1FBFEFC0EFB1C10190C0CFB07F841EABE
:100A08000041884522D969180CF1FF3004D2884585
:100A180002D9ACF102002944A1EB08019BB2B1FB59
:100A2800FEFC0EFB1C110CFB07F743EA01439F4237
:100A38000ED9EB180CF1FF3104D29F4202D9ACF168
:100A480002012B44DB1B41EA004193E76046E3E7E0
:100A58006146F7E76046A4E76346B8E7834206D9EC
:100A680016B9002108467CE7C6E900E0F9E7B3FAC1
:100A780083F78FB9834201D3724508D8BEEB0204CD
:100A880060EB030301209C461EB9002169E7384644
:100A9800FAE7C6E9004CF8E7C7F1200CBB400EFAAC
:100AA80007F522FA0CF42EFA0CF1BA401C4320FA8E
:100AB8000CF3B8404FEA144901431FFA84FEB3FB14
:100AC800F9F809FB18300B0C08FB0EFA43EA00434F
:100AD8009A4540D9E31808F1FF3004D29A4502D963
:100AE800A8F102002344A3EB0A0389B2B3FBF9F887
:100AF80009FB183308FB0EFE41EA03418E452CD949
:100B0800611808F1FF3304D28E4502D9A8F1020317
:100B1800214443EA0040A1EB0E01A0FB02984145A5
:100B2800CE46434602D306D14D4504D20138B9EB2F
:100B3800020E68EB0403002EA7D0B5EB0E0261EBA2
:100B4800030101FA0CFC22FA07F3F9404CEA03030B
:100B5800C6E9003199E74046C5E74346D9E70000B2
:100B68002DE9F04706460F46904688B052F07AF9CC
:100B78004FF47A73A0FB034503FB0155E40B012FE7
:100B880044EA45444FEAD53507D122462B4630463C
:100B9800274943F061FD002012E0D8F80470254889
:100BA8003946FFF774FE70B139462348FFF76FFEE8
:100BB80048B130463A46214943F06AFD6FF00400D7
:100BC80008B0BDE8F087204617A3D3E900232946DB
:100BD800FFF77AFC05460C4610461946184A0023CA
:100BE800FFF772FC80460F46104619464EF6602203
:100BF8000023FFF769FC82468946104619464FF4E0
:100C08007A720023FFF760FCCDE902A9CDE906233B
:100C1800CDE904012A4623463046CDE90087094933
:100C280043F01AFDB7E700BF005C2605000000008E
:100C3800B7CC0500C8CC0500CBCC0500D4CC05004A
:100C480080EE3600ECCC0500F0B58BB0002140F604
:100C5800034009AA14F0F8FF0446002840F0B780C2
:100C68000998C3681B7853B95F4BD3E8AF2F02F0DC
:100C78000902D3E8EF1FC3E8E42F002CF9D110F0E4
:100C880091F8002141F2030009AA14F0DDFF04469F
:100C9800002840F09C80099A544DD16805F17803EA
:100CA800D1F80100D1F8051003C3104610F07AF806
:100CB800214641F2010009AA14F0C6FF04460028A3
:100CC80040F085800998C3685A7885F870205A885A
:100CD800A5F872201A7985F87120B3F80720A5F8CD
:100CE8007420B3F80530A5F8763010F05BF821468B
:100CF80041F2020009AA14F0A7FF0446002866D1B1
:100D0800099F05F18006FA68531C41323446186879
:100D18005968083303C493422646F7D1384610F081
:100D280041F816F06BFA0446002850D195F88A303D
:100D380013F0200317D12E490A6812F0060F06D0C7
:100D48002C4A0093CDE90132022247F035F995F893
:100D58007C3013F0400351D125490A68520739D134
:100D68006FF0120433E0072140F6334014F066FABE
:100D78000646002800F0518107210C3045F03AFD65
:100D8800042343700623C0F8024084710470047180
:100D98002246C370314640F6334014F055FF0446EE
:100DA800A8B9012140F6314014F048FA0646002857
:100DB80000F0338101210C3045F02BFD22463146ED
:100DC80040F6314014F040FF04460028BFD02046CA
:100DD8000BB0F0BD084A1846CDE901320093012254
:100DE80047F0EAF8BCE700BFF421002020210020EA
:100DF800443000205E7806008C780600002142F21C
:100E0800030009AA14F020FF04460028DFD1099B3B
:100E1800AF4EDA68D2F80100D2F8051003C61846BA
:100E28000FF0C0FF214642F2020009AA14F00CFF9D
:100E380004460028CBD1099CE368B3F8012091B29D
:100E480049B1D97839B1A5F80421DA78114606F103
:100E5800280051F043FD20460FF0A4FF1F2395F80A
:100E68007C60A5F8203116F0200618D1022140F642
:100E78006D4014F0E3F90446002800F0CE8002210A
:100E88000C3045F0B7FC012321460370467032460A
:100E980040F66D4014F0D8FE0446002897D195F826
:100EA8009C301F0712D5002142F21C0009AA14F039
:100EB800CBFE044600288AD10998C368D3F80120DC
:100EC800D3F80530C5E938230FF06CFF95F8D83012
:100ED8009E0625D50DF1220108A814F0B1FF04469D
:100EE80000287FF474AF042142F2240014F0A6F91C
:100EF8000646002800F0918004210C3045F07AFC69
:100F0800BDF8203022460380BDF8223031464380A8
:100F180042F2240014F098FE044600287FF457AFEC
:100F280095F8D8305C0610D5002142F22A0009AAAB
:100F380014F08AFE044600287FF449AF0998C36874
:100F48005B7885F822310FF02DFF082142F201006D
:100F580014F074F9044600285FD008210C3045F0DD
:100F680049FC95F8D81040F2022311F0400F08BF51
:100F78000323024688074CBF43F02C0043F00C00C3
:100F88008B0695F8D93048BF40F0400013F0090FA0
:100F980095F8A23018BF40F4006003F00603CF07AD
:100FA80048BF40F01000062B08BF40F4C070002175
:100FB80047F019F82146002242F2010014F044FEDD
:100FC800044600287FF403AF95F87C20B5F8043177
:100FD800960625D4D3B9194641F2050009AA14F09A
:100FE80033FE044600287FF4F2AEB5F80431099CBC
:100FF8004BB9E368B3F80120A5F804219A8835486D
:10100800114651F06BFC20460FF0CCFE082140F64B
:10101800014014F013F9044698B96FF06804D6E655
:10102800002BF3D12C490A68540702D16FF004044D
:10103800CDE62A4A0093CDE90132012246F0BCFFF1
:10104800F4E708210C3045F0D5FB95F8D830024676
:10105800D90747BF1CA1D1E900014FF00051204832
:1010680046F0C1FF2146002240F6014014F0ECFD95
:10107800044600287FF4ABAE014609AA4FF60140AA
:1010880014F0E2FD144E78B3336813F0060F09D05C
:10109800144B0222CDE901433146234600941846F9
:1010A80046F08AFF15F002FD044600287FF48FAE53
:1010B80017F0C0FA044600287FF489AE14F0C2FA8B
:1010C80085E600BFAFF30080908800020080002012
:1010D800F82100202822002044300020B0780600A3
:1010E80010880002D37806003368099F03F00703CD
:1010F800022BFC6851D9B4F801304849032B96BF3C
:10110800474A484A52F82320CDE90323464B032295
:10111800029300231846CDE9003346F04DFF3368AB
:1011280003F00703022B38D9B4F80130B4F80320D0
:10113800022B4AD1052A48D83C4B53F82230CDE936
:1011480003323B4B03220293002334491846CDE96E
:10115800003346F031FF336803F00703022B1CD934
:10116800D4F8091063790791B4F80710032B069196
:10117800A17998BF2F4ACDE9043198BF52F82320AE
:101188002D4B88BF274A0293002303921846032257
:10119800CDE90033214946F00FFF38460FF002FE33
:1011A80000214FF6024009AA14F04EFD044670B122
:1011B800336813F0060F3FF475AF204B02930023FA
:1011C800CDE900330222154969E7164BB7E70998BC
:1011D800C368B3F80130A5F8C1300FF0E3FD95F806
:1011E800C1305B077FF55EAF21464FF6034009AA81
:1011F80014F02AFD50B1336813F0060F3FF452AFD4
:101208000F4B0094CDE901432346DBE70998C368F7
:101218005B7885F8C0300FF0C5FD43E74430002007
:10122800E06D0500E6750600F7780600C86D050054
:1012380010790600B86D0500287906005579060072
:101248007E7906000000000070B514460646CD17EA
:10125800A1FB0201002304FB05110A22FFF734F960
:101268000FA3D3E900230C4D80FB054520462946F2
:10127800FFF72AF906A3D3E9002330602946204660
:10128800FFF722F90023054AFFF71EF9726070BDC7
:1012980080A8120100000000D8EF2F0040420F0084
:1012A80000209BF35E10000003292DE9FF4105464D
:1012B8000C4613D0072900F083806D490B6813F0A2
:1012C800060F08D06B4B0222029300231846CDE983
:1012D80000334DF06EF96FF085004CE0002A53D0D2
:1012E800072AF8D158681A68634BC117C2FB030173
:1012F800012871F100035CDBD5F804805F4B98F896
:101308001A60C0184FEAD61655A3D3E9002341F155
:10131800000176B2FFF7D8F8002E14BF0423022389
:10132800984298F91A7029D0002E14BF2023102350
:10133800834225D0002E14BF08230423984221D0CD
:10134800002E14BF10230823984232D1E6B231464A
:1013580040462D6944F0ACF8002824DB3D22484B78
:10136800002F33F81430AE77AABFA3FB02325343E1
:101378005B08EB60002004B0BDE8F0810024E5E7DD
:101388000124E3E70224E1E719883E4B14461F468F
:1013980033F8022B914209D86868E1B22E6944F00B
:1013A800F4F9002808DA6FF00400E4E701340B2CA4
:1013B800EED16FF01500DEE737F81430B383D9E7C4
:1013C800002A3AD0072A86D1B4245A6819682A4BC9
:1013D800D017C1FB0320A2FB0431012A04FB001132
:1013E80070F100001DDB2848181841F100011EA308
:1013F800D3E900230024FFF767F8244B33F8022BC6
:10140800904216D16868E1B22E6944F068F8002865
:10141800C9DB41F217121E4B33F814305343B36142
:10142800A8E71C48181861F100010FA3D3E90023AD
:10143800E0E70134072CE1D1BBE71988114B33F8F9
:10144800020B814206D86868D1B244F00CFA002831
:1014580090DAA8E701320B2AF1D1AAE7AFF30080AE
:101468003AA3950000000000D8EF2F00000000000C
:1014780010300020FDFF060040420F009DD14A00B9
:10148800DAA90500E2A90500ECF71700CCA90500C8
:10149800BEA905001408E8FF2DE9F74F03291446F3
:1014A800066905D90B1F032B53D96FF0850023E07C
:1014B8000229F7683A4D22D0032923D0012914BF05
:1014C800B6F90460B6F90660A6FB076732A3D3E94C
:1014D800002386FB056530462946FEF7F5FF002305
:1014E800304A206029463046FEF7EEFF00232D4A99
:1014F800FEF7EAFF6260002003B0BDE8F08FB6F99E
:101508000860E1E74FF0000B02F11803DFF894A040
:101518000236019336F9028FA8FB07831EA3D3E98D
:10152800002388FB059848464146FEF7CDFF524602
:1015380044F8080B5B4648464146FEF7C5FF52464D
:101548005B46FEF7C1FF019B44F8042C9C42E1D1A5
:10155800D1E70629B5690CD007290ED02A460529F6
:1015680014BFB6F91010B6F912102046FFF76CFE3A
:10157800C1E72A46B6F91410F7E70E3602F1180744
:1015880020462A4636F9021F0834FFF75DFEA742B7
:10159800F6D1B0E7AFF300800010A5D4E800000052
:1015A8003AA3950040420F002DE9F04F3A4B85B021
:1015B800D3F8042392070BD5D3F8042142B10022B3
:1015C800C3F80421354AD3F8043113680133136092
:1015D800334D0024A8464FF480362F4FD7F80433F4
:1015E80006FA04F919EA030F2CD00123A340DB43C0
:1015F8002C49D1E8EF2F02EA0300C1E8EC0FBCF157
:10160800000FF6D122FA04F3DB0703D4264B53F874
:101618002430BBB120464DF0AFF92CF0BDFBEFF301
:101628001183202282F31288BFF36F8F08EB041C0A
:10163800DCE902AB504571EB0B010AD283F3118848
:10164800BFF36F8F103514B105B0BDE8F08F0124DA
:10165800C4E70020D5E900129FED0D7B28600E48F5
:1016680003938CED027B0292C0F8489320464DF01C
:1016780083F9039B83F31188BFF36F8F0029E1D0AF
:10168800029A5B46009252468847DBE7AFF3008038
:10169800FFFFFFFFFFFFFFFF00500150604C0120DC
:1016A80058570020544C01204051015038B5064D80
:1016B800064928463DF07FFA0021044628463DF0B9
:1016C8008FFA204338BD00BF684A050001000200B8
:1016D80013B509480469836801A95B68984720B96C
:1016E800236801985840C0F3C010431E584258411F
:1016F800024B187002B010BD903905003469012002
:1017080030B5224B05461B7887B0002B3AD0FFF73F
:10171800CDFF044698BB01231D4AD3601D4ACDF86E
:101728000CD0CDE9012304220A23CDE904234FF08C
:10173800FF324FF0FF33184837F05AFD174801A918
:1017480083685B6898470446134837F0C9FDB4B905
:10175800BDF802309FED127A07EE903AF8EE677AFC
:1017680067EE877A9FED0F7A67EE877A9FED0E7A9C
:1017780067EE877AFCEEE77A17EE903A2B802046E0
:1017880007B030BD6FF08B04F9E700BF3569012061
:1017980000E00050484A0500C8320020203A050001
:1017A8006666E63F0000803A00803B45034B1B78A5
:1017B8000BB1FFF77BBF6FF08B00704735690120D5
:1017C8007FB5714D2B6803F00703022B09D96F4BC6
:1017D80003220293002329461846CDE900333DF041
:1017E80013FA6B4850F088FE034678B92A68520706
:1017F80007D0684ACDE901326349012200933DF0E0
:1018080003FA6FF01204204604B070BD624850F02D
:1018180073FE614E034620B92A685607F1D05F4A25
:10182800E8E7304650F068FE034620B92A685507B5
:10183800E7D05B4ADEE7304650F05EFE034620B94B
:101848002A685407DDD0574AD4E72B6803F007030A
:10185800022B09D9544B0322029300234A49184604
:10186800CDE900333DF0D0F94FF400314F483DF059
:10187800A2F92B68044668B15807C4D04C4B0394AE
:101888000293002301221846CDE900333E493DF07A
:10189800BBF9B8E703F00703022B08D9454B03222D
:1018A800CDE901033849034600903DF0ADF94FF406
:1018B800803141483DF07FF92B68044620B1590733
:1018C800A1D03E4B0390DBE703F00703022B08D9B6
:1018D8003B4B0322CDE901032B49034600903DF021
:1018E80093F9384938483DF066F92B68044620B129
:1018F8005A0788D0354B0390C2E703F00703022B41
:1019080008D9334B0322CDE901031F490346009050
:101918003DF07AF92F49304B4B6080238B60B368D8
:10192800DB6913B101221C4898472B6803F00703B1
:10193800022B09D9294B0322029300231249184686
:10194800CDE900333DF060F91148254983681B68EB
:1019580098472B68044628B15B073FF454AF214BE6
:1019680003908DE703F00703022B08D91E4B0322CF
:10197800CDE901030449034600903DF045F90122F1
:101988001A4B1A703FE700BF1C300020D8AD050085
:10199800203A0500F0AD05009039050005AE0500B8
:1019A8001CAE050032AE050046AE0500584A0500DB
:1019B8005FAE05007BAE0500684A050097AE0500DE
:1019C800B6AE050010000100604A0500D1AE050062
:1019D800EFAE0500D0600020D916000007AF050063
:1019E8007C89050021AF050036AF05003569012067
:1019F8002DE9FF410D4618491F460B68044603F0C0
:101A08000703022B164608D9144B0322029300231E
:101A18001846CDE900333DF01EF9DFF84880D8F8C4
:101A2800003003930E4B029300231A4619461846BA
:101A3800CDE900333DF00FF90823CDE90183BDF866
:101A480028303246009329463B46204647F075FE2B
:101A580004B0BDE8F08100BF6C30002059AF05002C
:101A680079AF0500EC6000201FB50B461349012B28
:101A78000A6802F007020DD1022A08D9104B029316
:101A8800002303221846CDE900333DF0E4F805B001
:101A98005DF804FB23B9022AF9D90A4A0292F0E751
:101AA800002AF4D00393084B01220293002318461E
:101AB800CDE900333DF0CFF8E9E700BF6C300020F6
:101AC8008AAF0500AEAF0500D5AF05001FB5436866
:101AD800104A23F0FF039342044619D183685A1E23
:101AE800534253410C4A137003930C4B0293002347
:101AF8001A4619461846CDE900333DF0ACF80022E5
:101B080000232146064804B0BDE8104037F0BEBAAD
:101B180004B010BD00011C0039690120EBAF0500BD
:101B2800F433002030B587B004460D461822002152
:101B3800684651F0BDFB064B6946029308232046D0
:101B48000195ADF80C3019F043F807B030BD00BF6F
:101B5800EC6000202DE9FF41984F99483B6899496E
:101B6800047801330A78984D3B6074B1002A40F03C
:101B7800F58001222B600A7040F21F52002393481F
:101B880004B0BDE8F04137F0D9BE914E002A77D0B5
:101B98004FF0280C2A680C709A1A0CFB02F2B2F566
:101BA800967F33606CD28B480268002A67D09A1AF5
:101BB8000CFB02F2B2F5167F61D2046002244FF0EA
:101BC800280C2A68981A0CFB00FE3068821A0CFB55
:101BD80002F2B2F5967F80F086807E4A106800286F
:101BE80000F08180BEF5967F4CD900247A4B1460B2
:101BF80021462246CDE901432046234600943DF084
:101C08002AF80123754A76491370764A13600B68DF
:101C180003F00703022B08D9734B0322CDE90143D4
:101C28002046234600943DF016F802F08BFD20B1C3
:101C38006E4B19681431FFF775FF012000F046FE5E
:101C480032203DF017F8002000F040FE32203DF031
:101C580011F8012000F03AFE32203DF00BF8002088
:101C680000F034FE32203DF005F8012000F02EFE91
:101C780032203CF0FFFF002000F028FE7CE70360E4
:101C880000249CE70A78002A40F09080002C3FF45A
:101C980073AF0024564B2246214602932046234622
:101CA800CDE900443CF0D7FF02234C4A4C4913705D
:101CB8004C4A13600B6803F00703022B08D94D4BFD
:101CC8000322CDE901432346009418463CF0C3FFA4
:101CD80002F038FD00283FF44FAF444B1968143127
:101CE800FFF720FF48E7BEF5967FCBD9DFF8EC80F9
:101CF80098F80030042B2DD000243F4B2246214673
:101D0800029320462346CDE900443CF0A4FF042377
:101D18000522334988F80030324B1A600B6803F00B
:101D28000703022B08D9354B0322CDE9014320468E
:101D3800234600943CF08FFF02F004FD20B12B4BAA
:101D480019681431FFF7EEFE0023224A3B602B602E
:101D58003360136001222A4B1A700DE72A689B1A18
:101D680028225343B3F57A7FFFF406AF1B4D2B7837
:101D7800032B3FF401AF0024224B22462146029355
:101D880020462346CDE900443CF065FF0322154B6D
:101D980013491A600B682A7003F00703022B97D9BE
:101DA800194B0094CDE9014323468EE72A689B1A14
:101DB80028225343B3F57A7FD8D267E7E86000203A
:101DC8003969012037690120E4600020C020002023
:101DD800E0600020DC600020FFAF050036690120CC
:101DE8006C300020EC60002014B00500482300206F
:101DF80026B005003BB0050072B0050084B00500B0
:101E0800386901204DB0050062B005001FB51448BF
:101E180050F072FB1349034670B90A68520706D09E
:101E2800114A0090CDE9010201223CF014FF6FF045
:101E3800120005B05DF804FB0B6803F00703022BE2
:101E480008D90A4B0322029300231846CDE9003330
:101E58003CF001FF064850F06BFC0020E9E700BFAA
:101E6800103B05006C30002094B00500ACB00500B4
:101E7800F43300201FB50C490B6803F00703022B4D
:101E880008D90A4B0322029300231846CDE90033F0
:101E98003CF0E1FE40F21F520023054805B05DF812
:101EA80004EB37F017BD00BF6C300020D3B005003D
:101EB800C0200020014B1860704700BFB88B00207D
:101EC8001FB54C0022460146134841F008FE13494D
:101ED80084420B680ED05B0709D0114B0122029394
:101EE800002303941846CDE900333CF0D3FE4FF0AD
:101EF800FF3004E003F00703022B02D8002004B0EF
:101F080010BD084B03220293002303941846CDE921
:101F180000333CF0BFFEF1E7988B002078300020BA
:101F2800F1B005001FB10500F0B5012089B03FF000
:101F3800CDFF40F6030301224FF47A51A24806F080
:101F480069FEA24C0646F8B123685A0719D040F634
:101F5800030301224FF47A519B4806F05BFE882365
:101F680004939B4BB0FA80F003939A4B4009029379
:101F78000023CDE9003305900122214618463CF0A4
:101F880089FE4FF0FF361BE145F6C05240F6A271BC
:101F98008D4807F0C1FF0546B8B123685B07F0D04C
:101FA80045F6C05240F6A271874807F0B5FFB0FA6F
:101FB80080F08923400905900493854B009603938C
:101FC800844BCDE901633346D6E7024640F6A67155
:101FD8007D4807F0A1FF0746B0B123685F07D0D05E
:101FE8002A4640F6A671784807F096FFB0FA80F0C6
:101FF8008A23400905900493754B00950393754B0C
:10200800CDE901532B46B7E7012240F6AA716E4885
:1020180007F082FF0646B0B123685E07B1D00122FF
:1020280040F6AA71684807F077FF8D23B0FA80F070
:102038000493674B40090393664B0590CDE9017300
:1020480000973B4698E740F6B93240F6B8715E48CB
:1020580007F062FF054678B123685D0791D040F626
:10206800B93240F6B871584807F056FFB0FA80F018
:1020780040098E2305909FE7102240F6C47152480C
:1020880007F04AFF064678B1236858073FF479AF4E
:10209800102240F6C4714C4807F03EFFB0FA80F0B9
:1020A80040098F230590A6E702464FF47B61464816
:1020B80007F032FF054678B1236859073FF461AF4E
:1020C80032464FF47B61404807F026FFB0FA80F0B3
:1020D8004009902305906FE7024640F6AC713A48F4
:1020E80007F01AFF024678B123685A073FF449AF50
:1020F8002A4640F6AC71344807F00EFFB0FA80F07B
:1021080040099123059076E740F6AE712E4807F016
:1021180003FF23680646C0B15B073FF432AF0022D5
:1021280040F6AE71284807F0F7FE92230493284B37
:10213800B0FA80F00393274B400902930023012251
:10214800CDE900332149059018E703F00703022B76
:1021580009D9214B0322029300231C491846CDE9D3
:1021680000333CF097FD4FF47A4200251B4BDA61AF
:102178001B4AC3E90255C3E905551A605D601D6134
:1021880000220023CDE9062302234FF4FA42CDE9C9
:102198000253CDE90055134B13491448049537F001
:1021A80095FC236803F00703022B09D9104B03227F
:1021B800CDE9015328462B46044900953CF06AFDB9
:1021C800304609B0F0BD00BFF46000207830002030
:1021D8004AB1050067B1050079B10500988B002068
:1021E8007B6A01207122000080D003201038002073
:1021F8008BB105001FB54FF4A07315490093A022B9
:10220800144B154807F060FE1449041E0B6803F0D0
:1022180007030EDA022B09D9114B0322029300237C
:1022280003941846CDE900333CF034FD002004B097
:1022380010BD022B09D90B4B0322029300230394F0
:102248001846CDE900333CF025FDA0B2EFE700BF0A
:10225800CC6501203B690120F46000207830002023
:1022680099B10500B2B10500F0B52E4E2E4C85B0DF
:102278003269B3689B1AB3F5A07F226813D212F0B3
:10228800060F0AD00393294B02220293002321460A
:102298001846CDE900333CF0FDFC00214FF4A47052
:1022A80037F0D6FEE4E702F00702022A0AD90393C0
:1022B8001F4B03220293002321461846CDE9003321
:1022C8003CF0E8FC4FF4A0721A49304641F057FC44
:1022D800FFF790FF184F05463B68B3B1236803F03A
:1022E8000703022B0AD9154B0390029300230322FC
:1022F80021461846CDE900333CF0CCFC29463B6822
:102308000F48984737F022FEB2E722685207F9D003
:102318000C4A2146CDE901321846012200933CF0CF
:10232800B9FCEFE7988B002078300020D2B1050087
:1023380004B20500CC650120B88B002028B2050046
:102348003B6901204DB205001FB5134850F0D4F881
:10235800124C0346A8B1002219210F483CF0B8FCE2
:10236800236803F00703022B09D90D4B03220293BC
:10237800002321461846CDE900333CF09AFC04B00E
:1023880010BD22685207FAD0064A2146CDE901025B
:1023980000900122F1E700BF903905009C30002031
:1023A8006AB205008CB205007FB52A492A4850F068
:1023B80085FB2A4E2A4D304650F09EF8034668B9F0
:1023C8002A68520707D0274A2946CDE9010200901A
:1023D80001223CF06EFC6FF012041BE03269B16818
:1023E8001368304623F0007313600B684FF4C02263
:1023F800192198472B68044678B15B070AD01A4B15
:10240800039002930023012229461846CDE90033A0
:102418003CF04FFC204604B070BD03F00703022BCC
:10242800F8D9124B0322CDE901032946034600904F
:102438003CF03FFC2B6803F00703022BEAD9336812
:10244800032203930A4B2946CDE90143204623463C
:102458000094DDE751230000083900209039050079
:102468009C300020B3B20500CFB20500F1B20500E0
:1024780007B30500F0B53B4D04462B6887B003F061
:102488000703022B1AD90026374B03900293032225
:10249800334629463046CDE900663CF00AFC2B68F5
:1024A80003F00703022B09D9304B0322CDE901635E
:1024B80029463346304600963CF0FBFB2C4850F04A
:1024C8001BF8034660B92A68520707D0294A2549EC
:1024D800CDE90102009001223CF0EBFB07B0F0BD12
:1024E80041F288339C4205D92A6812F0060F2CD194
:1024F80041F288340026204850F0EEFA01221921D2
:102508001B483CF0E5FB4FF4004740F2E73031460A
:102518004FF47A720023E4FB0701FEF725F8024620
:102528000B46154837F0D6F92B6803F00703022B42
:10253800D4D9124B0322CDE9016330463346094909
:10254800039400963CF0B5FBC8E7CDE903430C4B78
:1025580002220293002303491846CDE900333CF0D8
:10256800A8FBC5E79C30002016B305002FB3050073
:10257800903905005AB3050008390020C1B3050099
:1025880077B305002DE9FF41274E336803F00703B1
:10259800022B09D9254B0322029300233146184602
:1025A800CDE900333CF0A4FB214D0C21D5F8108077
:1025B800AF68D8F80030284623F48053C8F80030B4
:1025C8003B681C4A9847041E12DA336859070BD037
:1025D8000C230393184B0293002301221846CDE9DC
:1025E800003311493CF084FB204604B0BDE8F0817B
:1025F800D8F80030DA044FF4805154BFFB683B69C7
:10260800284698470028044606DA33685B07EBD06B
:102618000C230393094BDEE740F26760002137F093
:1026280017FD0024E0E700BF0C300020E3B30500ED
:102638007839050000020200F1B305000DB4050069
:102648002DE9F0410C234FF0000892B00546CDE982
:102658000438344E30464FF04FFF48B928463249C7
:1026680042F016F86FF01204204612B0BDE8F0816F
:10267800B7683C685CB142460321304604ABA047CA
:10268800044638B12949284642F002F8ECE76FF0D1
:102698005704F7E7D7F80080B8F1000F08D00246D2
:1026A8000721304604ABC047044620B12049EAE779
:1026B8006FF05704FAE73C213046FB689847044618
:1026C80008B11C49DFE7032130463B6906AA984751
:1026D800044608B11849D6E7072130463B690CAAD9
:1026E8009847044608B11549CDE70B9B2846039344
:1026F8000A9B13490293099B0193089B0093DDE908
:10270800062341F0A9FF119B28460393109B0D490E
:1027180002930F9B01930E9B0093DDE90C2341F07C
:102728009BFFA1E7283B050023B4050036B405004C
:102738005FB4050087B40500A0B40500BBB405006C
:10274800D5B40500FCB4050030B5524887B03CF05C
:102758001BFB514C0546B8B923685B0711D04D489F
:102768003CF012FB1B23059004934C4B012203936E
:102778004B4B2146CDE9015328462B4600953CF0AA
:10278800E0FA4FF0FF3078E046483CF0C0FA002805
:102798001ADA23685D0711D042483CF0B8FA1C23C6
:1027A80004933E4B059003933D4B01220293002373
:1027B80021461846CDE900333CF0C3FA394807B042
:1027C800BDE830403CF0A3BA32483CF0DDFA05469B
:1027D80040B923685807D4D02E483CF0D5FA1D23B9
:1027E8000590C1E730483CF092FA002816DA2368D1
:1027F800590711D02C483CF08AFA1E230493274B22
:1028080005900393264B0122029300232146184684
:10281800CDE900333CF095FA2348D0E71D483CF059
:10282800B3FA054640B923685A07AAD019483CF0BC
:10283800ABFA1F23059097E71C483CF068FA00287C
:10284800236815DA5B0711D018483CF060FA20239A
:102858000493124B05900393114B0122029300231A
:1028680021461846CDE900333CF06BFA0F48A6E73D
:1028780003F00703022B02D8002007B030BD0C4B31
:1028880003220293002321461846CDE900333CF089
:1028980058FAF1E790390500B43000203BB505003F
:1028A80067B10500C04A0500B84A0500B04A0500EE
:1028B80056B50500014601483CF052BAC04A050029
:1028C800014601483CF04CBAB84A050001460148A7
:1028D8003CF046BAB04A05007FB51B4C0646236853
:1028E8000D4603F00703022B0AD9184B03910293F4
:1028F8000023032221461846CDE900333CF05BFA59
:102908002946304601F024FF2268034670B1520779
:102918000AD00F4B03900293002301221846CDE9F9
:10292800003309493CF047FA04B070BD02F00702D1
:10293800022AF9D9074A0449CDE901020090032285
:102948003CF039FAF0E700BFC030002063B505005D
:102958008FB50500B5B5050038B5124B1B789BB18E
:10296800114A137883F0010313706BB10120FFF74C
:10297800A7FF0E4B1D784DB10020FFF79BFFBDE868
:1029880038400020FFF7A2BF0020F0E7084B0120E5
:102998001C78002CF1D0FFF799FF2846BDE8384095
:1029A800FFF788BF87920220346901203A69012025
:1029B8007B640220F0B59E4D85B02B6803F00703B9
:1029C800022B4DD900249B4B032202932946234610
:1029D8002046CDE900443CF0EEF92B6803F00703EC
:1029E800022B3DD9944B03220393944B2946CDE9FE
:1029F80001432046234600943CF0DDF92B6803F0A0
:102A08000703022B2CD98E4B032203938D4B2946A7
:102A1800CDE901432046234600943CF0CCF92B68CD
:102A280003F00703022B1BD9874B03220393874B21
:102A38002946CDE901432046234600943CF0BBF9E2
:102A48002B6803F00703022B0AD9814B0322CDE937
:102A58000143294623462046039400943CF0ABF9F1
:102A680000247C4F2346224621462046CDE90044D7
:102A780002973CF0A0F92B6803F00703022B17D943
:102A8800754E234603222046CDE901466849009445
:102A98003CF091F92B6803F00703022B08D9234671
:102AA80003222046CDE90146614900943CF083F9B0
:102AB800FFF74AFE044680B12B685B070AD0674BD4
:102AC800039002930023CDE90033012218465849A8
:102AD8003CF071F9204605B0F0BD0120FFF7EAFE91
:102AE8004FF416703CF076F92046FFF7E3FEC82055
:102AF8003CF070F90120FFF7E3FE4FF416703CF04C
:102B080069F92046FFF7DCFEC8203CF063F9012094
:102B1800FFF7DCFE4FF416703CF05CF92046FFF737
:102B2800D5FEC8203CF056F90120FFF7C3FE01206E
:102B3800FFF7C6FE0120FFF7C9FE4FF416703CF000
:102B480049F92046FFF7B6FE2046FFF7B9FE2046B2
:102B5800FFF7BCFE2B6803F00703022B09D9404B93
:102B68000322CDE9014320462346314900943CF035
:102B780022F9FEF725FE044628B12B685F07A9D085
:102B8800384B03909DE7FEF711FE044628B12B68E9
:102B98005E079FD0344B039093E7344B02460146BF
:102BA800CDE900000293034606463CF004F9FFF71E
:102BB8002DF92B68044640B15D078BD02C4B039050
:102BC800CDE90163009633467FE703F00703022B44
:102BD80008D9284B0322CDE9010315490346009083
:102BE8003CF0E9F80024FFF745F923462246214640
:102BF8002046CDE9004402973CF0DDF82B6803F04D
:102C08000703022B09D91C4B0322CDE901432046B7
:102C18002346074900943CF0CEF8FFF7C5FB2B6824
:102C2800044668B358073FF455AF144B039448E77C
:102C3800C0300020CAB50500D6B50500DAB50500D4
:102C4800E4B50500EAB5050000B6050020B60500A4
:102C580036B6050022CF050048B605005EB6050069
:102C6800D8AD050081B605009EB60500BFB60500C3
:102C7800EDB6050012B7050025B705003DB70500FC
:102C880003F00703022B17D99B4B0322CDE901035D
:102C98009A49034600903CF08EF82B6803F007032E
:102CA800022B09D9964B0322CDE90143204623463E
:102CB800924900943CF07FF800244FF4FA70FFF733
:102CC800D9FB2346224621462046CDE900440297F7
:102CD8003CF071F82B6803F00703022B09D9894BE4
:102CE8000322CDE9014320462346844900943CF061
:102CF80062F80120FFF7E4FD0020FFF7E1FD01F095
:102D08007DFC044630B12B6859073FF4E3AE7E4B97
:102D18000390D6E6034602460146CDE90107009036
:102D28003CF049F82B6803F00703022B09D9774BCD
:102D38000322CDE9014320462346704900943CF024
:102D48003AF80120FFF7C2FD7148FFF7B3F8FFF723
:102D5800EBF8044600B32B685A070AD06D4B039072
:102D68000293002301221846CDE9003363493CF061
:102D780022F80525684E30463CF008F8B0FA80F095
:102D88004009FFF7A3FDC8203CF024F8013DF2D12B
:102D98002846FFF79BFD9DE6FFF798FD2346224650
:102DA80021462046CDE9014700943CF004F82B6801
:102DB80003F00703022B09D9584B0322CDE901433D
:102DC800204623464D4900943BF0F5FF0120FFF7CC
:102DD80071FD0120FFF774FD00F04CFA044660B362
:102DE8002B685B070AD04E4B039002930023012205
:102DF8001846CDE9003341493BF0DDFF0525494F31
:102E0800494E38463BF0C2FFB0FA80F04009FFF760
:102E180051FD30463BF0BAFFB0FA80F04009FFF7A9
:102E28004FFDC8203BF0D6FF013DEAD12846FFF709
:102E380041FD2846FFF744FD4CE6FFF73BFD2046E1
:102E4800FFF73EFD2B6803F00703022B18D9374B19
:102E58000322CDE9014320462346284900943BF04C
:102E6800AAFF2B6803F00703022B09D9304B032272
:102E7800CDE9014320462346204900943BF09BFFBF
:102E880032203BF0A7FF0120FFF720FD2B6803F05D
:102E98000703022B09D9274B032202930023174962
:102EA8001846CDE900333BF086FF4FF47A703BF0CB
:102EB80091FF2B6803F00703022B09D91E4B03224D
:102EC800029300230D491846CDE900333BF073FF08
:102ED8000020FFF7FBFC2B6803F00703022B7FF6AB
:102EE800F9AD164B03220293002304491846CDE995
:102EF80000333BF060FFEDE566B70500C030002009
:102F08007DB70500BBB70500D6B70500F9B70500C2
:102F1800E128000010B80500C84A05002AB80500D5
:102F280046B80500D84A0500D04A050065B805002E
:102F380085B8050099B80500ABB80500C0B805000C
:102F48000146024882685268104700BF983A050057
:102F58001FB5274C236803F00703022B09D9254B1B
:102F680003220293002321461846CDE900333BF0A3
:102F780068FF4FF4B01120483BF044FF68B1236864
:102F880059070AD01D4B03900293002301221846CB
:102F9800CDE9003316493BF054FF4FF4803118480F
:102FA8003BF030FF68B123685A070AD0154B0390ED
:102FB8000293002301221846CDE900330C493BF067
:102FC80040FF4FF4B01110483BF01CFF68B1236874
:102FD8005B070AD00D4B0390029300230122184689
:102FE800CDE9003302493BF02CFF04B010BD00BF0F
:102FF800C8300020E4B80500E84A0500FCB8050020
:10300800E04A050022B90500F04A050047B9050065
:1030180030B52A4D85B02B6803F00703022B09D978
:10302800274B03220293002329461846CDE9003393
:103038003BF007FF4FF4D01122483BF0E3FE68B1A4
:103048002B6859070AD0204B0390029300230122D2
:103058001846CDE9003319493BF0F3FE4FF48031AF
:103068001A483BF0CFFE68B12B685A070AD0184BB4
:1030780003900293002301221846CDE900330F493B
:103088003BF0DFFE4FF4D01112483BF0BBFE044684
:1030980068B12B685B070AD00F4B0390029300239B
:1030A80001221846CDE9003304493BF0CAFE00214D
:1030B800A42036F0CDFF204605B030BDC830002032
:1030C8006AB90500E84A050081B90500E04A05002B
:1030D800A6B90500F04A0500CAB905002DE9F04F68
:1030E800594D89B02B6803F00703022B09D9574BB8
:1030F80003220293002329461846CDE900333BF00A
:10310800A0FE534EDFF84C913746D6E8AF3F002B70
:1031180074D04FF47A72D9F8083000929C68002174
:1031280007AB4C4806AAA047034600283ED1079A99
:10313800B2F5486F0FD0296811F0060F0BD04FF485
:103148004861CDE90321444A3F49CDE90102009095
:1031580002223BF076FE079906984908FEF7B0FE72
:103168004FF000080446DFF808A1DFF8DCB02CB9FE
:1031780006993A484FF098FA0694C6E72B6859071B
:1031880009D00023012259461846CDE902A4CDE909
:1031980000883BF056FE0021A42036F059FF07991D
:1031A80006984908FEF78CFE0446E0E710F1740F14
:1031B8002A680DD112F0060FA7D0294B02220293DC
:1031C800002321491846CDE900333BF03AFE9CE73D
:1031D80052070AD0234B039002930023012218467A
:1031E800CDE9003318493BF02CFE0023D7E8EF2F38
:1031F800C7E8E13F0029F9D1FFF7AAFE2B6803F0E1
:103208000703022B09D9184B0322029300230E4906
:103218001846CDE900333BF014FE0020FFF790FE7E
:1032280000280DDA2B685B070AD0104B0390029335
:10323800002301221846CDE9003303493BF001FE83
:1032480009B0BDE8F08F00BFC8300020ECB9050018
:10325800BC8B0020983A050007BA050068310020A9
:1032680072BA050086BA05009BBA0500B6BA050011
:1032780033BA05002DE9F04389B0544D544E284621
:103288004FF03AF9034678B93268540709D02A68EA
:10329800314603924F4A0090CDE9010201223BF0EA
:1032A800D0FD6FF0120411E0FFF7B2FE044688B1BA
:1032B800336859070AD0484B039002930023012230
:1032C80031461846CDE900333BF0BBFD204609B036
:1032D800BDE8F0834149AB6848611B6828469847B8
:1032E800051E336810DA5A070AD03D4B0122CDE992
:1032F8000143314623462046039500943BF0A1FD47
:10330800FFF726FE2C46E1E703F00703022B09D955
:10331800344B0322CDE9014331462346204600942D
:103328003BF08FFD4FF001092F4FD7E8EF3FC7E87B
:10333800E29F002AF9D1002200230025CDE90623C7
:1033480007234FF40062CDE90335CDE90155274B3A
:1033580027490095274836F0B9FB2749254836F014
:10336800F3FA4846FFF7ECFDB0F1000833681DDAC0
:103378005B070BD0214B4A46CDE9015328462B4623
:103388001349CDF80C8000953BF05BFD0023D7E88E
:10339800EF2FC7E8E13F0029F9D1002140F267602B
:1033A80036F056FE4446FFF7D3FD8FE703F00703D8
:1033B800022B8BD9124B0322CDE9015328462B4609
:1033C800034900953BF03DFD80E700BF983A0500B2
:1033D800C8300020DBBA0500F4BA0500D02300206D
:1033E8001BBB05003FBB0500BC8B0020E53000007F
:1033F80080510420303A002063BB05006FBB0500F4
:1034080090BB05007FB5002405460E4622220949D7
:1034180001A8CDE901448DF80C400DF0FBFE3246C1
:10342800294601A80DF0F6FF01A80DF0A9FF2046D6
:1034380004B070BD7D64022010B5C6B03BF01FFD1E
:10344800044620210F4B104A009010483AF078F9B2
:1034580020464FF0DCFE0D4804A90EF023F878B1A1
:103468000B490B685B0708D00A4B01220293002323
:103478001846CDE900333BF0F3FC002046B010BD00
:103488004598FBE7C0BB0500C6BB05009D6402204C
:10349800EC300020E3BB050030B5002489B00322DE
:1034A800264905A8CDE905448DF81C400DF0B2FE6B
:1034B8000028234D11DA2B6859070AD0214B0390B5
:1034C800CDE90143012223462946204600943BF0DA
:1034D800C7FC4FF0FF3009B030BD2246214605A891
:1034E8000DF0BCFF002805DA2B685A07F1D0164BFF
:1034F8000390E5E7042204A905A80DF067FF00285A
:1035080005DA2B685B07E4D0104B0390D8E705A8D1
:103518000DF036FF2B6803F00703022B0BD9049B31
:10352800032203930A4B2946CDE90143204623464B
:1035380000943BF095FC0498CDE700BF01BC050062
:10354800EC3000200FBC05003BBC050051BC050059
:1035580067BC0500014B1878704700BF7C640220E7
:10356800054803691B689B0583684FF4007154BFC5
:10357800DB681B69184700BF7839050005480269F0
:103588008168136823F4007313600B684FF40032EA
:1035980009211847783905002DE9F74F3E4B0646B3
:1035A8001B78914643B93D4941F072F84FF0FF341A
:1035B800204603B0BDE8F08F022905D8384941F00C
:1035C80067F86FF01504F3E70022D9F804001146F4
:1035D8003AF058F98046D9F80800FDF76AF9470823
:1035E80038464FF01BFE0546E8B1002400F1FF3ACB
:1035F8004FEA470BA3454FF000031BD1DFF8B0900B
:10360800FFF7BCFFFFF7ACFF0121484609F0F2FBCA
:10361800041E23DA30462246224941F039F828466A
:103628004FF0F5FDC4E730461F4941F031F86FF01F
:103638000B04BDE7D9F8082001A8115D22448DF8D4
:103648000410527800218DF8052010228DF80630DC
:103658003AF018F902340AF8010FCBE7D9F8083024
:103668002A465C6841463B464846A047041E0CDA99
:10367800224630460D4941F00BF828464FF0C7FD69
:1036880000210B4809F0B6FB92E743463A4630461C
:10369800084940F0E1FFF0E7BE6402207FBC050066
:1036A8009DBC0500D1BC0500B6BC0500EEBC0500FC
:1036B800B03A05000DBD050030B51E4B05461B7818
:1036C80085B03BB91C4940F0E3FF4FF0FF3420467A
:1036D80005B030BDFFF752FFFFF742FF0121174841
:1036E80009F088FB021E03DA2846154940F0D0FF8E
:1036F800124883689B696BB103A99847041E0CDACA
:10370800224628460F4940F0C3FF00210B4809F024
:1037180071FBDCE76FF08504F2E79DF80E30284670
:1037280000939DF80C209DF80D30074940F094FF58
:10373800EBE700BFBE6402207FBC0500B03A05007D
:10374800D1BC050027BD050045BD05002DE9F043A6
:103758002C4B07461B78144685B043B92A4940F0DC
:1037680097FF4FF0FF34204605B0BDE8F0830229EB
:1037780005D8264940F08CFF6FF01504F3E70022C6
:10378800606811463AF07EF8002206461146A068A5
:103798003AF078F80546FFF7F1FEFFF7E1FE012160
:1037A8001B4809F027FB041E1BDBDFF864909DB162
:1037B800102DA84628BF4FF01008D9F808306A46DF
:1037C8001C68314643461248A047041E0FDA2246B9
:1037D8003846104940F05CFF00210D4809F00AFB0B
:1037E800C1E7224638460C4940F052FFBBE7314654
:1037F80043466A4638460AF019FD4644A5EB0805D3
:10380800D5E700BFBE6402207FBC05005FBD050090
:10381800B03A05007ABD0500D1BC0500F0B51346E5
:10382800294A0546127885B03AB9284940F030FF50
:103838004FF0FF34204605B0F0BD012905D82449D2
:1038480040F026FF6FF01504F4E70022586811468F
:103858003AF018F81F4F0646FFF790FEFFF780FE74
:103868000121384609F0C6FA041E05DA2246284620
:10387800194940F00DFFDDE73146384601AA4AF004
:10388800F4FA041E09DA22461449284640F000FFDB
:103898000021104809F0AEFACCE7029ABB689B6891
:1038A8003BB1314638469847041E05DA22460C4992
:1038B800EBE76FF05704F9E733462846029A0949BF
:1038C80040F0CAFEE4E700BFBE6402207FBC0500EA
:1038D8009ABD0500B03A0500D1BC0500B3BD05008E
:1038E800D7BD0500F3BD05001FB501220B461449DD
:1038F80093420A701349086800F007000DD10228A6
:1039080008D9114B0293002303221846CDE900334E
:103918003BF0F4FA05B05DF804FB23B90228F9D9A5
:103928000A4A0292F0E70028F4D00393084B029366
:1039380000231846CDE900333BF0E0FAEAE700BF80
:10394800C5640220143100208AAF0500AEAF05001F
:10395800D5AF05002DE9F047944F98463B6881465E
:1039680003F00703022B154688B01BD90024904B9F
:1039780003220293394623462046CDE900443BF012
:10398800BDFA3B6803F00703022B0BD92B780322FF
:103998000393884B3946CDE90143204623460094DA
:1039A8003BF0ACFA0023B8F1060F8DF81C3012D0AA
:1039B800B8F1020F6AD03A6802F00702022A08D961
:1039C8007D4A0093CDE901320322184677493BF03E
:1039D80095FA062526E0D5F8024095F800A06E78FD
:1039E80024BA0025754B2A46029329462B462846B9
:1039F800CDE90464CDE90055CDF80CA03BF07EFA82
:103A0800002E48D13B6803F00703022B09D96C4B01
:103A18000096CDE9016333460322184663493BF01B
:103A28006DFA03253B688DF81C5003F00703022B41
:103A38001CD90024634B0322029320462346CDE978
:103A480000445A49CDF80C803BF058FA3B6803F023
:103A58000703022B0AD95C4B0322CDE90143204618
:103A680023465249039500943BF048FA574B07AA5E
:103A780019684846012314313BF02BFA4FF4FA70C9
:103A88003BF04BFA404608B0BDE8F0871C4695F875
:103A980000A06E78A5E74E4B3A68197802F0070245
:103AA800B14207D2022ABCD94A4B0095CDE901534D
:103AB8002B46B1E7BAF1030F08D80AF1FF3ABAF179
:103AC800020F0FD8DFE80AF064686A00BAF1320F13
:103AD80069D0022A7FF67DAF3F4B0095CDE90153AF
:103AE8002B4671E73D4B701EB14253F820301BD175
:103AF800022A09D93A4B0322029300232B4918467C
:103B0800CDE900333BF0FAF94FF4DC72B4FBF2F381
:103B180002FB1343334AE31A1360334B1E70334BD3
:103B280001221A7000257DE763B9022A08D9304AB4
:103B38001846CDE901321D49032200933BF0DEF916
:103B480004256FE79C420DD9022A09D9294B032283
:103B58000293002315491846CDE900333BF0CEF90E
:103B680005255FE7022A09D9234B03220293002384
:103B78000E491846CDE900333BF0C0F94FF4DC722A
:103B8800B4FBF2F302FB1343E41A164B1C60C4E7C0
:103B98001A4B1E701A4BC3E71A4BC1E700221A4B87
:103BA8001A601A4BBCE71A4B1D70BBE71431002092
:103BB80081BE05009FBE0500ADBE0500BDBE050067
:103BC800F1BE05008ABF0500A6BF05000424002039
:103BD800BD64022006BF050078BF0500C08B002029
:103BE80019BF0500CC8B0020522F0020C46402208E
:103BF80032BF050041BF05005DBF0500C16402205A
:103C0800C2640220C0640220C88B0020C364022062
:103C1800BF640220F0B5044687B00A2016461F4646
:103C28000D463BF07AF90A4B29461A685B680492FC
:103C380005930823029304AB0193BDF83030324654
:103C4800009320463B4645F078FD07B0F0BD00BF25
:103C5800C08B0020F8B50446204E30464EF04CFC90
:103C680030B932681E49204640F012FD0020F8BDE8
:103C780033F042FE20461B4A1B4940F0EDFC1B4D29
:103C88001A212A69AF681368284643F080631360D5
:103C98003B68174A9847021E01DA1649E3E7BF69ED
:103CA80057B14FF480024FF000731A212846B847E5
:103CB800021E04DA1049D6E76FF05702FAE72046E9
:103CC8000E4940F0C9FC0021304609F093F8021E65
:103CD80001DA0B49C7E73FF06BFD00BFD839050093
:103CE800B2BF0500CABF0500D6BF05009039050060
:103CF80011000100ECBF050014C0050046C0050016
:103D080076C00500BFF34F8F0549064BCA6802F419
:103D1800E0621343CB60BFF34F8F00BFFDE700BFE6
:103D280000ED00E00400FA051FB500230E4A0F4914
:103D380013700F4A044613700A6802F00702022A39
:103D480007D90C4A1846CDE90132009303223BF00B
:103D58000AF9204613F0A6FE0023074A1360074A13
:103D6800138004B010BD00BF7B6402201C3100200A
:103D7800C5640220A6C00500088C00201067012039
:103D88001FB5104C4FF4A17221460F483FF0F7FEC3
:103D98000E4BB0F5A17F186010D00D490B685B077A
:103DA80009D00C4B03900293002301221846CDE959
:103DB80000333BF0D8F8002004B010BD2288012061
:103DC8001A60F9E705690220D08B0020F08B0020EB
:103DD8001C310020BDC0050010B588B00DF11E00D3
:103DE800FDF78EFC88BBBDF81E100DF11D003AF0E2
:103DF8001AFF044648BB9DF81D3002460493BDF8DF
:103E08001E3001460393184B0090CDE90103034689
:103E18003BF0A9F89DF81D0009F07AF868B113493C
:103E28000B685A0709D0124B0390CDE901430122D0
:103E38002346204600943BF096F84FF4F0220023E6
:103E48000C4835F07BFD08B010BD08490B685B07CE
:103E5800F3D0094B0122029300231846CDE9003321
:103E68003BF081F8E9E700BFF1C005001C310020F4
:103E780013C10500F020002034C1050070B51E4DA7
:103E88000E462B6886B003F00703022B30D90024B6
:103E98001A4B03220293294623462046CDE90044C3
:103EA8003BF061F82B6803F00703022B20D97388D5
:103EB80003220493338829460393114B2046CDE906
:103EC8000143009423463BF04EF82B6803F00703A8
:103ED800022B0DD9F38803220493B3882946039350
:103EE800084B2046CDE90143009423463BF03BF8BC
:103EF800012006B070BD00BF1C31002051C1050073
:103F08008AC10500B5C105002DE9F041144D984658
:103F18002B680E4603F00703022B174686B01CD900
:103F28000024104B03220293294623462046CDE95C
:103F380000443BF018F82B6803F00703022B0CD958
:103F4800094B0322CDE90143294623462046CDE902
:103F58000478039600943BF006F806B0BDE8F081BB
:103F68001C310020CEC10500EDC1050010B50C467E
:103F78000E4988B00B6803F00703022B10D9E388B9
:103F880003220693A38805936388049323880393E5
:103F9800074B029300231846CDE900333AF0E3FFBC
:103FA8002288044B1A8008B010BD00BF1C310020C5
:103FB80018C2050010670120F0B50F4617491C46C6
:103FC8000B68064603F00703022B154687B008D98D
:103FD800134B0322029300231846CDE900333AF02D
:103FE800C2FF012C07D12B78062B13D1A8220D4B29
:103FF8001A77FFF787FE022C0CD12B78012B09D1F9
:10400800102239468DF8172030460DF117023AF084
:1040180095FFEBE7204607B0F0BD00BF1C3100203C
:1040280059C2050000550050F0B50D4610491F460D
:104038000B68044603F00703022B164685B008D91F
:104048000C4B0322029300231846CDE900333AF0C3
:104058008AFF0023CDE90133BDF8283032460093AA
:1040680029463B46204645F068FB05B0F0BD00BF39
:104078001C31002079C205001FB50B461349012BDE
:104088000A6802F007020DD1022A08D9104B0293E0
:10409800002303221846CDE900333AF064FF05B047
:1040A8005DF804FB23B9022AF9D90A4A0292F0E71B
:1040B800022AF4D90393084B0322029300231846DB
:1040C800CDE900333AF04FFFE9E700BF1C3100208B
:1040D8008AAF0500AEAF0500D5AF0500F0B51646AE
:1040E80014220D4611491F460B6887B003F00703D9
:1040F800022B04468DF8142009D90D4B0392029324
:10410800002303221846CDE900333AF02CFF01239F
:10411800029305AB0193BDF830303246009329462F
:104128003B46204645F009FB07B0F0BD1C31002096
:1041380098C2050070B50546012692B028220021D4
:1041480008A84FF0B5F84D4B284608A91E7014F082
:1041580041F94B4C10F0FF0322680ED052070AD0E9
:104168000393484B32460293002321461846CDE973
:1041780000333AF0F8FE12B070BD02F00702022ACE
:1041880008D9414A2146CDE9013218460322009355
:104198003AF0E9FE284644F0B4FA3C4B1860109B0C
:1041A8001A883B4B1A80236803F00703022B5BD95C
:1041B8000025384B0322029328462B46CDE90055AB
:1041C8002F493AF0D0FE236803F00703022B4BD99E
:1041D800BDF8383003220593BDF8363028460493DD
:1041E800BDF83430264903932B4B0095CDE9015394
:1041F8002B463AF0B8FE236803F00703022B33D9A5
:1042080000250F9A284613785278042B96BF234925
:10421800234B51F82330042A96BF2049204A51F8ED
:104228002220CDE90055CDE903321E4B032202932B
:1042380013492B463AF097FE236803F00703022B35
:1042480012D9109B2846DA880D4906929A88059259
:104258005A8804921B8803220393134B0095CDE9D7
:1042680001532B463AF07FFE40F6CD4200230F481B
:1042780035F030FB01220E4B1A707CE7C564022032
:104288001C310020C3C20500EAC20500088C0020CA
:1042980010670120FEC2050012C30500B44B0500DB
:1042A800BBC2050039C3050018C20500F020002074
:1042B8007B6402202DE9F843FFF762FD0646F8B15A
:1042C800DFF87C801B4FD8F800203B88D1B24D1C0A
:1042D8005FFA85F953FA85F5B5F5DC7F164C12DBE4
:1042E800E15420464FF4DC71FFF78CF82046D8F8EB
:1042F8000020124900F8012BA7F800904EF0B1FFFA
:104308003046BDE8F88340F2B71C581C6545E154B7
:1043180020440A4909D14EF0A4FF00234FF4DC7170
:1043280020463B80FFF76EF8EAE74EF09AFF3D80A3
:10433800E6E700BF0C670120C86402200769022075
:10434800F08B002010B50120FFF776F8024C2060B2
:10435800FFF7A2F8606010BDC08B00202DE9F04F78
:1043680089B04FF48040002135F072FE8F4B904D9C
:104378001C68DFF880B234B32B7833B940F6CD40EF
:10438800002135F065FE01232B70204644F0B9F971
:10439800BBF800300646632B40F2D680002800F0B8
:1043A800C480844B01221968143145F099FA002819
:1043B80000F0BE80FFF7E4FC002840F0B0803046F3
:1043C80013F070FBCCE0BBF800207B4B632A1B7812
:1043D8002C7000F2AA80002B40F0C280774B5B68FB
:1043E80013F1011F00F2BC8000264FF0FF324FF09E
:1043F800FF33734834F0FCFEFFF7ACF8002840F0B8
:10440800B2806F4834F06CFFA7E003F00703022B7B
:1044180008D96C4B0322CDE901036B490346009090
:104428003AF0A1FD0AF1010A684B5FFA8AF11A68AD
:104438004245C4D9BBF80050A2EB0802033D95429F
:1044480028BF1546624889F80210038861495C1C38
:104458005D4F048089F8003041441B0A2A465E48B3
:1044680089F801304EF0FDFE3B68A84403F00703CD
:10447800022B0BD9EB1C0393584B03220293002306
:1044880039461846CDE900333AF06DFDEB1C9BB276
:104498000793484B4A4619683046079B14313AF04F
:1044A8004DFD3B6804460028AFD05B0710D04C4B4D
:1044B8000122029300230390CDE9003318464249B4
:1044C8003AF051FD3A68002302F00702022A07D8A1
:1044D800212000210C3435F0BBFD012CA2D8D8E7EF
:1044E800404A1846CDE90132374903220394009324
:1044F8003AF039FD3A6802F00702022AE8D90023A7
:10450800EA1C0492BBF8002018460392364ACDE90B
:10451800003302922C4903223AF025FDD8E74FF0E8
:10452800000ADFF8D490D0467EE7234B1B7852E789
:10453800214B1B78002B7FF442AF204B5B6813F1B3
:10454800011F3FF63CAF50E71B4B1B782BB91B4BA9
:104558005B6813F1011F7FF648AF002E7FF42FAF81
:1045680035F0F4FC02E7FFF7A5FE0446144834F0E2
:10457800B7FE002CF1D01D4C23780133DBB2FF2BA2
:104588002370EAD1FFF7DEFE00230F4923700A6883
:1045980002F00702022AE0D9154A1846CDE901328D
:1045A800009303223AF0DFFCD7E700BF088C002015
:1045B800C66402207C250020C5640220C08B002030
:1045C800F48B00208BC305001C310020F08B0020E9
:1045D8000E67012007690220836602204EC305008A
:1045E80071C305009DC30500BCC30500C764022054
:1045F800D5C30500106701208066022070B53F48CA
:104608008EB013F039FE002011F080FC3C4E0446B9
:10461800336878B15A070AD03A4B01220293002333
:104628003146CDE90033039018463AF09CFC204609
:104638000EB070BD03F00703022B08D9324B0322DA
:10464800CDE901033146034600903AF08CFC4FF463
:10465800A07200212D484EF02BFE2D4815F090FF3A
:104668002C4D2D4815F08CFF09AC2C4815F088FF0F
:104678000FCD0FC42B68032223600223284900931F
:1046880009A8284B12F084FC3368044650B15B0734
:10469800CDD0254B0122029300231949CDE90033DF
:1046A8000390C1E703F00703022B08D91F4B03222D
:1046B800CDE901031249034600903AF054FC4FF447
:1046C80021531B4AD3611B4B13600023C2E90233F9
:1046D800C2E9053353601361002000210722CDE9A8
:1046E8000601CDE90232CDE9003304934FF480523C
:1046F800114B1249124835F0E9F998E734260020A1
:104708001C310020DEC3050007C40500C864022070
:1047180004240020704605007C250020F424002095
:10472800D84B0500C84B050027C4050056C4050032
:10473800D08B0020476A022065430000805904207E
:10474800283B0020014B1868704700BF088C0020E8
:104758002DE9F84305460C46104E114FC1F30729C1
:1047680006F10208B4F5A07F13D822462946404630
:10477800347086F801904EF074FD4FF4A1723846FB
:1047880006493FF0ACF9B0F5A17F02D10020BDE8A1
:10479800F8830021212035F05BFCE3E7C3670220A2
:1047A800D08B00202DE9F84F15464A434FEA420BBB
:1047B8000C460BF1070121F0070100AFADEB010D2D
:1047C80069464FEA450E43B99C46AB4228DA0026B3
:1047D80000EB430801EB4C091DE0144B03EB850883
:1047E8000023AB421CDA002600EB430C09E058F822
:1047F8002320BCF800A002FB0469F44421F819A0A6
:104808000136A642F3DB0133EBE7B8F800A0013626
:1048180029F802ABF044A642F7DB0133A444D4E7FD
:104828005A464EF01EFDBD46BDE8F88FE84B050020
:104838002DE9F84F15464A434FEA420B0C460BF157
:10484800070121F0070100AFADEB010D69464FEA02
:10485800450E43B99846AB4228DA002600EB4809D2
:1048680001EB430C1DE0144B03EB85080023AB421E
:104878001CDA002601EB430C09E058F8232002FB60
:10488800046930F819900136ACF80090F444A64257
:10489800F3DB0133EBE739F902AB0136ACF800A0E2
:1048A800F444A642F7DB0133A044D4E75A464EF05D
:1048B800D8FCBD46BDE8F88FE84B0500B1F5807F10
:1048C800024610B502D9B0FBF1F010BD4B420B40C7
:1048D800B3FA83F3C3F12004C3F11F03D840064B96
:1048E80021FA04F453F82430A3FB003000FB112212
:1048F800914298BF0130E8E7A46005002DE9F74F21
:10490800B2F1000A04460E46174618BF4FF0010AD6
:104918008B464FF000081D460368D0F81C900093A2
:10492800226A072A15DC62682ABBB8F1000F0CBF9F
:10493800012302239A454FF0010808DA1DB1B6F9A0
:1049480000301B112B80012003B0BDE8F08FBB465F
:10495800E6E7009BA3B1BBF800100122C90B48464B
:1049680001913CF03FF90199226A083A2262626893
:10497800002ADAD051B94FF48042ABF80020D4E7CE
:10498800012148463CF02BF80146EDE7004AF4E7E0
:1049980000C0FFFF2DE9F04F8BB0CDE905328368E9
:1049A800199E0793C36882460493436A049A08933E
:1049B800079BD0F800B01B6BD0F8108033F9125069
:1049C800189BD0F81C9005EBC305159B149F1C6819
:1049D800039168103EB3022F25D13946103800FBE9
:1049E80001403AF0E0FA641BA4F11F039842A8BF03
:1049F800A4F12000032823DCCEB1049B434532DA1E
:104A0800BBF1000F40F09B80484604F009F880464F
:104A1800159B1B68102B04DDDAF82030102B00F3EF
:104A2800FA81002685E0790004380139D7E7BBF11F
:104A3800000F1BD1484603F0F3FF80463446D8E008
:104A48004028A8BF4020C44B00F0070233F91240A9
:104A5800C010C0F10E000441013424F001053EB13C
:104A6800049B434526DBBBF1000FCDD0012524E094
:104A7800BBF1000F21D1484603F0D2FF179B8046B7
:104A8800012B65DC5C466E10731C03FB03FABBF15B
:104A9800000F00F06781A642C0F2558104FB044173
:104AA800621C4910534648460A4404F001F8294656
:104AB800A00353E0BBF1000F43D0DDE90510DAF89D
:104AC8002C30324600933B463EF0D0FA0446484626
:104AD80003F0A6FF012D804644D1002E00F0898006
:104AE800BBF1000F94D0B4F5005F40F39281DAF87F
:104AF8003430002B40F08D81059A023ABB42C0F257
:104B08008281DDE90521049B079800930197089BA2
:104B180080683AF054FA159B1B68102B81DDDAF88F
:104B28002030102B7FF77DAF0222314648463CF0FB
:104B380034F8DAF83440002C5BD000267EE735469E
:104B4800BBE7484603F06CFF022F804600F3C9809C
:104B5800691C48463BF072FF29468003FFF7AEFE0A
:104B6800044645E005FB04F396B1DAF83020002A44
:104B780040F0928003F50053022F4FEAA33410DC73
:104B8800179B012B00F38280BBF1000F7ED1DFE77A
:104B980003F500539C13DAF83830002B4DD1179BDE
:104BA80071E005EBD57A4FEA6A0A0AF1010202EBD5
:104BB80042020AEB02015445C5BF04F1FF30A0EBE5
:104BC8000A0004EB44008018C8BFA4EB0A0A0B468D
:104BD800D8BFC21C0146C8BF5244484603F068FF0C
:104BE800A0032946FFF76AFE0446002E40F0E58040
:104BF8000026484603F014FF159B159A1B68A0EB86
:104C080008055B1B1360002C40F00B810123A046B4
:104C180047F6FF79169A514F93401A9A013B12684A
:104C28001A401A9B1A60039BC3E90069C3E902870B
:104C3800C3E904450BB0BDE8F08F002CAFDDA542F9
:104C4800ADDD2946A003FFF739FE824600B23AF0EF
:104C580026FA0990CAF5804000B23AF020FA09997C
:104C68003AF03EFA4FF480427B1EDB0113FB002032
:104C7800159BC2131B68B3EBE03F5EDB5B429342BC
:104C88008DDD3446179B012B7FF7FDAE2146484644
:104C98006A1C3BF0DDFFA3E7B4F5005FCCBF47F625
:104CA800FF742F4C94FBF5F41C44A41324EAE47419
:104CB800AC42A8BF05F1FF34002A00DB0134022F03
:104CC8007FF762AF05EBD57A4FEA6A0A0AF101036A
:104CD80003EB430202EB0A01BBF1000F7FF46BAF59
:104CE80007E04FEA640A0AF1010303EB430202EB0F
:104CF8000A014846CDE90532049103F0ABFEDDE92F
:104D08000413069A8242C7BF032390FBF3F4841A64
:104D1800E418A245BBBF04F1FF30A0EB0A0004EB86
:104D2800440080180B460146B6BFA4EB0A0AC21C11
:104D3800524448463BF030FEB9E6179B2C46012BFF
:104D48003FF722AF9FE66A1CA91C121B091B51439F
:104D5800AAEB6101A6E600BFC089050000C0FFFFFD
:104D68000180FFFF51464846049303F073FE049BFD
:104D78005E43B0EB660F0CDAC00001303CF065FC16
:104D8800441E640804FB0441621C491053460A444B
:104D9800CFE7AAEB0000C00007383CF056FC6C1CBB
:104DA8002246C0EB4400A91CA2EB5002A1EB500123
:104DB80051434408AAEB6101E8E7C8B1002145F670
:104DC800822C069B9D1E059B981E8F427FF710AF75
:104DD80035F8022F30F8023F1CFB02F21CFB03F3EC
:104DE800D6189B1AF613DB132E8003800131ECE7EB
:104DF800049B079800930197089B8068DDE90521CB
:104E08003AF0DDF8F4E632F8021F01334942118026
:104E180074E6002675E6022148463BF0CEFD0646BC
:104E280087E6B4F5804F0FD10123169A27469340A1
:104E3800013B93401A9A47F6FF7812684FF0000931
:104E48001A401A9B1A60EEE620B23AF028F9814619
:104E5800C4F5804000B23AF022F9494680463AF05B
:104E68003FF94FF48043013FFF0117FB0037FF1361
:104E7800D9E600BF2DE9F04F044699B08B4611469C
:104E8800BDF99420249808922268D4F80C800D92D9
:104E9800A2681193099262690A92E2690B92099ACF
:104EA800D2F85CC0421C0C92099A9568926D00FB7E
:104EB8000555454432F915A0421C1CF80A500CEB64
:104EC8000A0900F0EB8019F805200C329A4280F2AA
:104ED800E580022940F3E28021F001060BEB06038E
:104EE8000B93229B00F1FF38012B08BF269A4FEA4B
:104EF800610902BF02F0010343EA42032693229BA1
:104F08005A4601334FEA630A26AB06930023CDE9DC
:104F18000483229B2046CDE902A311ABCDE900937F
:104F280012A90B9BFFF736FDDDE915530993BDF96F
:104F38004C30179A0D93BDF950300E93229B012BDC
:104F480015DD099BC3F30D038BB1099BB3F5005F16
:104F5800DBBF4FEAC903C8F10501C8F104030B41DF
:104F6800CBBF45FA03F35B19ED1A03EAE375119F0A
:104F7800236A7D1B05EBD5756D10BD42A8BF3D4664
:104F88009B1A0A932362239B25EAE5757F1B002B56
:104F980048D01E44269BBD420C9343FA0AF30F9354
:104FA800229B4FEA63031093089B3DDB0D9A13FB8A
:104FB80002F303F5804343F3CF330C9ACDE9028320
:104FC800239B5946CDE900A304922B464A46204626
:104FD800FFF750FF236A0A9A8346D31AEB1A182B55
:104FE80003DD099A0AB1183B1F440E9A089B13FB6C
:104FF80002F30F9A03F5804343F3CF33CDE90283DD
:1050080004923B464A462046CDE900A60B99FFF795
:1050180031FF109B00FA03F747EA0B07384619B02F
:10502800BDE8F08F239EB5E70E9A13FB02F30F9AA3
:1050380003F5804343F3CF33CDE90283CDE900A6DE
:105048003B46049220464A460B99FFF713FF109BF4
:105058000A9A00FA03F6236AD31AFF1A182F05DDF5
:10506800099BB3F5804F1CBF183FED190D9A089B9B
:1050780013FB02F303F5804343F3CF330C9ACDE9D6
:105088000283239B0492CDE900A34A462B46594646
:105098002046FFF7EFFE46EA0007BFE70627002293
:1050A80003F1FF3E50190130401019F80060B64571
:1050B800D4BF05460246013FF4D119F80500A0EB1C
:1050C8000E0022B9834226DD45B92A460BE019F8BD
:1050D8000230AEEB030E8645F6DC1546D4441CF8C8
:1050E80005302A465D1C236A5B1B002B236228DAE5
:1050F8009AB96368002B91D00125229B9D40269B7D
:10510800013D2B402693002B43D14A0058461946AF
:105118004EF0CEF882E71546E5E709982B4423625E
:105128000C9EC56D8068013A00FB0680099EB66D2D
:1051380036F91000DDD005EB020C1CF800500135E3
:10514800D2E7002AD5D0072A06DD02F00703D210DD
:105158000833013A03FA02F20D9B7BB1E36A584621
:10516800049363680393089B02930B9B0193229B10
:1051780000930A9B3DF0D4FE07464FE7089B58462C
:1051880002930B9B0193229B00930A9B3DF00CFF1B
:10519800F2E7239ABAB10022164D174E8A4216DB5F
:1051A8001D4609E0A36A00FB0363A3621B152BF8E5
:1051B800123001328A42F5DB5846E36A089A3DF01C
:1051C80022FF2F462AE7239A0A480B4EF2E7A06AE5
:1051D800239F05FB006010F4004FA06214BF042059
:1051E8006FF0030037F8127038442BF812000132C0
:1051F800D4E700BF0D6619005FF36E3C2DE9F04F50
:1052080016468FB00B931A9BDDE9184A0C931B9B2B
:10521800621E0A93BDF9703006900D9303680F461D
:10522800DDE91D580893836921460793534253418A
:1052380030460993FFF742FB012E834608D100222E
:1052480039460A9B06980FB0BDE8F04FFFF756BBEA
:10525800079B23EAE37985B1BAF1000F0DD0002B43
:1052680005DC10F0010F00D10BB9012C05DD51460A
:10527800284672004DF0F5FFAA4600254D4557D146
:105288000BFA09F54FF0000B44FA09F4EB0703D4C5
:10529800079B13EB0B0F6CD4012C14DD089B3BB15F
:1052A8003846099B04FA09F245FA09F1FFF77AFA38
:1052B800BAF1000F07D05046099B04FA09F245FAE3
:1052C80009F1FFF76FFA0D9BCDF8108003930C9B43
:1052D8003246CDE901A339460B9B06980094FFF7A7
:1052E800C9FD069B80465B68F3B1012C07DD384693
:1052F800099B04FA09F245FA09F1FFF799FA4FF008
:10530800000AD3454DD100254FF0010BDFF8ECA082
:105318004D4554D10A9B04FA05F5002B5AD10123B7
:10532800AB40013B08EA030840460FB0BDE8F08FE8
:10533800089B3BB10123384603FA05F246FA05F10A
:105348003AF0AFF8BAF1000F07D00123504603FA3C
:1053580005F246FA05F13AF0A4F8274B08F00F02D7
:105368004FEA28189A5C13F80880013542EA880841
:1053780084E7089B23B12246294638463AF091F83B
:10538800BAF1000F04D02246294650463AF089F86F
:1053980008FA04F348EA030864006D100BF1010BE6
:1053A80074E764106D0028FA04F32246294638464B
:1053B80048EA03080AF1010A3AF073F8A1E70BFA80
:1053C80005F246FA05F138461AF8088001353AF030
:1053D80068F89DE7B0053CF07DF9002300B2B342C0
:1053E8009DDA0A9937F8132010FB02F2D21321F83C
:1053F80013200133F3E700BFAAC405009AC40500CF
:105408002DE9F04F9B46036895B00B93C369BBF138
:10541800010F06460D4614460A9307D1229BFFF753
:105428006DFA8046404615B0BDE8F08F1EAB53F8C4
:10543800182F069301230593219B0C9204931F9B1D
:105448000A46CDE902331EABCDE900B30EA92346C7
:10545800FFF7A0FADDE911270E9BBBF1020F0D93B0
:10546800BDF93C3013990893BDF9403009931E9B50
:1054780040F09C809846326A002F69D1A246A9461E
:10548800521A326247F6FF720C9B04920693239BD2
:1054980002220593229B49460393219B304602939F
:1054A800209B7F0001931F9B00934346FFF7A6FEB6
:1054B800B9F802307A1E13FB02F3AAF80030B9F8E3
:1054C8000030C7F1010713FB07F3AAF8023073682D
:1054D8008046002BA6D02B88089A12FB03F3DB1317
:1054E8002B806B8812FB03F3DB136B802388099AEC
:1054F800099912FB03F36288DB1311FB02F2D21342
:10550800238062802A88D31A2B8023881A44228019
:105518006B8862889A1A6A80628813446380736809
:10552800002B3FF47FAF0D9B002B3FF47BAF002394
:10553800023C5B45BFF676AF34F8022F0133524286
:105548002280F6E7521AAA46A1460027326299E756
:10555800B7F5804FF6D0A3F1080808310B9BB7F5D3
:10556800005FA2EB0102D9BFA246A946AA46A146FE
:105578003262ABB1BAF80220B9F80070BAF800107C
:1055880017FB02F7B9F802200A9812FB01F29742BA
:10559800ACBF00270127012239463BF023FB71E706
:1055A80001210A983BF01BFA07466BE7A3EB0209B7
:1055B80009EBD9794FEA69099945A8BF994629EABB
:1055C800E979A3EB0908336A1F9A5B1A0A933362D5
:1055D800249BC1450B9343FA02FA53DB0693239BA2
:1055E8000092059347F6FF730493229B5A46039350
:1055F800219B29460293209B304601934B46FFF797
:10560800FDFD336A0A9A0B90D31AA9EB0303182BF2
:1056180002DD0FB1183B98440023099A0593CDE9A0
:105628000332219A2146CDE901321F9B5A46009345
:1056380030464346CDF818A0FFF7E0FD0B9B43EA40
:1056480000087368002B3FF4EDAE002213461146A4
:105658008B4550DC089933FB01F34FEA610A1AFBCA
:105668000AFA9244AAEB83000AEB830A4C4B9A4548
:1056780001DD984249DC294620464FEA4B024DF0AD
:10568800F0FD50E70023099A0593CDE90332219AEA
:10569800CDF818A0CDE901321F9B5A460093214648
:1056A80043463046FFF7AAFD336A0A9A8246D31A60
:1056B800A8EB0308B8F1180F05DDB7F5804F1CBF3C
:1056C800A8F11808C1440B9B5A460693239B294608
:1056D800059347F6FF730493229B30460393219B5F
:1056E8000293209B01931F9B00934B46FFF786FD77
:1056F8004AEA0008A5E734F9110035F8116010FBF3
:105708000022013110FB0633A2E7B0FA80F7C7F197
:105718001F077F10FB1F5B00BAFA8AF618413BF09F
:10572800AAFFC6F11F0676108146F01F40004AFA0C
:1057380000F03BF0A0FF012301370FFA87FE03FAC0
:1057480007F747FA03F20990002710461E440FFA9C
:1057580086FA03FA06F61E41023DA4F1020CBB4587
:105768007FF7E1AE35F8023F089A12FB03F33CF8E5
:10577800022F03F58043C3F3CF33991A134419FB5F
:1057880001F1099A014412FB03F3334441FA0EF183
:1057980043FA0AF32980ACF800300137DFE700BF8D
:1057A800247502002DE9F74F002643F6FF7E1468A2
:1057B800DFF898806442C4F30D0A4FEAA4395468AC
:1057C80001906442C4F30D0CA4130D9A964202DBB7
:1057D80003B0BDE8F08F019A1D6832F916700A68A7
:1057E80032FB07525D68920032FB0AFB4FEA6B3BC3
:1057F8000BF1010B05EB6B0532FB0CFB4FEA6B3B26
:1058080032FB09550BF1010B1D6048684FEA6B0B21
:1058180030FB07551D6032FB04B572445D60B2F180
:10582800005F886830FB07555D604FEAA23508DAEB
:1058380015F5004F08DB2AB20C9820F8162001361F
:10584800C3E747F6FF72F7E74246F5E70080FFFF38
:105858002DE9F04F0226002543F6FF7E14685268B2
:105868006442524285B0C4F30D0C44F38F34039460
:10587800C2F30D0B42F38F380F9A954202DB05B045
:10588800BDE8F08F0A6830F8069030F825401F68A8
:1058980032FB04749F6832FB0972DF68920032FBA6
:1058A8000CF94FEA693909F10109A40007EB690904
:1058B80034FB0CFA5F684FEA6A3A01920AF1010A6E
:1058C80007EB6A07039A34FB0272019F1A6002927F
:1058D800039A37FB0299C3F8089030F825A04A6864
:1058E800029F32FB0A771F6030F806A04F68019AC2
:1058F80037FB0A9732FB0BF99F604FEA693934FB93
:105908000BF77F13013709F101097F104FEA690985
:1059180034FB087732FB08995F60C3F80C90744435
:1059280030F825A08A68B4F1005F32FB0A775F601F
:105938008F6830F806A037FB0A97DF604FEAA43774
:1059480016DA17F5004F16DB3FB20E9A22F82570CB
:10595800019A7244B2F1005F4FEAA2340DDA14F5ED
:10596800004F0DDB24B20E9A01359453043683E7B9
:1059780047F6FF77E9E7034FE7E747F6FF74F2E7F3
:10598800004CF0E70080FFFF2DE9F04F95B0239D14
:10599800BDF97C70BDF980609C4612951E9B249DC4
:1059A80057EA0608964608938246DDE921230C4605
:1059B800019509D1814200F02A81089B9A0015B00F
:1059C800BDE8F04F4DF05ABC714660464FF0060CEA
:1059D8000F29B8BF0F210F28B8BF0F200CFB02F802
:1059E800DFF868E30CFB03FC05900EEB08003EF8BB
:1059F800088017FB08F808F5804848F3CF35B0F859
:105A08000280808817FB00F000F5804040F3CF301B
:105A180017FB08F808F580480F95119048F3CF3523
:105A28000EEB0C003EF80CC016FB0CFC0CF5804C81
:105A380010954CF3CF35B0F802C0808816FB00F003
:105A480000F5804040F3CF3004906FF0030016FB60
:105A58000CFC0CF5804C02954CF3CF350395059D55
:105A6800B74205FB00F000F1040554F805800E95D7
:105A780025580695A0F10405099565590795A0F1E3
:105A880008050A9565590B9507D1059DA94204D1CA
:105A9800019D9A4208BF00250195059B4FF0000C17
:105AA800C3F18043013304EB83030D936FF00303C9
:105AB80003FB0142019B63450EDC002E7CD154455B
:105AC80000F0A580089B019A9A1A019B920004EBAA
