:10000000884E0520B1FB0000956304009DFB0000B5
:100010009DFB00009DFB00009DFB00009DFB000080
:10002000000000000000000000000000BDFD000016
:100030009DFB00000000000041FD00009DFB000052
:10004000D5FF0000D5FF0000D5FF0000D5FF000060
:10005000D5FF0000D5FF0000D5FF0000D5FF000050
:10006000D5FF0000D5FF0000D5FF0000D5FF000040
:10007000D5FF0000D5FF0000D5FF0000D5FF000030
:10008000D5FF0000D5FF0000D5FF0000D5FF000020
:10009000D5FF0000D5FF0000D5FF0000D5FF000010
:1000A000D5FF0000D5FF0000D5FF0000D5FF000000
:1000B000D5FF0000D5FF0000D5FF0000D5FF0000F0
:1000C000D5FF0000D5FF0000D5FF0000D5FF0000E0
:1000D000D5FF0000D5FF0000D5FF0000D5FF0000D0
:1000E000D5FF0000D5FF0000D5FF0000D5FF0000C0
:1000F000D5FF0000D5FF0000D5FF0000D5FF0000B0
:10010000D5FF0000D5FF0000D5FF0000D5FF00009F
:10011000D5FF0000D5FF0000D5FF0000D5FF00008F
:10012000D5FF0000D5FF0000D5FF0000D5FF00007F
:10013000D5FF0000D5FF0000D5FF0000D5FF00006F
:10014000D5FF0000D5FF0000D5FF0000D5FF00005F
:04015000D5FF0000D7
:1001580081F0004102E000BF83F0004330B54FEA70
:1001680041044FEA430594EA050F08BF90EA020FDD
:100178001FBF54EA000C55EA020C7FEA645C7FEA70
:10018800655C00F0E2804FEA5454D4EB5555B8BF93
:100198006D420CDD2C4480EA020281EA030382EA04
:1001A800000083EA010180EA020281EA0303362D96
:1001B80088BF30BD11F0004F4FEA01314FF4801C69
:1001C8004CEA113102D0404261EB410113F0004F7B
:1001D8004FEA03334CEA133302D0524263EB430332
:1001E80094EA050F00F0A780A4F10104D5F1200ED0
:1001F8000DDB02FA0EFC22FA05F2801841F100012B
:1002080003FA0EF2801843FA05F359410EE0A5F1FE
:1002180020050EF1200E012A03FA0EFC28BF4CF02F
:10022800020C43FA05F3C01851EBE37101F00045E5
:1002380007D54FF0000EDCF1000C7EEB00006EEBF2
:100248000101B1F5801F1BD3B1F5001F0CD349087C
:100258005FEA30004FEA3C0C04F101044FEA4452D3
:1002680012F5800F80F09A80BCF1004F08BF5FEA5A
:10027800500C50F1000041EB045141EA050130BD3A
:100288005FEA4C0C404141EB0101013C28BFB1F54C
:10029800801FE9D291F0000F04BF01460020B1FA97
:1002A80081F308BF2033A3F10B03B3F120020CDA6A
:1002B8000C3208DD02F1140CC2F10C0201FA0CF048
:1002C80021FA02F10CE002F11402D8BFC2F1200CAD
:1002D80001FA02F120FA0CFCDCBF41EA0C01904063
:1002E800E41AA2BF01EB0451294330BD6FEA0404AC
:1002F8001F3C1CDA0C340EDC04F11404C4F1200297
:1003080020FA04F001FA02F340EA030021FA04F3A8
:1003180045EA030130BDC4F10C04C4F1200220FAFF
:1003280002F001FA04F340EA0300294630BD21FA3D
:1003380004F0294630BD94F0000F83F4801306BF03
:1003480081F480110134013D4EE77FEA645C18BFF7
:100358007FEA655C29D094EA050F08BF90EA020F8E
:1003680005D054EA000C04BF1946104630BD91EA86
:10037800030F1EBF0021002030BD5FEA545C05D189
:100388004000494128BF41F0004130BD14F58004C8
:100398003CBF01F5801130BD01F0004545F0FE413C
:1003A80041F470014FF0000030BD7FEA645C1ABF71
:1003B800194610467FEA655C1CBF0B46024650EAA8
:1003C800013406BF52EA033591EA030F41F40021D4
:1003D80030BD00BF90F0000F04BF0021704730B55A
:1003E8004FF4806404F132044FF000054FF000012F
:1003F80050E700BF90F0000F04BF0021704730B5F0
:100408004FF4806404F1320410F0004548BF4042C4
:100418004FF000013EE700BF42004FEAE2014FEA19
:1004280031014FEA02701FBF12F07F4393F07F4FF4
:1004380081F06051704732F07F4208BF704793F0F7
:100448007F4F04BF41F40021704730B54FF460740A
:1004580001F0004521F000411CE700BF50EA01020D
:1004680008BF704730B54FF000050AE050EA0102B6
:1004780008BF704730B511F0004502D5404261EB26
:1004880041014FF4806404F132045FEA915C3FF467
:10049800D8AE4FF003025FEADC0C18BF03325FEA04
:1004A800DC0C18BF033202EBDC02C2F1200300FAB5
:1004B80003FC20FA02F001FA03FE40EA0E0021FADA
:1004C80002F11444BDE600BF7BB972B90029BEBF72
:1004D80000204FF0004106E008BF00281CBF6FF065
:1004E80000414FF0FF3000F057B8ADF1080C6DE94E
:1004F80004CE002909DB002B1ADB00F0E2F9DDF855
:1005080004E0DDE9022304B07047404261EB410199
:10051800002B1BDB00F0D5F9DDF804E0DDE9022350
:1005280004B0404261EB4101524263EB4303704720
:10053800524263EB430300F0C4F9DDF804E0DDE95F
:10054800022304B0404261EB41017047524263EB21
:10055800430300F0B6F9DDF804E0DDE9022304B056
:10056800524263EB4303704753B94AB9002908BFA5
:1005780000281CBF4FF0FF314FF0FF3000F00CB8DF
:10058800ADF1080C6DE904CE00F09BF9DDF804E04C
:10059800DDE9022304B07047704700BF2DE93440FD
:1005A80055F804AB1A1F55F804BB2CDD54F804CBDE
:1005B8001CFB0A6654F804EB1CFB1A77043A1CFB74
:1005C8000B881CFB1B991CFB3A6655F804AB1CFBFB
:1005D8002B771CFB3B881CFB2A99C8BF54F804CB1B
:1005E8001EFB0B661EFB1B771EFB0A881EFB1A9957
:1005F8001EFB3B6655F804BB1EFB2A771EFB3A8898
:100608001EFB2B99D4DC043236DD34F802CB013AD8
:100618001CFB0A66C8BF34F802EB1CFB1A771CFBEC
:100628000B881CFB1B9927DD1EFB1A66013A1EFB73
:100638000B7735F802AB1EFB1B88C8BF34F802CB1A
:100648001EFB0A9918DD1CFB0B66012A1CFB1B7795
:1006580035F8022B1CFB0A88C8BFB4F800E01CFB65
:10066800029909DD1EFB1B66B5F800B01EFB0A7770
:100678001EFB02881EFB0B99BDE834802DE9F04F64
:100688000D460999044615F0030F4FF001003BD0C1
:10069800B3F1040C4FF0000E35F8028B19DD54F855
:1006A800046B4FEA084855F8049B16FB18EE54F8FB
:1006B800047B16FB29EE55F8048B17FB19EEBCF1E9
:1006C800040C17FB28EEC4BF54F8046BEBE74FEAA1
:1006D80018481CF1040CA2BF34F8026B16FB08EE94
:1006E800BCF1010CC4BF35F8028BF4E7A4EB43045A
:1006F800A5EB4305704505F10205B8BF7046013901
:1007080042F804EB00DCC0E004391BDB4FF00006C4
:100718004FF000074FF000084FF00009FFF73EFFC9
:10072800B04205F10805B8BF3046B842B8BF3846F0
:100738004045B8BF40464845B8BF4846A2E8C00350
:100748000439E3DA02315FDBB3F1040C4FF0000A3D
:100758004FF0000B55F8048B20DD54F8046B55F866
:10076800049B16FB08AA54F8047B16FB18BBBCF1C3
:10077800040C16FB38AA55F8048B16FB29BBC8BF16
:1007880054F8046B17FB09AA17FB19BB17FB39AA06
:10079800C8BF55F8049B17FB28BBE2DC1CF1020C10
:1007A8000EDD54F8046B16FB08AA55F8049B16FBDB
:1007B80018BBACF1020C16FB38AAC84616FB29BBBD
:1007C80034F8026B1CF1010C16FB08AAC8BF34F8F8
:1007D800027B16FB18BB05DD35F8029B17FB18AA30
:1007E80017FB09BBA4EB4304A5EB4305504505F1F2
:1007F8000205B8BF5046A1F10201584542F804ABC2
:10080800B8BF584642F804BB01313EDBB3F1040CD3
:100818004FF0000E1DDB54F8046B55F8048B54F8A8
:10082800047B55F8049B16FB08EEBCF1040C16FB80
:1008380038EEA8BF54F8046B17FB09EEA8BF55F8AB
:10084800048B17FB39EEA2BF54F8047B55F8049BC0
:10085800E9E71CF1020CA1BF54F8046B55F8048BAE
:1008680016FB08EEACF1020CA8BF16FB38EE1CF123
:10087800010CA2BF34F8026B35F8028B16FB08EEA8
:10088800704542F804EBB8BF7046BDE8F08F10F829
:10089800012B11F8013B012A28BF9A42F7D0D01A40
:1008A8007047034611F8012B03F8012B002AF9D1F0
:1008B8007047034613F8012B002AFBD1181A013898
:1008C80070472DE9F04786468C460846089E15462F
:1008D80074461946002B40F0C1808542B2FA82F274
:1008E80045D94AB1C2F1200300FA02FC9540944070
:1008F8002EFA03F343EA0C0C4FEA154EA8B2230C68
:10090800BCFBFEF80EFB18CC08FB00F943EA0C43CD
:10091800994528D9EB1808F1FF3704D2994502D92F
:10092800A8F102072B44A3EB0903A4B2B3FBFEFC16
:100938000EFB1C330CFB00F044EA0344A04214D91C
:100948002C190CF1FF3304D2A04202D9ACF10203F6
:100958002C44241A43EA07401EB1D44000233460D3
:100968007360BDE8F0874746DDE76346F1E792BB71
:10097800431B01214FEA154EAFB2200CB3FBFEFC1E
:100988000EFB1C330CFB07F840EA0343984561D97A
:10099800EB180CF1FF3004D2984502D9ACF10200F3
:1009A8002B44A3EB0803A4B2B3FBFEFC0EFB1C33E1
:1009B8000CFB07F744EA0344A7424DD92C190CF164
:1009C800FF3304D2A74202D9ACF102032C44E41B42
:1009D80043EA0040C0E7C2F120039540944020FA62
:1009E80003F12EFA03F34FEA154E9040AFB20343DA
:1009F800B1FBFEFC0EFB1C10190C0CFB07F841EABE
:100A08000041884522D969180CF1FF3004D2884585
:100A180002D9ACF102002944A1EB08019BB2B1FB59
:100A2800FEFC0EFB1C110CFB07F743EA01439F4237
:100A38000ED9EB180CF1FF3104D29F4202D9ACF168
:100A480002012B44DB1B41EA004193E76046E3E7E0
:100A58006146F7E76046A4E76346B8E7834206D9EC
:100A680016B9002108467CE7C6E900E0F9E7B3FAC1
:100A780083F78FB9834201D3724508D8BEEB0204CD
:100A880060EB030301209C461EB9002169E7384644
:100A9800FAE7C6E9004CF8E7C7F1200CBB400EFAAC
:100AA80007F522FA0CF42EFA0CF1BA401C4320FA8E
:100AB8000CF3B8404FEA144901431FFA84FEB3FB14
:100AC800F9F809FB18300B0C08FB0EFA43EA00434F
:100AD8009A4540D9E31808F1FF3004D29A4502D963
:100AE800A8F102002344A3EB0A0389B2B3FBF9F887
:100AF80009FB183308FB0EFE41EA03418E452CD949
:100B0800611808F1FF3304D28E4502D9A8F1020317
:100B1800214443EA0040A1EB0E01A0FB02984145A5
:100B2800CE46434602D306D14D4504D20138B9EB2F
:100B3800020E68EB0403002EA7D0B5EB0E0261EBA2
:100B4800030101FA0CFC22FA07F3F9404CEA03030B
:100B5800C6E9003199E74046C5E74346D9E70000B2
:100B68002DE9F04706460F46904688B052F0F6F950
:100B78004FF47A73A0FB034503FB0155E40B012FE7
:100B880044EA45444FEAD53507D122462B4630463C
:100B9800274943F0DDFD002012E0D8F8047025480D
:100BA8003946FFF774FE70B139462348FFF76FFEE8
:100BB80048B130463A46214943F0E6FD6FF004005B
:100BC80008B0BDE8F087204617A3D3E900232946DB
:100BD800FFF77AFC05460C4610461946184A0023CA
:100BE800FFF772FC80460F46104619464EF6602203
:100BF8000023FFF769FC82468946104619464FF4E0
:100C08007A720023FFF760FCCDE902A9CDE906233B
:100C1800CDE904012A4623463046CDE90087094933
:100C280043F096FDB7E700BF005C26050000000012
:100C3800C2CD0500D3CD0500D6CD0500DFCD05001A
:100C480080EE3600F7CD0500F0B58BB0002140F6F8
:100C5800034009AA15F072F80446002840F0B7804E
:100C68000998C3681B7853B95F4BD3E8AF2F02F0DC
:100C78000902D3E8EF1FC3E8E42F002CF9D110F0E4
:100C88000BF9002141F2030009AA15F057F80446B0
:100C9800002840F09C80099A544DD16805F17803EA
:100CA800D1F80100D1F8051003C3104610F0F4F88C
:100CB800214641F2010009AA15F040F8044600282F
:100CC80040F085800998C3685A7885F870205A885A
:100CD800A5F872201A7985F87120B3F80720A5F8CD
:100CE8007420B3F80530A5F8763010F0D5F8214611
:100CF80041F2020009AA15F021F80446002866D13D
:100D0800099F05F18006FA68531C41323446186879
:100D18005968083303C493422646F7D1384610F081
:100D2800BBF816F0E5FA0446002850D195F88A3049
:100D380013F0200317D12E490A6812F0060F06D0C7
:100D48002C4A0093CDE90132022247F0B1F995F817
:100D58007C3013F0400351D125490A68520739D134
:100D68006FF0120433E0072140F6334014F0E0FA44
:100D78000646002800F0518107210C3045F0B6FDE9
:100D8800042343700623C0F8024084710470047180
:100D98002246C370314640F6334014F0CFFF044674
:100DA800A8B9012140F6314014F0C2FA06460028DD
:100DB80000F0338101210C3045F0A7FD2246314671
:100DC80040F6314014F0BAFF04460028BFD0204650
:100DD8000BB0F0BD084A1846CDE901320093012254
:100DE80047F066F9BCE700BFF4210020202100206D
:100DF800643000206979060097790600002142F2E4
:100E0800030009AA14F09AFF04460028DFD1099BC1
:100E1800AF4EDA68D2F80100D2F8051003C61846BA
:100E280010F03AF8214642F2020009AA14F086FFAF
:100E380004460028CBD1099CE368B3F8012091B29D
:100E480049B1D97839B1A5F80421DA78114606F103
:100E5800280051F0BFFD204610F01EF81F2395F81A
:100E68007C60A5F8203116F0200618D1022140F642
:100E78006D4014F05DFA0446002800F0CE8002218F
:100E88000C3045F033FD012321460370467032468D
:100E980040F66D4014F052FF0446002897D195F8AB
:100EA8009C301F0712D5002142F21C0009AA14F039
:100EB80045FF044600288AD10998C368D3F8012061
:100EC800D3F80530C5E938230FF0E6FF95F8D83098
:100ED8009E0625D50DF1220108A815F02BF8044629
:100EE80000287FF474AF042142F2240014F020FAA1
:100EF8000646002800F0918004210C3045F0F6FCED
:100F0800BDF8203022460380BDF8223031464380A8
:100F180042F2240014F012FF044600287FF457AF71
:100F280095F8D8305C0610D5002142F22A0009AAAB
:100F380014F004FF044600287FF449AF0998C368F9
:100F48005B7885F822310FF0A7FF082142F20100F3
:100F580014F0EEF9044600285FD008210C3045F063
:100F6800C5FC95F8D81040F2022311F0400F08BFD5
:100F78000323024688074CBF43F02C0043F00C00C3
:100F88008B0695F8D93048BF40F0400013F0090FA0
:100F980095F8A23018BF40F4006003F00603CF07AD
:100FA80048BF40F01000062B08BF40F4C070002175
:100FB80047F095F82146002242F2010014F0BEFEE7
:100FC800044600287FF403AF95F87C20B5F8043177
:100FD800960625D4D3B9194641F2050009AA14F09A
:100FE800ADFE044600287FF4F2AEB5F80431099C42
:100FF8004BB9E368B3F80120A5F804219A8835486D
:10100800114651F0E7FC20460FF046FF082140F654
:10101800014014F08DF9044698B96FF06804D6E6DB
:10102800002BF3D12C490A68540702D16FF004044D
:10103800CDE62A4A0093CDE90132012247F038F87B
:10104800F4E708210C3045F051FC95F8D8300246F9
:10105800D90747BF1CA1D1E900014FF00051204832
:1010680047F03DF82146002240F6014014F066FEA4
:10107800044600287FF4ABAE014609AA4FF60140AA
:1010880014F05CFE144E78B3336813F0060F09D0E1
:10109800144B0222CDE901433146234600941846F9
:1010A80047F006F815F07CFD044600287FF48FAE63
:1010B80017F03AFB044600287FF489AE14F03CFB95
:1010C80085E600BFAFF30080908800020080002012
:1010D800F82100202822002064300020BB79060077
:1010E80010880002DE7906003368099F03F00703C1
:1010F800022BFC6851D9B4F801304849032B96BF3C
:10110800474A484A52F82320CDE90323464B032295
:10111800029300231846CDE9003346F0C9FF33682F
:1011280003F00703022B38D9B4F80130B4F80320D0
:10113800022B4AD1052A48D83C4B53F82230CDE936
:1011480003323B4B03220293002334491846CDE96E
:10115800003346F0ADFF336803F00703022B1CD9B8
:10116800D4F8091063790791B4F80710032B069196
:10117800A17998BF2F4ACDE9043198BF52F82320AE
:101188002D4B88BF274A0293002303921846032257
:10119800CDE90033214946F08BFF38460FF07CFE3D
:1011A80000214FF6024009AA14F0C8FD044670B1A8
:1011B800336813F0060F3FF475AF204B02930023FA
:1011C800CDE900330222154969E7164BB7E70998BC
:1011D800C368B3F80130A5F8C1300FF05DFE95F88B
:1011E800C1305B077FF55EAF21464FF6034009AA81
:1011F80014F0A4FD50B1336813F0060F3FF452AF5A
:101208000F4B0094CDE901432346DBE70998C368F7
:101218005B7885F8C0300FF03FFE43E7643000206C
:10122800E06E0500F1760600027A0600C86E050039
:101238001B7A0600B86E0500337A0600607A06004D
:10124800897A06000000000070B514460646CD17DE
:10125800A1FB0201002304FB05110A22FFF734F960
:101268000FA3D3E900230C4D80FB054520462946F2
:10127800FFF72AF906A3D3E9002330602946204660
:10128800FFF722F90023054AFFF71EF9726070BDC7
:1012980080A8120100000000D8EF2F0040420F0084
:1012A80000209BF35E10000003292DE9FF4105464D
:1012B8000C4613D0072900F083806D490B6813F0A2
:1012C800060F08D06B4B0222029300231846CDE983
:1012D80000334DF0EAF96FF085004CE0002A53D056
:1012E800072AF8D158681A68634BC117C2FB030173
:1012F800012871F100035CDBD5F804805F4B98F896
:101308001A60C0184FEAD61655A3D3E9002341F155
:10131800000176B2FFF7D8F8002E14BF0423022389
:10132800984298F91A7029D0002E14BF2023102350
:10133800834225D0002E14BF08230423984221D0CD
:10134800002E14BF10230823984232D1E6B231464A
:1013580040462D6944F028F9002824DB3D22484BFB
:10136800002F33F81430AE77AABFA3FB02325343E1
:101378005B08EB60002004B0BDE8F0810024E5E7DD
:101388000124E3E70224E1E719883E4B14461F468F
:1013980033F8022B914209D86868E1B22E6944F00B
:1013A80070FA002808DA6FF00400E4E701340B2C27
:1013B800EED16FF01500DEE737F81430B383D9E7C4
:1013C800002A3AD0072A86D1B4245A6819682A4BC9
:1013D800D017C1FB0320A2FB0431012A04FB001132
:1013E80070F100001DDB2848181841F100011EA308
:1013F800D3E900230024FFF767F8244B33F8022BC6
:10140800904216D16868E1B22E6944F0E4F80028E9
:10141800C9DB41F217121E4B33F814305343B36142
:10142800A8E71C48181861F100010FA3D3E90023AD
:10143800E0E70134072CE1D1BBE71988114B33F8F9
:10144800020B814206D86868D1B244F088FA0028B5
:1014580090DAA8E701320B2AF1D1AAE7AFF30080AE
:101468003AA3950000000000D8EF2F00000000000C
:10147800303000200801070040420F009DD14A008B
:10148800DAAA0500E2AA0500ECF71700CCAA0500C5
:10149800BEAA05001408E8FF2DE9F74F03291446F2
:1014A800066905D90B1F032B53D96FF0850023E07C
:1014B8000229F7683A4D22D0032923D0012914BF05
:1014C800B6F90460B6F90660A6FB076732A3D3E94C
:1014D800002386FB056530462946FEF7F5FF002305
:1014E800304A206029463046FEF7EEFF00232D4A99
:1014F800FEF7EAFF6260002003B0BDE8F08FB6F99E
:101508000860E1E74FF0000B02F11803DFF894A040
:101518000236019336F9028FA8FB07831EA3D3E98D
:10152800002388FB059848464146FEF7CDFF524602
:1015380044F8080B5B4648464146FEF7C5FF52464D
:101548005B46FEF7C1FF019B44F8042C9C42E1D1A5
:10155800D1E70629B5690CD007290ED02A460529F6
:1015680014BFB6F91010B6F912102046FFF76CFE3A
:10157800C1E72A46B6F91410F7E70E3602F1180744
:1015880020462A4636F9021F0834FFF75DFEA742B7
:10159800F6D1B0E7AFF300800010A5D4E800000052
:1015A8003AA3950040420F002DE9F04F3A4B85B021
:1015B800D3F8042392070BD5D3F8042142B10022B3
:1015C800C3F80421354AD3F8043113680133136092
:1015D800334D0024A8464FF480362F4FD7F80433F4
:1015E80006FA04F919EA030F2CD00123A340DB43C0
:1015F8002C49D1E8EF2F02EA0300C1E8EC0FBCF157
:10160800000FF6D122FA04F3DB0703D4264B53F874
:101618002430BBB120464DF02BFA2CF037FCEFF309
:101628001183202282F31288BFF36F8F08EB041C0A
:10163800DCE902AB504571EB0B010AD283F3118848
:10164800BFF36F8F103514B105B0BDE8F08F0124DA
:10165800C4E70020D5E900129FED0D7B28600E48F5
:1016680003938CED027B0292C0F8489320464DF01C
:10167800FFF9039B83F31188BFF36F8F0029E1D033
:10168800029A5B46009252468847DBE7AFF3008038
:10169800FFFFFFFFFFFFFFFF00500150784D0120C3
:1016A800705800206C4D01204051015038B5064D4E
:1016B800064928463DF0F9FA0021044628463DF03F
:1016C80009FB204338BD00BF684B0500010002003C
:1016D80013B509480469836801A95B68984720B96C
:1016E800236801985840C0F3C010431E584258411F
:1016F800024B187002B010BD883A05008C6B0120AF
:1017080030B5224B05461B7887B0002B3AD0FFF73F
:10171800CDFF044698BB01231D4AD3601D4ACDF86E
:101728000CD0CDE9012304220A23CDE904234FF08C
:10173800FF324FF0FF33184837F0D4FD174801A99E
:1017480083685B6898470446134837F043FEB4B98A
:10175800BDF802309FED127A07EE903AF8EE677AFC
:1017680067EE877A9FED0F7A67EE877A9FED0E7A9C
:1017780067EE877AFCEEE77A17EE903A2B802046E0
:1017880007B030BD6FF08B04F9E700BF8D6B012007
:1017980000E00050484B0500E8320020183B0500E7
:1017A8006666E63F0000803A00803B45034B1B78A5
:1017B8000BB1FFF77BBF6FF08B0070478D6B01207B
:1017C8007FB5714D2B6803F00703022B09D96F4BC6
:1017D80003220293002329461846CDE900333DF041
:1017E8008DFA6B4850F004FF034678B92A6852070F
:1017F80007D0684ACDE901326349012200933DF0E0
:101808007DFA6FF01204204604B070BD624850F0B3
:10181800EFFE614E034620B92A685607F1D05F4AA9
:10182800E8E7304650F0E4FE034620B92A68550739
:10183800E7D05B4ADEE7304650F0DAFE034620B9CF
:101848002A685407DDD0574AD4E72B6803F007030A
:10185800022B09D9544B0322029300234A49184604
:10186800CDE900333DF04AFA4FF400314F483DF0DE
:101878001CFA2B68044668B15807C4D04C4B039433
:101888000293002301221846CDE900333E493DF07A
:1018980035FAB8E703F00703022B08D9454B0322B2
:1018A800CDE901033849034600903DF027FA4FF48B
:1018B800803141483DF0F9F92B68044620B15907B9
:1018C800A1D03E4B0390DBE703F00703022B08D9B6
:1018D8003B4B0322CDE901032B49034600903DF021
:1018E8000DFA384938483DF0E0F92B68044620B134
:1018F8005A0788D0354B0390C2E703F00703022B41
:1019080008D9334B0322CDE901031F490346009050
:101918003DF0F4F92F49304B4B6080238B60B3685E
:10192800DB6913B101221C4898472B6803F00703B1
:10193800022B09D9294B0322029300231249184686
:10194800CDE900333DF0DAF91148254983681B6871
:1019580098472B68044628B15B073FF454AF214BE6
:1019680003908DE703F00703022B08D91E4B0322CF
:10197800CDE901030449034600903DF0BFF9012277
:101988001A4B1A703FE700BF3C300020D8AE050064
:10199800183B0500F0AE0500883A050005AF0500C4
:1019A8001CAF050032AF050046AF0500584B0500D7
:1019B8005FAF05007BAF0500684B050097AF0500DA
:1019C800B6AF050010000100604B0500D1AF05005F
:1019D800EFAF0500E8610020D916000007B0050048
:1019E8007C8A050021B0050036B005008D6B01200A
:1019F8002DE9FF410D4618491F460B68044603F0C0
:101A08000703022B164608D9144B0322029300231E
:101A18001846CDE900333DF098F9DFF84880D8F84A
:101A2800003003930E4B029300231A4619461846BA
:101A3800CDE900333DF089F90823CDE90183BDF8EC
:101A480028303246009329463B46204647F0F1FEAF
:101A580004B0BDE8F08100BF8C30002059B005000B
:101A680079B00500046200201FB50B461349012B0D
:101A78000A6802F007020DD1022A08D9104B029316
:101A8800002303221846CDE900333DF05EF905B086
:101A98005DF804FB23B9022AF9D90A4A0292F0E751
:101AA800002AF4D00393084B01220293002318461E
:101AB800CDE900333DF049F9E9E700BF8C3000205B
:101AC8008AB00500AEB00500D5B005001FB5436863
:101AD800104A23F0FF039342044619D183685A1E23
:101AE800534253410C4A137003930C4B0293002347
:101AF8001A4619461846CDE900333DF026F900226A
:101B080000232146064804B0BDE8104037F038BB32
:101B180004B010BD00011C00916B0120EBB0050062
:101B28001434002030B587B004460D461822002131
:101B3800684651F039FC064B694602930823204653
:101B48000195ADF80C3019F0BDF807B030BD00BFF5
:101B5800046200202DE9FF41984F99483B68994954
:101B6800047801330A78984D3B6074B1002A40F03C
:101B7800F58001222B600A7040F21F52002393481F
:101B880004B0BDE8F04137F053BF914E002A77D03A
:101B98004FF0280C2A680C709A1A0CFB02F2B2F566
:101BA800967F33606CD28B480268002A67D09A1AF5
:101BB8000CFB02F2B2F5167F61D2046002244FF0EA
:101BC800280C2A68981A0CFB00FE3068821A0CFB55
:101BD80002F2B2F5967F80F086807E4A106800286F
:101BE80000F08180BEF5967F4CD900247A4B1460B2
:101BF80021462246CDE901432046234600943DF084
:101C0800A4F80123754A76491370764A13600B6865
:101C180003F00703022B08D9734B0322CDE90143D4
:101C28002046234600943DF090F802F003FE20B1D0
:101C38006E4B19681431FFF775FF012000F036FE6E
:101C480032203DF091F8002000F030FE32203DF0C7
:101C58008BF8012000F02AFE32203DF085F80020A4
:101C680000F024FE32203DF07FF8012000F01EFE37
:101C780032203DF079F8002000F018FE7CE7036080
:101C880000249CE70A78002A40F09080002C3FF45A
:101C980073AF0024564B2246214602932046234622
:101CA800CDE900443DF051F802234C4A4C491370E9
:101CB8004C4A13600B6803F00703022B08D94D4BFD
:101CC8000322CDE901432346009418463DF03DF830
:101CD80002F0B0FD00283FF44FAF444B19681431AF
:101CE800FFF720FF48E7BEF5967FCBD9DFF8EC80F9
:101CF80098F80030042B2DD000243F4B2246214673
:101D0800029320462346CDE900443DF01EF8042303
:101D18000522334988F80030324B1A600B6803F00B
:101D28000703022B08D9354B0322CDE9014320468E
:101D3800234600943DF009F802F07CFD20B12B4BBE
:101D480019681431FFF7EEFE0023224A3B602B602E
:101D58003360136001222A4B1A700DE72A689B1A18
:101D680028225343B3F57A7FFFF406AF1B4D2B7837
:101D7800032B3FF401AF0024224B22462146029355
:101D880020462346CDE900443CF0DFFF0322154BF3
:101D980013491A600B682A7003F00703022B97D9BE
:101DA800194B0094CDE9014323468EE72A689B1A14
:101DB80028225343B3F57A7FD8D267E70062002020
:101DC800916B01208F6B0120FC610020C020002056
:101DD800F8610020F4610020FFB005008E6B01203F
:101DE8008C3000200462002014B105004823002034
:101DF80026B105003BB1050072B1050084B10500AC
:101E0800906B01204DB1050062B105001FB5144863
:101E180050F0EEFB1349034670B90A68520706D022
:101E2800114A0090CDE9010201223CF08EFF6FF0CB
:101E3800120005B05DF804FB0B6803F00703022BE2
:101E480008D90A4B0322029300231846CDE9003330
:101E58003CF07BFF064850F0E7FC0020E9E700BFB4
:101E6800083C05008C30002094B10500ACB1050099
:101E7800143400201FB50C490B6803F00703022B2C
:101E880008D90A4B0322029300231846CDE90033F0
:101E98003CF05BFF40F21F520023054805B05DF897
:101EA80004EB37F091BD00BF8C300020D3B10500A2
:101EB800C0200020014B1860704700BFD08C002064
:101EC8002DE9F04307460026DFF8A080244DDFF80F
:101ED800A09087B04C0022463946404641F07BFE30
:101EE800844213D12B6803F00703022B0AD91D4B38
:101EF8000322029300231A491846CDE900330394BC
:101F08003CF042FF002007B0BDE8F0832B680136A3
:101F180013F0060F0CD00523CDE90363002302223A
:101F280029461846CDE90033CDF808903CF02CFF3F
:101F38004220002138F006F9052ECCD12B685B072A
:101F480002D14FF0FF30DEE7074B01220293002356
:101F580003491846CDE9003303943CF015FFF0E738
:101F680098300020F1B1050042B20500B08C002085
:101F78001CB2050070B5012088B040F023F840F687
:101F8800030301224FF47A51A94806F0BDFEA94C7B
:101F98000546F8B123685D0719D040F6030301220E
:101FA8004FF47A51A24806F0AFFEB5230493A24B32
:101FB800B0FA80F00393A14B400902930023CDE9C6
:101FC800003305900122214618463CF0DDFE4FF013
:101FD800FF3629E14FF4FA4240F6A271944808F01E
:101FE80015F80646B8B123685807F0D04FF4FA42FE
:101FF80040F6A2718E4808F009F8B0FA80F0B623CE
:102008004009059004938C4B009503938B4BCDE9C5
:1020180001532B46D6E7012240F6A671844807F003
:10202800F5FF0546B0B123685907D0D0012240F624
:10203800A6717F4807F0EAFFB0FA80F0B72340099D
:10204800059004937C4B009603937C4BCDE9016388
:102058003346B7E7024640F6B471754807F0D6FF35
:10206800064670B123685A07B1D02A4640F6B471C3
:102078006F4807F0CBFFB0FA80F04009B82305900D
:10208800C0E7032240F6AA71694807F0BFFF05467A
:1020980070B123685B079AD0032240F6AA7164489E
:1020A80007F0B4FFB0FA80F04009B9230590C8E7FB
:1020B80040F6B93240F6B8715D4807F0A7FF06460A
:1020C80078B123685E0782D040F6B93240F6B8711D
:1020D800574807F09BFFB0FA80F04009BA230590F3
:1020E80090E7102240F6C471514807F08FFF05466B
:1020F80078B1236858073FF46AAF102240F6C471DC
:102108004B4807F083FFB0FA80F04009BB230590E5
:1021180097E702464FF47B61454807F077FF024690
:1021280078B1236859073FF452AF2A464FF47B61D0
:102138003F4807F06BFFB0FA80F04009BC230590D8
:1021480060E740F6AC713A4807F060FF0246C8B154
:1021580023685A073FF43BAF002240F6AC7134487D
:1021680007F054FFB0FA80F0BD23400905900493AE
:10217800314B01220393314B2E4902930023CDE9C1
:10218800003321E740F6AE71294807F03FFF236886
:10219800064670B15B073FF41AAF002240F6AE71F5
:1021A800234807F033FFB0FA80F04009BE230590BA
:1021B800DDE703F00703022B09D9214B0322029321
:1021C80000231C491846CDE900333CF0DDFD4FF4EF
:1021D8007A4200251B4BDA611B4AC3E90255C3E961
:1021E80005551A605D601D6100220023CDE90623B4
:1021F80002234FF4FA42CDE90253CDE90055134BBF
:1022080013491448049537F0DBFC236803F00703EF
:10221800022B09D9104B0322CDE9015328462B463E
:10222800044900953CF0B0FD304608B070BD00BFD1
:102238000C620020983000207EB205009BB2050099
:10224800ADB20500B08C0020136E0120D922000029
:10225800D8FF032030380020BFB205001FB54FF467
:102268002073154900934FF4A072144B144807F0DB
:10227800A5FE1449041E0B6803F007030EDA022BAF
:1022880009D9114B03220293002303941846CDE980
:1022980000333CF079FD002004B010BD022B09D9B1
:1022A8000A4B03220293002303941846CDE9003316
:1022B8003CF06AFDA0B2EFE7E4660120936B0120D1
:1022C8000C62002098300020CDB20500E6B205006F
:1022D80038B5114C114DA36822699B1AB3F5207FBC
:1022E80013D20021212037F02DFFF4E74FF420729C
:1022F8002946204641F0BFFCFFF7B0FF084B0146D6
:102308001A6812B11B6807489847A36822699B1A84
:10231800B3F5207FDFD3E9E7B08C0020E466012025
:10232800D08C0020936B01201FB5134850F060F942
:10233800124C0346A8B1002219210F483CF042FD77
:10234800236803F00703022B09D90D4B03220293DC
:10235800002321461846CDE900333CF024FD04B0A3
:1023680010BD22685207FAD0064A2146CDE901027B
:1023780000900122F1E700BF883A0500BC30002038
:102388000CB305002EB305007FB52A492A4850F042
:1023980011FC2A4E2A4D304650F02AF9034668B9F6
:1023A8002A68520707D0274A2946CDE9010200903A
:1023B80001223CF0F8FC6FF012041BE03269B168AE
:1023C8001368304623F0007313600B684FF4C02283
:1023D800192198472B68044678B15B070AD01A4B35
:1023E800039002930023012229461846CDE90033C1
:1023F8003CF0D9FC204604B070BD03F00703022B63
:10240800F8D9124B0322CDE901032946034600906F
:102418003CF0C9FC2B6803F00703022BEAD93368A8
:10242800032203930A4B2946CDE90143204623465C
:102438000094DDE73123000028390020883A0500A0
:10244800BC30002055B3050071B3050093B30500F7
:10245800A9B30500F0B53B4D04462B6887B003F0DF
:102468000703022B1AD90026374B03900293032245
:10247800334629463046CDE900663CF094FC2B688B
:1024880003F00703022B09D9304B0322CDE901637E
:1024980029463346304600963CF085FC2C4850F0DF
:1024A800A7F8034660B92A68520707D0294A254980
:1024B800CDE90102009001223CF075FC07B0F0BDA7
:1024C80041F288339C4205D92A6812F0060F2CD1B4
:1024D80041F288340026204850F07AFB0122192165
:1024E8001B483CF06FFC4FF4004740F2E7303146A0
:1024F8004FF47A720023E4FB0701FEF735F8024631
:102508000B46154837F060FA2B6803F00703022BD7
:10251800D4D9124B0322CDE9016330463346094929
:10252800039400963CF03FFCC8E7CDE903430C4B0D
:1025380002220293002303491846CDE900333CF0F8
:1025480032FCC5E7BC300020B8B30500D1B30500A4
:10255800883A0500FCB305002839002063B405005B
:1025680019B405002DE9FF41274E336803F007032E
:10257800022B09D9254B0322029300233146184622
:10258800CDE900333CF02EFC214D0C21D5F810800C
:10259800AF68D8F80030284623F48053C8F80030D4
:1025A8003B681C4A9847041E12DA336859070BD057
:1025B8000C230393184B0293002301221846CDE9FC
:1025C800003311493CF00EFC204604B0BDE8F08110
:1025D800D8F80030DA044FF4805154BFFB683B69E7
:1025E800284698470028044606DA33685B07EBD08C
:1025F8000C230393094BDEE740F26760002137F0B4
:10260800A1FD0024E0E700BF2C30002085B40500C0
:10261800703A05000002020093B40500AFB405004B
:102628002DE9F0410C234FF0000892B00546CDE9A2
:102638000438344E30464FF0DBFF48B9284632495B
:1026480042F0A2F86FF01204204612B0BDE8F08103
:10265800B7683C685CB142460321304604ABA047EA
:10266800044638B12949284642F08EF8ECE76FF065
:102678005704F7E7D7F80080B8F1000F08D00246F2
:102688000721304604ABC047044620B12049EAE799
:102698006FF05704FAE73C213046FB689847044638
:1026A80008B11C49DFE7032130463B6906AA984771
:1026B800044608B11849D6E7072130463B690CAAF9
:1026C8009847044608B11549CDE70B9B2846039364
:1026D8000A9B13490293099B0193089B0093DDE928
:1026E800062342F035F8119B28460393109B0D49A9
:1026F80002930F9B01930E9B0093DDE90C2342F09C
:1027080027F8A1E7203C0500C5B40500D8B40500AA
:1027180001B5050029B5050042B505005DB5050000
:1027280077B505009EB5050030B5524887B03CF036
:10273800A5FB514C0546B8B923685B0711D04D4835
:102748003CF09CFB1B23059004934C4B0122039304
:102758004B4B2146CDE9015328462B4600953CF0CA
:102768006AFB4FF0FF3078E046483CF04AFB00280F
:102778001ADA23685D0711D042483CF042FB1C235B
:1027880004933E4B059003933D4B01220293002393
:1027980021461846CDE900333CF04DFB394807B0D7
:1027A800BDE830403CF02DBB32483CF067FB0546A5
:1027B80040B923685807D4D02E483CF05FFB1D234E
:1027C8000590C1E730483CF01CFB002816DA236866
:1027D800590711D02C483CF014FB1E230493274BB7
:1027E80005900393264B01220293002321461846A5
:1027F800CDE900333CF01FFB2348D0E71D483CF0EF
:102808003DFB054640B923685A07AAD019483CF051
:1028180035FB1F23059097E71C483CF0F2FA002887
:10282800236815DA5B0711D018483CF0EAFA202330
:102838000493124B05900393114B0122029300233A
:1028480021461846CDE900333CF0F5FA0F48A6E7D3
:1028580003F00703022B02D8002007B030BD0C4B51
:1028680003220293002321461846CDE900333CF0A9
:10287800E2FAF1E7883A0500D4300020DDB505001A
:102888009BB20500C04B0500B84B0500B04B0500D6
:10289800F8B50500014601483CF0DCBAC04B05001C
:1028A800014601483CF0D6BAB84B0500014601483C
:1028B8003CF0D0BAB04B050010B50C46ADF5267DFE
:1028C8000A46ADF81410023401460DF1160050F016
:1028D80044FD22460B4805A941F07DF984420DD9F3
:1028E80009490B6813F0060F08D0084B022202931F
:1028F80000231846CDE900333CF0D7FA0DF5267DC4
:1029080010BD00BFD0230020E030002005B6050030
:10291800B1F5207F1FB50B4610D90B490A6852073D
:1029280009D00393094B0122029300231846CDE9ED
:1029380000333CF0BAFA05B05DF804FB05B05DF869
:1029480004EBFFF7B9BF00BFE03000202DB605004B
:1029580070B51F4D1F4C204EADF5267D40F28222EA
:10296800284605A941F087F9022804D8002121202A
:1029780037F0E8FBF2E7BDF81410B1F5207F03D873
:102988008B1C1BB283420DD9236813F0060FE5D0C8
:102998000023022221461846CDE9003302963CF076
:1029A80084FADBE70DF1160001F04AFF0028D5D0C4
:1029B80023685B07D2D0094B0390029300230122BE
:1029C80021461846CDE900333CF06FFAC6E700BF50
:1029D800D0230020E030002047B6050065B605008A
:1029E80038B5124B1B789BB1114A137883F0010359
:1029F80013706BB10120FFF753FF0E4B1D784DB1DB
:102A08000020FFF747FFBDE838400020FFF74EBF22
:102A18000020F0E7084B01201C78002CF1D0FFF7CC
:102A280045FF2846BDE83840FFF734BFDFC1022024
:102A38008C6B0120926B012013680220F0B59E4D2B
:102A480089B02B6803F00703022B4DD900249B4B58
:102A580003220293294623462046CDE900443CF050
:102A680024FA2B6803F00703022B3DD9944B032269
:102A78000393944B2946CDE901432046234600940D
:102A88003CF013FA2B6803F00703022B2CD98E4B6A
:102A9800032203938D4B2946CDE901432046234663
:102AA80000943CF002FA2B6803F00703022B1BD9B1
:102AB800874B03220393874B2946CDE901432046E0
:102AC800234600943CF0F1F92B6803F00703022B2E
:102AD8000AD9814B0322CDE90143294623462046E2
:102AE800039400943CF0E1F900247C4F23462246ED
:102AF80021462046CDE9004402973CF0D6F92B68E0
:102B080003F00703022B17D9754E234603222046EC
:102B1800CDE90146684900943CF0C7F92B6803F0F9
:102B28000703022B08D9234603222046CDE9014694
:102B3800614900943CF0B9F9FFF7F6FD044680B10D
:102B48002B685B070AD0674B039002930023CDE9FB
:102B580000330122184658493CF0A7F9204609B02D
:102B6800F0BD0120FFF796FE4FF416703CF0ACF96B
:102B78002046FFF78FFEC8203CF0A6F90120FFF79A
:102B88008FFE4FF416703CF09FF92046FFF788FE41
:102B9800C8203CF099F90120FFF788FE4FF4167021
:102BA8003CF092F92046FFF781FEC8203CF08CF9F2
:102BB8000120FFF76FFE0120FFF772FE0120FFF7EB
:102BC80075FE4FF416703CF07FF92046FFF762FE61
:102BD8002046FFF765FE2046FFF768FE2B6803F0E6
:102BE8000703022B09D9404B0322CDE901432046B4
:102BF8002346314900943CF058F9FEF7E1FD0446BC
:102C080028B12B685F07A9D0384B03909DE7FEF7E2
:102C1800CDFD044628B12B685E079FD0344B039046
:102C280093E7344B02460146CDE900000293034680
:102C380006463CF03AF9FFF7E9F82B68044640B13C
:102C48005D078BD02C4B0390CDE90163009633468A
:102C58007FE703F00703022B08D9284B0322CDE9AD
:102C680001031549034600903CF01FF90024FFF7C3
:102C780001F92346224621462046CDE90044029721
:102C88003CF013F92B6803F00703022B09D91C4BFE
:102C98000322CDE9014320462346074900943CF02E
:102CA80004F9FFF771FB2B68044668B358073FF433
:102CB80055AF144B039448E7E03000207AB605007E
:102CC80086B605008AB6050094B605009AB60500D2
:102CD800B0B60500D0B60500E6B605002DD0050053
:102CE800F8B605000EB70500D8AE050031B70500E7
:102CF8004EB705006FB705009DB70500C2B70500C0
:102D0800D5B70500EDB7050003F00703022B17D967
:102D1800A64B0322CDE90103A549034600903CF0E8
:102D2800C4F82B6803F00703022B09D9A14B03222F
:102D3800CDE90143204623469D4900943CF0B5F86F
:102D480000244FF4FA70FFF785FB234622462146FC
:102D58002046CDE9004402973CF0A7F82B6803F021
:102D68000703022B09D9944B0322CDE901432046DE
:102D780023468F4900943CF098F80120FFF790FD16
:102D88000020FFF78DFD01F0B1FC044630B12B683F
:102D980059073FF4E3AE894B0390D6E60346024653
:102DA8000146CDE9010700903CF07FF82B6803F05D
:102DB8000703022B09D9824B0322CDE901432046A0
:102DC80023467B4900943CF070F80120FFF76EFD24
:102DD8007C48FFF76FF8FFF7CDF8044600B32B687F
:102DE8005A070AD0784B0390029300230122184611
:102DF800CDE900336E493CF058F80525734E30464E
:102E08003CF03EF8B0FA80F04009FFF74FFDC820CB
:102E18003CF05AF8013DF2D12846FFF747FD9DE600
:102E280000220023CDE906230623CDE90000CDE9E1
:102E3800020304904FF40062654B6649664836F019
:102E4800BFFE6649644836F0F9FD2046FFF72EFDBF
:102E58002346224621462046CDE9014700943CF00E
:102E680024F82B6803F00703022B09D95C4B0322D3
:102E7800CDE90143204623464D4900943CF015F81E
:102E88000120FFF707FD0120FFF70AFD00F092FA85
:102E9800044660B32B685B070AD0524B0390029339
:102EA800002301221846CDE9003341493BF0FDFFDC
:102EB80005254D4F4D4E38463BF0E2FFB0FA80F005
:102EC8004009FFF7E7FC30463BF0DAFFB0FA80F044
:102ED8004009FFF7E5FCC8203BF0F6FF013DEAD1C9
:102EE8002846FFF7D7FC2846FFF7DAFC36E6FFF757
:102EF800D1FC2046FFF7D4FC2B6803F00703022B14
:102F080018D93B4B0322CDE90143204623462849E3
:102F180000943BF0CAFF2B6803F00703022B09D982
:102F2800344B0322CDE9014320462346204900942F
:102F38003BF0BBFF32203BF0C7FF0120FFF7B6FC98
:102F48002B6803F00703022B09D92B4B03220293AA
:102F5800002317491846CDE900333BF0A6FF4FF48C
:102F68007A703BF0B1FF2B6803F00703022B09D9F5
:102F7800224B0322029300230D491846CDE9003362
:102F88003BF093FF0020FFF791FC2B6803F0070349
:102F9800022B7FF6E3AD1A4B032202930023044968
:102FA8001846CDE900333BF080FFD7E516B8050099
:102FB800E03000202DB805006BB8050086B8050084
:102FC800A9B8050019290000C0B80500C84B0500BC
:102FD80059290000D8800420503A0020DAB80500AA
:102FE800ECB8050008B90500D84B0500D04B050022
:102FF80027B9050047B905005BB905006DB905009B
:1030080082B905000146024882685268104700BF2D
:10301800903B05001FB5274C236803F00703022BDC
:1030280009D9254B03220293002321461846CDE9EE
:1030380000333BF080FF4FF4B01120483BF05CFFB9
:1030480068B1236859070AD01D4B039002930023E7
:1030580001221846CDE9003316493BF06CFF4FF4C6
:10306800803118483BF048FF68B123685A070AD0F6
:10307800154B03900293002301221846CDE9003333
:103088000C493BF058FF4FF4B01110483BF034FFA7
:1030980068B123685B070AD00D4B039002930023A5
:1030A80001221846CDE9003302493BF044FF04B041
:1030B80010BD00BFE8300020A6B90500E84B0500A8
:1030C800BEB90500E04B0500E4B90500F04B05006A
:1030D80009BA050030B52A4D85B02B6803F00703FF
:1030E800022B09D9274B03220293002329461846AD
:1030F800CDE900333BF01FFF4FF4D01122483BF0DD
:10310800FBFE68B12B6859070AD0204B0390029345
:10311800002301221846CDE9003319493BF00BFF83
:103128004FF480311A483BF0E7FE68B12B685A0724
:103138000AD0184B03900293002301221846CDE9C8
:1031480000330F493BF0F7FE4FF4D01112483BF023
:10315800D3FE044668B12B685B070AD00F4B039077
:103168000293002301221846CDE9003304493BF0BD
:10317800E2FEA42000213BF0EDFE204605B030BD64
:10318800E83000202CBA0500E84B050043BA0500DA
:10319800E04B050068BA0500F04B05008CBA050045
:1031A8002DE9F04F754C89B0236803F00703022B13
:1031B80009D9734B03220293002321461846CDE90F
:1031C80000333BF0B8FE6F4BD3E8AF3F1BBB226820
:1031D80002F00702022A08D96B4A1846CDE90132E3
:1031E8006649032200933BF0A6FE0020FFF70AFF82
:1031F80000280DDA23685B070AD0644B039002931A
:10320800002301221846CDE900335C493BF093FEC8
:1032180009B0BDE8F08F0120FFF7F4FE002812DAAC
:1032280023685D070AD05A4B0390029300230122BA
:103238001846CDE9003351493BF07DFEA42000211A
:103248003BF088FEBFE74FF47A72524800928368D9
:1032580000219D6806AA07ABA84705460020FFF78E
:10326800D1FE002D5ED1079BB3F5486F11D02268BF
:1032780012F0060F0DD04FF44862CDE90332464BE9
:103288000222CDE9015328462B463C4900953BF0E4
:1032980052FEDDE906A600257608B54221D205F5DD
:1032A800A079B14594BF4FF4A078A6EB05080AEBC6
:1032B800450541462846FEF703FE00274FF0050B5B
:1032C80070B30137062F236812D1590709D0334B41
:1032D80001220293002329491846CDE900333BF027
:1032E8002AFE06992E484FF05BFA002306936AE7F8
:1032F80013F0060F0BD02B4B022202930023CDE9CB
:10330800037B1846CDE900331C493BF014FE4220EC
:1033180000213BF01FFE41462846FEF7D1FDCFE7CE
:103328004D46BAE715F10B0F23680DD113F0060FC0
:1033380084D01D4B0293002302221846CDE90033A6
:103348000E493BF0F8FD79E715F1740F05D113F03C
:10335800060F3FF473AF154BECE75A070AD0144B2E
:1033680001220293002305491846CDE9003303954D
:103378003BF0E1FD40F6CD4061E700BFE8300020BA
:10338800AEBA0500D48C0020C7BB0500E2BB05001F
:10339800C9BA0500903B0500EABA05003FBB050025
:1033A8008831002016BB050062BB05009EBB0500E6
:1033B800B2BB050070B588B0404E414D30464FF065
:1033C80017F9034678B92A68510709D0326829469F
:1033D80003923C4A0090CDE9010201223BF0ABFD8B
:1033E8006FF0120411E0FFF775FE044680B12B68F8
:1033F8005A070AD0344B039002930023012229462E
:103408001846CDE900333BF096FD204608B070BD64
:103418002E49B36848611B6830469847061E2B68DA
:1034280010DA5B070AD02A4B0122CDE9014329466D
:1034380023462046039600943BF07DFDFFF7EAFD06
:103448003446E2E703F00703022B09D9214B032294
:10345800CDE9014329462346204600943BF06BFD05
:1034680001221D4BD3E8EF1FC3E8E02F0028F9D154
:10347800002200230026CDE9062307234FF400622B
:10348800CDE90336CDE90166144B15490096154878
:1034980036F096FB1449134836F0D0FA2B6803F03F
:1034A8000703022BB1D9114B0322CDE90163304642
:1034B8003346034900963BF03EFDA6E7903B0500E6
:1034C800E830002007BC050020BC0500F0230020E0
:1034D80047BC05006BBC0500D48C0020A931000056
:1034E800D8880420483B00208FBC05009BBC050001
:1034F8007FB5002405460E462222094901A8CDE9D8
:1035080001448DF80C400DF0FFFE3246294601A813
:103518000DF0FAFF01A80DF0ADFF204604B070BD14
:103528001568022010B5C6B03BF025FD04462021E1
:103538000F4B104A009010483AF07CF920464FF0A3
:10354800E2FE0D4804A90EF027F878B10B490B6884
:103558005B0708D00A4B0122029300231846CDE9E5
:1035680000333BF0F9FC002046B010BD4598FBE75E
:10357800CBBC0500D1BC0500356802200C31002009
:10358800EEBC050030B5002489B00322264905A801
:10359800CDE905448DF81C400DF0B6FE0028234DFA
:1035A80011DA2B6859070AD0214B0390CDE9014362
:1035B800012223462946204600943BF0CDFC4FF0DB
:1035C800FF3009B030BD2246214605A80DF0C0FFE6
:1035D800002805DA2B685A07F1D0164B0390E5E767
:1035E800042204A905A80DF06BFF002805DA2B6852
:1035F8005B07E4D0104B0390D8E705A80DF03AFF1D
:103608002B6803F00703022B0BD9049B03220393B7
:103618000A4B2946CDE901432046234600943BF056
:103628009BFC0498CDE700BF0CBD05000C310020C1
:103638001ABD050046BD05005CBD050072BD05004C
:10364800014B1878704700BF1468022005480369C9
:103658001B689B0583684FF4007154BFDB681B69C6
:10366800184700BF703A0500054802698168136869
:1036780023F4007313600B684FF4003209211847D4
:10368800703A05002DE9F74F3E4B06461B789146E8
:1036980043B93D4941F078F84FF0FF34204603B074
:1036A800BDE8F08F022905D8384941F06DF86FF070
:1036B8001504F3E70022D9F8040011463AF05CF942
:1036C8008046D9F80800FDF7F4F8470838464FF067
:1036D80021FE0546E8B1002400F1FF3A4FEA470B06
:1036E800A3454FF000031BD1DFF8B090FFF7BCFFF4
:1036F800FFF7ACFF0121484609F0F6FB041E23DA68
:1037080030462246224941F03FF828464FF0FBFD5B
:10371800C4E730461F4941F037F86FF00B04BDE7A6
:10372800D9F8082001A8115D22448DF804105278B8
:1037380000218DF8052010228DF806303AF01CF98A
:1037480002340AF8010FCBE7D9F808302A465C683A
:1037580041463B464846A047041E0CDA22463046FE
:103768000D4941F011F828464FF0CDFD00210B48D6
:1037780009F0BAFB92E743463A463046084940F01A
:10378800E7FFF0E7566802208ABD0500A8BD0500DE
:10379800DCBD0500C1BD0500F9BD0500A83B05005D
:1037A80018BE050030B51E4B05461B7885B03BB9E1
:1037B8001C4940F0E9FF4FF0FF34204605B030BD0A
:1037C800FFF752FFFFF742FF0121174809F08CFB72
:1037D800021E03DA2846154940F0D6FF12488368CE
:1037E8009B696BB103A99847041E0CDA2246284648
:1037F8000F4940F0C9FF00210B4809F075FBDCE7D1
:103808006FF08504F2E79DF80E30284600939DF886
:103818000C209DF80D30074940F09AFFEBE700BFF8
:10382800566802208ABD0500A83B0500DCBD0500DE
:1038380032BE050050BE05002DE9F0432C4B07466B
:103848001B78144685B043B92A4940F09DFF4FF0D4
:10385800FF34204605B0BDE8F083022905D8264983
:1038680040F092FF6FF01504F3E7002260681146FC
:103878003AF082F8002206461146A0683AF07CF831
:103888000546FFF7F1FEFFF7E1FE01211B4809F0AD
:103898002BFB041E1BDBDFF864909DB1102DA8469E
:1038A80028BF4FF01008D9F808306A461C6831461E
:1038B80043461248A047041E0FDA224638461049EC
:1038C80040F062FF00210D4809F00EFBC1E72246D7
:1038D80038460C4940F058FFBBE7314643466A4634
:1038E80038460AF01DFD4644A5EB0805D5E700BF9C
:1038F800566802208ABD05006ABE0500A83B05007F
:1039080085BE0500DCBD0500F0B51346294A05460D
:10391800127885B03AB9284940F036FF4FF0FF34A5
:10392800204605B0F0BD012905D8244940F02CFFF8
:103938006FF01504F4E70022586811463AF01CF8B5
:103948001F4F0646FFF790FEFFF780FE012138461D
:1039580009F0CAFA041E05DA22462846194940F039
:1039680013FFDDE73146384601AA4AF0FAFA041E89
:1039780009DA22461449284640F006FF002110487B
:1039880009F0B2FACCE7029ABB689B683BB13146B2
:1039980038469847041E05DA22460C49EBE76FF0D3
:1039A8005704F9E733462846029A094940F0D0FE01
:1039B800E4E700BF566802208ABD0500A5BE0500E1
:1039C800A83B0500DCBD0500BEBE0500E2BE050043
:1039D800FEBE05001FB501220B46144993420A702A
:1039E8001349086800F007000DD1022808D9114BC7
:1039F8000293002303221846CDE900333BF0FAFA7C
:103A080005B05DF804FB23B90228F9D90A4A0292E5
:103A1800F0E70028F4D00393084B029300231846DC
:103A2800CDE900333BF0E6FAEAE700BF5D68022023
:103A3800343100208AB00500AEB00500D5B00500CD
:103A48002DE9F047944F98463B68814603F00703F9
:103A5800022B154688B01BD90024904B03220293F1
:103A6800394623462046CDE900443BF0C3FA3B687B
:103A780003F00703022B0BD92B7803220393884BFF
:103A88003946CDE901432046234600943BF0B2FA7B
:103A98000023B8F1060F8DF81C3012D0B8F1020FD0
:103AA8006AD03A6802F00702022A08D97D4A0093D0
:103AB800CDE901320322184677493BF09BFA0625E7
:103AC80026E0D5F8024095F800A06E7824BA0025C3
:103AD800754B2A46029329462B462846CDE90464AD
:103AE800CDE90055CDF80CA03BF084FA002E48D162
:103AF8003B6803F00703022B09D96C4B0096CDE90C
:103B0800016333460322184663493BF073FA0325E1
:103B18003B688DF81C5003F00703022B1CD90024C6
:103B2800634B0322029320462346CDE900445A49B9
:103B3800CDF80C803BF05EFA3B6803F00703022BDC
:103B48000AD95C4B0322CDE901432046234652495A
:103B5800039500943BF04EFA574B07AA196848465C
:103B6800012314313BF031FA4FF4FA703BF051FA6B
:103B7800404608B0BDE8F0871C4695F800A06E786E
:103B8800A5E74E4B3A68197802F00702B14207D20E
:103B9800022ABCD94A4B0095CDE901532B46B1E71F
:103BA800BAF1030F08D80AF1FF3ABAF1020F0FD899
:103BB800DFE80AF064686A00BAF1320F69D0022AB5
:103BC8007FF67DAF3F4B0095CDE901532B4671E75A
:103BD8003D4B701EB14253F820301BD1022A09D93F
:103BE8003A4B0322029300232B491846CDE90033B0
:103BF8003BF000FA4FF4DC72B4FBF2F302FB134320
:103C0800334AE31A1360334B1E70334B01221A7088
:103C180000257DE763B9022A08D9304A1846CDE95C
:103C280001321D49032200933BF0E4F904256FE7B4
:103C38009C420DD9022A09D9294B03220293002359
:103C480015491846CDE900333BF0D4F905255FE75F
:103C5800022A09D9234B0322029300230E4918464E
:103C6800CDE900333BF0C6F94FF4DC72B4FBF2F354
:103C780002FB1343E41A164B1C60C4E71A4B1E7070
:103C88001A4BC3E71A4BC1E700221A4B1A601A4BAA
:103C9800BCE71A4B1D70BBE7343100208CBF050010
:103CA800AABF0500B8BF0500C8BF0500FCBF0500D6
:103CB80095C00500B1C005002424002055680220E5
:103CC80011C0050083C00500D88C002024C0050061
:103CD800E48C0020722F00205C6802203DC00500A3
:103CE8004CC0050068C00500596802205A680220C7
:103CF80058680220E08C00205B6802205768022088
:103D0800F0B5044687B00A2016461F460D463BF01C
:103D180080F90A4B29461A685B68049205930823C0
:103D2800029304AB0193BDF830303246009320462D
:103D38003B4645F07EFD07B0F0BD00BFD88C0020A3
:103D4800F8B50446204E30464EF052FC30B9326881
:103D58001E49204640F018FD0020F8BD33F046FE0D
:103D680020461B4A1B4940F0F3FC1B4D1A212A69C7
:103D7800AF681368284643F0806313603B68174AAE
:103D88009847021E01DA1649E3E7BF6957B14FF4B5
:103D980080024FF000731A212846B847021E04DA41
:103DA8001049D6E76FF05702FAE720460E4940F06F
:103DB800CFFC0021304609F097F8021E01DA0B49C2
:103DC800C7E73FF071FD00BFD03A0500BDC0050050
:103DD800D5C00500E1C00500883A050011000100C2
:103DE800F7C005001FC1050051C1050081C10500CC
:103DF800BFF34F8F0549064BCA6802F4E0621343CC
:103E0800CB60BFF34F8F00BFFDE700BF00ED00E0C0
:103E18000400FA051FB500230E4A0F4913700F4A14
:103E2800044613700A6802F00702022A07D90C4AEE
:103E38001846CDE90132009303223BF010F92046E1
:103E480013F0AAFE0023074A1360074A138004B040
:103E580010BD00BF136802203C3100205D680220BD
:103E6800B1C10500208D0020686901201FB5114CE3
:103E780040F28222214610483FF0FDFE40F28222A5
:103E88000E4B9042186010D00D490B685B0709D0A3
:103E98000C4B03900293002301221846CDE900330E
:103EA8003BF0DDF8002004B010BD228801201A6024
:103EB800F9E700BF1D6F0220E88C0020088D002064
:103EC8003C310020C8C1050010B588B00DF11E00B6
:103ED800FDF716FC88BBBDF81E100DF11D003AF069
:103EE8001CFF044648BB9DF81D3002460493BDF8EC
:103EF8001E3001460393184B0090CDE90103034699
:103F08003BF0ADF89DF81D0009F07CF868B1134945
:103F18000B685A0709D0124B0390CDE901430122DF
:103F28002346204600943BF09AF84FF4F0220023F1
:103F38000C4835F07DFD08B010BD08490B685B07DB
:103F4800F3D0094B0122029300231846CDE9003330
:103F58003BF085F8E9E700BFFCC105003C310020D3
:103F68001EC20500F02000203FC2050070B51E4D9E
:103F78000E462B6886B003F00703022B30D90024C5
:103F88001A4B03220293294623462046CDE90044D2
:103F98003BF065F82B6803F00703022B20D97388E0
:103FA80003220493338829460393114B2046CDE915
:103FB8000143009423463BF052F82B6803F00703B3
:103FC800022B0DD9F38803220493B388294603935F
:103FD800084B2046CDE90143009423463BF03FF8C7
:103FE800012006B070BD00BF3C3100205CC2050056
:103FF80095C20500C0C205002DE9F041144D984650
:104008002B680E4603F00703022B174686B01CD90F
:104018000024104B03220293294623462046CDE96B
:1040280000443BF01CF82B6803F00703022B0CD963
:10403800094B0322CDE90143294623462046CDE911
:104048000478039600943BF00AF806B0BDE8F081C6
:104058003C310020D9C20500F8C2050010B50C4655
:104068000E4988B00B6803F00703022B10D9E388C8
:1040780003220693A38805936388049323880393F4
:10408800074B029300231846CDE900333AF0E7FFC7
:104098002288044B1A8008B010BD00BF3C310020B4
:1040A80023C3050068690120F0B50F4617491C466F
:1040B8000B68064603F00703022B154687B008D99C
:1040C800134B0322029300231846CDE900333AF03C
:1040D800C6FF012C07D12B78062B13D1A8220D4B34
:1040E8001A77FFF785FE022C0CD12B78012B09D10A
:1040F800102239468DF8172030460DF117023AF094
:1041080099FFEBE7204607B0F0BD00BF3C31002027
:1041180064C3050000550050F0B50D4610491F4610
:104128000B68044603F00703022B164685B008D92E
:104138000C4B0322029300231846CDE900333AF0D2
:104148008EFF0023CDE90133BDF8283032460093B5
:1041580029463B46204645F06CFB05B0F0BD00BF44
:104168003C31002084C305001FB50B461349012BC1
:104178000A6802F007020DD1022A08D9104B0293EF
:10418800002303221846CDE900333AF068FF05B052
:104198005DF804FB23B9022AF9D90A4A0292F0E72A
:1041A800022AF4D90393084B0322029300231846EA
:1041B800CDE900333AF053FFE9E700BF3C31002076
:1041C8008AB00500AEB00500D5B00500F0B51646BA
:1041D80014220D4611491F460B6887B003F00703E8
:1041E800022B04468DF8142009D90D4B0392029333
:1041F800002303221846CDE900333AF030FF0123AB
:10420800029305AB0193BDF830303246009329463E
:104218003B46204645F00DFB07B0F0BD3C31002081
:10422800A3C3050070B50546012692B028220021D7
:1042380008A84FF0B9F84D4B284608A91E7014F08D
:1042480043F94B4C10F0FF0322680ED052070AD0F6
:104258000393484B32460293002321461846CDE982
:1042680000333AF0FCFE12B070BD02F00702022AD9
:1042780008D9414A2146CDE9013218460322009364
:104288003AF0EDFE284644F0B8FA3C4B1860109B13
:104298001A883B4B1A80236803F00703022B5BD96B
:1042A8000025384B0322029328462B46CDE90055BA
:1042B8002F493AF0D4FE236803F00703022B4BD9A9
:1042C800BDF8383003220593BDF8363028460493EC
:1042D800BDF83430264903932B4B0095CDE90153A3
:1042E8002B463AF0BCFE236803F00703022B33D9B0
:1042F80000250F9A284613785278042B96BF234935
:10430800234B51F82330042A96BF2049204A51F8FC
:104318002220CDE90055CDE903321E4B032202933A
:1043280013492B463AF09BFE236803F00703022B40
:1043380012D9109B2846DA880D4906929A88059268
:104348005A8804921B8803220393134B0095CDE9E6
:1043580001532B463AF083FE40F6CD4200230F4826
:1043680035F032FB01220E4B1A707CE75D680220A3
:104378003C310020CEC30500F5C30500208D002088
:104388006869012009C405001DC40500B44C050076
:10439800C6C3050044C4050023C30500F02000205F
:1043A800136802202DE9F843FFF760FD0646F8B1CF
:1043B800DFF87C801B4FD8F800203B88D1B24D1C19
:1043C8005FFA85F953FA85F5B5F5DC7F164C12DBF3
:1043D800E15420464FF4DC71FFF78AF82046D8F8FC
:1043E8000020124900F8012BA7F800904EF0B5FF05
:1043F8003046BDE8F88340F2B71C581C6545E154C7
:1044080020440A4909D14EF0A8FF00234FF4DC717B
:1044180020463B80FFF76CF8EAE74EF09EFF3D80B0
:10442800E6E700BF64690120606802201F6F022070
:10443800088D002010B50120FFF774F8024C2060A9
:10444800FFF7A0F8606010BDD88C00202DE9F04F70
:1044580089B04FF48040002135F074FE8F4B904DA9
:104468001C68DFF880B234B32B7833B940F6CD40FE
:10447800002135F067FE01232B70204644F0BDF97A
:10448800BBF800300646632B40F2D680002800F0C7
:10449800C480844B01221968143145F09DFA002824
:1044A80000F0BE80FFF7E2FC002840F0B080304604
:1044B80013F072FBCCE0BBF800207B4B632A1B781F
:1044C8002C7000F2AA80002B40F0C280774B5B680A
:1044D80013F1011F00F2BC8000264FF0FF324FF0AD
:1044E800FF33734834F0FEFEFFF7AAF8002840F0C7
:1044F800B2806F4834F06EFFA7E003F00703022B89
:1045080008D96C4B0322CDE901036B49034600909F
:104518003AF0A5FD0AF1010A684B5FFA8AF11A68B8
:104528004245C4D9BBF80050A2EB0802033D9542AE
:1045380028BF1546624889F80210038861495C1C47
:104548005D4F048089F8003041441B0A2A465E48C2
:1045580089F801304EF001FF3B68A84403F00703D7
:10456800022B0BD9EB1C0393584B03220293002315
:1045780039461846CDE900333AF071FDEB1C9BB281
:104588000793484B4A4619683046079B14313AF05E
:1045980051FD3B6804460028AFD05B0710D04C4B58
:1045A8000122029300230390CDE9003318464249C3
:1045B8003AF055FD3A68002302F00702022A07D8AC
:1045C800212000210C3435F0BDFD012CA2D8D8E7FC
:1045D800404A1846CDE90132374903220394009333
:1045E8003AF03DFD3A6802F00702022AE8D90023B2
:1045F800EA1C0492BBF8002018460392364ACDE91B
:10460800003302922C4903223AF029FDD8E74FF0F3
:10461800000ADFF8D490D0467EE7234B1B7852E798
:10462800214B1B78002B7FF442AF204B5B6813F1C2
:10463800011F3FF63CAF50E71B4B1B782BB91B4BB8
:104648005B6813F1011F7FF648AF002E7FF42FAF90
:1046580035F0F6FC02E7FFF7A5FE0446144834F0EF
:10466800B9FE002CF1D01D4C23780133DBB2FF2BAF
:104678002370EAD1FFF7DEFE00230F4923700A6892
:1046880002F00702022AE0D9154A1846CDE901329C
:10469800009303223AF0E3FCD7E700BF208D002007
:1046A8005E6802209C2500205D680220D88C0020CE
:1046B8000C8D002096C405003C310020088D002098
:1046C800666901201F6F02201B6A022059C4050079
:1046D8007CC40500A8C40500C7C405005F680220A3
:1046E800E0C4050068690120186A022070B53F48D7
:1046F8008EB013F03BFE002011F082FC3C4E0446C5
:10470800336878B15A070AD03A4B01220293002342
:104718003146CDE90033039018463AF0A0FC204614
:104728000EB070BD03F00703022B08D9324B0322E9
:10473800CDE901033146034600903AF090FC4FF46E
:10474800A07200212D484EF02FFE2D4815F092FF43
:104758002C4D2D4815F08EFF09AC2C4815F08AFF1A
:104768000FCD0FC42B68032223600223284900932E
:1047780009A8284B12F086FC3368044650B15B0741
:10478800CDD0254B0122029300231949CDE90033EE
:104798000390C1E703F00703022B08D91F4B03223C
:1047A800CDE901031249034600903AF058FC45F25E
:1047B80040031B4AD3611B4B13600023C2E9023339
:1047C800C2E9053353601361002000210722CDE9B7
:1047D8000601CDE90232CDE9003304934FF480524B
:1047E800114B1249124835F0EBF998E7542600208E
:1047F8003C310020E9C4050012C5050060680220AC
:1048080024240020704705009C2500201425002042
:10481800D84C0500C84C050032C5050061C5050027
:10482800E88C00209F71022055440000D890042095
:10483800403C0020014B1868704700BF208D0020C5
:104848002DE9F84305460C46114E124FC1F30729CE
:1048580006F10208B4F5207F14D8224629464046BE
:10486800347086F801904EF078FD40F28222384686
:1048780007493FF0B0F940F28223984202D1002064
:10488800BDE8F8830021212035F05CFCE2E700BF99
:104898009B6C0220E88C00202DE9F84F15464A430E
:1048A8004FEA420B0C460BF1070121F0070100AF5C
:1048B800ADEB010D69464FEA450E43B99C46AB4244
:1048C80028DA002600EB430801EB4C091DE0144BE5
:1048D80003EB85080023AB421CDA002600EB430CEF
:1048E80009E058F82320BCF800A002FB0469F4444E
:1048F80021F819A00136A642F3DB0133EBE7B8F83B
:1049080000A0013629F802ABF044A642F7DB0133D8
:10491800A444D4E75A464EF020FDBD46BDE8F88FC2
:10492800E84C05002DE9F84F15464A434FEA420B7B
:104938000C460BF1070121F0070100AFADEB010DAB
:1049480069464FEA450E43B99846AB4228DA002635
:1049580000EB480901EB430C1DE0144B03EB850801
:104968000023AB421CDA002601EB430C09E058F89F
:10497800232002FB046930F819900136ACF8009046
:10498800F444A642F3DB0133EBE739F902AB013615
:10499800ACF800A0F444A642F7DB0133A044D4E706
:1049A8005A464EF0DAFCBD46BDE8F88FE84C0500E3
:1049B800B1F5807F024610B502D9B0FBF1F010BD09
:1049C8004B420B40B3FA83F3C3F12004C3F11F0336
:1049D800D840064B21FA04F453F82430A3FB0030E6
:1049E80000FB1122914298BF0130E8E7A46105005D
:1049F8002DE9F74FB2F1000A04460E46174618BFD4
:104A08004FF0010A8B464FF000081D460368D0F8A6
:104A18001C900093226A072A15DC62682ABBB8F149
:104A2800000F0CBF012302239A454FF0010808DA52
:104A38001DB1B6F900301B112B80012003B0BDE871
:104A4800F08FBB46E6E7009BA3B1BBF8001001223C
:104A5800C90B484601913CF041F90199226A083A8C
:104A680022626268002ADAD051B94FF48042ABF86A
:104A78000020D4E7012148463CF02DF80146EDE737
:104A8800004AF4E700C0FFFF2DE9F04F8BB0CDE9F5
:104A980005328368199E0793C36882460493436A64
:104AA800049A0893079BD0F800B01B6BD0F81080CD
:104AB80033F91250189BD0F81C9005EBC305159BD1
:104AC800149F1C68039168103EB3022F25D1394604
:104AD800103800FB01403AF0E2FA641BA4F11F030E
:104AE8009842A8BFA4F12000032823DCCEB1049B80
:104AF800434532DABBF1000F40F09B80484604F092
:104B080009F88046159B1B68102B04DDDAF8203065
:104B1800102B00F3FA81002685E07900043801396A
:104B2800D7E7BBF1000F1BD1484603F0F3FF8046DF
:104B38003446D8E04028A8BF4020C44B00F0070204
:104B480033F91240C010C0F10E000441013424F0C2
:104B580001053EB1049B434526DBBBF1000FCDD0D8
:104B6800012524E0BBF1000F21D1484603F0D2FF14
:104B7800179B8046012B65DC5C466E10731C03FB9B
:104B880003FABBF1000F00F06781A642C0F255811D
:104B980004FB0441621C4910534648460A4404F089
:104BA80001F82946A00353E0BBF1000F43D0DDE92B
:104BB8000510DAF82C30324600933B463EF0D2FA24
:104BC8000446484603F0A6FF012D804644D1002E36
:104BD80000F08980BBF1000F94D0B4F5005F40F37A
:104BE8009281DAF83430002B40F08D81059A023A30
:104BF800BB42C0F28281DDE90521049B079800933E
:104C08000197089B80683AF056FA159B1B68102B91
:104C180081DDDAF82030102B7FF77DAF0222314694
:104C280048463CF036F8DAF83440002C5BD00026D1
:104C38007EE73546BBE7484603F06CFF022F804607
:104C480000F3C980691C48463BF074FF294680037D
:104C5800FFF7AEFE044645E005FB04F396B1DAF82B
:104C68003020002A40F0928003F50053022F4FEACB
:104C7800A33410DC179B012B00F38280BBF1000FDB
:104C88007ED1DFE703F500539C13DAF83830002BA8
:104C98004DD1179B71E005EBD57A4FEA6A0A0AF104
:104CA800010202EB42020AEB02015445C5BF04F1BE
:104CB800FF30A0EB0A0004EB44008018C8BFA4EB47
:104CC8000A0A0B46D8BFC21C0146C8BF5244484610
:104CD80003F068FFA0032946FFF76AFE0446002E8A
:104CE80040F0E5800026484603F014FF159B159A0E
:104CF8001B68A0EB08055B1B1360002C40F00B81C0
:104D08000123A04647F6FF79169A514F93401A9A05
:104D1800013B12681A401A9B1A60039BC3E9006999
:104D2800C3E90287C3E904450BB0BDE8F08F002C46
:104D3800AFDDA542ADDD2946A003FFF739FE824667
:104D480000B23AF028FA0990CAF5804000B23AF069
:104D580022FA09993AF040FA4FF480427B1EDB01AF
:104D680013FB0020159BC2131B68B3EBE03F5EDB0F
:104D78005B4293428DDD3446179B012B7FF7FDAED6
:104D8800214648466A1C3BF0DFFFA3E7B4F5005F05
:104D9800CCBF47F6FF742F4C94FBF5F41C44A413C6
:104DA80024EAE474AC42A8BF05F1FF34002A00DB12
:104DB8000134022F7FF762AF05EBD57A4FEA6A0A12
:104DC8000AF1010303EB430202EB0A01BBF1000FF6
:104DD8007FF46BAF07E04FEA640A0AF1010303EBC3
:104DE800430202EB0A014846CDE90532049103F07B
:104DF800ABFEDDE90413069A8242C7BF032390FB8A
:104E0800F3F4841AE418A245BBBF04F1FF30A0EB09
:104E18000A0004EB440080180B460146B6BFA4EB19
:104E28000A0AC21C524448463BF032FEB9E6179BB8
:104E38002C46012B3FF722AF9FE66A1CA91C121BC8
:104E4800091B5143AAEB6101A6E600BFC08A050011
:104E580000C0FFFF0180FFFF51464846049303F05E
:104E680073FE049B5E43B0EB660F0CDAC0000130A2
:104E78003CF067FC441E640804FB0441621C4910B2
:104E880053460A44CFE7AAEB0000C00007383CF0BD
:104E980058FC6C1C2246C0EB4400A91CA2EB500233
:104EA800A1EB500151434408AAEB6101E8E7C8B1FE
:104EB800002145F6822C069B9D1E059B981E8F425D
:104EC8007FF710AF35F8022F30F8023F1CFB02F2D3
:104ED8001CFB03F3D6189B1AF613DB132E800380F2
:104EE8000131ECE7049B079800930197089B8068C1
:104EF800DDE905213AF0DFF8F4E632F8021F013364
:104F08004942118074E6002675E6022148463BF0C6
:104F1800D0FD064687E6B4F5804F0FD10123169AD7
:104F280027469340013B93401A9A47F6FF78126848
:104F38004FF000091A401A9B1A60EEE620B23AF0C8
:104F48002AF98146C4F5804000B23AF024F949466E
:104F580080463AF041F94FF48043013FFF0117FBC7
:104F68000037FF13D9E600BF2DE9F04F044699B08A
:104F78008B461146BDF99420249808922268D4F8EB
:104F88000C800D92A2681193099262690A92E269F3
:104F98000B92099AD2F85CC0421C0C92099A956847
:104FA800926D00FB0555454432F915A0421C1CF8CA
:104FB8000A500CEB0A0900F0EB8019F805200C32B6
:104FC8009A4280F2E580022940F3E28021F001064E
:104FD8000BEB06030B93229B00F1FF38012B08BF54
:104FE800269A4FEA610902BF02F0010343EA42032D
:104FF8002693229B5A4601334FEA630A26AB06934F
:105008000023CDE90483229B2046CDE902A311ABFE
:10501800CDE9009312A90B9BFFF736FDDDE9155387
:105028000993BDF94C30179A0D93BDF950300E9382
:10503800229B012B15DD099BC3F30D038BB1099B43
:10504800B3F5005FDBBF4FEAC903C8F10501C8F13A
:1050580004030B41CBBF45FA03F35B19ED1A03EACE
:10506800E375119F236A7D1B05EBD5756D10BD4255
:10507800A8BF3D469B1A0A932362239B25EAE57540
:105088007F1B002B48D01E44269BBD420C9343FA3D
:105098000AF30F93229B4FEA63031093089B3DDBAF
:1050A8000D9A13FB02F303F5804343F3CF330C9AB5
:1050B800CDE90283239B5946CDE900A304922B46F0
:1050C8004A462046FFF750FF236A0A9A8346D31AB6
:1050D800EB1A182B03DD099A0AB1183B1F440E9AE4
:1050E800089B13FB02F30F9A03F5804343F3CF3376
:1050F800CDE9028304923B464A462046CDE900A604
:105108000B99FFF731FF109B00FA03F747EA0B07EB
:10511800384619B0BDE8F08F239EB5E70E9A13FB09
:1051280002F30F9A03F5804343F3CF33CDE90283AB
:10513800CDE900A63B46049220464A460B99FFF764
:1051480013FF109B0A9A00FA03F6236AD31AFF1A70
:10515800182F05DD099BB3F5804F1CBF183FED19CB
:105168000D9A089B13FB02F303F5804343F3CF33F7
:105178000C9ACDE90283239B0492CDE900A34A4609
:105188002B4659462046FFF7EFFE46EA0007BFE7E1
:105198000627002203F1FF3E50190130401019F88C
:1051A8000060B645D4BF05460246013FF4D119F860
:1051B8000500A0EB0E0022B9834226DD45B92A4638
:1051C8000BE019F80230AEEB030E8645F6DC154607
:1051D800D4441CF805302A465D1C236A5B1B002B4F
:1051E800236228DA9AB96368002B91D00125229BA3
:1051F8009D40269B013D2B402693002B43D14A001E
:10520800584619464EF0D0F882E71546E5E7099862
:105218002B4423620C9EC56D8068013A00FB068012
:10522800099EB66D36F91000DDD005EB020C1CF8AE
:1052380000500135D2E7002AD5D0072A06DD02F052
:105248000703D2100833013A03FA02F20D9B7BB12F
:10525800E36A5846049363680393089B02930B9B85
:105268000193229B00930A9B3DF0D6FE07464FE729
:10527800089B584602930B9B0193229B00930A9B21
:105288003DF00EFFF2E7239ABAB10022164D174EF1
:105298008A4216DB1D4609E0A36A00FB0363A3628A
:1052A8001B152BF8123001328A42F5DB5846E36AA7
:1052B800089A3DF024FF2F462AE7239A0A480B4E06
:1052C800F2E7A06A239F05FB006010F4004FA0627C
:1052D80014BF04206FF0030037F8127038442BF81D
:1052E80012000132D4E700BF0D6619005FF36E3C6F
:1052F8002DE9F04F16468FB00B931A9BDDE9184A3B
:105308000C931B9B621E0A93BDF9703006900D9397
:1053180003680F46DDE91D58089383692146079302
:105328005342534130460993FFF742FB012E83460F
:1053380008D1002239460A9B06980FB0BDE8F04F05
:10534800FFF756BB079B23EAE37985B1BAF1000F53
:105358000DD0002B05DC10F0010F00D10BB9012C8A
:1053680005DD5146284672004DF0F7FFAA46002594
:105378004D4557D10BFA09F54FF0000B44FA09F4E3
:10538800EB0703D4079B13EB0B0F6CD4012C14DD34
:10539800089B3BB13846099B04FA09F245FA09F122
:1053A800FFF77AFABAF1000F07D05046099B04FAC2
:1053B80009F245FA09F1FFF76FFA0D9BCDF8108055
:1053C80003930C9B3246CDE901A339460B9B069803
:1053D8000094FFF7C9FD069B80465B68F3B1012C7A
:1053E80007DD3846099B04FA09F245FA09F1FFF787
:1053F80099FA4FF0000AD3454DD100254FF0010B23
:10540800DFF8ECA04D4554D10A9B04FA05F5002BB2
:105418005AD10123AB40013B08EA030840460FB0CC
:10542800BDE8F08F089B3BB10123384603FA05F22B
:1054380046FA05F13AF0B1F8BAF1000F07D00123A6
:10544800504603FA05F246FA05F13AF0A6F8274B5A
:1054580008F00F024FEA28189A5C13F80880013503
:1054680042EA880884E7089B23B122462946384641
:105478003AF093F8BAF1000F04D022462946504674
:105488003AF08BF808FA04F348EA030864006D1050
:105498000BF1010B74E764106D0028FA04F322463F
:1054A8002946384648EA03080AF1010A3AF075F82D
:1054B800A1E70BFA05F246FA05F138461AF8088012
:1054C80001353AF06AF89DE7B0053CF07FF9002312
:1054D80000B2B3429DDA0A9937F8132010FB02F2A2
:1054E800D21321F813200133F3E700BFB5C5050037
:1054F800A5C505002DE9F04F9B46036895B00B93B1
:10550800C369BBF1010F06460D4614460A9307D13D
:10551800229BFFF76DFA8046404615B0BDE8F08F34
:105528001EAB53F8182F069301230593219B0C9269
:1055380004931F9B0A46CDE902331EABCDE900B3A5
:105548000EA92346FFF7A0FADDE911270E9BBBF150
:10555800020F0D93BDF93C3013990893BDF9403003
:1055680009931E9B40F09C809846326A002F69D1AF
:10557800A246A946521A326247F6FF720C9B049261
:105588000693239B02220593229B49460393219B62
:1055980030460293209B7F0001931F9B0093434654
:1055A800FFF7A6FEB9F802307A1E13FB02F3AAF839
:1055B8000030B9F80030C7F1010713FB07F3AAF868
:1055C800023073688046002BA6D02B88089A12FBFD
:1055D80003F3DB132B806B8812FB03F3DB136B8065
:1055E8002388099A099912FB03F36288DB1311FBDC
:1055F80002F2D213238062802A88D31A2B80238850
:105608001A4422806B8862889A1A6A8062881344D6
:1056180063807368002B3FF47FAF0D9B002B3FF432
:105628007BAF0023023C5B45BFF676AF34F8022F10
:10563800013352422280F6E7521AAA46A1460027B1
:10564800326299E7B7F5804FF6D0A3F10808083120
:105658000B9BB7F5005FA2EB0102D9BFA246A94692
:10566800AA46A1463262ABB1BAF80220B9F8007076
:10567800BAF8001017FB02F7B9F802200A9812FBD3
:1056880001F29742ACBF00270127012239463BF0BF
:1056980025FB71E701210A983BF01DFA07466BE7E5
:1056A800A3EB020909EBD9794FEA69099945A8BF23
:1056B800994629EAE979A3EB0908336A1F9A5B1A24
:1056C8000A933362249BC1450B9343FA02FA53DBD6
:1056D8000693239B0092059347F6FF730493229B3E
:1056E8005A460393219B29460293209B30460193F7
:1056F8004B46FFF7FDFD336A0A9A0B90D31AA9EBC4
:105708000303182B02DD0FB1183B98440023099AB4
:105718000593CDE90332219A2146CDE901321F9B39
:105728005A46009330464346CDF818A0FFF7E0FDEF
:105738000B9B43EA00087368002B3FF4EDAE002290
:10574800134611468B4550DC089933FB01F34FEAA9
:10575800610A1AFB0AFA9244AAEB83000AEB830A4D
:105768004C4B9A4501DD984249DC294620464FEAD0
:105778004B024DF0F2FD50E70023099A0593CDE95D
:105788000332219ACDF818A0CDE901321F9B5A4661
:105798000093214643463046FFF7AAFD336A0A9A2A
:1057A8008246D31AA8EB0308B8F1180F05DDB7F540
:1057B800804F1CBFA8F11808C1440B9B5A4606939A
:1057C800239B2946059347F6FF730493229B304693
:1057D8000393219B0293209B01931F9B00934B46AD
:1057E800FFF786FD4AEA0008A5E734F9110035F805
:1057F800116010FB0022013110FB0633A2E7B0FA5A
:1058080080F7C7F11F077F10FB1F5B00BAFA8AF603
:1058180018413BF0ACFFC6F11F0676108146F01F19
:1058280040004AFA00F03BF0A2FF012301370FFACB
:1058380087FE03FA07F747FA03F209900027104694
:105848001E440FFA86FA03FA06F61E41023DA4F139
:10585800020CBB457FF7E1AE35F8023F089A12FB10
:1058680003F33CF8022F03F58043C3F3CF33991AAF
:10587800134419FB01F1099A014412FB03F3334461
:1058880041FA0EF143FA0AF32980ACF800300137E7
:10589800DFE700BF247502002DE9F74F002643F625
:1058A800FF7E1468DFF898806442C4F30D0A4FEA5B
:1058B800A439546801906442C4F30D0CA4130D9AE2
:1058C800964202DB03B0BDE8F08F019A1D6832F9F9
:1058D80016700A6832FB07525D68920032FB0AFBB9
:1058E8004FEA6B3B0BF1010B05EB6B0532FB0CFB35
:1058F8004FEA6B3B32FB09550BF1010B1D60486801
:105908004FEA6B0B30FB07551D6032FB04B5724440
:105918005D60B2F1005F886830FB07555D604FEA53
:10592800A23508DA15F5004F08DB2AB20C9820F8E2
:1059380016200136C3E747F6FF72F7E74246F5E758
:105948000080FFFF2DE9F04F0226002543F6FF7E79
:10595800146852686442524285B0C4F30D0C44F393
:105968008F340394C2F30D0B42F38F380F9A95428C
:1059780002DB05B0BDE8F08F0A6830F8069030F811
:1059880025401F6832FB04749F6832FB0972DF6888
:10599800920032FB0CF94FEA693909F10109A400B8
:1059A80007EB690934FB0CFA5F684FEA6A3A01921F
:1059B8000AF1010A07EB6A07039A34FB0272019F96
:1059C8001A600292039A37FB0299C3F8089030F8DC
:1059D80025A04A68029F32FB0A771F6030F806A0AC
:1059E8004F68019A37FB0A9732FB0BF99F604FEA21
:1059F800693934FB0BF77F13013709F101097F106F
:105A08004FEA690934FB087732FB08995F60C3F8ED
:105A18000C90744430F825A08A68B4F1005F32FB1A
:105A28000A775F608F6830F806A037FB0A97DF6057
:105A38004FEAA43716DA17F5004F16DB3FB20E9A75
:105A480022F82570019A7244B2F1005F4FEAA2343D
:105A58000DDA14F5004F0DDB24B20E9A013594537C
:105A6800043683E747F6FF77E9E7034FE7E747F6AA
:105A7800FF74F2E7004CF0E70080FFFF2DE9F04FDC
:105A880095B0239DBDF97C70BDF980609C46129548
:105A98001E9B249D57EA0608964608938246DDE930
:105AA80021230C46019509D1814200F02A81089BE7
:105AB8009A0015B0BDE8F04F4DF05CBC71466046E9
:105AC8004FF0060C0F29B8BF0F210F28B8BF0F20C1
:105AD8000CFB02F8DFF868E30CFB03FC05900EEB07
